{"abi":[{"type":"constructor","inputs":[],"stateMutability":"nonpayable"},{"type":"receive","stateMutability":"payable"},{"type":"function","name":"cancelOrders","inputs":[{"name":"orderKeys","type":"bytes32[]","internalType":"OrderKey[]"}],"outputs":[{"name":"successes","type":"bool[]","internalType":"bool[]"}],"stateMutability":"nonpayable"},{"type":"function","name":"editOrders","inputs":[{"name":"editDetails","type":"tuple[]","internalType":"struct LibOrder.EditDetail[]","components":[{"name":"oldOrderKey","type":"bytes32","internalType":"OrderKey"},{"name":"newOrder","type":"tuple","internalType":"struct LibOrder.Order","components":[{"name":"side","type":"uint8","internalType":"enum LibOrder.Side"},{"name":"saleKind","type":"uint8","internalType":"enum LibOrder.SaleKind"},{"name":"maker","type":"address","internalType":"address"},{"name":"nft","type":"tuple","internalType":"struct LibOrder.Asset","components":[{"name":"tokenId","type":"uint256","internalType":"uint256"},{"name":"collectionAddr","type":"address","internalType":"address"},{"name":"amount","type":"uint96","internalType":"uint96"}]},{"name":"price","type":"uint128","internalType":"Price"},{"name":"currency","type":"address","internalType":"address"},{"name":"expiry","type":"uint64","internalType":"uint64"},{"name":"salt","type":"uint64","internalType":"uint64"}]}]}],"outputs":[{"name":"newOrderKeys","type":"bytes32[]","internalType":"OrderKey[]"}],"stateMutability":"payable"},{"type":"function","name":"eip712Domain","inputs":[],"outputs":[{"name":"fields","type":"bytes1","internalType":"bytes1"},{"name":"name","type":"string","internalType":"string"},{"name":"version","type":"string","internalType":"string"},{"name":"chainId","type":"uint256","internalType":"uint256"},{"name":"verifyingContract","type":"address","internalType":"address"},{"name":"salt","type":"bytes32","internalType":"bytes32"},{"name":"extensions","type":"uint256[]","internalType":"uint256[]"}],"stateMutability":"view"},{"type":"function","name":"filledAmount","inputs":[{"name":"","type":"bytes32","internalType":"OrderKey"}],"outputs":[{"name":"","type":"uint256","internalType":"uint256"}],"stateMutability":"view"},{"type":"function","name":"getBestPrice","inputs":[{"name":"collection","type":"address","internalType":"address"},{"name":"side","type":"uint8","internalType":"enum LibOrder.Side"}],"outputs":[{"name":"price","type":"uint128","internalType":"Price"}],"stateMutability":"view"},{"type":"function","name":"getNextBestPrice","inputs":[{"name":"collection","type":"address","internalType":"address"},{"name":"side","type":"uint8","internalType":"enum LibOrder.Side"},{"name":"price","type":"uint128","internalType":"Price"}],"outputs":[{"name":"nextBestPrice","type":"uint128","internalType":"Price"}],"stateMutability":"view"},{"type":"function","name":"getOrderKey","inputs":[{"name":"order","type":"tuple[]","internalType":"struct LibOrder.Order[]","components":[{"name":"side","type":"uint8","internalType":"enum LibOrder.Side"},{"name":"saleKind","type":"uint8","internalType":"enum LibOrder.SaleKind"},{"name":"maker","type":"address","internalType":"address"},{"name":"nft","type":"tuple","internalType":"struct LibOrder.Asset","components":[{"name":"tokenId","type":"uint256","internalType":"uint256"},{"name":"collectionAddr","type":"address","internalType":"address"},{"name":"amount","type":"uint96","internalType":"uint96"}]},{"name":"price","type":"uint128","internalType":"Price"},{"name":"currency","type":"address","internalType":"address"},{"name":"expiry","type":"uint64","internalType":"uint64"},{"name":"salt","type":"uint64","internalType":"uint64"}]}],"outputs":[{"name":"orderKeys","type":"bytes32[]","internalType":"OrderKey[]"}],"stateMutability":"pure"},{"type":"function","name":"initialize","inputs":[{"name":"newProtocolShare","type":"uint128","internalType":"uint128"},{"name":"newVault","type":"address","internalType":"address"},{"name":"EIP712Name","type":"string","internalType":"string"},{"name":"EIP712Version","type":"string","internalType":"string"},{"name":"owner","type":"address","internalType":"address"}],"outputs":[],"stateMutability":"nonpayable"},{"type":"function","name":"isSupportedCurrency","inputs":[{"name":"","type":"address","internalType":"address"}],"outputs":[{"name":"","type":"bool","internalType":"bool"}],"stateMutability":"view"},{"type":"function","name":"isWhitelistedCollection","inputs":[{"name":"","type":"address","internalType":"address"}],"outputs":[{"name":"","type":"bool","internalType":"bool"}],"stateMutability":"view"},{"type":"function","name":"makeOrders","inputs":[{"name":"newOrders","type":"tuple[]","internalType":"struct LibOrder.Order[]","components":[{"name":"side","type":"uint8","internalType":"enum LibOrder.Side"},{"name":"saleKind","type":"uint8","internalType":"enum LibOrder.SaleKind"},{"name":"maker","type":"address","internalType":"address"},{"name":"nft","type":"tuple","internalType":"struct LibOrder.Asset","components":[{"name":"tokenId","type":"uint256","internalType":"uint256"},{"name":"collectionAddr","type":"address","internalType":"address"},{"name":"amount","type":"uint96","internalType":"uint96"}]},{"name":"price","type":"uint128","internalType":"Price"},{"name":"currency","type":"address","internalType":"address"},{"name":"expiry","type":"uint64","internalType":"uint64"},{"name":"salt","type":"uint64","internalType":"uint64"}]}],"outputs":[{"name":"newOrderKeys","type":"bytes32[]","internalType":"OrderKey[]"}],"stateMutability":"payable"},{"type":"function","name":"matchOrder","inputs":[{"name":"sellOrder","type":"tuple","internalType":"struct LibOrder.Order","components":[{"name":"side","type":"uint8","internalType":"enum LibOrder.Side"},{"name":"saleKind","type":"uint8","internalType":"enum LibOrder.SaleKind"},{"name":"maker","type":"address","internalType":"address"},{"name":"nft","type":"tuple","internalType":"struct LibOrder.Asset","components":[{"name":"tokenId","type":"uint256","internalType":"uint256"},{"name":"collectionAddr","type":"address","internalType":"address"},{"name":"amount","type":"uint96","internalType":"uint96"}]},{"name":"price","type":"uint128","internalType":"Price"},{"name":"currency","type":"address","internalType":"address"},{"name":"expiry","type":"uint64","internalType":"uint64"},{"name":"salt","type":"uint64","internalType":"uint64"}]},{"name":"buyOrder","type":"tuple","internalType":"struct LibOrder.Order","components":[{"name":"side","type":"uint8","internalType":"enum LibOrder.Side"},{"name":"saleKind","type":"uint8","internalType":"enum LibOrder.SaleKind"},{"name":"maker","type":"address","internalType":"address"},{"name":"nft","type":"tuple","internalType":"struct LibOrder.Asset","components":[{"name":"tokenId","type":"uint256","internalType":"uint256"},{"name":"collectionAddr","type":"address","internalType":"address"},{"name":"amount","type":"uint96","internalType":"uint96"}]},{"name":"price","type":"uint128","internalType":"Price"},{"name":"currency","type":"address","internalType":"address"},{"name":"expiry","type":"uint64","internalType":"uint64"},{"name":"salt","type":"uint64","internalType":"uint64"}]}],"outputs":[],"stateMutability":"payable"},{"type":"function","name":"matchOrderWithoutPayback","inputs":[{"name":"sellOrder","type":"tuple","internalType":"struct LibOrder.Order","components":[{"name":"side","type":"uint8","internalType":"enum LibOrder.Side"},{"name":"saleKind","type":"uint8","internalType":"enum LibOrder.SaleKind"},{"name":"maker","type":"address","internalType":"address"},{"name":"nft","type":"tuple","internalType":"struct LibOrder.Asset","components":[{"name":"tokenId","type":"uint256","internalType":"uint256"},{"name":"collectionAddr","type":"address","internalType":"address"},{"name":"amount","type":"uint96","internalType":"uint96"}]},{"name":"price","type":"uint128","internalType":"Price"},{"name":"currency","type":"address","internalType":"address"},{"name":"expiry","type":"uint64","internalType":"uint64"},{"name":"salt","type":"uint64","internalType":"uint64"}]},{"name":"buyOrder","type":"tuple","internalType":"struct LibOrder.Order","components":[{"name":"side","type":"uint8","internalType":"enum LibOrder.Side"},{"name":"saleKind","type":"uint8","internalType":"enum LibOrder.SaleKind"},{"name":"maker","type":"address","internalType":"address"},{"name":"nft","type":"tuple","internalType":"struct LibOrder.Asset","components":[{"name":"tokenId","type":"uint256","internalType":"uint256"},{"name":"collectionAddr","type":"address","internalType":"address"},{"name":"amount","type":"uint96","internalType":"uint96"}]},{"name":"price","type":"uint128","internalType":"Price"},{"name":"currency","type":"address","internalType":"address"},{"name":"expiry","type":"uint64","internalType":"uint64"},{"name":"salt","type":"uint64","internalType":"uint64"}]},{"name":"msgValue","type":"uint256","internalType":"uint256"}],"outputs":[{"name":"costValue","type":"uint128","internalType":"uint128"}],"stateMutability":"payable"},{"type":"function","name":"matchOrders","inputs":[{"name":"matchDetails","type":"tuple[]","internalType":"struct LibOrder.MatchDetail[]","components":[{"name":"sellOrder","type":"tuple","internalType":"struct LibOrder.Order","components":[{"name":"side","type":"uint8","internalType":"enum LibOrder.Side"},{"name":"saleKind","type":"uint8","internalType":"enum LibOrder.SaleKind"},{"name":"maker","type":"address","internalType":"address"},{"name":"nft","type":"tuple","internalType":"struct LibOrder.Asset","components":[{"name":"tokenId","type":"uint256","internalType":"uint256"},{"name":"collectionAddr","type":"address","internalType":"address"},{"name":"amount","type":"uint96","internalType":"uint96"}]},{"name":"price","type":"uint128","internalType":"Price"},{"name":"currency","type":"address","internalType":"address"},{"name":"expiry","type":"uint64","internalType":"uint64"},{"name":"salt","type":"uint64","internalType":"uint64"}]},{"name":"buyOrder","type":"tuple","internalType":"struct LibOrder.Order","components":[{"name":"side","type":"uint8","internalType":"enum LibOrder.Side"},{"name":"saleKind","type":"uint8","internalType":"enum LibOrder.SaleKind"},{"name":"maker","type":"address","internalType":"address"},{"name":"nft","type":"tuple","internalType":"struct LibOrder.Asset","components":[{"name":"tokenId","type":"uint256","internalType":"uint256"},{"name":"collectionAddr","type":"address","internalType":"address"},{"name":"amount","type":"uint96","internalType":"uint96"}]},{"name":"price","type":"uint128","internalType":"Price"},{"name":"currency","type":"address","internalType":"address"},{"name":"expiry","type":"uint64","internalType":"uint64"},{"name":"salt","type":"uint64","internalType":"uint64"}]}]}],"outputs":[{"name":"successes","type":"bool[]","internalType":"bool[]"}],"stateMutability":"payable"},{"type":"function","name":"orderQueues","inputs":[{"name":"","type":"address","internalType":"address"},{"name":"","type":"uint8","internalType":"enum LibOrder.Side"},{"name":"","type":"uint128","internalType":"Price"}],"outputs":[{"name":"head","type":"bytes32","internalType":"OrderKey"},{"name":"tail","type":"bytes32","internalType":"OrderKey"}],"stateMutability":"view"},{"type":"function","name":"orders","inputs":[{"name":"","type":"bytes32","internalType":"OrderKey"}],"outputs":[{"name":"order","type":"tuple","internalType":"struct LibOrder.Order","components":[{"name":"side","type":"uint8","internalType":"enum LibOrder.Side"},{"name":"saleKind","type":"uint8","internalType":"enum LibOrder.SaleKind"},{"name":"maker","type":"address","internalType":"address"},{"name":"nft","type":"tuple","internalType":"struct LibOrder.Asset","components":[{"name":"tokenId","type":"uint256","internalType":"uint256"},{"name":"collectionAddr","type":"address","internalType":"address"},{"name":"amount","type":"uint96","internalType":"uint96"}]},{"name":"price","type":"uint128","internalType":"Price"},{"name":"currency","type":"address","internalType":"address"},{"name":"expiry","type":"uint64","internalType":"uint64"},{"name":"salt","type":"uint64","internalType":"uint64"}]},{"name":"next","type":"bytes32","internalType":"OrderKey"}],"stateMutability":"view"},{"type":"function","name":"owner","inputs":[],"outputs":[{"name":"","type":"address","internalType":"address"}],"stateMutability":"view"},{"type":"function","name":"pause","inputs":[],"outputs":[],"stateMutability":"nonpayable"},{"type":"function","name":"paused","inputs":[],"outputs":[{"name":"","type":"bool","internalType":"bool"}],"stateMutability":"view"},{"type":"function","name":"priceTrees","inputs":[{"name":"","type":"address","internalType":"address"},{"name":"","type":"uint8","internalType":"enum LibOrder.Side"}],"outputs":[{"name":"root","type":"uint128","internalType":"Price"}],"stateMutability":"view"},{"type":"function","name":"protocolShare","inputs":[],"outputs":[{"name":"","type":"uint128","internalType":"uint128"}],"stateMutability":"view"},{"type":"function","name":"renounceOwnership","inputs":[],"outputs":[],"stateMutability":"nonpayable"},{"type":"function","name":"setProtocolShare","inputs":[{"name":"newProtocolShare","type":"uint128","internalType":"uint128"}],"outputs":[],"stateMutability":"nonpayable"},{"type":"function","name":"setSupportCurrency","inputs":[{"name":"currency","type":"address","internalType":"address"},{"name":"isSupported","type":"bool","internalType":"bool"}],"outputs":[],"stateMutability":"nonpayable"},{"type":"function","name":"setVault","inputs":[{"name":"newVault","type":"address","internalType":"address"}],"outputs":[],"stateMutability":"nonpayable"},{"type":"function","name":"setWhitelistedCollection","inputs":[{"name":"collection","type":"address","internalType":"address"},{"name":"isWhitelisted","type":"bool","internalType":"bool"}],"outputs":[],"stateMutability":"nonpayable"},{"type":"function","name":"transferOwnership","inputs":[{"name":"newOwner","type":"address","internalType":"address"}],"outputs":[],"stateMutability":"nonpayable"},{"type":"function","name":"unpause","inputs":[],"outputs":[],"stateMutability":"nonpayable"},{"type":"function","name":"withdrawERC20","inputs":[{"name":"recipient","type":"address","internalType":"address"},{"name":"token","type":"address","internalType":"address"},{"name":"amount","type":"uint256","internalType":"uint256"}],"outputs":[],"stateMutability":"nonpayable"},{"type":"function","name":"withdrawETH","inputs":[{"name":"recipient","type":"address","internalType":"address"},{"name":"amount","type":"uint256","internalType":"uint256"}],"outputs":[],"stateMutability":"nonpayable"},{"type":"event","name":"BatchMatchInnerError","inputs":[{"name":"offset","type":"uint256","indexed":false,"internalType":"uint256"},{"name":"msg","type":"bytes","indexed":false,"internalType":"bytes"}],"anonymous":false},{"type":"event","name":"EIP712DomainChanged","inputs":[],"anonymous":false},{"type":"event","name":"Initialized","inputs":[{"name":"version","type":"uint64","indexed":false,"internalType":"uint64"}],"anonymous":false},{"type":"event","name":"LogCancel","inputs":[{"name":"orderKey","type":"bytes32","indexed":true,"internalType":"OrderKey"},{"name":"maker","type":"address","indexed":true,"internalType":"address"}],"anonymous":false},{"type":"event","name":"LogMake","inputs":[{"name":"orderKey","type":"bytes32","indexed":false,"internalType":"OrderKey"},{"name":"side","type":"uint8","indexed":true,"internalType":"enum LibOrder.Side"},{"name":"saleKind","type":"uint8","indexed":true,"internalType":"enum LibOrder.SaleKind"},{"name":"maker","type":"address","indexed":true,"internalType":"address"},{"name":"nft","type":"tuple","indexed":false,"internalType":"struct LibOrder.Asset","components":[{"name":"tokenId","type":"uint256","internalType":"uint256"},{"name":"collectionAddr","type":"address","internalType":"address"},{"name":"amount","type":"uint96","internalType":"uint96"}]},{"name":"price","type":"uint128","indexed":false,"internalType":"Price"},{"name":"currency","type":"address","indexed":false,"internalType":"address"},{"name":"expiry","type":"uint64","indexed":false,"internalType":"uint64"},{"name":"salt","type":"uint64","indexed":false,"internalType":"uint64"}],"anonymous":false},{"type":"event","name":"LogMatch","inputs":[{"name":"makeOrderKey","type":"bytes32","indexed":true,"internalType":"OrderKey"},{"name":"takeOrderKey","type":"bytes32","indexed":true,"internalType":"OrderKey"},{"name":"makeOrder","type":"tuple","indexed":false,"internalType":"struct LibOrder.Order","components":[{"name":"side","type":"uint8","internalType":"enum LibOrder.Side"},{"name":"saleKind","type":"uint8","internalType":"enum LibOrder.SaleKind"},{"name":"maker","type":"address","internalType":"address"},{"name":"nft","type":"tuple","internalType":"struct LibOrder.Asset","components":[{"name":"tokenId","type":"uint256","internalType":"uint256"},{"name":"collectionAddr","type":"address","internalType":"address"},{"name":"amount","type":"uint96","internalType":"uint96"}]},{"name":"price","type":"uint128","internalType":"Price"},{"name":"currency","type":"address","internalType":"address"},{"name":"expiry","type":"uint64","internalType":"uint64"},{"name":"salt","type":"uint64","internalType":"uint64"}]},{"name":"takeOrder","type":"tuple","indexed":false,"internalType":"struct LibOrder.Order","components":[{"name":"side","type":"uint8","internalType":"enum LibOrder.Side"},{"name":"saleKind","type":"uint8","internalType":"enum LibOrder.SaleKind"},{"name":"maker","type":"address","internalType":"address"},{"name":"nft","type":"tuple","internalType":"struct LibOrder.Asset","components":[{"name":"tokenId","type":"uint256","internalType":"uint256"},{"name":"collectionAddr","type":"address","internalType":"address"},{"name":"amount","type":"uint96","internalType":"uint96"}]},{"name":"price","type":"uint128","internalType":"Price"},{"name":"currency","type":"address","internalType":"address"},{"name":"expiry","type":"uint64","internalType":"uint64"},{"name":"salt","type":"uint64","internalType":"uint64"}]},{"name":"fillPrice","type":"uint128","indexed":false,"internalType":"uint128"}],"anonymous":false},{"type":"event","name":"LogSkipOrder","inputs":[{"name":"orderKey","type":"bytes32","indexed":false,"internalType":"OrderKey"},{"name":"salt","type":"uint64","indexed":false,"internalType":"uint64"}],"anonymous":false},{"type":"event","name":"LogUpdatedProtocolShare","inputs":[{"name":"newProtocolShare","type":"uint128","indexed":true,"internalType":"uint128"}],"anonymous":false},{"type":"event","name":"LogWithdrawERC20","inputs":[{"name":"recipient","type":"address","indexed":false,"internalType":"address"},{"name":"token","type":"address","indexed":false,"internalType":"address"},{"name":"amount","type":"uint256","indexed":false,"internalType":"uint256"}],"anonymous":false},{"type":"event","name":"LogWithdrawETH","inputs":[{"name":"recipient","type":"address","indexed":false,"internalType":"address"},{"name":"amount","type":"uint256","indexed":false,"internalType":"uint256"}],"anonymous":false},{"type":"event","name":"OwnershipTransferred","inputs":[{"name":"previousOwner","type":"address","indexed":true,"internalType":"address"},{"name":"newOwner","type":"address","indexed":true,"internalType":"address"}],"anonymous":false},{"type":"event","name":"Paused","inputs":[{"name":"account","type":"address","indexed":false,"internalType":"address"}],"anonymous":false},{"type":"event","name":"Unpaused","inputs":[{"name":"account","type":"address","indexed":false,"internalType":"address"}],"anonymous":false},{"type":"error","name":"BuyPriceBelowFillPrice","inputs":[{"name":"buyPrice","type":"uint256","internalType":"uint256"},{"name":"fillPrice","type":"uint256","internalType":"uint256"}]},{"type":"error","name":"CannotFindNextEmptyKey","inputs":[]},{"type":"error","name":"CannotFindPrevEmptyKey","inputs":[]},{"type":"error","name":"EnforcedPause","inputs":[]},{"type":"error","name":"ExpectedPause","inputs":[]},{"type":"error","name":"InvalidInitialization","inputs":[]},{"type":"error","name":"NotInitializing","inputs":[]},{"type":"error","name":"NotMatchBidETHAmount","inputs":[{"name":"msgValue","type":"uint256","internalType":"uint256"},{"name":"bidETHAmount","type":"uint256","internalType":"uint256"}]},{"type":"error","name":"OwnableInvalidOwner","inputs":[{"name":"owner","type":"address","internalType":"address"}]},{"type":"error","name":"OwnableUnauthorizedAccount","inputs":[{"name":"account","type":"address","internalType":"address"}]},{"type":"error","name":"ReentrancyGuardReentrantCall","inputs":[]},{"type":"error","name":"SafeERC20FailedOperation","inputs":[{"name":"token","type":"address","internalType":"address"}]},{"type":"error","name":"ValueBelowFillPrice","inputs":[{"name":"msgValue","type":"uint256","internalType":"uint256"},{"name":"fillPrice","type":"uint256","internalType":"uint256"}]}],"bytecode":{"object":"0x60a08060405234620000ca57306080527ff0c57e16840df040f15088dc2f81fe391c3923bec73e23a9662efc9c229c6a009081549060ff8260401c16620000bb57506001600160401b036002600160401b03198282160162000075575b6040516153809081620000cf823960805181611a5c0152f35b6001600160401b031990911681179091556040519081527fc7f505b2f371ae2175ee4913f4499e1f2633a7b5936321eed1cdaeb6115181d290602090a15f80806200005c565b63f92ee8a960e01b8152600490fd5b5f80fdfe6080604052600436101561001a575b3615610018575f80fd5b005b5f3560e01c8062dc1a31146101f8578063078e94ca146101f35780630b20b7bc146101ee5780631103f315146101e95780631e131aac146101e457806321c77c96146101df57806328e97341146101da5780633f4ba83a146101d5578063436a5ed6146101d057806344004cc1146101cb5780634782f779146101c657806357b45aee146101c15780635c975abb146101bc5780636817031b146101b7578063715018a6146101b25780637d910dac146101ad578063813e7c2a146101a85780638214ff3e146101a35780638456cb591461019e57806384b0196e146101995780638da5cb5b146101945780639c3f1e901461018f5780639e09126c1461018a578063c9880d5d14610185578063e471ba4614610180578063e79c76cd1461017b578063e8aa0d3214610176578063e8d6f3b414610171578063f2fde38b1461016c5763fca8d4710361000e57611c4a565b611c1d565b611aee565b611a32565b61199d565b61181a565b6115df565b611528565b611440565b6112f7565b611227565b6110fe565b6110be565b61100a565b610fc9565b610f09565b610e86565b610e58565b610bb6565b610b37565b610a82565b61083b565b61077c565b6105ff565b61044e565b6103d3565b6103ad565b61037f565b61032f565b610227565b61014090600319011261020f57600490565b5f80fd5b6101409061014319011261020f5761014490565b61028036600319011261020f5761023d366101fd565b61024636610213565b9061024f612566565b610257612590565b60e0810135610265816102e9565b6001600160a01b03166102c257610286906001600160801b0392349161265a565b168034116102a4575b505b60015f8051602061530b83398151915255005b34033481116102bd576102b7903361306f565b5f61028f565b611c9e565b816001600160801b0360c06102e39401356102dc816104b7565b169161265a565b50610291565b6001600160a01b0381160361020f57565b3590610305826102e9565b565b604090600319011261020f5760043561031f816102e9565b90602435801515810361020f5790565b3461020f5761001861034036610307565b906103496130b9565b60018060a01b03165f52609d60205260405f209060ff801983541691151516179055565b602090600319011261020f5760043590565b3461020f5761038d3661036d565b5f526068602052602060405f2054604051908152f35b5f91031261020f57565b3461020f575f36600319011261020f5760206001600160801b0360355416604051908152f35b3461020f576100186103e436610307565b906103ed6130b9565b60018060a01b03165f52609c60205260405f209060ff801983541691151516179055565b60209060206040818301928281528551809452019301915f5b828110610438575050505090565b835115158552938101939281019260010161042a565b3461020f57602036600319011261020f576001600160401b0360043581811161020f573660238201121561020f57806004013591821161020f573660248360051b8301011161020f576104b39160246104a79201611cbf565b60405191829182610411565b0390f35b6001600160801b0381160361020f57565b3590610305826104b7565b634e487b7160e01b5f52604160045260245ffd5b606081019081106001600160401b0382111761050257604052565b6104d3565b61010081019081106001600160401b0382111761050257604052565b6001600160401b03811161050257604052565b60a081019081106001600160401b0382111761050257604052565b90601f801991011681019081106001600160401b0382111761050257604052565b6040519061030582610507565b60405190604082018281106001600160401b0382111761050257604052565b6001600160401b03811161050257601f01601f191660200190565b81601f8201121561020f578035906105d08261059e565b926105de6040519485610551565b8284526020838301011161020f57815f926020809301838601378301015290565b3461020f5760a036600319011261020f5760043561061c816104b7565b60243590610629826102e9565b6001600160401b039160443583811161020f5761064a9036906004016105b9565b60643584811161020f576106629036906004016105b9565b9060843592610670846102e9565b5f8051602061532b833981519152549560ff8760401c1615961680159081610774575b600114908161076a575b159081610761575b5061074f575f8051602061532b833981519152805467ffffffffffffffff191660011790556106d8948661072657613104565b6106de57005b5f8051602061532b833981519152805460ff60401b19169055604051600181527fc7f505b2f371ae2175ee4913f4499e1f2633a7b5936321eed1cdaeb6115181d290602090a1005b5f8051602061532b833981519152805460ff60401b191668010000000000000000179055613104565b60405163f92ee8a960e01b8152600490fd5b9050155f6106a5565b303b15915061069d565b879150610693565b3461020f575f36600319011261020f576107946130b9565b5f805160206152eb833981519152805460ff8116156107df5760ff191690557f5db9ee0a495bf2e6ff9c91a7834c1ba4fdd244a5e8aa4e537bd38aeae4b073aa6020604051338152a1005b604051638dfc202b60e01b8152600490fd5b6002111561020f57565b3590610305826107f1565b606090600319011261020f5760043561081e816102e9565b9060243561082b816107f1565b90604435610838816104b7565b90565b3461020f5761084936610806565b916001600160801b038084166108e457506104b3925061086882610f95565b600182036108b7576001600160a01b03165f90815260016020526040902061089d9161089891610fb3565b610fb3565b61337a565b6040516001600160801b0390911681529081906020820190565b6001600160a01b03165f9081526001602052604090206108df916108da91610fb3565b613306565b61089d565b6108ed83610f95565b60018381036109225750509161091d6108df926108936104b39560018060a01b03165f52600160205260405f2090565b6131dd565b9192610940919360018060a01b03165f528260205260405f20610fb3565b9183908284019461098561097785610969848a906001600160801b03165f5260205260405f2090565b01546001600160801b031690565b6001600160801b0316151590565b156109b85750506108df92916109696109b2926104b396906001600160801b03165f5260205260405f2090565b90614d9d565b83959394506109de6109eb9185949394906001600160801b03165f5260205260405f2090565b546001600160801b031690565b935b6109ff575b5050506104b3915061089d565b818493941615159081610a45575b5015610a3e57908391610a346109de8386906001600160801b03165f5260205260405f2090565b93929190916109ed565b81926109f2565b905081610a79610a6d610a6d88610969888a906001600160801b03165f5260205260405f2090565b6001600160801b031690565b9116145f610a0d565b3461020f57606036600319011261020f577fd2b94cbb92c9891699cc0b41778f7c3abf2fbdd5d2b2e0d3dfe8d64b6f886856600435610ac0816102e9565b60243590610acd826102e9565b610b21604435610adb612590565b610ae36130b9565b610af781846001600160a01b0387166133ed565b604080516001600160a01b0394851681529490931660208501529183019190915281906060820190565b0390a160015f8051602061530b83398151915255005b3461020f57604036600319011261020f577fab0f46966ebb6f17d26b8f6add4624e39fcfdeaccfeaba589d57f81cb5cb6666600435610b75816102e9565b60243590610b81612590565b610b896130b9565b610b93828261306f565b604080516001600160a01b03909216825260208201929092529081908101610b21565b60208060031936011261020f576001600160401b039060043582811161020f573660238201121561020f57806004013592831161020f5760248082019160243691610280870201011161020f57610c0b612566565b610c13612590565b609b805460ff60a01b1916600160a01b179055610c2f84612115565b925f945f5b818110610c8e576104b3866001600160801b038916803411610c75575b50609b805460ff60a01b191690556104a760015f8051602061530b83398151915255565b610c82610c889134611cb2565b3361306f565b82610c51565b610c99818387612174565b84610140820191858a610cbe610cb26102208501611c8a565b6001600160a01b031690565b15610d755750600194939282610d0b5f9493610cfd610ce1610200889701611c94565b6040988951958694850197637455069960e11b89528501612328565b03601f198101835282610551565b5190305af4610d186122b2565b8115610d3b5750610d359150610d2e838a61215b565b9015159052565b01610c34565b610d6d91507f050f709fb65709f10a27682788a9d67fe74de81b310b5c34e3d32f0e2c3ac557925191829185836122e1565b0390a1610d35565b9282610db15f949593610cfd610d956001600160801b0388971634611cb2565b6040998a51958694850197637455069960e11b8952850161228e565b5190305af4610dbe6122b2565b928115610e205750610de191610ddb61018092610d2e878d61215b565b01611c8a565b6001600160a01b03163314610dfa575b50600190610d35565b60019197610e13828680610e19955183010191016122f8565b9061230d565b9690610df1565b7f050f709fb65709f10a27682788a9d67fe74de81b310b5c34e3d32f0e2c3ac5579250610d6d915092600194935191829185836122e1565b3461020f575f36600319011261020f57602060ff5f805160206152eb83398151915254166040519015158152f35b3461020f57602036600319011261020f57600435610ea3816102e9565b610eab6130b9565b6001600160a01b03168015610ed1576001600160601b0360a01b609b541617609b555f80f35b60405162461bcd60e51b815260206004820152601060248201526f48443a207a65726f206164647265737360801b6044820152606490fd5b3461020f575f36600319011261020f57610f216130b9565b5f8051602061526b83398151915280546001600160a01b031981169091555f906001600160a01b03167f8be0079c531659141344cd1fd0a4f28419497f9722a3daafe3b4186f6b6457e08280a3005b604090600319011261020f57600435610f88816102e9565b90602435610838816107f1565b60021115610f9f57565b634e487b7160e01b5f52602160045260245ffd5b90610fbd81610f95565b5f5260205260405f2090565b3461020f5760206001600160801b03611000610fe436610f70565b6001600160a01b039091165f9081526001855260409020610fb3565b5416604051908152f35b3461020f57602036600319011261020f576001600160801b0360043561102f816104b7565b6110376130b9565b166103e8811161107957806001600160801b031960355416176035557f0b52884d4590055c8791518c34458834f75feed662340ef0b5af2898e7a9be9f5f80a2005b60405162461bcd60e51b815260206004820152601d60248201527f504d3a20657863656564206d61782070726f746f636f6c2073686172650000006044820152606490fd5b3461020f57602036600319011261020f576004356110db816102e9565b60018060a01b03165f52609d602052602060ff60405f2054166040519015158152f35b3461020f575f36600319011261020f576111166130b9565b61111e612566565b5f805160206152eb833981519152600160ff198254161790557f62e78cea01bee320cd4e420270b5ea74000d11b0c9f74754ebdbfc544b05a2586020604051338152a1005b91908251928382525f5b84811061118d575050825f602080949584010152601f8019910116010190565b60208183018101518483018201520161116d565b916111d590949194600f60f81b84526111c760209660e0602087015260e0860190611163565b908482036040860152611163565b92606083015260018060a01b031660808201525f60a082015260c0818303910152602080845192838152019301915f5b828110611213575050505090565b835185529381019392810192600101611205565b3461020f575f36600319011261020f577fa16a46d94261c7517cc8ff89f61c0ce93598e3c849801011dee649a6a557d1005415806112ce575b156112915761126d61346d565b611275613540565b906104b3611281612381565b60405193849330914691866111a1565b60405162461bcd60e51b81526020600482015260156024820152741152540dcc4c8e88155b9a5b9a5d1a585b1a5e9959605a1b6044820152606490fd5b507fa16a46d94261c7517cc8ff89f61c0ce93598e3c849801011dee649a6a557d1015415611260565b3461020f575f36600319011261020f575f8051602061526b833981519152546040516001600160a01b039091168152602090f35b61133482610f95565b52565b90604051611344816104e7565b825481526001909201546001600160a01b038116602084015260a01c6040830152565b9061030560405161137781610507565b60e0611432600583966114246001600160401b03825461139a60ff82168961132b565b6113ad60ff8260081c1660208a0161132b565b60101c6001600160a01b0390811660408901526113cc60018501611337565b60608901526113f86113e860038601546001600160801b031690565b6001600160801b031660808a0152565b60048401549081166001600160a01b031660a089015260a01c1660c08701906001600160401b03169052565b01546001600160401b031690565b6001600160401b0316910152565b3461020f5761144e3661036d565b5f525f60205261016060405f20600661146682611367565b91015461152060e060405193805161147d81610f95565b8552602081015161148d81610f95565b6020868101919091526040828101516001600160a01b03908116828901526060808501518051918a01919091529283015116608088015201516001600160601b031660a086015260808101516001600160801b031660c086015260a08101516001600160a01b03168583015260c08101516001600160401b031661010086015201516001600160401b0316610120840152565b610140820152f35b3461020f57602061153836610f70565b9061154282610f95565b6001820361157d576001600160a01b03165f908152600183526040902061156c9161089891610fb3565b6001600160801b0360405191168152f35b6001600160a01b03165f908152600183526040902061159f916108da91610fb3565b61156c565b60209060206040818301928281528551809452019301915f5b8281106115cb575050505090565b8351855293810193928101926001016115bd565b602036600319011261020f576004356001600160401b0380821161020f573660238301121561020f57816004013590811161020f57602482019160243691610140840201011161020f57611631612566565b611639612590565b61164281612115565b905f925f5b82811061169a576104b3846001600160801b038716803411611687575b5061167b60015f8051602061530b83398151915255565b604051918291826115a4565b610c826116949134611cb2565b82611664565b6116d86116d36116cc6116b36080610ddb8689896123a7565b6001600160a01b03165f908152609d6020526040902090565b5460ff1690565b6123b8565b60e06117086116cc6116ef83610ddb8689896123a7565b6001600160a01b03165f908152609c6020526040902090565b80156117f6575b611718906123fd565b5f90600161172f61172a8588886123a7565b612449565b61173881610f95565b1490816117d5575b50611788575b61175a816117558487876123a7565b613807565b80611765848861215b565b52611774575b50600101611647565b611781906001929661230d565b949061176b565b506117d06117a5610a6d60c061179f8588886123a7565b01611c94565b6117ca6117be60a06117b88689896123a7565b01612453565b6001600160601b031690565b9061245d565b611746565b6001600160a01b0391506117ee90610ddb8588886123a7565b16155f611740565b506117186001600160a01b0361181183610ddb8689896123a7565b1615905061170f565b3461020f5761185e61184861182e36610806565b929160018060a01b03165f52600260205260405f20610fb3565b906001600160801b03165f5260205260405f2090565b805460019091015460408051928352602083019190915290f35b6001600160401b0381116105025760051b60200190565b6001600160601b0381160361020f57565b919082606091031261020f576040516118b8816104e7565b60408082948035845260208101356118cf816102e9565b60208501520135916118e08361188f565b0152565b6001600160401b0381160361020f57565b3590610305826118e4565b9190916101408184031261020f5761012061199691611957611920610572565b9561192a836107fb565b8752611938602084016107fb565b6020880152611949604084016102fa565b6040880152606083016118a0565b606086015261196860c082016104c8565b608086015261197960e082016102fa565b60a086015261198b61010082016118f5565b60c0860152016118f5565b60e0830152565b3461020f5760208060031936011261020f576004356001600160401b03811161020f573660238201121561020f578060040135906119da82611878565b926119e86040519485610551565b8284526020840160246101408095028401019236841161020f57602401905b838210611a1a576104b361167b8761247b565b828591611a273685611900565b815201910190611a07565b6102a036600319011261020f57611a48366101fd565b611a5136610213565b611a59612566565b307f00000000000000000000000000000000000000000000000000000000000000006001600160a01b03161461020f5760ff609b5460a01c1615611aa9576104b39161089d91610284359161265a565b60405162461bcd60e51b815260206004820152601a60248201527f4f6e6c7920696e7465726e616c2063616c6c20616c6c6f7765640000000000006044820152606490fd5b60208060031936011261020f576004356001600160401b039182821161020f573660238301121561020f57816004013592831161020f57602482019160243691610160860201011161020f57611b42612566565b611b4a612590565b611b5383612115565b915f935f905f5b818110611bab578686813410611b8c57816104b3923411611687575061167b60015f8051602061530b83398151915255565b60405163ad75dddf60e01b815234600482015260248101839052604490fd5b611bcd611bb98284876124bd565b3586611bc68486896124bd565b0190613dd3565b9093611be3610cb2610100610ddb86888b6124bd565b15611c085760019291611bf5916124dc565b935b611c01828961215b565b5201611b5a565b939760019291611c17916124dc565b97611bf7565b3461020f57602036600319011261020f57610018600435611c3d816102e9565b611c456130b9565b6124f5565b3461020f57602036600319011261020f57600435611c67816102e9565b60018060a01b03165f52609c602052602060ff60405f2054166040519015158152f35b35610838816102e9565b35610838816104b7565b634e487b7160e01b5f52601160045260245ffd5b919082039182116102bd57565b90611cc8612566565b611cd0612590565b611cd981612115565b915f5b828110611cfc5750505061083860015f8051602061530b83398151915255565b8060051b820135905f611d1e611d19845f525f60205260405f2090565b611367565b6040938482019160018060a01b03933385611d3f865160018060a01b031690565b1614806120e1575b1561208a5750611d5681613cd5565b908051611d6281610f95565b611d6b81610f95565b611e7f57609b54611d8690610cb2906001600160a01b031681565b84516060906001600160a01b031692015160208101519092906001600160a01b0316925198823b1561020f5751635243975360e01b815260048101949094526001600160a01b0390811660248501529190911660448301526064820196909652945f908690608490829084905af1928315611e7a57600195611e5b94611e61575b505b611e1d825f5260686020525f1960405f2055565b91518592166001600160a01b0316907f0ac8bb53fac566d7afc05d8b4df11d7690a7b27bdc40b54e4060f9b21fb849bd5f80a35b610d2e838861215b565b01611cdc565b80611e6e611e7492610523565b806103a3565b5f611e07565b6125de565b600181979395949751611e9181610f95565b611e9a81610f95565b14611eb0575b50505092611e5b91600194611e09565b60608101518301519296939492611eec906001600160601b03166001600160601b03611ee4865f52606860205260405f2090565b549116611cb2565b60a0820180519092919087166001600160a01b031615611fd657611f44611f5291611f3e610a6d610a6d6080611f2f610cb2610cb2609b5460018060a01b031690565b9701516001600160801b031690565b906130f1565b92516001600160a01b031690565b85519092906001600160a01b031698823b1561020f57516333174d0360e21b8152600481019490945260248401526001600160a01b03918216604484015296166064820152945f908690608490829084905af1928315611e7a57600195611e5b94611fc3575b505b91948193611ea0565b80611e6e611fd092610523565b5f611fb8565b61201291925061200d610a6d610a6d6080611ffe610cb2610cb2609b5460018060a01b031690565b9601516001600160801b031690565b6130f1565b84516001600160a01b03169190813b1561020f579751630160928b60e31b8152600481019390935260248301979097526001600160a01b03166044820152945f908690606490829084905af1928315611e7a57600195611e5b94612077575b50611fba565b80611e6e61208492610523565b5f612071565b9250611e5b9350945f805160206152ab833981519152916120d96120ba60e060019901516001600160401b031690565b92519182526001600160401b0390921660208201529081906040820190565b0390a1611e51565b506120f4835f52606860205260405f2090565b54606083015188015161210f906001600160601b03166117be565b11611d47565b9061211f82611878565b61212c6040519182610551565b828152809261213d601f1991611878565b0190602036910137565b634e487b7160e01b5f52603260045260245ffd5b805182101561216f5760209160051b010190565b612147565b919081101561216f57610280020190565b6001600160601b03604080928035855260208101356121a3816102e9565b6001600160a01b0316602086015201356121bc8161188f565b16910152565b906103059180356121d2816107f1565b6121db81610f95565b825260208101356121eb816107f1565b6121f481610f95565b60208301526040810135612207816102e9565b6001600160a01b031660408301526122256060808401908301612185565b6001600160801b0360c082013561223b816104b7565b1660c083015261226061225060e083016102fa565b6001600160a01b031660e0840152565b6122806101006122718184016118f5565b6001600160401b031690840152565b6114326101208092016118f5565b6118e0610280929594936122a7836102a08101986121c2565b6101408301906121c2565b3d156122dc573d906122c38261059e565b916122d16040519384610551565b82523d5f602084013e565b606090565b604090610838939281528160208201520190611163565b9081602091031261020f5751610838816104b7565b9190916001600160801b03808094169116019182116102bd57565b916102809194936121bc6001600160801b039261234a866102a08101996121c2565b6101408601906121c2565b61235d6130b9565b6001600160a01b03168015610ed1576001600160601b0360a01b609b541617609b55565b604051602081018181106001600160401b03821117610502576040525f8152905f368137565b919081101561216f57610140020190565b156123bf57565b60405162461bcd60e51b815260206004820152601660248201527510dbdb1b1958dd1a5bdb881b9bdd08185b1b1bddd95960521b6044820152606490fd5b1561240457565b60405162461bcd60e51b815260206004820152601960248201527f574f423a20756e737570706f727465642063757272656e6379000000000000006044820152606490fd5b35610838816107f1565b356108388161188f565b9190916001600160801b03808094169116029182169182036102bd57565b906124868251612115565b5f5b83518110156124b857806124a76124a16001938761215b565b51613cd5565b6124b1828561215b565b5201612488565b509150565b919081101561216f57610160020190565b90600182018092116102bd57565b919082018092116102bd57565b61030590611c456130b9565b6001600160a01b0390811690811561254e575f8051602061526b83398151915280546001600160a01b031981168417909155167f8be0079c531659141344cd1fd0a4f28419497f9722a3daafe3b4186f6b6457e05f80a3565b604051631e4fbdf760e01b81525f6004820152602490fd5b60ff5f805160206152eb833981519152541661257e57565b60405163d93c066560e01b8152600490fd5b5f8051602061530b83398151915260028154146125ad5760029055565b604051633ee5aeb560e01b8152600490fd5b919082604091031261020f57602082516125d8816102e9565b92015190565b6040513d5f823e3d90fd5b9081526001600160801b039190911660208201526001600160a01b0391821660408201529116606082015260800190565b6001600160801b0391821690821603919082116102bd57565b6001600160a01b0391821681529116602082015260a0810192916103059160400190612185565b9092915f9361267161266c3685611900565b613cd5565b9161267f61266c3684611900565b9061269f828561268f3689611900565b6126993688611900565b90614764565b6126ae610cb260408701611c8a565b3303612ab357505f8381526020819052604090206001600160a01b03906126e0905b5460101c6001600160a01b031690565b1615906126f88215926126f33688611900565b614c62565b61271461270f611d19835f525f60205260405f2090565b614b6b565b81612724610a6d60c08601611c94565b90612a9b575b61274e82612749612743825f52606860205260405f2090565b546124ce565b614ce1565b81855f8051602061522b8339815191526040518061276e868a8d84612328565b0390a361278c6127866035546001600160801b031690565b82614cc7565b916127a2610cb2610cb2610cb260808901611c8a565b6040805163152a902d60e11b8152606088013560048201526001600160801b03851660248201529291839060449082905afa928315611e7a575f925f94612a64575b5060e089016127f5610cb282611c8a565b6129a55750609b5461281190610cb2906001600160a01b031681565b803b1561020f57604051630160928b60e31b815260048101939093526001600160801b03821660248401523060448401525f908390606490829084905af18015611e7a5784612880610a6d6128909861287a60408f61288b9961288598612992575b5001611c8a565b9561261a565b611cb2565b9061306f565b61306f565b1561293157609b546128ba906040906128b390610cb2906001600160a01b031681565b9201611c8a565b906128c760808501611c8a565b93813b1561020f57604051635243975360e01b815260048101949094526001600160a01b039283166024850152919093166044830152606001356064820152905f908290818381608481015b03925af18015611e7a576129245750565b80611e6e61030592610523565b609b549092915061294c90610cb2906001600160a01b031681565b612963604061295c818501611c8a565b9401611c8a565b90803b1561020f5760605f809461291360405197889687958694632f58639d60e11b8652019160048501612633565b80611e6e61299f92610523565b5f612873565b609b54929591926129c090610cb2906001600160a01b031681565b956129ca82611c8a565b90873b1561020f576129f8975f9283604051809b819582946333174d0360e21b84528b3092600486016125e9565b03925af1918215611e7a578a612a4794612a3c88612880610a6d612a4296612a4c9d610cb29a612a51575b5061287a6040612a35610cb28c611c8a565b9801611c8a565b916133ed565b611c8a565b6133ed565b612890565b80611e6e612a5e92610523565b5f612a23565b909350612a8a91925060403d604011612a94575b612a828183610551565b8101906125bf565b919091925f6127e4565b503d612a78565b612aae856127496117be60a08a01612453565b61272a565b949550929190612ac8610cb260408301611c8a565b3303613035575f8481526020819052604090206001600160a01b0390612aed906126d0565b161593612b0761270f611d19855f525f60205260405f2090565b612b15856126f33685611900565b612b24610a6d60c08401611c94565b95612b34610a6d60c08701611c94565b90612b50612b4a6035546001600160801b031690565b83614cc7565b90612b66610cb2610cb2610cb260808901611c8a565b6040805163152a902d60e11b8152606088013560048201526001600160801b038616602482015291829060449082905afa918215611e7a575f915f93613012575b508915612df9576001600160801b03851681108015612de7575b612dbe5792612c5692889695928a5f8051602061522b8339815191529660e08201908b612bf0610cb284611c8a565b612d1d57505050612c1b9361288584612880610a6d612c14604061288b9701611c8a565b948a61261a565b6001600160801b0381166001600160801b038b1611612cfb575b612c48856127496117be60a08c01612453565b604051918291898884612328565b0390a3609b54612c77906040906128b390610cb2906001600160a01b031681565b90612c8460808501611c8a565b93813b1561020f57604051635243975360e01b815260048101949094526001600160a01b039283166024850152919093166044830152606001356064820152905f9082908183816084810103925af18015611e7a57612ce8575b5061083857505f90565b80611e6e612cf592610523565b5f612cde565b612d188a612885610a6d84612d1260408c01611c8a565b9361261a565b612c35565b95612a3c86612880610a6d612d626040612d5b610cb28a9e9a612a42612d759f9e9d9b612d699d612d54876128b3610cb287611c8a565b3091614d2d565b9701611c8a565b948c61261a565b612a47610cb285611c8a565b6001600160801b0382166001600160801b038c1611612d95575b50612c35565b612da4610cb2612db892611c8a565b8b612a3c610a6d85612d1260408d01611c8a565b5f612d8f565b6040516316c8b55d60e21b815260048101919091526001600160801b0385166024820152604490fd5b506001600160801b038b168110612bc1565b5093926001600160801b03929192808216818c1610612fe657612e21610cb260e08b01611c8a565b612f0257609b54612e3c90610cb2906001600160a01b031681565b93843b1561020f57604051630160928b60e31b8152600481018790526001600160801b038d166024820152306044820152945f908690606490829084905af1908115611e7a57899761288b612c5696612885848f610a6d612eba6040612880935f8051602061522b8339815191529f612ec19c612992575001611c8a565b948b61261a565b808216908b1611612ee6575b612d1884612749612743825f52606860205260405f2090565b612efd8a612885610a6d84612d1260408c01611c8a565b612ecd565b609b54929392612f1c90610cb2906001600160a01b031681565b612f2860e08b01611c8a565b90803b1561020f57865f91612f59938f8490604051968795869485936333174d0360e21b85523092600486016125e9565b03925af1938415611e7a578997612a47610cb260e08e610ddb5f8051602061522b8339815191529b612fb598612c569c612fd3575b508a612a3c89612880610a6d612fa8610cb28a8a01611c8a565b9561287a60408a01611c8a565b808216908b161115612ecd57612efd612da4610cb260e08b01611c8a565b80611e6e612fe092610523565b5f612f8e565b50604051631a1df1cb60e31b81526001600160801b038b81166004830152919091166024820152604490fd5b90925061302e915060403d604011612a9457612a828183610551565b915f612ba7565b60405162461bcd60e51b815260206004820152601260248201527112110e881cd95b99195c881a5b9d985b1a5960721b6044820152606490fd5b5f80809381935af11561307e57565b60405162461bcd60e51b815260206004820152601360248201527211551217d514905394d1915497d19052531151606a1b6044820152606490fd5b5f8051602061526b833981519152546001600160a01b031633036130d957565b60405163118cdaa760e01b8152336004820152602490fd5b818102929181159184041417156102bd57565b6001600160801b0390949394613118614d6f565b613120614d6f565b613128614d6f565b613130614d6f565b613138614d6f565b613141336124f5565b613149614d6f565b613151614d6f565b60015f8051602061530b8339815191525561316a614d6f565b613172614d6f565b61317a614d6f565b613182614d6f565b166103e8811161107957610305946131d893826131d3936001600160801b031960355416176035557f0b52884d4590055c8791518c34458834f75feed662340ef0b5af2898e7a9be9f5f80a2614eb2565b612355565b6124e9565b906001600160801b03808216156132f45760018084019161321c6109776132158686906001600160801b03165f5260205260405f2090565b5460801c90565b1561324b575050613215610838939261324592906001600160801b03165f5260205260405f2090565b90614df7565b909493508261326f6109de879585906001600160801b03165f5260205260405f2090565b955b61327c575b50505050565b8186929395949616151590816132c4575b50156132bc576132b16109de8286906001600160801b03165f5260205260405f2090565b949293919083613271565b938293613276565b9050826132eb610a6d610a6d613215868a906001600160801b03165f5260205260405f2090565b9116145f61328d565b604051631b67230f60e31b8152600490fd5b6001600160801b03815416908161331b575090565b9190915b6001810161333e8482906001600160801b03165f5260205260405f2090565b5490608091821c1561337557600192939461336991906001600160801b03165f5260205260405f2090565b54901c9291905061331f565b505050565b906001600160801b03808354169283613391575050565b9190925b60019081840185836133b88484906001600160801b03165f5260205260405f2090565b015416156133e5578592916133dd91906001600160801b03165f5260205260405f2090565b015416613395565b509350509050565b60405163a9059cbb60e01b60208201526001600160a01b03909216602483015260448201929092526103059161343082606481015b03601f198101845283610551565b614e58565b90600182811c92168015613463575b602083101461344f57565b634e487b7160e01b5f52602260045260245ffd5b91607f1691613444565b604051905f825f8051602061524b8339815191529182549261348e84613435565b8084529360209160019182811690811561351a57506001146134ba575b50505061030592500383610551565b5f9081527f42ad5d3e1f2e6e70edcf6d991b8a3023d3fca8047a131592f9edb9fd9b89d57d9590935091905b82841061350257506103059450505081016020015f80806134ab565b855488850183015294850194879450928101926134e6565b925050506020925061030594915060ff191682840152151560051b8201015f80806134ab565b604051905f825f8051602061528b8339815191529182549261356184613435565b8084529360209160019182811690811561351a575060011461358c5750505061030592500383610551565b5f9081527f5f9ce34815f8e11431c7bb75a8e6886a91478f7ffc1dbb0a98dc240fddd76b759590935091905b8284106135d457506103059450505081016020015f80806134ab565b855488850183015294850194879450928101926135b8565b35610838816118e4565b156135fd57565b60405162461bcd60e51b815260206004820152601060248201526f15d3d08e881bdc99195c88195e1a5cdd60821b6044820152606490fd5b9061363f81610f95565b61ff0082549160081b169061ff001916179055565b9060206006916137af61379060e08351805161366f81610f95565b61367881610f95565b60ff80198a5416911617885561369a8682015161369481610f95565b89613635565b60408101516136d0906001600160a01b0316895462010000600160b01b03191660109190911b62010000600160b01b0316178955565b61370f606082015160018a0181518155602082015160409092015160a01b6001600160a01b0319166001600160a01b0390921691909117600190910155565b61374561372660808301516001600160801b031690565b60038a01906001600160801b03166001600160801b0319825416179055565b60a08181015160048a01805460c08501516001600160a01b039093166001600160e01b0319909116179190921b67ffffffffffffffff60a01b1617905501516001600160401b031690565b60058601906001600160401b03166001600160401b0319825416179055565b0151910155565b94926001600160801b03906137dd60e0969399989461010089019a89526020890190612185565b1660808601526001600160a01b031660a08501526001600160401b0391821660c085015216910152565b9190915f60408083019161381a83611c8a565b6001600160a01b0391908216331480613c26575b80613c08575b80613bc9575b80613ba3575b15613b6d575061385361266c3686611900565b956138738261386c6126d08a5f525f60205260405f2090565b16156135f6565b6138a661387e61057f565b6138883688611900565b81525f60208201526138a1895f525f60205260405f2090565b613654565b6138af85612449565b6138b881610f95565b613a07575060016001600160601b036138d360a08701612453565b16036139fe57609b546138f090610cb2906001600160a01b031681565b906138fa84611c8a565b9161390760808701611c8a565b92813b1561020f5784516305f91a0f60e41b8152600481018a90526001600160a01b03918216602482015293166044840152606086013560648401525f908390608490829084905af1918215611e7a575f805160206152cb833981519152926139eb575b505b61397685612449565b926139e661398f61398960208901612449565b96611c8a565b9161399c60c08901611c94565b6139a860e08a01611c8a565b6139b56101008b016135ec565b9160606139c56101208d016135ec565b946139cf8b610f95565b6139d88c610f95565b51978897169b018d876137b6565b0390a4565b80611e6e6139f892610523565b5f61396b565b505f9450505050565b906001613a1386612449565b613a1c81610f95565b14613a37575b5f805160206152cb833981519152915061396d565b6001600160601b03613a4b60a08701612453565b1615613b635760e08501613a61610cb282611c8a565b613aea5750609b54613a7d90610cb2906001600160a01b031681565b803b1561020f5783516373d1ca7d60e11b8152600481018990526001600160801b0393909316602484018190525f9184916044918391905af1918215611e7a575f805160206152cb83398151915292613ad7575b50613a22565b80611e6e613ae492610523565b5f613ad1565b91613b0b613b05610cb2610cb2609b5460018060a01b031690565b93611c8a565b613b1486611c8a565b93803b1561020f575f92838b613b3f89519889968795869463d04d29e960e01b8652600486016125e9565b03925af1918215611e7a575f805160206152cb83398151915292613ad75750613a22565b505f955050505050565b95505090505f805160206152ab83398151915291613b9e6120ba610120613b9761266c3686611900565b93016135ec565b0390a1565b50613bc2613bb461266c3688611900565b5f52606860205260405f2090565b5415613840565b506101008501613bd8816135ec565b426001600160401b0391821611918215613bf4575b505061383a565b613bff9192506135ec565b16155f80613bed565b506001600160401b03613c1e61012087016135ec565b161515613834565b506001600160801b03613c3e610a6d60c08801611c94565b16151561382e565b96946001600160801b039199989461010097936101208a019b7f48cfc86b1f618957ff4bc5215d778777ef15962141b1f3a8677b69d06ee9bf6a8b52613c8b81610f95565b60208b0152613c9981610f95565b60408a01526001600160a01b0394851660608a015260808901521660a08701521660c08501526001600160401b0391821660e085015216910152565b805190613ce182610f95565b613dcd6020820151613cf281610f95565b610cfd60018060a01b0393846040820151169460608201516001600160601b036040825193602084015116920151166040519160208301937f3c8de4f0a4a2d10fd91fc14b8f09328b6704a4fd4841247b3967025a06b451b9855260408401526060830152608082015260808152613d6981610536565b51902090613d84610a6d60808301516001600160801b031690565b60a08201516001600160a01b031690613dbb60e0613dac60c08601516001600160401b031690565b9401516001600160401b031690565b93604051988997602089019b8c613c46565b51902090565b915f91613dea611d19855f525f60205260405f2090565b936020850151613df981610f95565b6020830190613e0782612449565b90613e1182610f95565b613e1a81610f95565b148015906144f6575b80156144c6575b8015614496575b8015614462575b801561444f575b8015614419575b6143d15760409182840192613e5a84611c8a565b6001600160a01b039190821633148015906143b4575b8015614375575b801561435c575b61432b57613e94835f52606860205260405f2090565b5498613eaa845f5260686020525f1960405f2055565b818101805190919084166001600160a01b0316857f0ac8bb53fac566d7afc05d8b4df11d7690a7b27bdc40b54e4060f9b21fb849bd5f80a3613eef61266c368a611900565b9a8151613efb81610f95565b613f0481610f95565b613ff2575050609b54613f229150610cb2906001600160a01b031681565b803b1561020f57815163650f14c560e11b81526004810194909452602484018a90525f908490604490829084905af1928315611e7a575f805160206152cb83398151915293613fdf575b505b6139e6613f86613989613f8089612449565b96612449565b9187613f9460c08201611c94565b613fa060e08301611c8a565b908d6060613fbe610120613fb761010088016135ec565b96016135ec565b95613fc88c610f95565b613fd18d610f95565b51988998169c0190876137b6565b80611e6e613fec92610523565b5f613f6c565b60018296939495965161400481610f95565b61400d81610f95565b1461402c575b50505050905f805160206152cb83398151915291613f6e565b906001600160801b03614071614078936128806117be89989f9a996060614060610a6d60808a01516001600160801b031690565b97015101516001600160601b031690565b91166130f1565b61409c610a6d61408d610a6d60c08c01611c94565b6117ca6117be60a08d01612453565b948186111561422a57506140b08186611cb2565b9960e0890190856140c083611c8a565b161561418457609b546140f3906140e590613b0590610cb2906001600160a01b031681565b91516001600160a01b031690565b823b1561020f578551636de8e36360e11b81526004810195909552602485018e9052604485019390935260648401969096526001600160a01b039586166084840152941660a4820152925f90849060c490829084905af1928315611e7a575f805160206152cb83398151915293614171575b505b90915f8080614013565b80611e6e61417e92610523565b5f614165565b609b549091506141a2906140e590610cb2906001600160a01b031681565b92813b1561020f5784516305f852cf60e51b81526004810191909152602481018d9052604481019290925260648201959095526001600160a01b039091166084820152925f908490818b8160a481015b03925af1928315611e7a575f805160206152cb83398151915293614217575b50614167565b80611e6e61422492610523565b5f614211565b9960e08901908561423a83611c8a565b16156142b957609b5461425f906140e590613b0590610cb2906001600160a01b031681565b823b1561020f578551636de8e36360e11b81526004810195909552602485018e9052604485019390935260648401969096526001600160a01b039586166084840152941660a4820152925f90849081838160c481016141f2565b609b549091506142d7906140e590610cb2906001600160a01b031681565b92813b1561020f5784516305f852cf60e51b81526004810191909152602481018d9052604481019290925260648201959095526001600160a01b039091166084820152925f90849081838160a481016141f2565b95975050925f805160206152ab833981519152955061435392506120ba9150610120016135ec565b0390a15f905f90565b5061436d613bb461266c3689611900565b541515613e7e565b506101008601614384816135ec565b426001600160401b0391821610918261439f575b5050613e77565b6143aa9192506135ec565b1615155f80614398565b506001600160401b036143ca61012088016135ec565b1615613e70565b5091935f805160206152ab83398151915293506143f9915060e001516001600160401b031690565b604080519283526001600160401b03909116602083015281908101614353565b5061442c825f52606860205260405f2090565b54606087015160400151614448906001600160601b03166117be565b1115613e46565b5060608601515160608401351415613e3f565b506060860151602001516001600160a01b0316614484610cb260808601611c8a565b6001600160a01b039091161415613e38565b5060a08601516001600160a01b03166144b4610cb260e08601611c8a565b6001600160a01b039091161415613e31565b5060408601516001600160a01b03166144e4610cb260408601611c8a565b6001600160a01b039091161415613e2a565b50855161450281610f95565b61450b84612449565b9061451582610f95565b61451e81610f95565b1415613e23565b1561452c57565b60405162461bcd60e51b815260206004820152600e60248201526d24221d1039b0b6b29037b93232b960911b6044820152606490fd5b1561456957565b60405162461bcd60e51b8152602060048201526011602482015270090887440e6d2c8ca40dad2e6dac2e8c6d607b1b6044820152606490fd5b156145a957565b60405162461bcd60e51b8152602060048201526011602482015270090887440d6d2dcc840dad2e6dac2e8c6d607b1b6044820152606490fd5b156145e957565b60405162461bcd60e51b815260206004820152600e60248201526d24221d1039b0b6b29036b0b5b2b960911b6044820152606490fd5b1561462657565b60405162461bcd60e51b8152602060048201526012602482015271090887440c2e6e6cae840dad2e6dac2e8c6d60731b6044820152606490fd5b1561466757565b60405162461bcd60e51b815260206004820152601060248201526f12110e881bdc99195c8818db1bdcd95960821b6044820152606490fd5b156146a657565b60405162461bcd60e51b815260206004820152601160248201527012110e881bdc99195c88195e1c1a5c9959607a1b6044820152606490fd5b156146e657565b60405162461bcd60e51b8152602060048201526012602482015271090887440e0e4d2c6ca40dad2e6dac2e8c6d60731b6044820152606490fd5b1561472757565b60405162461bcd60e51b8152602060048201526015602482015274090887440c6eae4e4cadcc6f240dad2e6dac2e8c6d605b1b6044820152606490fd5b60a06147ed81610cb2936148866103059861485c614914989961478983821415614525565b845161479481610f95565b61479d81610f95565b1580614a09575b6147ad90614562565b6147cf600160208701516147c081610f95565b6147c981610f95565b146145a2565b60408581015161480b918d916147fc91610cb2916001600160a01b03165b9301516001600160a01b031690565b906001808a1b031614156145e2565b8a61483d610cb26020606061482c82828c01510160018060a01b0390511690565b94015101516001600160a01b031690565b90600180891b031614806149eb575b8015614996575b613bb49061461f565b54606084015160400151614878906001600160601b03166117be565b119081614960575b50614660565b6148c161489d60c08301516001600160401b031690565b6001600160401b0380911690428211918215614957575b5081614925575b5061469f565b6149066148db610a6d60808a01516001600160801b031690565b6001600160801b036148fd610a6d610a6d60808701516001600160801b031690565b911610156146df565b01516001600160a01b031690565b6001600160a01b0390911614614720565b905061493b60c08a01516001600160401b031690565b1642811190811561494e575b505f6148bb565b9050155f614947565b1591505f6148b4565b61497391505f52606860205260405f2090565b5460608901516040015161498f906001600160601b03166117be565b115f614880565b50606085810151602080820151928e015190810151613bb4936001600160a01b03908116916149c59116610cb2565b906001808c1b03161491826149de575b50509050614853565b5190511490505f806149d5565b5060208b01516149fa81610f95565b614a0381610f95565b1561484c565b506147ad60018c51614a1a81610f95565b614a2381610f95565b1490506147a4565b15614a3257565b60405162461bcd60e51b815260206004820152600f60248201526e27ab309d1036b4b9b99036b0b5b2b960891b6044820152606490fd5b15614a7057565b60405162461bcd60e51b815260206004820152600c60248201526b13d5984e88195e1c1a5c995960a21b6044820152606490fd5b15614aab57565b60405162461bcd60e51b815260206004820152600e60248201526d13d5984e881e995c9bc81cd85b1d60921b6044820152606490fd5b15614ae857565b60405162461bcd60e51b815260206004820152600f60248201526e4f56613a207a65726f20707269636560881b6044820152606490fd5b15614b2657565b60405162461bcd60e51b815260206004820152601a60248201527f4f56613a20756e737570706f72746564206e66742061737365740000000000006044820152606490fd5b6040810151614b88906001600160a01b039081165b161515614a2b565b614bd36001600160401b03614bbc81614bab60c08601516001600160401b031690565b168015908115614c58575b50614a69565b60e08301516001600160401b03165b161515614aa4565b8051614bde81610f95565b614be781610f95565b614c1057606001516020015161030590614c09906001600160a01b0316610cb2565b1515614b1f565b60018151614c1d81610f95565b614c2681610f95565b14614c2e5750565b6001600160801b03614c50610a6d60806103059401516001600160801b031690565b161515614ae1565b905042105f614bb6565b6040810151909190614c7e906001600160a01b03908116614b80565b15614ca3575b614bd36001600160401b03614bcb60e08401516001600160401b031690565b614cc26001600160401b03614bab60c08401516001600160401b031690565b614c84565b614cdc612710926001600160801b039261245d565b160490565b905f198214614cf8575f52606860205260405f2055565b60405162461bcd60e51b815260206004820152600d60248201526c13d5984e8818d85b98d95b1959609a1b6044820152606490fd5b6040516323b872dd60e01b60208201526001600160a01b0392831660248201529290911660448301526064820192909252610305916134308260848101613422565b60ff5f8051602061532b8339815191525460401c1615614d8b57565b604051631afcd79f60e31b8152600490fd5b60018101614dbc8382906001600160801b03165f5260205260405f2090565b5490608091821c15614df15760019293614de691906001600160801b03165f5260205260405f2090565b54901c919050614d9d565b50505090565b905b6001808301916001600160801b03928383614e258484906001600160801b03165f5260205260405f2090565b01541615614e505790614e4891906001600160801b03165f5260205260405f2090565b015416614df9565b509250505090565b905f602091828151910182855af1156125de575f513d614ea957506001600160a01b0381163b155b614e875750565b604051635274afe760e01b81526001600160a01b039091166004820152602490fd5b60011415614e80565b9190614ebc614d6f565b614ec4614d6f565b614ecc614d6f565b614ed4614d6f565b82516001600160401b038111610502575f8051602061524b83398151915290614f0681614f018454613435565b61503f565b602080601f8311600114614fa557509080614f3b92614f4296975f92614f9a575b50508160011b915f199060031b1c19161790565b9055615131565b614f6a5f7fa16a46d94261c7517cc8ff89f61c0ce93598e3c849801011dee649a6a557d10055565b614f925f7fa16a46d94261c7517cc8ff89f61c0ce93598e3c849801011dee649a6a557d10155565b610305614d6f565b015190505f80614f27565b90601f19831696614fe35f8051602061524b8339815191525f527f42ad5d3e1f2e6e70edcf6d991b8a3023d3fca8047a131592f9edb9fd9b89d57d90565b925f905b89821061502757505090839291600194614f4298991061500f575b505050811b019055615131565b01515f1960f88460031b161c191690555f8080615002565b80600185968294968601518155019501930190614fe7565b601f811161504b575050565b5f8051602061524b8339815191525f527f42ad5d3e1f2e6e70edcf6d991b8a3023d3fca8047a131592f9edb9fd9b89d57d906020601f840160051c830193106150ae575b601f0160051c01905b8181106150a3575050565b5f8155600101615098565b909150819061508f565b601f81116150c4575050565b5f8051602061528b8339815191525f527f5f9ce34815f8e11431c7bb75a8e6886a91478f7ffc1dbb0a98dc240fddd76b75906020601f840160051c83019310615127575b601f0160051c01905b81811061511c575050565b5f8155600101615111565b9091508190615108565b9081516001600160401b038111610502575f8051602061528b833981519152906151648161515f8454613435565b6150b8565b602080601f8311600114615199575081906151959394955f92614f9a5750508160011b915f199060031b1c19161790565b9055565b90601f198316956151d75f8051602061528b8339815191525f527f5f9ce34815f8e11431c7bb75a8e6886a91478f7ffc1dbb0a98dc240fddd76b7590565b925f905b888210615212575050836001959697106151fa575b505050811b019055565b01515f1960f88460031b161c191690555f80806151f0565b806001859682949686015181550195019301906151db56fe2657db8da9c4d4ecfec0cc273aaf77b2beb3deb180ead6a02d1499db53a73feba16a46d94261c7517cc8ff89f61c0ce93598e3c849801011dee649a6a557d1029016d09d72d40fdae2fd8ceac6b6234c7706214fd39c1cd1e609a0528c199300a16a46d94261c7517cc8ff89f61c0ce93598e3c849801011dee649a6a557d10343d1f368251ebe03c021962d50212d072e7ccee5c8ad3f541d93d0dc43bbd420666226095b63b766d6076c3573345a8908b50622f8ca4411e4c1394830c069a8cd5ed15c6e187e77e9aee88184c21f4f2182ab5827cb3b7e07fbedcd63f033009b779b17422d0df92223018b32b4d1fa46e071723d6817e2486d003becc55f00f0c57e16840df040f15088dc2f81fe391c3923bec73e23a9662efc9c229c6a00a2646970667358221220b95d7d71eb097cd538c67ecc95e8c9b47514a84639952b0a5b3ee1ff5a39ec2664736f6c63430008170033","linkReferences":{}},"methodIdentifiers":{"cancelOrders(bytes32[])":"21c77c96","editOrders((bytes32,(uint8,uint8,address,(uint256,address,uint96),uint128,address,uint64,uint64))[])":"e8d6f3b4","eip712Domain()":"84b0196e","filledAmount(bytes32)":"0b20b7bc","getBestPrice(address,uint8)":"9e09126c","getNextBestPrice(address,uint8,uint128)":"436a5ed6","getOrderKey((uint8,uint8,address,(uint256,address,uint96),uint128,address,uint64,uint64)[])":"e79c76cd","initialize(uint128,address,string,string,address)":"28e97341","isSupportedCurrency(address)":"fca8d471","isWhitelistedCollection(address)":"8214ff3e","makeOrders((uint8,uint8,address,(uint256,address,uint96),uint128,address,uint64,uint64)[])":"c9880d5d","matchOrder((uint8,uint8,address,(uint256,address,uint96),uint128,address,uint64,uint64),(uint8,uint8,address,(uint256,address,uint96),uint128,address,uint64,uint64))":"00dc1a31","matchOrderWithoutPayback((uint8,uint8,address,(uint256,address,uint96),uint128,address,uint64,uint64),(uint8,uint8,address,(uint256,address,uint96),uint128,address,uint64,uint64),uint256)":"e8aa0d32","matchOrders(((uint8,uint8,address,(uint256,address,uint96),uint128,address,uint64,uint64),(uint8,uint8,address,(uint256,address,uint96),uint128,address,uint64,uint64))[])":"57b45aee","orderQueues(address,uint8,uint128)":"e471ba46","orders(bytes32)":"9c3f1e90","owner()":"8da5cb5b","pause()":"8456cb59","paused()":"5c975abb","priceTrees(address,uint8)":"7d910dac","protocolShare()":"1103f315","renounceOwnership()":"715018a6","setProtocolShare(uint128)":"813e7c2a","setSupportCurrency(address,bool)":"1e131aac","setVault(address)":"6817031b","setWhitelistedCollection(address,bool)":"078e94ca","transferOwnership(address)":"f2fde38b","unpause()":"3f4ba83a","withdrawERC20(address,address,uint256)":"44004cc1","withdrawETH(address,uint256)":"4782f779"},"id":68}