{"abi":[{"type":"receive","stateMutability":"payable"},{"type":"function","name":"cancelOrders","inputs":[{"name":"orderKeys","type":"bytes32[]","internalType":"OrderKey[]"}],"outputs":[{"name":"successes","type":"bool[]","internalType":"bool[]"}],"stateMutability":"nonpayable"},{"type":"function","name":"editOrders","inputs":[{"name":"editDetails","type":"tuple[]","internalType":"struct LibOrder.EditDetail[]","components":[{"name":"oldOrderKey","type":"bytes32","internalType":"OrderKey"},{"name":"newOrder","type":"tuple","internalType":"struct LibOrder.Order","components":[{"name":"side","type":"uint8","internalType":"enum LibOrder.Side"},{"name":"saleKind","type":"uint8","internalType":"enum LibOrder.SaleKind"},{"name":"maker","type":"address","internalType":"address"},{"name":"nft","type":"tuple","internalType":"struct LibOrder.Asset","components":[{"name":"tokenId","type":"uint256","internalType":"uint256"},{"name":"collection","type":"address","internalType":"address"},{"name":"amount","type":"uint96","internalType":"uint96"}]},{"name":"price","type":"uint128","internalType":"Price"},{"name":"expiry","type":"uint64","internalType":"uint64"},{"name":"salt","type":"uint64","internalType":"uint64"}]}]}],"outputs":[{"name":"newOrderKeys","type":"bytes32[]","internalType":"OrderKey[]"}],"stateMutability":"payable"},{"type":"function","name":"eip712Domain","inputs":[],"outputs":[{"name":"fields","type":"bytes1","internalType":"bytes1"},{"name":"name","type":"string","internalType":"string"},{"name":"version","type":"string","internalType":"string"},{"name":"chainId","type":"uint256","internalType":"uint256"},{"name":"verifyingContract","type":"address","internalType":"address"},{"name":"salt","type":"bytes32","internalType":"bytes32"},{"name":"extensions","type":"uint256[]","internalType":"uint256[]"}],"stateMutability":"view"},{"type":"function","name":"filledAmount","inputs":[{"name":"","type":"bytes32","internalType":"OrderKey"}],"outputs":[{"name":"","type":"uint256","internalType":"uint256"}],"stateMutability":"view"},{"type":"function","name":"getBestOrder","inputs":[{"name":"collection","type":"address","internalType":"address"},{"name":"tokenId","type":"uint256","internalType":"uint256"},{"name":"side","type":"uint8","internalType":"enum LibOrder.Side"},{"name":"saleKind","type":"uint8","internalType":"enum LibOrder.SaleKind"}],"outputs":[{"name":"orderResult","type":"tuple","internalType":"struct LibOrder.Order","components":[{"name":"side","type":"uint8","internalType":"enum LibOrder.Side"},{"name":"saleKind","type":"uint8","internalType":"enum LibOrder.SaleKind"},{"name":"maker","type":"address","internalType":"address"},{"name":"nft","type":"tuple","internalType":"struct LibOrder.Asset","components":[{"name":"tokenId","type":"uint256","internalType":"uint256"},{"name":"collection","type":"address","internalType":"address"},{"name":"amount","type":"uint96","internalType":"uint96"}]},{"name":"price","type":"uint128","internalType":"Price"},{"name":"expiry","type":"uint64","internalType":"uint64"},{"name":"salt","type":"uint64","internalType":"uint64"}]}],"stateMutability":"view"},{"type":"function","name":"getBestPrice","inputs":[{"name":"collection","type":"address","internalType":"address"},{"name":"side","type":"uint8","internalType":"enum LibOrder.Side"}],"outputs":[{"name":"price","type":"uint128","internalType":"Price"}],"stateMutability":"view"},{"type":"function","name":"getNextBestPrice","inputs":[{"name":"collection","type":"address","internalType":"address"},{"name":"side","type":"uint8","internalType":"enum LibOrder.Side"},{"name":"price","type":"uint128","internalType":"Price"}],"outputs":[{"name":"nextBestPrice","type":"uint128","internalType":"Price"}],"stateMutability":"view"},{"type":"function","name":"getOrders","inputs":[{"name":"collection","type":"address","internalType":"address"},{"name":"tokenId","type":"uint256","internalType":"uint256"},{"name":"side","type":"uint8","internalType":"enum LibOrder.Side"},{"name":"saleKind","type":"uint8","internalType":"enum LibOrder.SaleKind"},{"name":"count","type":"uint256","internalType":"uint256"},{"name":"price","type":"uint128","internalType":"Price"},{"name":"firstOrderKey","type":"bytes32","internalType":"OrderKey"}],"outputs":[{"name":"resultOrders","type":"tuple[]","internalType":"struct LibOrder.Order[]","components":[{"name":"side","type":"uint8","internalType":"enum LibOrder.Side"},{"name":"saleKind","type":"uint8","internalType":"enum LibOrder.SaleKind"},{"name":"maker","type":"address","internalType":"address"},{"name":"nft","type":"tuple","internalType":"struct LibOrder.Asset","components":[{"name":"tokenId","type":"uint256","internalType":"uint256"},{"name":"collection","type":"address","internalType":"address"},{"name":"amount","type":"uint96","internalType":"uint96"}]},{"name":"price","type":"uint128","internalType":"Price"},{"name":"expiry","type":"uint64","internalType":"uint64"},{"name":"salt","type":"uint64","internalType":"uint64"}]},{"name":"nextOrderKey","type":"bytes32","internalType":"OrderKey"}],"stateMutability":"view"},{"type":"function","name":"initialize","inputs":[{"name":"newProtocolShare","type":"uint128","internalType":"uint128"},{"name":"newVault","type":"address","internalType":"address"},{"name":"EIP712Name","type":"string","internalType":"string"},{"name":"EIP712Version","type":"string","internalType":"string"}],"outputs":[],"stateMutability":"nonpayable"},{"type":"function","name":"makeOrders","inputs":[{"name":"newOrders","type":"tuple[]","internalType":"struct LibOrder.Order[]","components":[{"name":"side","type":"uint8","internalType":"enum LibOrder.Side"},{"name":"saleKind","type":"uint8","internalType":"enum LibOrder.SaleKind"},{"name":"maker","type":"address","internalType":"address"},{"name":"nft","type":"tuple","internalType":"struct LibOrder.Asset","components":[{"name":"tokenId","type":"uint256","internalType":"uint256"},{"name":"collection","type":"address","internalType":"address"},{"name":"amount","type":"uint96","internalType":"uint96"}]},{"name":"price","type":"uint128","internalType":"Price"},{"name":"expiry","type":"uint64","internalType":"uint64"},{"name":"salt","type":"uint64","internalType":"uint64"}]}],"outputs":[{"name":"newOrderKeys","type":"bytes32[]","internalType":"OrderKey[]"}],"stateMutability":"payable"},{"type":"function","name":"matchOrder","inputs":[{"name":"sellOrder","type":"tuple","internalType":"struct LibOrder.Order","components":[{"name":"side","type":"uint8","internalType":"enum LibOrder.Side"},{"name":"saleKind","type":"uint8","internalType":"enum LibOrder.SaleKind"},{"name":"maker","type":"address","internalType":"address"},{"name":"nft","type":"tuple","internalType":"struct LibOrder.Asset","components":[{"name":"tokenId","type":"uint256","internalType":"uint256"},{"name":"collection","type":"address","internalType":"address"},{"name":"amount","type":"uint96","internalType":"uint96"}]},{"name":"price","type":"uint128","internalType":"Price"},{"name":"expiry","type":"uint64","internalType":"uint64"},{"name":"salt","type":"uint64","internalType":"uint64"}]},{"name":"buyOrder","type":"tuple","internalType":"struct LibOrder.Order","components":[{"name":"side","type":"uint8","internalType":"enum LibOrder.Side"},{"name":"saleKind","type":"uint8","internalType":"enum LibOrder.SaleKind"},{"name":"maker","type":"address","internalType":"address"},{"name":"nft","type":"tuple","internalType":"struct LibOrder.Asset","components":[{"name":"tokenId","type":"uint256","internalType":"uint256"},{"name":"collection","type":"address","internalType":"address"},{"name":"amount","type":"uint96","internalType":"uint96"}]},{"name":"price","type":"uint128","internalType":"Price"},{"name":"expiry","type":"uint64","internalType":"uint64"},{"name":"salt","type":"uint64","internalType":"uint64"}]}],"outputs":[],"stateMutability":"payable"},{"type":"function","name":"matchOrderWithoutPayback","inputs":[{"name":"sellOrder","type":"tuple","internalType":"struct LibOrder.Order","components":[{"name":"side","type":"uint8","internalType":"enum LibOrder.Side"},{"name":"saleKind","type":"uint8","internalType":"enum LibOrder.SaleKind"},{"name":"maker","type":"address","internalType":"address"},{"name":"nft","type":"tuple","internalType":"struct LibOrder.Asset","components":[{"name":"tokenId","type":"uint256","internalType":"uint256"},{"name":"collection","type":"address","internalType":"address"},{"name":"amount","type":"uint96","internalType":"uint96"}]},{"name":"price","type":"uint128","internalType":"Price"},{"name":"expiry","type":"uint64","internalType":"uint64"},{"name":"salt","type":"uint64","internalType":"uint64"}]},{"name":"buyOrder","type":"tuple","internalType":"struct LibOrder.Order","components":[{"name":"side","type":"uint8","internalType":"enum LibOrder.Side"},{"name":"saleKind","type":"uint8","internalType":"enum LibOrder.SaleKind"},{"name":"maker","type":"address","internalType":"address"},{"name":"nft","type":"tuple","internalType":"struct LibOrder.Asset","components":[{"name":"tokenId","type":"uint256","internalType":"uint256"},{"name":"collection","type":"address","internalType":"address"},{"name":"amount","type":"uint96","internalType":"uint96"}]},{"name":"price","type":"uint128","internalType":"Price"},{"name":"expiry","type":"uint64","internalType":"uint64"},{"name":"salt","type":"uint64","internalType":"uint64"}]},{"name":"msgValue","type":"uint256","internalType":"uint256"}],"outputs":[{"name":"costValue","type":"uint128","internalType":"uint128"}],"stateMutability":"payable"},{"type":"function","name":"matchOrders","inputs":[{"name":"matchDetails","type":"tuple[]","internalType":"struct LibOrder.MatchDetail[]","components":[{"name":"sellOrder","type":"tuple","internalType":"struct LibOrder.Order","components":[{"name":"side","type":"uint8","internalType":"enum LibOrder.Side"},{"name":"saleKind","type":"uint8","internalType":"enum LibOrder.SaleKind"},{"name":"maker","type":"address","internalType":"address"},{"name":"nft","type":"tuple","internalType":"struct LibOrder.Asset","components":[{"name":"tokenId","type":"uint256","internalType":"uint256"},{"name":"collection","type":"address","internalType":"address"},{"name":"amount","type":"uint96","internalType":"uint96"}]},{"name":"price","type":"uint128","internalType":"Price"},{"name":"expiry","type":"uint64","internalType":"uint64"},{"name":"salt","type":"uint64","internalType":"uint64"}]},{"name":"buyOrder","type":"tuple","internalType":"struct LibOrder.Order","components":[{"name":"side","type":"uint8","internalType":"enum LibOrder.Side"},{"name":"saleKind","type":"uint8","internalType":"enum LibOrder.SaleKind"},{"name":"maker","type":"address","internalType":"address"},{"name":"nft","type":"tuple","internalType":"struct LibOrder.Asset","components":[{"name":"tokenId","type":"uint256","internalType":"uint256"},{"name":"collection","type":"address","internalType":"address"},{"name":"amount","type":"uint96","internalType":"uint96"}]},{"name":"price","type":"uint128","internalType":"Price"},{"name":"expiry","type":"uint64","internalType":"uint64"},{"name":"salt","type":"uint64","internalType":"uint64"}]}]}],"outputs":[{"name":"successes","type":"bool[]","internalType":"bool[]"}],"stateMutability":"payable"},{"type":"function","name":"orderQueues","inputs":[{"name":"","type":"address","internalType":"address"},{"name":"","type":"uint8","internalType":"enum LibOrder.Side"},{"name":"","type":"uint128","internalType":"Price"}],"outputs":[{"name":"head","type":"bytes32","internalType":"OrderKey"},{"name":"tail","type":"bytes32","internalType":"OrderKey"}],"stateMutability":"view"},{"type":"function","name":"orders","inputs":[{"name":"","type":"bytes32","internalType":"OrderKey"}],"outputs":[{"name":"order","type":"tuple","internalType":"struct LibOrder.Order","components":[{"name":"side","type":"uint8","internalType":"enum LibOrder.Side"},{"name":"saleKind","type":"uint8","internalType":"enum LibOrder.SaleKind"},{"name":"maker","type":"address","internalType":"address"},{"name":"nft","type":"tuple","internalType":"struct LibOrder.Asset","components":[{"name":"tokenId","type":"uint256","internalType":"uint256"},{"name":"collection","type":"address","internalType":"address"},{"name":"amount","type":"uint96","internalType":"uint96"}]},{"name":"price","type":"uint128","internalType":"Price"},{"name":"expiry","type":"uint64","internalType":"uint64"},{"name":"salt","type":"uint64","internalType":"uint64"}]},{"name":"next","type":"bytes32","internalType":"OrderKey"}],"stateMutability":"view"},{"type":"function","name":"owner","inputs":[],"outputs":[{"name":"","type":"address","internalType":"address"}],"stateMutability":"view"},{"type":"function","name":"pause","inputs":[],"outputs":[],"stateMutability":"nonpayable"},{"type":"function","name":"paused","inputs":[],"outputs":[{"name":"","type":"bool","internalType":"bool"}],"stateMutability":"view"},{"type":"function","name":"priceTrees","inputs":[{"name":"","type":"address","internalType":"address"},{"name":"","type":"uint8","internalType":"enum LibOrder.Side"}],"outputs":[{"name":"root","type":"uint128","internalType":"Price"}],"stateMutability":"view"},{"type":"function","name":"protocolShare","inputs":[],"outputs":[{"name":"","type":"uint128","internalType":"uint128"}],"stateMutability":"view"},{"type":"function","name":"renounceOwnership","inputs":[],"outputs":[],"stateMutability":"nonpayable"},{"type":"function","name":"setProtocolShare","inputs":[{"name":"newProtocolShare","type":"uint128","internalType":"uint128"}],"outputs":[],"stateMutability":"nonpayable"},{"type":"function","name":"setVault","inputs":[{"name":"newVault","type":"address","internalType":"address"}],"outputs":[],"stateMutability":"nonpayable"},{"type":"function","name":"transferOwnership","inputs":[{"name":"newOwner","type":"address","internalType":"address"}],"outputs":[],"stateMutability":"nonpayable"},{"type":"function","name":"unpause","inputs":[],"outputs":[],"stateMutability":"nonpayable"},{"type":"function","name":"withdrawETH","inputs":[{"name":"recipient","type":"address","internalType":"address"},{"name":"amount","type":"uint256","internalType":"uint256"}],"outputs":[],"stateMutability":"nonpayable"},{"type":"event","name":"BatchMatchInnerError","inputs":[{"name":"offset","type":"uint256","indexed":false,"internalType":"uint256"},{"name":"msg","type":"bytes","indexed":false,"internalType":"bytes"}],"anonymous":false},{"type":"event","name":"EIP712DomainChanged","inputs":[],"anonymous":false},{"type":"event","name":"Initialized","inputs":[{"name":"version","type":"uint64","indexed":false,"internalType":"uint64"}],"anonymous":false},{"type":"event","name":"LogCancel","inputs":[{"name":"orderKey","type":"bytes32","indexed":true,"internalType":"OrderKey"},{"name":"maker","type":"address","indexed":true,"internalType":"address"}],"anonymous":false},{"type":"event","name":"LogMake","inputs":[{"name":"orderKey","type":"bytes32","indexed":false,"internalType":"OrderKey"},{"name":"side","type":"uint8","indexed":true,"internalType":"enum LibOrder.Side"},{"name":"saleKind","type":"uint8","indexed":true,"internalType":"enum LibOrder.SaleKind"},{"name":"maker","type":"address","indexed":true,"internalType":"address"},{"name":"nft","type":"tuple","indexed":false,"internalType":"struct LibOrder.Asset","components":[{"name":"tokenId","type":"uint256","internalType":"uint256"},{"name":"collection","type":"address","internalType":"address"},{"name":"amount","type":"uint96","internalType":"uint96"}]},{"name":"price","type":"uint128","indexed":false,"internalType":"Price"},{"name":"expiry","type":"uint64","indexed":false,"internalType":"uint64"},{"name":"salt","type":"uint64","indexed":false,"internalType":"uint64"}],"anonymous":false},{"type":"event","name":"LogMatch","inputs":[{"name":"makeOrderKey","type":"bytes32","indexed":true,"internalType":"OrderKey"},{"name":"takeOrderKey","type":"bytes32","indexed":true,"internalType":"OrderKey"},{"name":"makeOrder","type":"tuple","indexed":false,"internalType":"struct LibOrder.Order","components":[{"name":"side","type":"uint8","internalType":"enum LibOrder.Side"},{"name":"saleKind","type":"uint8","internalType":"enum LibOrder.SaleKind"},{"name":"maker","type":"address","internalType":"address"},{"name":"nft","type":"tuple","internalType":"struct LibOrder.Asset","components":[{"name":"tokenId","type":"uint256","internalType":"uint256"},{"name":"collection","type":"address","internalType":"address"},{"name":"amount","type":"uint96","internalType":"uint96"}]},{"name":"price","type":"uint128","internalType":"Price"},{"name":"expiry","type":"uint64","internalType":"uint64"},{"name":"salt","type":"uint64","internalType":"uint64"}]},{"name":"takeOrder","type":"tuple","indexed":false,"internalType":"struct LibOrder.Order","components":[{"name":"side","type":"uint8","internalType":"enum LibOrder.Side"},{"name":"saleKind","type":"uint8","internalType":"enum LibOrder.SaleKind"},{"name":"maker","type":"address","internalType":"address"},{"name":"nft","type":"tuple","internalType":"struct LibOrder.Asset","components":[{"name":"tokenId","type":"uint256","internalType":"uint256"},{"name":"collection","type":"address","internalType":"address"},{"name":"amount","type":"uint96","internalType":"uint96"}]},{"name":"price","type":"uint128","internalType":"Price"},{"name":"expiry","type":"uint64","internalType":"uint64"},{"name":"salt","type":"uint64","internalType":"uint64"}]},{"name":"fillPrice","type":"uint128","indexed":false,"internalType":"uint128"}],"anonymous":false},{"type":"event","name":"LogSkipOrder","inputs":[{"name":"orderKey","type":"bytes32","indexed":false,"internalType":"OrderKey"},{"name":"salt","type":"uint64","indexed":false,"internalType":"uint64"}],"anonymous":false},{"type":"event","name":"LogUpdatedProtocolShare","inputs":[{"name":"newProtocolShare","type":"uint128","indexed":true,"internalType":"uint128"}],"anonymous":false},{"type":"event","name":"LogWithdrawETH","inputs":[{"name":"recipient","type":"address","indexed":false,"internalType":"address"},{"name":"amount","type":"uint256","indexed":false,"internalType":"uint256"}],"anonymous":false},{"type":"event","name":"OwnershipTransferred","inputs":[{"name":"previousOwner","type":"address","indexed":true,"internalType":"address"},{"name":"newOwner","type":"address","indexed":true,"internalType":"address"}],"anonymous":false},{"type":"event","name":"Paused","inputs":[{"name":"account","type":"address","indexed":false,"internalType":"address"}],"anonymous":false},{"type":"event","name":"Unpaused","inputs":[{"name":"account","type":"address","indexed":false,"internalType":"address"}],"anonymous":false},{"type":"error","name":"CannotFindNextEmptyKey","inputs":[]},{"type":"error","name":"CannotFindPrevEmptyKey","inputs":[]},{"type":"error","name":"CannotInsertDuplicateOrder","inputs":[{"name":"orderKey","type":"bytes32","internalType":"OrderKey"}]},{"type":"error","name":"CannotInsertEmptyKey","inputs":[]},{"type":"error","name":"CannotInsertExistingKey","inputs":[]},{"type":"error","name":"CannotRemoveEmptyKey","inputs":[]},{"type":"error","name":"CannotRemoveMissingKey","inputs":[]},{"type":"error","name":"EnforcedPause","inputs":[]},{"type":"error","name":"ExpectedPause","inputs":[]},{"type":"error","name":"InvalidInitialization","inputs":[]},{"type":"error","name":"NotInitializing","inputs":[]},{"type":"error","name":"OwnableInvalidOwner","inputs":[{"name":"owner","type":"address","internalType":"address"}]},{"type":"error","name":"OwnableUnauthorizedAccount","inputs":[{"name":"account","type":"address","internalType":"address"}]},{"type":"error","name":"ReentrancyGuardReentrantCall","inputs":[]}],"bytecode":{"object":"0x60a06040523073ffffffffffffffffffffffffffffffffffffffff1660809073ffffffffffffffffffffffffffffffffffffffff168152503480156041575f5ffd5b5060805161d7ee61005a5f395f613393015261d7ee5ff3fe608060405260043610610184575f3560e01c80637d910dac116100d05780638da5cb5b11610089578063e471ba4611610063578063e471ba461461057d578063e8f27e95146105ba578063f2fde38b146105ea578063fe971c98146106125761018b565b80638da5cb5b146104da5780639c3f1e90146105045780639e09126c146105415761018b565b80637d910dac146103d7578063813e7c2a146104135780638456cb591461043b57806384b0196e14610451578063877edbff14610481578063882849c9146104be5761018b565b8063436a5ed61161013d5780635d52957e116101175780635d52957e146103355780635dcc7f9c1461035d5780636817031b14610399578063715018a6146103c15761018b565b8063436a5ed6146102a75780634782f779146102e35780635c975abb1461030b5761018b565b80630b20b7bc1461018f5780631103f315146101cb57806321c77c96146101f5578063307725d914610231578063366c39ed146102615780633f4ba83a146102915761018b565b3661018b57005b5f5ffd5b34801561019a575f5ffd5b506101b560048036038101906101b0919061ae94565b610642565b6040516101c2919061aed7565b60405180910390f35b3480156101d6575f5ffd5b506101df610657565b6040516101ec919061af1a565b60405180910390f35b348015610200575f5ffd5b5061021b6004803603810190610216919061af94565b610678565b604051610228919061b0a1565b60405180910390f35b61024b6004803603810190610246919061b117565b61074e565b604051610258919061b22a565b60405180910390f35b61027b6004803603810190610276919061b297565b610970565b604051610288919061af1a565b60405180910390f35b34801561029c575f5ffd5b506102a5610995565b005b3480156102b2575f5ffd5b506102cd60048036038101906102c8919061b391565b6109a7565b6040516102da919061b41a565b60405180910390f35b3480156102ee575f5ffd5b506103096004803603810190610304919061b433565b610c1d565b005b348015610316575f5ffd5b5061031f610c9b565b60405161032c919061b480565b60405180910390f35b348015610340575f5ffd5b5061035b6004803603810190610356919061b5fb565b610cbd565b005b348015610368575f5ffd5b50610383600480360381019061037e919061b6ba565b610e44565b604051610390919061b91a565b60405180910390f35b3480156103a4575f5ffd5b506103bf60048036038101906103ba919061b934565b6113e9565b005b3480156103cc575f5ffd5b506103d56114a2565b005b3480156103e2575f5ffd5b506103fd60048036038101906103f8919061b95f565b6114b5565b60405161040a919061b41a565b60405180910390f35b34801561041e575f5ffd5b506104396004803603810190610434919061b99d565b6114f5565b005b348015610446575f5ffd5b5061044f611509565b005b34801561045c575f5ffd5b5061046561151b565b604051610478979695949392919061bb28565b60405180910390f35b34801561048c575f5ffd5b506104a760048036038101906104a2919061bbaa565b611624565b6040516104b592919061bd8d565b60405180910390f35b6104d860048036038101906104d3919061bdbb565b611efd565b005b3480156104e5575f5ffd5b506104ee611f7e565b6040516104fb919061bdfb565b60405180910390f35b34801561050f575f5ffd5b5061052a6004803603810190610525919061ae94565b611fb3565b60405161053892919061be14565b60405180910390f35b34801561054c575f5ffd5b506105676004803603810190610562919061b95f565b612201565b604051610574919061b41a565b60405180910390f35b348015610588575f5ffd5b506105a3600480360381019061059e919061b391565b61232b565b6040516105b192919061be3d565b60405180910390f35b6105d460048036038101906105cf919061beba565b612361565b6040516105e1919061b22a565b60405180910390f35b3480156105f5575f5ffd5b50610610600480360381019061060b919061b934565b6124a9565b005b61062c6004803603810190610627919061bf5b565b61252d565b604051610639919061b0a1565b60405180910390f35b6068602052805f5260405f205f915090505481565b60355f9054906101000a90046fffffffffffffffffffffffffffffffff1681565b6060610682612840565b61068a612881565b8282905067ffffffffffffffff8111156106a7576106a661b4d7565b5b6040519080825280602002602001820160405280156106d55781602001602082028036833780820191505090505b5090505f5f90505b8383905081101561073f575f61070b8585848181106106ff576106fe61bfa6565b5b905060200201356128d5565b9050808383815181106107215761072061bfa6565b5b602002602001019015159081151581525050508060010190506106dd565b50610748612e2b565b92915050565b6060610758612840565b610760612881565b5f8383905090508067ffffffffffffffff8111156107815761078061b4d7565b5b6040519080825280602002602001820160405280156107af5781602001602082028036833780820191505090505b5091505f5f5f90505b828110156108f7575f6001808111156107d4576107d361b71e565b5b8787848181106107e7576107e661bfa6565b5b905061012002015f0160208101906107ff919061bfd3565b60018111156108115761081061b71e565b5b0361088c578686838181106108295761082861bfa6565b5b905061012002016060016040016020810190610845919061c028565b6bffffffffffffffffffffffff168787848181106108665761086561bfa6565b5b9050610120020160c001602081019061087f919061c053565b610889919061c0ab565b90505b5f6108b08888858181106108a3576108a261bfa6565b5b9050610120020183612e42565b9050808684815181106108c6576108c561bfa6565b5b6020026020010181815250505f5f1b81146108ea5781846108e7919061c0e7565b93505b50508060010190506107b8565b50806fffffffffffffffffffffffffffffffff163411156109605761095f816fffffffffffffffffffffffffffffffff1634610933919061c12a565b61093b61333a565b73ffffffffffffffffffffffffffffffffffffffff1661334190919063ffffffff16565b5b505061096a612e2b565b92915050565b5f610979612840565b610981613391565b61098c8484846133ea565b90509392505050565b61099d61425d565b6109a56142e4565b565b5f6109b182614352565b15610ade576001808111156109c9576109c861b71e565b5b8360018111156109dc576109db61b71e565b5b14610a5e57610a5960015f8673ffffffffffffffffffffffffffffffffffffffff1673ffffffffffffffffffffffffffffffffffffffff1681526020019081526020015f205f856001811115610a3557610a3461b71e565b5b6001811115610a4757610a4661b71e565b5b81526020019081526020015f20614381565b610ad7565b610ad660015f8673ffffffffffffffffffffffffffffffffffffffff1673ffffffffffffffffffffffffffffffffffffffff1681526020019081526020015f205f856001811115610ab257610ab161b71e565b5b6001811115610ac457610ac361b71e565b5b81526020019081526020015f20614478565b5b9050610c16565b600180811115610af157610af061b71e565b5b836001811115610b0457610b0361b71e565b5b14610b9057610b8b8260015f8773ffffffffffffffffffffffffffffffffffffffff1673ffffffffffffffffffffffffffffffffffffffff1681526020019081526020015f205f866001811115610b5e57610b5d61b71e565b5b6001811115610b7057610b6f61b71e565b5b81526020019081526020015f2061456f90919063ffffffff16565b610c13565b610c128260015f8773ffffffffffffffffffffffffffffffffffffffff1673ffffffffffffffffffffffffffffffffffffffff1681526020019081526020015f205f866001811115610be557610be461b71e565b5b6001811115610bf757610bf661b71e565b5b81526020019081526020015f206147c990919063ffffffff16565b5b90505b9392505050565b610c25612881565b610c2d61425d565b610c56818373ffffffffffffffffffffffffffffffffffffffff1661334190919063ffffffff16565b7fab0f46966ebb6f17d26b8f6add4624e39fcfdeaccfeaba589d57f81cb5cb66668282604051610c8792919061c15d565b60405180910390a1610c97612e2b565b5050565b5f5f610ca5614a23565b9050805f015f9054906101000a900460ff1691505090565b5f610cc6614a4a565b90505f815f0160089054906101000a900460ff161590505f825f015f9054906101000a900467ffffffffffffffff1690505f5f8267ffffffffffffffff16148015610d0e5750825b90505f60018367ffffffffffffffff16148015610d4157505f3073ffffffffffffffffffffffffffffffffffffffff163b145b905081158015610d4f575080155b15610d86576040517ff92ee8a900000000000000000000000000000000000000000000000000000000815260040160405180910390fd5b6001855f015f6101000a81548167ffffffffffffffff021916908367ffffffffffffffff1602179055508315610dd3576001855f0160086101000a81548160ff0219169083151502179055505b610ddf89898989614a5d565b8315610e39575f855f0160086101000a81548160ff0219169083151502179055507fc7f505b2f371ae2175ee4913f4499e1f2633a7b5936321eed1cdaeb6115181d26001604051610e30919061c1bd565b60405180910390a15b505050505050505050565b610e4c61ad71565b5f610e578685612201565b90505b610e6381614a77565b156113e0575f60025f8873ffffffffffffffffffffffffffffffffffffffff1673ffffffffffffffffffffffffffffffffffffffff1681526020019081526020015f205f866001811115610eba57610eb961b71e565b5b6001811115610ecc57610ecb61b71e565b5b81526020019081526020015f205f836fffffffffffffffffffffffffffffffff166fffffffffffffffffffffffffffffffff1681526020019081526020015f206040518060400160405290815f820154815260200160018201548152505090505f815f015190505b610f3d81614aa7565b156113a7575f5f5f8381526020019081526020015f206040518060400160405290815f82016040518060e00160405290815f82015f9054906101000a900460ff166001811115610f9057610f8f61b71e565b5b6001811115610fa257610fa161b71e565b5b81526020015f820160019054906101000a900460ff166001811115610fca57610fc961b71e565b5b6001811115610fdc57610fdb61b71e565b5b81526020015f820160029054906101000a900473ffffffffffffffffffffffffffffffffffffffff1673ffffffffffffffffffffffffffffffffffffffff1673ffffffffffffffffffffffffffffffffffffffff168152602001600182016040518060600160405290815f8201548152602001600182015f9054906101000a900473ffffffffffffffffffffffffffffffffffffffff1673ffffffffffffffffffffffffffffffffffffffff1673ffffffffffffffffffffffffffffffffffffffff1681526020016001820160149054906101000a90046bffffffffffffffffffffffff166bffffffffffffffffffffffff166bffffffffffffffffffffffff16815250508152602001600382015f9054906101000a90046fffffffffffffffffffffffffffffffff166fffffffffffffffffffffffffffffffff166fffffffffffffffffffffffffffffffff1681526020016003820160109054906101000a900467ffffffffffffffff1667ffffffffffffffff1667ffffffffffffffff1681526020016003820160189054906101000a900467ffffffffffffffff1667ffffffffffffffff1667ffffffffffffffff1681525050815260200160048201548152505090506001808111156111b5576111b461b71e565b5b8760018111156111c8576111c761b71e565b5b1480156111f857506001808111156111e3576111e261b71e565b5b8660018111156111f6576111f561b71e565b5b145b15611289576001808111156112105761120f61b71e565b5b815f01515f015160018111156112295761122861b71e565b5b14801561126057506001808111156112445761124361b71e565b5b815f015160200151600181111561125e5761125d61b71e565b5b145b80156112765750805f0151606001515f01518814155b15611288578060200151915050610f34565b5b60018081111561129c5761129b61b71e565b5b8760018111156112af576112ae61b71e565b5b1480156112df57505f60018111156112ca576112c961b71e565b5b8660018111156112dd576112dc61b71e565b5b145b1561135a576001808111156112f7576112f661b71e565b5b815f01515f015160018111156113105761130f61b71e565b5b148015611347575060018081111561132b5761132a61b71e565b5b815f01516020015160018111156113455761134461b71e565b5b145b15611359578060200151915050610f34565b5b5f815f015160a0015167ffffffffffffffff161480611389575042815f015160a0015167ffffffffffffffff16115b1561139a57805f01519450506113a7565b8060200151915050610f34565b5f84608001516fffffffffffffffffffffffffffffffff1611156113cc5750506113e0565b6113d78887856109a7565b92505050610e5a565b50949350505050565b6113f161425d565b5f73ffffffffffffffffffffffffffffffffffffffff168173ffffffffffffffffffffffffffffffffffffffff160361145f576040517f08c379a00000000000000000000000000000000000000000000000000000000081526004016114569061c220565b60405180910390fd5b80609b5f6101000a81548173ffffffffffffffffffffffffffffffffffffffff021916908373ffffffffffffffffffffffffffffffffffffffff16021790555050565b6114aa61425d565b6114b35f614ab5565b565b6001602052815f5260405f20602052805f5260405f205f9150915050805f015f9054906101000a90046fffffffffffffffffffffffffffffffff16905081565b6114fd61425d565b61150681614b86565b50565b61151161425d565b611519614c69565b565b5f6060805f5f5f60605f61152d614cd8565b90505f5f1b815f015414801561154857505f5f1b8160010154145b611587576040517f08c379a000000000000000000000000000000000000000000000000000000000815260040161157e9061c288565b60405180910390fd5b61158f614cff565b611597614d9d565b46305f5f1b5f67ffffffffffffffff8111156115b6576115b561b4d7565b5b6040519080825280602002602001820160405280156115e45781602001602082028036833780820191505090505b507f0f0000000000000000000000000000000000000000000000000000000000000095949392919097509750975097509750975097505090919293949596565b60605f8467ffffffffffffffff8111156116415761164061b4d7565b5b60405190808252806020026020018201604052801561167a57816020015b61166761ad71565b81526020019060019003908161165f5790505b50915061168684614352565b1561169c576116958988612201565b93506116b9565b6116a583614e3b565b156116b8576116b58988866109a7565b93505b5b5f5b6116c485614a77565b80156116cf57508581105b15611ef0575f60025f8c73ffffffffffffffffffffffffffffffffffffffff1673ffffffffffffffffffffffffffffffffffffffff1681526020019081526020015f205f8a60018111156117265761172561b71e565b5b60018111156117385761173761b71e565b5b81526020019081526020015f205f876fffffffffffffffffffffffffffffffff166fffffffffffffffffffffffffffffffff1681526020019081526020015f206040518060400160405290815f820154815260200160018201548152505090505f815f015190506117a886614aa7565b15611a3b575b6117b781614aa7565b80156117c35750858114155b15611a35575f5f5f8381526020019081526020015f206040518060400160405290815f82016040518060e00160405290815f82015f9054906101000a900460ff1660018111156118165761181561b71e565b5b60018111156118285761182761b71e565b5b81526020015f820160019054906101000a900460ff1660018111156118505761184f61b71e565b5b60018111156118625761186161b71e565b5b81526020015f820160029054906101000a900473ffffffffffffffffffffffffffffffffffffffff1673ffffffffffffffffffffffffffffffffffffffff1673ffffffffffffffffffffffffffffffffffffffff168152602001600182016040518060600160405290815f8201548152602001600182015f9054906101000a900473ffffffffffffffffffffffffffffffffffffffff1673ffffffffffffffffffffffffffffffffffffffff1673ffffffffffffffffffffffffffffffffffffffff1681526020016001820160149054906101000a90046bffffffffffffffffffffffff166bffffffffffffffffffffffff166bffffffffffffffffffffffff16815250508152602001600382015f9054906101000a90046fffffffffffffffffffffffffffffffff166fffffffffffffffffffffffffffffffff166fffffffffffffffffffffffffffffffff1681526020016003820160109054906101000a900467ffffffffffffffff1667ffffffffffffffff1667ffffffffffffffff1681526020016003820160189054906101000a900467ffffffffffffffff1667ffffffffffffffff1667ffffffffffffffff16815250508152602001600482015481525050905080602001519150506117ae565b5f5f1b95505b5b611a4581614aa7565b8015611a5057508783105b15611edc575f5f5f8381526020019081526020015f206040518060400160405290815f82016040518060e00160405290815f82015f9054906101000a900460ff166001811115611aa357611aa261b71e565b5b6001811115611ab557611ab461b71e565b5b81526020015f820160019054906101000a900460ff166001811115611add57611adc61b71e565b5b6001811115611aef57611aee61b71e565b5b81526020015f820160029054906101000a900473ffffffffffffffffffffffffffffffffffffffff1673ffffffffffffffffffffffffffffffffffffffff1673ffffffffffffffffffffffffffffffffffffffff168152602001600182016040518060600160405290815f8201548152602001600182015f9054906101000a900473ffffffffffffffffffffffffffffffffffffffff1673ffffffffffffffffffffffffffffffffffffffff1673ffffffffffffffffffffffffffffffffffffffff1681526020016001820160149054906101000a90046bffffffffffffffffffffffff166bffffffffffffffffffffffff166bffffffffffffffffffffffff16815250508152602001600382015f9054906101000a90046fffffffffffffffffffffffffffffffff166fffffffffffffffffffffffffffffffff166fffffffffffffffffffffffffffffffff1681526020016003820160109054906101000a900467ffffffffffffffff1667ffffffffffffffff1667ffffffffffffffff1681526020016003820160189054906101000a900467ffffffffffffffff1667ffffffffffffffff1667ffffffffffffffff168152505081526020016004820154815250509050806020015191505f815f015160a0015167ffffffffffffffff1614158015611ced575042815f015160a0015167ffffffffffffffff16105b15611cf85750611a3c565b600180811115611d0b57611d0a61b71e565b5b8b6001811115611d1e57611d1d61b71e565b5b148015611d4e57505f6001811115611d3957611d3861b71e565b5b8a6001811115611d4c57611d4b61b71e565b5b145b15611dc257600180811115611d6657611d6561b71e565b5b815f01515f01516001811115611d7f57611d7e61b71e565b5b148015611db65750600180811115611d9a57611d9961b71e565b5b815f0151602001516001811115611db457611db361b71e565b5b145b15611dc15750611a3c565b5b600180811115611dd557611dd461b71e565b5b8b6001811115611de857611de761b71e565b5b148015611e185750600180811115611e0357611e0261b71e565b5b8a6001811115611e1657611e1561b71e565b5b145b15611ea257600180811115611e3057611e2f61b71e565b5b815f01515f01516001811115611e4957611e4861b71e565b5b148015611e805750600180811115611e6457611e6361b71e565b5b815f0151602001516001811115611e7e57611e7d61b71e565b5b145b8015611e965750805f0151606001515f01518c14155b15611ea15750611a3c565b5b805f0151868581518110611eb957611eb861bfa6565b5b602002602001018190525080602001519450611ed484614e48565b935050611a3c565b611ee78c8b896109a7565b965050506116bb565b5097509795505050505050565b611f05612840565b611f0d612881565b5f611f198383346133ea565b6fffffffffffffffffffffffffffffffff16905080341115611f7157611f708134611f44919061c12a565b611f4c61333a565b73ffffffffffffffffffffffffffffffffffffffff1661334190919063ffffffff16565b5b50611f7a612e2b565b5050565b5f5f611f88614e54565b9050805f015f9054906101000a900473ffffffffffffffffffffffffffffffffffffffff1691505090565b5f602052805f5260405f205f91509050805f016040518060e00160405290815f82015f9054906101000a900460ff166001811115611ff457611ff361b71e565b5b60018111156120065761200561b71e565b5b81526020015f820160019054906101000a900460ff16600181111561202e5761202d61b71e565b5b60018111156120405761203f61b71e565b5b81526020015f820160029054906101000a900473ffffffffffffffffffffffffffffffffffffffff1673ffffffffffffffffffffffffffffffffffffffff1673ffffffffffffffffffffffffffffffffffffffff168152602001600182016040518060600160405290815f8201548152602001600182015f9054906101000a900473ffffffffffffffffffffffffffffffffffffffff1673ffffffffffffffffffffffffffffffffffffffff1673ffffffffffffffffffffffffffffffffffffffff1681526020016001820160149054906101000a90046bffffffffffffffffffffffff166bffffffffffffffffffffffff166bffffffffffffffffffffffff16815250508152602001600382015f9054906101000a90046fffffffffffffffffffffffffffffffff166fffffffffffffffffffffffffffffffff166fffffffffffffffffffffffffffffffff1681526020016003820160109054906101000a900467ffffffffffffffff1667ffffffffffffffff1667ffffffffffffffff1681526020016003820160189054906101000a900467ffffffffffffffff1667ffffffffffffffff1667ffffffffffffffff1681525050908060040154905082565b5f6001808111156122155761221461b71e565b5b8260018111156122285761222761b71e565b5b146122aa576122a560015f8573ffffffffffffffffffffffffffffffffffffffff1673ffffffffffffffffffffffffffffffffffffffff1681526020019081526020015f205f8460018111156122815761228061b71e565b5b60018111156122935761229261b71e565b5b81526020019081526020015f20614381565b612323565b61232260015f8573ffffffffffffffffffffffffffffffffffffffff1673ffffffffffffffffffffffffffffffffffffffff1681526020019081526020015f205f8460018111156122fe576122fd61b71e565b5b60018111156123105761230f61b71e565b5b81526020019081526020015f20614478565b5b905092915050565b6002602052825f5260405f20602052815f5260405f20602052805f5260405f205f925092505050805f0154908060010154905082565b606061236b612840565b612373612881565b8282905067ffffffffffffffff8111156123905761238f61b4d7565b5b6040519080825280602002602001820160405280156123be5781602001602082028036833780820191505090505b5090505f5f5f90505b84849050811015612455575f5f6124168787858181106123ea576123e961bfa6565b5b905061014002015f01358888868181106124075761240661bfa6565b5b90506101400201602001614e7b565b915091508084612426919061c2a6565b93508185848151811061243c5761243b61bfa6565b5b60200260200101818152505050508060010190506123c7565b508034111561249a57612499813461246d919061c12a565b61247561333a565b73ffffffffffffffffffffffffffffffffffffffff1661334190919063ffffffff16565b5b506124a3612e2b565b92915050565b6124b161425d565b5f73ffffffffffffffffffffffffffffffffffffffff168173ffffffffffffffffffffffffffffffffffffffff1603612521575f6040517f1e4fbdf7000000000000000000000000000000000000000000000000000000008152600401612518919061bdfb565b60405180910390fd5b61252a81614ab5565b50565b6060612537612840565b61253f612881565b8282905067ffffffffffffffff81111561255c5761255b61b4d7565b5b60405190808252806020026020018201604052801561258a5781602001602082028036833780820191505090505b5090505f5f5f90505b848490508110156127c857368585838181106125b2576125b161bfa6565b5b9050610240020190505f5f3073ffffffffffffffffffffffffffffffffffffffff16835f018461012001876fffffffffffffffffffffffffffffffff16346125fa919061c12a565b60405160240161260c9392919061c4c6565b6040516020818303038152906040527f366c39ed000000000000000000000000000000000000000000000000000000007bffffffffffffffffffffffffffffffffffffffffffffffffffffffff19166020820180517bffffffffffffffffffffffffffffffffffffffffffffffffffffffff8381831617835250505050604051612696919061c542565b5f60405180830381855af49150503d805f81146126ce576040519150601f19603f3d011682016040523d82523d5f602084013e6126d3565b606091505b5091509150811561278057818685815181106126f2576126f161bfa6565b5b60200260200101901515908115158152505061270c61333a565b73ffffffffffffffffffffffffffffffffffffffff1683610120016040016020810190612739919061b934565b73ffffffffffffffffffffffffffffffffffffffff160361277b575f81806020019051810190612769919061c56c565b90508086612777919061c0e7565b9550505b6127ba565b7f050f709fb65709f10a27682788a9d67fe74de81b310b5c34e3d32f0e2c3ac55784826040516127b192919061c5df565b60405180910390a15b505050806001019050612593565b50806fffffffffffffffffffffffffffffffff1634111561283157612830816fffffffffffffffffffffffffffffffff1634612804919061c12a565b61280c61333a565b73ffffffffffffffffffffffffffffffffffffffff1661334190919063ffffffff16565b5b5061283a612e2b565b92915050565b612848610c9b565b1561287f576040517fd93c066500000000000000000000000000000000000000000000000000000000815260040160405180910390fd5b565b5f61288a61581d565b90506002815f0154036128c9576040517f3ee5aeb500000000000000000000000000000000000000000000000000000000815260040160405180910390fd5b6002815f018190555050565b5f5f5f5f8481526020019081526020015f205f016040518060e00160405290815f82015f9054906101000a900460ff1660018111156129175761291661b71e565b5b60018111156129295761292861b71e565b5b81526020015f820160019054906101000a900460ff1660018111156129515761295061b71e565b5b60018111156129635761296261b71e565b5b81526020015f820160029054906101000a900473ffffffffffffffffffffffffffffffffffffffff1673ffffffffffffffffffffffffffffffffffffffff1673ffffffffffffffffffffffffffffffffffffffff168152602001600182016040518060600160405290815f8201548152602001600182015f9054906101000a900473ffffffffffffffffffffffffffffffffffffffff1673ffffffffffffffffffffffffffffffffffffffff1673ffffffffffffffffffffffffffffffffffffffff1681526020016001820160149054906101000a90046bffffffffffffffffffffffff166bffffffffffffffffffffffff166bffffffffffffffffffffffff16815250508152602001600382015f9054906101000a90046fffffffffffffffffffffffffffffffff166fffffffffffffffffffffffffffffffff166fffffffffffffffffffffffffffffffff1681526020016003820160109054906101000a900467ffffffffffffffff1667ffffffffffffffff1667ffffffffffffffff1681526020016003820160189054906101000a900467ffffffffffffffff1667ffffffffffffffff1667ffffffffffffffff16815250509050612b2361333a565b73ffffffffffffffffffffffffffffffffffffffff16816040015173ffffffffffffffffffffffffffffffffffffffff16148015612b8757508060600151604001516bffffffffffffffffffffffff1660685f8581526020019081526020015f2054105b15612de7575f612b9682615844565b9050612ba1826158c4565b505f6001811115612bb557612bb461b71e565b5b825f01516001811115612bcb57612bca61b71e565b5b03612c7557609b5f9054906101000a900473ffffffffffffffffffffffffffffffffffffffff1673ffffffffffffffffffffffffffffffffffffffff16635243975382846040015185606001516020015186606001515f01516040518563ffffffff1660e01b8152600401612c43949392919061c60d565b5f604051808303815f87803b158015612c5a575f5ffd5b505af1158015612c6c573d5f5f3e3d5ffd5b50505050612d8c565b600180811115612c8857612c8761b71e565b5b825f01516001811115612c9e57612c9d61b71e565b5b03612d8b575f60685f8681526020019081526020015f20548360600151604001516bffffffffffffffffffffffff16612cd7919061c12a565b9050609b5f9054906101000a900473ffffffffffffffffffffffffffffffffffffffff1673ffffffffffffffffffffffffffffffffffffffff16630b049458838386608001516fffffffffffffffffffffffffffffffff16612d39919061c650565b86604001516040518463ffffffff1660e01b8152600401612d5c9392919061c691565b5f604051808303815f87803b158015612d73575f5ffd5b505af1158015612d85573d5f5f3e3d5ffd5b50505050505b5b612d958461607e565b60019250816040015173ffffffffffffffffffffffffffffffffffffffff16847f0ac8bb53fac566d7afc05d8b4df11d7690a7b27bdc40b54e4060f9b21fb849bd60405160405180910390a350612e25565b7f43d1f368251ebe03c021962d50212d072e7ccee5c8ad3f541d93d0dc43bbd420838260c00151604051612e1c92919061c6d5565b60405180910390a15b50919050565b5f612e3461581d565b90506001815f018190555050565b5f612e4b61333a565b73ffffffffffffffffffffffffffffffffffffffff16836040016020810190612e74919061b934565b73ffffffffffffffffffffffffffffffffffffffff16148015612ebb57505f8360c0016020810190612ea6919061c053565b6fffffffffffffffffffffffffffffffff1614155b8015612ee457505f83610100016020810190612ed7919061c6fc565b67ffffffffffffffff1614155b8015612f315750428360e0016020810190612eff919061c6fc565b67ffffffffffffffff161180612f3057505f8360e0016020810190612f24919061c6fc565b67ffffffffffffffff16145b5b8015612f6557505f60685f612f5586803603810190612f50919061c83f565b615844565b81526020019081526020015f2054145b156132ce57612f8383803603810190612f7e919061c83f565b615844565b90505f6001811115612f9857612f9761b71e565b5b835f016020810190612faa919061bfd3565b6001811115612fbc57612fbb61b71e565b5b036130b5576001836060016040016020810190612fd9919061c028565b6bffffffffffffffffffffffff1614612ff6575f5f1b9050613334565b609b5f9054906101000a900473ffffffffffffffffffffffffffffffffffffffff1673ffffffffffffffffffffffffffffffffffffffff16635f91a0f082856040016020810190613047919061b934565b86606001602001602081019061305d919061b934565b876060015f01356040518563ffffffff1660e01b8152600401613083949392919061c60d565b5f604051808303815f87803b15801561309a575f5ffd5b505af11580156130ac573d5f5f3e3d5ffd5b505050506131c4565b6001808111156130c8576130c761b71e565b5b835f0160208101906130da919061bfd3565b60018111156130ec576130eb61b71e565b5b036131c3575f836060016040016020810190613108919061c028565b6bffffffffffffffffffffffff1603613125575f5f1b9050613334565b609b5f9054906101000a900473ffffffffffffffffffffffffffffffffffffffff1673ffffffffffffffffffffffffffffffffffffffff1663e7a394fa836fffffffffffffffffffffffffffffffff1683856040518463ffffffff1660e01b815260040161319492919061c89b565b5f604051808303818588803b1580156131ab575f5ffd5b505af11580156131bd573d5f5f3e3d5ffd5b50505050505b5b6131dd838036038101906131d8919061c83f565b6160b7565b508260400160208101906131f1919061b934565b73ffffffffffffffffffffffffffffffffffffffff1683602001602081019061321a919061c8c2565b600181111561322c5761322b61b71e565b5b845f01602081019061323e919061bfd3565b60018111156132505761324f61b71e565b5b7ffc37f2ff950f95913eb7182357ba3c14df60ef354bc7d6ab1ba2815f249fffe684876060018860c0016020810190613289919061c053565b8960e001602081019061329c919061c6fc565b8a6101000160208101906132b0919061c6fc565b6040516132c195949392919061c945565b60405180910390a4613333565b7f43d1f368251ebe03c021962d50212d072e7ccee5c8ad3f541d93d0dc43bbd42061330884803603810190613303919061c83f565b615844565b8461010001602081019061331c919061c6fc565b60405161332a92919061c6d5565b60405180910390a15b5b92915050565b5f33905090565b5f5f5f5f5f85875af190508061338c576040517f08c379a00000000000000000000000000000000000000000000000000000000081526004016133839061c9e0565b60405180910390fd5b505050565b7f000000000000000000000000000000000000000000000000000000000000000073ffffffffffffffffffffffffffffffffffffffff163073ffffffffffffffffffffffffffffffffffffffff16036133e8575f5ffd5b565b5f5f61340585803603810190613400919061c83f565b615844565b90505f6134218580360381019061341c919061c83f565b615844565b905061344f86803603810190613437919061c83f565b86803603810190613448919061c83f565b84846168de565b856040016020810190613462919061b934565b73ffffffffffffffffffffffffffffffffffffffff1661348061333a565b73ffffffffffffffffffffffffffffffffffffffff1603613afe575f84146134dd576040517f08c379a00000000000000000000000000000000000000000000000000000000081526004016134d49061ca48565b60405180910390fd5b5f5f73ffffffffffffffffffffffffffffffffffffffff165f5f8581526020019081526020015f205f015f0160029054906101000a900473ffffffffffffffffffffffffffffffffffffffff1673ffffffffffffffffffffffffffffffffffffffff161415905061355e87803603810190613558919061c83f565b82616c05565b6137a95f5f8481526020019081526020015f205f016040518060e00160405290815f82015f9054906101000a900460ff1660018111156135a1576135a061b71e565b5b60018111156135b3576135b261b71e565b5b81526020015f820160019054906101000a900460ff1660018111156135db576135da61b71e565b5b60018111156135ed576135ec61b71e565b5b81526020015f820160029054906101000a900473ffffffffffffffffffffffffffffffffffffffff1673ffffffffffffffffffffffffffffffffffffffff1673ffffffffffffffffffffffffffffffffffffffff168152602001600182016040518060600160405290815f8201548152602001600182015f9054906101000a900473ffffffffffffffffffffffffffffffffffffffff1673ffffffffffffffffffffffffffffffffffffffff1673ffffffffffffffffffffffffffffffffffffffff1681526020016001820160149054906101000a90046bffffffffffffffffffffffff166bffffffffffffffffffffffff166bffffffffffffffffffffffff16815250508152602001600382015f9054906101000a90046fffffffffffffffffffffffffffffffff166fffffffffffffffffffffffffffffffff166fffffffffffffffffffffffffffffffff1681526020016003820160109054906101000a900467ffffffffffffffff1667ffffffffffffffff1667ffffffffffffffff1681526020016003820160189054906101000a900467ffffffffffffffff1667ffffffffffffffff1667ffffffffffffffff16815250505f616c05565b5f8660c00160208101906137bd919061c053565b9050811561380d576137de888036038101906137d9919061c83f565b6158c4565b5061380c8860600160400160208101906137f8919061c028565b6bffffffffffffffffffffffff1685616e6a565b5b613834600160685f8681526020019081526020015f205461382e919061c2a6565b84616e6a565b82847ff629aecab94607bc43ce4aebd564bf6e61c7327226a797b002de724b9944b20e8a8a856040516138699392919061ca66565b60405180910390a3609b5f9054906101000a900473ffffffffffffffffffffffffffffffffffffffff1673ffffffffffffffffffffffffffffffffffffffff16630b0494588483306040518463ffffffff1660e01b81526004016138cf9392919061ca9e565b5f604051808303815f87803b1580156138e6575f5ffd5b505af11580156138f8573d5f5f3e3d5ffd5b505050505f6139248260355f9054906101000a90046fffffffffffffffffffffffffffffffff16616ee6565b905061397e8183613935919061cad3565b6fffffffffffffffffffffffffffffffff168a604001602081019061395a919061b934565b73ffffffffffffffffffffffffffffffffffffffff1661334190919063ffffffff16565b8215613a4357609b5f9054906101000a900473ffffffffffffffffffffffffffffffffffffffff1673ffffffffffffffffffffffffffffffffffffffff166352439753868a60400160208101906139d5919061b934565b8c60600160200160208101906139eb919061b934565b8d6060015f01356040518563ffffffff1660e01b8152600401613a11949392919061c60d565b5f604051808303815f87803b158015613a28575f5ffd5b505af1158015613a3a573d5f5f3e3d5ffd5b50505050613af6565b609b5f9054906101000a900473ffffffffffffffffffffffffffffffffffffffff1673ffffffffffffffffffffffffffffffffffffffff16635eb0c73a8a6040016020810190613a93919061b934565b8a6040016020810190613aa6919061b934565b8c6060016040518463ffffffff1660e01b8152600401613ac89392919061cb16565b5f604051808303815f87803b158015613adf575f5ffd5b505af1158015613af1573d5f5f3e3d5ffd5b505050505b505050614254565b846040016020810190613b11919061b934565b73ffffffffffffffffffffffffffffffffffffffff16613b2f61333a565b73ffffffffffffffffffffffffffffffffffffffff1603614218575f5f73ffffffffffffffffffffffffffffffffffffffff165f5f8481526020019081526020015f205f015f0160029054906101000a900473ffffffffffffffffffffffffffffffffffffffff1673ffffffffffffffffffffffffffffffffffffffff1614159050613dfc5f5f8581526020019081526020015f205f016040518060e00160405290815f82015f9054906101000a900460ff166001811115613bf457613bf361b71e565b5b6001811115613c0657613c0561b71e565b5b81526020015f820160019054906101000a900460ff166001811115613c2e57613c2d61b71e565b5b6001811115613c4057613c3f61b71e565b5b81526020015f820160029054906101000a900473ffffffffffffffffffffffffffffffffffffffff1673ffffffffffffffffffffffffffffffffffffffff1673ffffffffffffffffffffffffffffffffffffffff168152602001600182016040518060600160405290815f8201548152602001600182015f9054906101000a900473ffffffffffffffffffffffffffffffffffffffff1673ffffffffffffffffffffffffffffffffffffffff1673ffffffffffffffffffffffffffffffffffffffff1681526020016001820160149054906101000a90046bffffffffffffffffffffffff166bffffffffffffffffffffffff166bffffffffffffffffffffffff16815250508152602001600382015f9054906101000a90046fffffffffffffffffffffffffffffffff166fffffffffffffffffffffffffffffffff166fffffffffffffffffffffffffffffffff1681526020016003820160109054906101000a900467ffffffffffffffff1667ffffffffffffffff1667ffffffffffffffff1681526020016003820160189054906101000a900467ffffffffffffffff1667ffffffffffffffff1667ffffffffffffffff16815250505f616c05565b613e1686803603810190613e10919061c83f565b82616c05565b5f8660c0016020810190613e2a919061c053565b90505f8860c0016020810190613e40919061c053565b905082613ea157806fffffffffffffffffffffffffffffffff16871015613e9c576040517f08c379a0000000000000000000000000000000000000000000000000000000008152600401613e939061cb95565b60405180910390fd5b613fd5565b806fffffffffffffffffffffffffffffffff16826fffffffffffffffffffffffffffffffff161015613f08576040517f08c379a0000000000000000000000000000000000000000000000000000000008152600401613eff9061cbfd565b60405180910390fd5b609b5f9054906101000a900473ffffffffffffffffffffffffffffffffffffffff1673ffffffffffffffffffffffffffffffffffffffff16630b0494588584306040518463ffffffff1660e01b8152600401613f669392919061ca9e565b5f604051808303815f87803b158015613f7d575f5ffd5b505af1158015613f8f573d5f5f3e3d5ffd5b50505050613fac88803603810190613fa7919061c83f565b6158c4565b50613fd4600160685f8781526020019081526020015f2054613fce919061c2a6565b85616e6a565b5b614002896060016040016020810190613fee919061c028565b6bffffffffffffffffffffffff1686616e6a565b84847ff629aecab94607bc43ce4aebd564bf6e61c7327226a797b002de724b9944b20e8a8c856040516140379392919061ca66565b60405180910390a35f6140678260355f9054906101000a90046fffffffffffffffffffffffffffffffff16616ee6565b90506140c18183614078919061cad3565b6fffffffffffffffffffffffffffffffff168b604001602081019061409d919061b934565b73ffffffffffffffffffffffffffffffffffffffff1661334190919063ffffffff16565b816fffffffffffffffffffffffffffffffff16836fffffffffffffffffffffffffffffffff1611156141465761414582846140fc919061cad3565b6fffffffffffffffffffffffffffffffff168a6040016020810190614121919061b934565b73ffffffffffffffffffffffffffffffffffffffff1661334190919063ffffffff16565b5b609b5f9054906101000a900473ffffffffffffffffffffffffffffffffffffffff1673ffffffffffffffffffffffffffffffffffffffff166352439753878b6040016020810190614197919061b934565b8d60600160200160208101906141ad919061b934565b8e6060015f01356040518563ffffffff1660e01b81526004016141d3949392919061c60d565b5f604051808303815f87803b1580156141ea575f5ffd5b505af11580156141fc573d5f5f3e3d5ffd5b505050508361420b578261420d565b5f5b965050505050614253565b6040517f08c379a000000000000000000000000000000000000000000000000000000000815260040161424a9061cc65565b60405180910390fd5b5b50509392505050565b61426561333a565b73ffffffffffffffffffffffffffffffffffffffff16614283611f7e565b73ffffffffffffffffffffffffffffffffffffffff16146142e2576142a661333a565b6040517f118cdaa70000000000000000000000000000000000000000000000000000000081526004016142d9919061bdfb565b60405180910390fd5b565b6142ec616f08565b5f6142f5614a23565b90505f815f015f6101000a81548160ff0219169083151502179055507f5db9ee0a495bf2e6ff9c91a7834c1ba4fdd244a5e8aa4e537bd38aeae4b073aa61433a61333a565b604051614347919061bdfb565b60405180910390a150565b5f5f6fffffffffffffffffffffffffffffffff16826fffffffffffffffffffffffffffffffff16149050919050565b5f815f015f9054906101000a90046fffffffffffffffffffffffffffffffff1690506143ac81614a77565b15614473575b614410826001015f836fffffffffffffffffffffffffffffffff166fffffffffffffffffffffffffffffffff1681526020019081526020015f205f0160109054906101000a90046fffffffffffffffffffffffffffffffff16614a77565b1561447257816001015f826fffffffffffffffffffffffffffffffff166fffffffffffffffffffffffffffffffff1681526020019081526020015f205f0160109054906101000a90046fffffffffffffffffffffffffffffffff1690506143b2565b5b919050565b5f815f015f9054906101000a90046fffffffffffffffffffffffffffffffff1690506144a381614a77565b1561456a575b614507826001015f836fffffffffffffffffffffffffffffffff166fffffffffffffffffffffffffffffffff1681526020019081526020015f206001015f9054906101000a90046fffffffffffffffffffffffffffffffff16614a77565b1561456957816001015f826fffffffffffffffffffffffffffffffff166fffffffffffffffffffffffffffffffff1681526020019081526020015f206001015f9054906101000a90046fffffffffffffffffffffffffffffffff1690506144a9565b5b919050565b5f61457982614352565b156145b0576040517f999e600b00000000000000000000000000000000000000000000000000000000815260040160405180910390fd5b61460e836001015f846fffffffffffffffffffffffffffffffff166fffffffffffffffffffffffffffffffff1681526020019081526020015f206001015f9054906101000a90046fffffffffffffffffffffffffffffffff16614a77565b156146795761467283846001015f856fffffffffffffffffffffffffffffffff166fffffffffffffffffffffffffffffffff1681526020019081526020015f206001015f9054906101000a90046fffffffffffffffffffffffffffffffff16616f48565b90506147c3565b826001015f836fffffffffffffffffffffffffffffffff166fffffffffffffffffffffffffffffffff1681526020019081526020015f205f015f9054906101000a90046fffffffffffffffffffffffffffffffff1690505b6146da81614a77565b801561475e5750826001015f826fffffffffffffffffffffffffffffffff166fffffffffffffffffffffffffffffffff1681526020019081526020015f206001015f9054906101000a90046fffffffffffffffffffffffffffffffff166fffffffffffffffffffffffffffffffff16826fffffffffffffffffffffffffffffffff16145b156147c257809150826001015f826fffffffffffffffffffffffffffffffff166fffffffffffffffffffffffffffffffff1681526020019081526020015f205f015f9054906101000a90046fffffffffffffffffffffffffffffffff1690506146d1565b5b92915050565b5f6147d382614352565b1561480a576040517fdb39187800000000000000000000000000000000000000000000000000000000815260040160405180910390fd5b614868836001015f846fffffffffffffffffffffffffffffffff166fffffffffffffffffffffffffffffffff1681526020019081526020015f205f0160109054906101000a90046fffffffffffffffffffffffffffffffff16614a77565b156148d3576148cc83846001015f856fffffffffffffffffffffffffffffffff166fffffffffffffffffffffffffffffffff1681526020019081526020015f205f0160109054906101000a90046fffffffffffffffffffffffffffffffff16617013565b9050614a1d565b826001015f836fffffffffffffffffffffffffffffffff166fffffffffffffffffffffffffffffffff1681526020019081526020015f205f015f9054906101000a90046fffffffffffffffffffffffffffffffff1690505b61493481614a77565b80156149b85750826001015f826fffffffffffffffffffffffffffffffff166fffffffffffffffffffffffffffffffff1681526020019081526020015f205f0160109054906101000a90046fffffffffffffffffffffffffffffffff166fffffffffffffffffffffffffffffffff16826fffffffffffffffffffffffffffffffff16145b15614a1c57809150826001015f826fffffffffffffffffffffffffffffffff166fffffffffffffffffffffffffffffffff1681526020019081526020015f205f015f9054906101000a90046fffffffffffffffffffffffffffffffff16905061492b565b5b92915050565b5f7fcd5ed15c6e187e77e9aee88184c21f4f2182ab5827cb3b7e07fbedcd63f03300905090565b5f5f614a546170de565b90508091505090565b614a65617107565b614a7184848484617147565b50505050565b5f5f6fffffffffffffffffffffffffffffffff16826fffffffffffffffffffffffffffffffff1614159050919050565b5f5f5f1b8214159050919050565b5f614abe614e54565b90505f815f015f9054906101000a900473ffffffffffffffffffffffffffffffffffffffff16905082825f015f6101000a81548173ffffffffffffffffffffffffffffffffffffffff021916908373ffffffffffffffffffffffffffffffffffffffff1602179055508273ffffffffffffffffffffffffffffffffffffffff168173ffffffffffffffffffffffffffffffffffffffff167f8be0079c531659141344cd1fd0a4f28419497f9722a3daafe3b4186f6b6457e060405160405180910390a3505050565b6103e86fffffffffffffffffffffffffffffffff16816fffffffffffffffffffffffffffffffff161115614bef576040517f08c379a0000000000000000000000000000000000000000000000000000000008152600401614be69061cccd565b60405180910390fd5b8060355f6101000a8154816fffffffffffffffffffffffffffffffff02191690836fffffffffffffffffffffffffffffffff160217905550806fffffffffffffffffffffffffffffffff167f0b52884d4590055c8791518c34458834f75feed662340ef0b5af2898e7a9be9f60405160405180910390a250565b614c71612840565b5f614c7a614a23565b90506001815f015f6101000a81548160ff0219169083151502179055507f62e78cea01bee320cd4e420270b5ea74000d11b0c9f74754ebdbfc544b05a258614cc061333a565b604051614ccd919061bdfb565b60405180910390a150565b5f7fa16a46d94261c7517cc8ff89f61c0ce93598e3c849801011dee649a6a557d100905090565b60605f614d0a614cd8565b9050806002018054614d1b9061cd18565b80601f0160208091040260200160405190810160405280929190818152602001828054614d479061cd18565b8015614d925780601f10614d6957610100808354040283529160200191614d92565b820191905f5260205f20905b815481529060010190602001808311614d7557829003601f168201915b505050505091505090565b60605f614da8614cd8565b9050806003018054614db99061cd18565b80601f0160208091040260200160405190810160405280929190818152602001828054614de59061cd18565b8015614e305780601f10614e0757610100808354040283529160200191614e30565b820191905f5260205f20905b815481529060010190602001808311614e1357829003601f168201915b505050505091505090565b5f5f5f1b82149050919050565b5f816001019050919050565b5f7f9016d09d72d40fdae2fd8ceac6b6234c7706214fd39c1cd1e609a0528c199300905090565b5f5f5f5f5f8681526020019081526020015f205f016040518060e00160405290815f82015f9054906101000a900460ff166001811115614ebe57614ebd61b71e565b5b6001811115614ed057614ecf61b71e565b5b81526020015f820160019054906101000a900460ff166001811115614ef857614ef761b71e565b5b6001811115614f0a57614f0961b71e565b5b81526020015f820160029054906101000a900473ffffffffffffffffffffffffffffffffffffffff1673ffffffffffffffffffffffffffffffffffffffff1673ffffffffffffffffffffffffffffffffffffffff168152602001600182016040518060600160405290815f8201548152602001600182015f9054906101000a900473ffffffffffffffffffffffffffffffffffffffff1673ffffffffffffffffffffffffffffffffffffffff1673ffffffffffffffffffffffffffffffffffffffff1681526020016001820160149054906101000a90046bffffffffffffffffffffffff166bffffffffffffffffffffffff166bffffffffffffffffffffffff16815250508152602001600382015f9054906101000a90046fffffffffffffffffffffffffffffffff166fffffffffffffffffffffffffffffffff166fffffffffffffffffffffffffffffffff1681526020016003820160109054906101000a900467ffffffffffffffff1667ffffffffffffffff1667ffffffffffffffff1681526020016003820160189054906101000a900467ffffffffffffffff1667ffffffffffffffff1667ffffffffffffffff168152505090508360200160208101906150d5919061c8c2565b60018111156150e7576150e661b71e565b5b816020015160018111156150fe576150fd61b71e565b5b1415806151435750835f016020810190615118919061bfd3565b600181111561512a5761512961b71e565b5b815f015160018111156151405761513f61b71e565b5b14155b80615190575083604001602081019061515c919061b934565b73ffffffffffffffffffffffffffffffffffffffff16816040015173ffffffffffffffffffffffffffffffffffffffff1614155b806151e457508360600160200160208101906151ac919061b934565b73ffffffffffffffffffffffffffffffffffffffff1681606001516020015173ffffffffffffffffffffffffffffffffffffffff1614155b806151fc5750836060015f013581606001515f015114155b8061522e57508060600151604001516bffffffffffffffffffffffff1660685f8781526020019081526020015f205410155b1561527e577f43d1f368251ebe03c021962d50212d072e7ccee5c8ad3f541d93d0dc43bbd420858260c0015160405161526892919061c6d5565b60405180910390a15f5f1b5f9250925050615816565b61528661333a565b73ffffffffffffffffffffffffffffffffffffffff168460400160208101906152af919061b934565b73ffffffffffffffffffffffffffffffffffffffff161415806152ee57505f846101000160208101906152e2919061c6fc565b67ffffffffffffffff16145b8061533c5750428460e0016020810190615308919061c6fc565b67ffffffffffffffff1610801561533b57505f8460e001602081019061532e919061c6fc565b67ffffffffffffffff1614155b5b8061537057505f60685f61535f8780360381019061535a919061c83f565b615844565b81526020019081526020015f205414155b156153cf577f43d1f368251ebe03c021962d50212d072e7ccee5c8ad3f541d93d0dc43bbd42085856101000160208101906153ab919061c6fc565b6040516153b992919061c6d5565b60405180910390a15f5f1b5f9250925050615816565b5f60685f8781526020019081526020015f205490506153ed826158c4565b506153f78661607e565b816040015173ffffffffffffffffffffffffffffffffffffffff16867f0ac8bb53fac566d7afc05d8b4df11d7690a7b27bdc40b54e4060f9b21fb849bd60405160405180910390a361545885803603810190615453919061c83f565b6160b7565b93505f600181111561546d5761546c61b71e565b5b825f015160018111156154835761548261b71e565b5b0361551657609b5f9054906101000a900473ffffffffffffffffffffffffffffffffffffffff1673ffffffffffffffffffffffffffffffffffffffff1663ca1e298a87866040518363ffffffff1660e01b81526004016154e492919061be3d565b5f604051808303815f87803b1580156154fb575f5ffd5b505af115801561550d573d5f5f3e3d5ffd5b50505050615728565b6001808111156155295761552861b71e565b5b825f0151600181111561553f5761553e61b71e565b5b03615727575f818360600151604001516bffffffffffffffffffffffff16615567919061c12a565b83608001516fffffffffffffffffffffffffffffffff16615588919061c650565b90505f8660600160400160208101906155a1919061c028565b6bffffffffffffffffffffffff168760c00160208101906155c2919061c053565b6155cc919061c0ab565b6fffffffffffffffffffffffffffffffff169050818111156156905781816155f4919061c12a565b9450609b5f9054906101000a900473ffffffffffffffffffffffffffffffffffffffff1673ffffffffffffffffffffffffffffffffffffffff1663bf0a59e0868a8986868a604001516040518763ffffffff1660e01b815260040161565d95949392919061cd48565b5f604051808303818588803b158015615674575f5ffd5b505af1158015615686573d5f5f3e3d5ffd5b5050505050615724565b609b5f9054906101000a900473ffffffffffffffffffffffffffffffffffffffff1673ffffffffffffffffffffffffffffffffffffffff1663bf0a59e08988858589604001516040518663ffffffff1660e01b81526004016156f695949392919061cd48565b5f604051808303815f87803b15801561570d575f5ffd5b505af115801561571f573d5f5f3e3d5ffd5b505050505b50505b5b84604001602081019061573b919061b934565b73ffffffffffffffffffffffffffffffffffffffff16856020016020810190615764919061c8c2565b60018111156157765761577561b71e565b5b865f016020810190615788919061bfd3565b600181111561579a5761579961b71e565b5b7ffc37f2ff950f95913eb7182357ba3c14df60ef354bc7d6ab1ba2815f249fffe687896060018a60c00160208101906157d3919061c053565b8b60e00160208101906157e6919061c6fc565b8c6101000160208101906157fa919061c6fc565b60405161580b95949392919061c945565b60405180910390a450505b9250929050565b5f7f9b779b17422d0df92223018b32b4d1fa46e071723d6817e2486d003becc55f00905090565b5f7f7e112775c49cc2f5d597cc604eac1616afa66ee95cc7c4d46a97ca90b539ca33825f01518360200151846040015161588186606001516171a1565b86608001518760a001518860c001516040516020016158a798979695949392919061ceb1565b604051602081830303815290604052805190602001209050919050565b5f5f60025f84606001516020015173ffffffffffffffffffffffffffffffffffffffff1673ffffffffffffffffffffffffffffffffffffffff1681526020019081526020015f205f845f015160018111156159225761592161b71e565b5b60018111156159345761593361b71e565b5b81526020019081526020015f205f84608001516fffffffffffffffffffffffffffffffff166fffffffffffffffffffffffffffffffff1681526020019081526020015f209050805f015491505f5f5b61598c84614aa7565b8015615996575080155b15615ea9575f5f5f8681526020019081526020015f206040518060400160405290815f82016040518060e00160405290815f82015f9054906101000a900460ff1660018111156159e9576159e861b71e565b5b60018111156159fb576159fa61b71e565b5b81526020015f820160019054906101000a900460ff166001811115615a2357615a2261b71e565b5b6001811115615a3557615a3461b71e565b5b81526020015f820160029054906101000a900473ffffffffffffffffffffffffffffffffffffffff1673ffffffffffffffffffffffffffffffffffffffff1673ffffffffffffffffffffffffffffffffffffffff168152602001600182016040518060600160405290815f8201548152602001600182015f9054906101000a900473ffffffffffffffffffffffffffffffffffffffff1673ffffffffffffffffffffffffffffffffffffffff1673ffffffffffffffffffffffffffffffffffffffff1681526020016001820160149054906101000a90046bffffffffffffffffffffffff166bffffffffffffffffffffffff166bffffffffffffffffffffffff16815250508152602001600382015f9054906101000a90046fffffffffffffffffffffffffffffffff166fffffffffffffffffffffffffffffffff166fffffffffffffffffffffffffffffffff1681526020016003820160109054906101000a900467ffffffffffffffff1667ffffffffffffffff1667ffffffffffffffff1681526020016003820160189054906101000a900467ffffffffffffffff1667ffffffffffffffff1667ffffffffffffffff168152505081526020016004820154815250509050856040015173ffffffffffffffffffffffffffffffffffffffff16815f01516040015173ffffffffffffffffffffffffffffffffffffffff16148015615c6f575085602001516001811115615c5357615c5261b71e565b5b815f0151602001516001811115615c6d57615c6c61b71e565b5b145b8015615c9957508560a0015167ffffffffffffffff16815f015160a0015167ffffffffffffffff16145b8015615cc357508560c0015167ffffffffffffffff16815f015160c0015167ffffffffffffffff16145b8015615cdf575085606001515f0151815f0151606001515f0151145b8015615d1957508560600151604001516bffffffffffffffffffffffff16815f015160600151604001516bffffffffffffffffffffffff16145b15615e98575f85905085855f015403615d3d578160200151855f0181905550615d5a565b81602001515f5f8681526020019081526020015f20600401819055505b85856001015403615d6f578385600101819055505b859350816020015195505f5f8281526020019081526020015f205f5f82015f5f82015f6101000a81549060ff02191690555f820160016101000a81549060ff02191690555f820160026101000a81549073ffffffffffffffffffffffffffffffffffffffff0219169055600182015f5f82015f9055600182015f6101000a81549073ffffffffffffffffffffffffffffffffffffffff02191690556001820160146101000a8154906bffffffffffffffffffffffff02191690555050600382015f6101000a8154906fffffffffffffffffffffffffffffffff02191690556003820160106101000a81549067ffffffffffffffff02191690556003820160186101000a81549067ffffffffffffffff02191690555050600482015f905550506001925050615ea3565b849250806020015194505b50615983565b801561603b57615ebb835f0154614e3b565b156160365760025f86606001516020015173ffffffffffffffffffffffffffffffffffffffff1673ffffffffffffffffffffffffffffffffffffffff1681526020019081526020015f205f865f01516001811115615f1c57615f1b61b71e565b5b6001811115615f2e57615f2d61b71e565b5b81526020019081526020015f205f86608001516fffffffffffffffffffffffffffffffff166fffffffffffffffffffffffffffffffff1681526020019081526020015f205f5f82015f9055600182015f905550505f60015f87606001516020015173ffffffffffffffffffffffffffffffffffffffff1673ffffffffffffffffffffffffffffffffffffffff1681526020019081526020015f205f875f01516001811115615fdf57615fde61b71e565b5b6001811115615ff157615ff061b71e565b5b81526020019081526020015f20905061601786608001518261720190919063ffffffff16565b15616034576160338660800151826172c490919063ffffffff16565b5b505b616076565b6040517f08c379a000000000000000000000000000000000000000000000000000000000815260040161606d9061cf8c565b60405180910390fd5b505050919050565b7fffffffffffffffffffffffffffffffffffffffffffffffffffffffffffffffff60685f8381526020019081526020015f208190555050565b5f6160c182615844565b90505f73ffffffffffffffffffffffffffffffffffffffff165f5f8381526020019081526020015f205f015f0160029054906101000a900473ffffffffffffffffffffffffffffffffffffffff1673ffffffffffffffffffffffffffffffffffffffff161461616757806040517f62b6540800000000000000000000000000000000000000000000000000000000815260040161615e919061cfaa565b60405180910390fd5b5f60015f84606001516020015173ffffffffffffffffffffffffffffffffffffffff1673ffffffffffffffffffffffffffffffffffffffff1681526020019081526020015f205f845f015160018111156161c4576161c361b71e565b5b60018111156161d6576161d561b71e565b5b81526020019081526020015f2090506161fc83608001518261720190919063ffffffff16565b61621857616217836080015182617dd190919063ffffffff16565b5b5f60025f85606001516020015173ffffffffffffffffffffffffffffffffffffffff1673ffffffffffffffffffffffffffffffffffffffff1681526020019081526020015f205f855f015160018111156162755761627461b71e565b5b60018111156162875761628661b71e565b5b81526020019081526020015f205f85608001516fffffffffffffffffffffffffffffffff166fffffffffffffffffffffffffffffffff1681526020019081526020015f2090506162d9815f0154614e3b565b156164735760405180604001604052805f5f1b81526020015f5f1b81525060025f86606001516020015173ffffffffffffffffffffffffffffffffffffffff1673ffffffffffffffffffffffffffffffffffffffff1681526020019081526020015f205f865f015160018111156163535761635261b71e565b5b60018111156163655761636461b71e565b5b81526020019081526020015f205f86608001516fffffffffffffffffffffffffffffffff166fffffffffffffffffffffffffffffffff1681526020019081526020015f205f820151815f01556020820151816001015590505060025f85606001516020015173ffffffffffffffffffffffffffffffffffffffff1673ffffffffffffffffffffffffffffffffffffffff1681526020019081526020015f205f855f0151600181111561641a5761641961b71e565b5b600181111561642c5761642b61b71e565b5b81526020019081526020015f205f85608001516fffffffffffffffffffffffffffffffff166fffffffffffffffffffffffffffffffff1681526020019081526020015f2090505b6164808160010154614e3b565b156166a65782815f018190555082816001018190555060405180604001604052808581526020015f5f1b8152505f5f8581526020019081526020015f205f820151815f015f820151815f015f6101000a81548160ff021916908360018111156164ec576164eb61b71e565b5b02179055506020820151815f0160016101000a81548160ff0219169083600181111561651b5761651a61b71e565b5b02179055506040820151815f0160026101000a81548173ffffffffffffffffffffffffffffffffffffffff021916908373ffffffffffffffffffffffffffffffffffffffff1602179055506060820151816001015f820151815f01556020820151816001015f6101000a81548173ffffffffffffffffffffffffffffffffffffffff021916908373ffffffffffffffffffffffffffffffffffffffff16021790555060408201518160010160146101000a8154816bffffffffffffffffffffffff02191690836bffffffffffffffffffffffff16021790555050506080820151816003015f6101000a8154816fffffffffffffffffffffffffffffffff02191690836fffffffffffffffffffffffffffffffff16021790555060a08201518160030160106101000a81548167ffffffffffffffff021916908367ffffffffffffffff16021790555060c08201518160030160186101000a81548167ffffffffffffffff021916908367ffffffffffffffff1602179055505050602082015181600401559050506168d7565b825f5f836001015481526020019081526020015f206004018190555060405180604001604052808581526020015f5f1b8152505f5f8581526020019081526020015f205f820151815f015f820151815f015f6101000a81548160ff021916908360018111156167185761671761b71e565b5b02179055506020820151815f0160016101000a81548160ff021916908360018111156167475761674661b71e565b5b02179055506040820151815f0160026101000a81548173ffffffffffffffffffffffffffffffffffffffff021916908373ffffffffffffffffffffffffffffffffffffffff1602179055506060820151816001015f820151815f01556020820151816001015f6101000a81548173ffffffffffffffffffffffffffffffffffffffff021916908373ffffffffffffffffffffffffffffffffffffffff16021790555060408201518160010160146101000a8154816bffffffffffffffffffffffff02191690836bffffffffffffffffffffffff16021790555050506080820151816003015f6101000a8154816fffffffffffffffffffffffffffffffff02191690836fffffffffffffffffffffffffffffffff16021790555060a08201518160030160106101000a81548167ffffffffffffffff021916908367ffffffffffffffff16021790555060c08201518160030160186101000a81548167ffffffffffffffff021916908367ffffffffffffffff1602179055505050602082015181600401559050508281600101819055505b5050919050565b808203616920576040517f08c379a00000000000000000000000000000000000000000000000000000000081526004016169179061d00d565b60405180910390fd5b5f60018111156169335761693261b71e565b5b845f015160018111156169495761694861b71e565b5b14801561697c57506001808111156169645761696361b71e565b5b835f0151600181111561697a5761697961b71e565b5b145b6169bb576040517f08c379a00000000000000000000000000000000000000000000000000000000081526004016169b29061d075565b60405180910390fd5b6001808111156169ce576169cd61b71e565b5b846020015160018111156169e5576169e461b71e565b5b14616a25576040517f08c379a0000000000000000000000000000000000000000000000000000000008152600401616a1c9061d0dd565b60405180910390fd5b826040015173ffffffffffffffffffffffffffffffffffffffff16846040015173ffffffffffffffffffffffffffffffffffffffff1603616a9b576040517f08c379a0000000000000000000000000000000000000000000000000000000008152600401616a929061d145565b60405180910390fd5b5f6001811115616aae57616aad61b71e565b5b83602001516001811115616ac557616ac461b71e565b5b1480616b25575082606001516020015173ffffffffffffffffffffffffffffffffffffffff1684606001516020015173ffffffffffffffffffffffffffffffffffffffff16148015616b24575082606001515f015184606001515f0151145b5b616b64576040517f08c379a0000000000000000000000000000000000000000000000000000000008152600401616b5b9061d1ad565b60405180910390fd5b8360600151604001516bffffffffffffffffffffffff1660685f8481526020019081526020015f2054108015616bc057508260600151604001516bffffffffffffffffffffffff1660685f8381526020019081526020015f2054105b616bff576040517f08c379a0000000000000000000000000000000000000000000000000000000008152600401616bf69061d215565b60405180910390fd5b50505050565b5f73ffffffffffffffffffffffffffffffffffffffff16826040015173ffffffffffffffffffffffffffffffffffffffff1603616c77576040517f08c379a0000000000000000000000000000000000000000000000000000000008152600401616c6e9061d27d565b60405180910390fd5b80616ce5575f8260a0015167ffffffffffffffff161480616ca55750428260a0015167ffffffffffffffff16115b616ce4576040517f08c379a0000000000000000000000000000000000000000000000000000000008152600401616cdb9061d2e5565b60405180910390fd5b5b5f8260c0015167ffffffffffffffff1603616d35576040517f08c379a0000000000000000000000000000000000000000000000000000000008152600401616d2c9061d34d565b60405180910390fd5b5f6001811115616d4857616d4761b71e565b5b825f01516001811115616d5e57616d5d61b71e565b5b03616dde575f73ffffffffffffffffffffffffffffffffffffffff1682606001516020015173ffffffffffffffffffffffffffffffffffffffff1603616dd9576040517f08c379a0000000000000000000000000000000000000000000000000000000008152600401616dd09061d3b5565b60405180910390fd5b616e66565b600180811115616df157616df061b71e565b5b825f01516001811115616e0757616e0661b71e565b5b03616e65575f82608001516fffffffffffffffffffffffffffffffff1611616e64576040517f08c379a0000000000000000000000000000000000000000000000000000000008152600401616e5b9061d41d565b60405180910390fd5b5b5b5050565b7fffffffffffffffffffffffffffffffffffffffffffffffffffffffffffffffff8203616ecc576040517f08c379a0000000000000000000000000000000000000000000000000000000008152600401616ec39061d485565b60405180910390fd5b8160685f8381526020019081526020015f20819055505050565b5f6127108284616ef6919061c0ab565b616f00919061d4d0565b905092915050565b616f10610c9b565b616f46576040517f8dfc202b00000000000000000000000000000000000000000000000000000000815260040160405180910390fd5b565b5f5b616fa8836001015f846fffffffffffffffffffffffffffffffff166fffffffffffffffffffffffffffffffff1681526020019081526020015f205f0160109054906101000a90046fffffffffffffffffffffffffffffffff16614a77565b1561700a57826001015f836fffffffffffffffffffffffffffffffff166fffffffffffffffffffffffffffffffff1681526020019081526020015f205f0160109054906101000a90046fffffffffffffffffffffffffffffffff169150616f4a565b81905092915050565b5f5b617073836001015f846fffffffffffffffffffffffffffffffff166fffffffffffffffffffffffffffffffff1681526020019081526020015f206001015f9054906101000a90046fffffffffffffffffffffffffffffffff16614a77565b156170d557826001015f836fffffffffffffffffffffffffffffffff166fffffffffffffffffffffffffffffffff1681526020019081526020015f206001015f9054906101000a90046fffffffffffffffffffffffffffffffff169150617015565b81905092915050565b5f7ff0c57e16840df040f15088dc2f81fe391c3923bec73e23a9662efc9c229c6a005f1b905090565b61710f61824e565b617145576040517fd7e6bcf800000000000000000000000000000000000000000000000000000000815260040160405180910390fd5b565b61714f617107565b61715761826c565b61716761716261333a565b618276565b61716f61828a565b61717761829c565b61717f6182a6565b617188846182b0565b61719282826182c4565b61719b836113e9565b50505050565b5f7f631e462bf410c643f967c13284911d970aa0a06097a11e4a1a7ad9549175d78a825f0151836020015184604001516040516020016171e4949392919061d50f565b604051602081830303815290604052805190602001209050919050565b5f61720b82614a77565b80156172bc5750825f015f9054906101000a90046fffffffffffffffffffffffffffffffff166fffffffffffffffffffffffffffffffff16826fffffffffffffffffffffffffffffffff1614806172bb57506172ba836001015f846fffffffffffffffffffffffffffffffff166fffffffffffffffffffffffffffffffff1681526020019081526020015f205f015f9054906101000a90046fffffffffffffffffffffffffffffffff16614a77565b5b5b905092915050565b6172cd81614352565b15617304576040517ff482157900000000000000000000000000000000000000000000000000000000815260040160405180910390fd5b61730e8282617201565b617344576040517f4ca93a2a00000000000000000000000000000000000000000000000000000000815260040160405180910390fd5b5f5f6173a4846001015f856fffffffffffffffffffffffffffffffff166fffffffffffffffffffffffffffffffff1681526020019081526020015f205f0160109054906101000a90046fffffffffffffffffffffffffffffffff16614352565b806174095750617408846001015f856fffffffffffffffffffffffffffffffff166fffffffffffffffffffffffffffffffff1681526020019081526020015f206001015f9054906101000a90046fffffffffffffffffffffffffffffffff16614352565b5b1561741657829050617530565b836001015f846fffffffffffffffffffffffffffffffff166fffffffffffffffffffffffffffffffff1681526020019081526020015f206001015f9054906101000a90046fffffffffffffffffffffffffffffffff1690505b6174cd846001015f836fffffffffffffffffffffffffffffffff166fffffffffffffffffffffffffffffffff1681526020019081526020015f205f0160109054906101000a90046fffffffffffffffffffffffffffffffff16614a77565b1561752f57836001015f826fffffffffffffffffffffffffffffffff166fffffffffffffffffffffffffffffffff1681526020019081526020015f205f0160109054906101000a90046fffffffffffffffffffffffffffffffff16905061746f565b5b61758e846001015f836fffffffffffffffffffffffffffffffff166fffffffffffffffffffffffffffffffff1681526020019081526020015f205f0160109054906101000a90046fffffffffffffffffffffffffffffffff16614a77565b156175f057836001015f826fffffffffffffffffffffffffffffffff166fffffffffffffffffffffffffffffffff1681526020019081526020015f205f0160109054906101000a90046fffffffffffffffffffffffffffffffff169150617649565b836001015f826fffffffffffffffffffffffffffffffff166fffffffffffffffffffffffffffffffff1681526020019081526020015f206001015f9054906101000a90046fffffffffffffffffffffffffffffffff1691505b5f846001015f836fffffffffffffffffffffffffffffffff166fffffffffffffffffffffffffffffffff1681526020019081526020015f205f015f9054906101000a90046fffffffffffffffffffffffffffffffff16905080856001015f856fffffffffffffffffffffffffffffffff166fffffffffffffffffffffffffffffffff1681526020019081526020015f205f015f6101000a8154816fffffffffffffffffffffffffffffffff02191690836fffffffffffffffffffffffffffffffff16021790555061771981614a77565b1561788957846001015f826fffffffffffffffffffffffffffffffff166fffffffffffffffffffffffffffffffff1681526020019081526020015f205f0160109054906101000a90046fffffffffffffffffffffffffffffffff166fffffffffffffffffffffffffffffffff16826fffffffffffffffffffffffffffffffff16036178135782856001015f836fffffffffffffffffffffffffffffffff166fffffffffffffffffffffffffffffffff1681526020019081526020015f205f0160106101000a8154816fffffffffffffffffffffffffffffffff02191690836fffffffffffffffffffffffffffffffff160217905550617884565b82856001015f836fffffffffffffffffffffffffffffffff166fffffffffffffffffffffffffffffffff1681526020019081526020015f206001015f6101000a8154816fffffffffffffffffffffffffffffffff02191690836fffffffffffffffffffffffffffffffff1602179055505b6178c3565b82855f015f6101000a8154816fffffffffffffffffffffffffffffffff02191690836fffffffffffffffffffffffffffffffff1602179055505b5f600160ff16866001015f856fffffffffffffffffffffffffffffffff166fffffffffffffffffffffffffffffffff1681526020019081526020015f2060010160109054906101000a900460ff1660ff1614159050846fffffffffffffffffffffffffffffffff16836fffffffffffffffffffffffffffffffff1614617d055761794e8684876182ea565b856001015f866fffffffffffffffffffffffffffffffff166fffffffffffffffffffffffffffffffff1681526020019081526020015f205f0160109054906101000a90046fffffffffffffffffffffffffffffffff16866001015f856fffffffffffffffffffffffffffffffff166fffffffffffffffffffffffffffffffff1681526020019081526020015f205f0160106101000a8154816fffffffffffffffffffffffffffffffff02191690836fffffffffffffffffffffffffffffffff16021790555082866001015f886001015f876fffffffffffffffffffffffffffffffff166fffffffffffffffffffffffffffffffff1681526020019081526020015f205f0160109054906101000a90046fffffffffffffffffffffffffffffffff166fffffffffffffffffffffffffffffffff166fffffffffffffffffffffffffffffffff1681526020019081526020015f205f015f6101000a8154816fffffffffffffffffffffffffffffffff02191690836fffffffffffffffffffffffffffffffff160217905550856001015f866fffffffffffffffffffffffffffffffff166fffffffffffffffffffffffffffffffff1681526020019081526020015f206001015f9054906101000a90046fffffffffffffffffffffffffffffffff16866001015f856fffffffffffffffffffffffffffffffff166fffffffffffffffffffffffffffffffff1681526020019081526020015f206001015f6101000a8154816fffffffffffffffffffffffffffffffff02191690836fffffffffffffffffffffffffffffffff16021790555082866001015f886001015f876fffffffffffffffffffffffffffffffff166fffffffffffffffffffffffffffffffff1681526020019081526020015f206001015f9054906101000a90046fffffffffffffffffffffffffffffffff166fffffffffffffffffffffffffffffffff166fffffffffffffffffffffffffffffffff1681526020019081526020015f205f015f6101000a8154816fffffffffffffffffffffffffffffffff02191690836fffffffffffffffffffffffffffffffff160217905550856001015f866fffffffffffffffffffffffffffffffff166fffffffffffffffffffffffffffffffff1681526020019081526020015f2060010160109054906101000a900460ff16866001015f856fffffffffffffffffffffffffffffffff166fffffffffffffffffffffffffffffffff1681526020019081526020015f2060010160106101000a81548160ff021916908360ff160217905550848380965081945050505b8015617d1657617d15868561856a565b5b856001015f846fffffffffffffffffffffffffffffffff166fffffffffffffffffffffffffffffffff1681526020019081526020015f205f5f82015f6101000a8154906fffffffffffffffffffffffffffffffff02191690555f820160106101000a8154906fffffffffffffffffffffffffffffffff0219169055600182015f6101000a8154906fffffffffffffffffffffffffffffffff02191690556001820160106101000a81549060ff02191690555050505050505050565b617dda81614352565b15617e11576040517f1866497900000000000000000000000000000000000000000000000000000000815260040160405180910390fd5b617e1b8282617201565b15617e52576040517f8caa2ccf00000000000000000000000000000000000000000000000000000000815260040160405180910390fd5b5f5f90505f835f015f9054906101000a90046fffffffffffffffffffffffffffffffff1690505b617e8281614a77565b15617f7157809150806fffffffffffffffffffffffffffffffff16836fffffffffffffffffffffffffffffffff161015617f1357836001015f826fffffffffffffffffffffffffffffffff166fffffffffffffffffffffffffffffffff1681526020019081526020015f205f0160109054906101000a90046fffffffffffffffffffffffffffffffff169050617f6c565b836001015f826fffffffffffffffffffffffffffffffff166fffffffffffffffffffffffffffffffff1681526020019081526020015f206001015f9054906101000a90046fffffffffffffffffffffffffffffffff1690505b617e79565b6040518060800160405280836fffffffffffffffffffffffffffffffff1681526020015f6fffffffffffffffffffffffffffffffff1681526020015f6fffffffffffffffffffffffffffffffff168152602001600160ff16815250846001015f856fffffffffffffffffffffffffffffffff166fffffffffffffffffffffffffffffffff1681526020019081526020015f205f820151815f015f6101000a8154816fffffffffffffffffffffffffffffffff02191690836fffffffffffffffffffffffffffffffff1602179055506020820151815f0160106101000a8154816fffffffffffffffffffffffffffffffff02191690836fffffffffffffffffffffffffffffffff1602179055506040820151816001015f6101000a8154816fffffffffffffffffffffffffffffffff02191690836fffffffffffffffffffffffffffffffff16021790555060608201518160010160106101000a81548160ff021916908360ff1602179055509050506180e882614352565b1561812b5782845f015f6101000a8154816fffffffffffffffffffffffffffffffff02191690836fffffffffffffffffffffffffffffffff16021790555061823e565b816fffffffffffffffffffffffffffffffff16836fffffffffffffffffffffffffffffffff1610156181cc5782846001015f846fffffffffffffffffffffffffffffffff166fffffffffffffffffffffffffffffffff1681526020019081526020015f205f0160106101000a8154816fffffffffffffffffffffffffffffffff02191690836fffffffffffffffffffffffffffffffff16021790555061823d565b82846001015f846fffffffffffffffffffffffffffffffff166fffffffffffffffffffffffffffffffff1681526020019081526020015f206001015f6101000a8154816fffffffffffffffffffffffffffffffff02191690836fffffffffffffffffffffffffffffffff1602179055505b5b61824884846195c6565b50505050565b5f618257614a4a565b5f0160089054906101000a900460ff16905090565b618274617107565b565b61827e617107565b6182878161a249565b50565b618292617107565b61829a61a2cd565b565b6182a4617107565b565b6182ae617107565b565b6182b8617107565b6182c18161a2ec565b50565b6182cc617107565b6182d461826c565b6182de828261a300565b6182e661a316565b5050565b5f836001015f836fffffffffffffffffffffffffffffffff166fffffffffffffffffffffffffffffffff1681526020019081526020015f205f015f9054906101000a90046fffffffffffffffffffffffffffffffff16905080846001015f856fffffffffffffffffffffffffffffffff166fffffffffffffffffffffffffffffffff1681526020019081526020015f205f015f6101000a8154816fffffffffffffffffffffffffffffffff02191690836fffffffffffffffffffffffffffffffff1602179055506183ba81614352565b156183fd5782845f015f6101000a8154816fffffffffffffffffffffffffffffffff02191690836fffffffffffffffffffffffffffffffff160217905550618564565b836001015f826fffffffffffffffffffffffffffffffff166fffffffffffffffffffffffffffffffff1681526020019081526020015f205f0160109054906101000a90046fffffffffffffffffffffffffffffffff166fffffffffffffffffffffffffffffffff16826fffffffffffffffffffffffffffffffff16036184f25782846001015f836fffffffffffffffffffffffffffffffff166fffffffffffffffffffffffffffffffff1681526020019081526020015f205f0160106101000a8154816fffffffffffffffffffffffffffffffff02191690836fffffffffffffffffffffffffffffffff160217905550618563565b82846001015f836fffffffffffffffffffffffffffffffff166fffffffffffffffffffffffffffffffff1681526020019081526020015f206001015f6101000a8154816fffffffffffffffffffffffffffffffff02191690836fffffffffffffffffffffffffffffffff1602179055505b5b50505050565b5f5b825f015f9054906101000a90046fffffffffffffffffffffffffffffffff166fffffffffffffffffffffffffffffffff16826fffffffffffffffffffffffffffffffff161415801561860c5750600160ff16836001015f846fffffffffffffffffffffffffffffffff166fffffffffffffffffffffffffffffffff1681526020019081526020015f2060010160109054906101000a900460ff1660ff1614155b1561956d575f836001015f846fffffffffffffffffffffffffffffffff166fffffffffffffffffffffffffffffffff1681526020019081526020015f205f015f9054906101000a90046fffffffffffffffffffffffffffffffff169050836001015f826fffffffffffffffffffffffffffffffff166fffffffffffffffffffffffffffffffff1681526020019081526020015f205f0160109054906101000a90046fffffffffffffffffffffffffffffffff166fffffffffffffffffffffffffffffffff16836fffffffffffffffffffffffffffffffff1603618e2a57836001015f826fffffffffffffffffffffffffffffffff166fffffffffffffffffffffffffffffffff1681526020019081526020015f206001015f9054906101000a90046fffffffffffffffffffffffffffffffff169150600160ff16846001015f846fffffffffffffffffffffffffffffffff166fffffffffffffffffffffffffffffffff1681526020019081526020015f2060010160109054906101000a900460ff1660ff16036188a1576002846001015f846fffffffffffffffffffffffffffffffff166fffffffffffffffffffffffffffffffff1681526020019081526020015f2060010160106101000a81548160ff021916908360ff1602179055506001846001015f836fffffffffffffffffffffffffffffffff166fffffffffffffffffffffffffffffffff1681526020019081526020015f2060010160106101000a81548160ff021916908360ff160217905550618848848261a320565b836001015f826fffffffffffffffffffffffffffffffff166fffffffffffffffffffffffffffffffff1681526020019081526020015f206001015f9054906101000a90046fffffffffffffffffffffffffffffffff1691505b600160ff16846001015f866001015f866fffffffffffffffffffffffffffffffff166fffffffffffffffffffffffffffffffff1681526020019081526020015f205f0160109054906101000a90046fffffffffffffffffffffffffffffffff166fffffffffffffffffffffffffffffffff166fffffffffffffffffffffffffffffffff1681526020019081526020015f2060010160109054906101000a900460ff1660ff16141580156189f75750600160ff16846001015f866001015f866fffffffffffffffffffffffffffffffff166fffffffffffffffffffffffffffffffff1681526020019081526020015f206001015f9054906101000a90046fffffffffffffffffffffffffffffffff166fffffffffffffffffffffffffffffffff166fffffffffffffffffffffffffffffffff1681526020019081526020015f2060010160109054906101000a900460ff1660ff1614155b15618a58576001846001015f846fffffffffffffffffffffffffffffffff166fffffffffffffffffffffffffffffffff1681526020019081526020015f2060010160106101000a81548160ff021916908360ff160217905550809250618e25565b600160ff16846001015f866001015f866fffffffffffffffffffffffffffffffff166fffffffffffffffffffffffffffffffff1681526020019081526020015f206001015f9054906101000a90046fffffffffffffffffffffffffffffffff166fffffffffffffffffffffffffffffffff166fffffffffffffffffffffffffffffffff1681526020019081526020015f2060010160109054906101000a900460ff1660ff1614618c62576002846001015f866001015f866fffffffffffffffffffffffffffffffff166fffffffffffffffffffffffffffffffff1681526020019081526020015f205f0160109054906101000a90046fffffffffffffffffffffffffffffffff166fffffffffffffffffffffffffffffffff166fffffffffffffffffffffffffffffffff1681526020019081526020015f2060010160106101000a81548160ff021916908360ff1602179055506001846001015f846fffffffffffffffffffffffffffffffff166fffffffffffffffffffffffffffffffff1681526020019081526020015f2060010160106101000a81548160ff021916908360ff160217905550618c09848361a820565b836001015f826fffffffffffffffffffffffffffffffff166fffffffffffffffffffffffffffffffff1681526020019081526020015f206001015f9054906101000a90046fffffffffffffffffffffffffffffffff1691505b836001015f826fffffffffffffffffffffffffffffffff166fffffffffffffffffffffffffffffffff1681526020019081526020015f2060010160109054906101000a900460ff16846001015f846fffffffffffffffffffffffffffffffff166fffffffffffffffffffffffffffffffff1681526020019081526020015f2060010160106101000a81548160ff021916908360ff1602179055506002846001015f836fffffffffffffffffffffffffffffffff166fffffffffffffffffffffffffffffffff1681526020019081526020015f2060010160106101000a81548160ff021916908360ff1602179055506002846001015f866001015f866fffffffffffffffffffffffffffffffff166fffffffffffffffffffffffffffffffff1681526020019081526020015f206001015f9054906101000a90046fffffffffffffffffffffffffffffffff166fffffffffffffffffffffffffffffffff166fffffffffffffffffffffffffffffffff1681526020019081526020015f2060010160106101000a81548160ff021916908360ff160217905550618e03848261a320565b835f015f9054906101000a90046fffffffffffffffffffffffffffffffff1692505b619567565b836001015f826fffffffffffffffffffffffffffffffff166fffffffffffffffffffffffffffffffff1681526020019081526020015f205f0160109054906101000a90046fffffffffffffffffffffffffffffffff169150600160ff16846001015f846fffffffffffffffffffffffffffffffff166fffffffffffffffffffffffffffffffff1681526020019081526020015f2060010160109054906101000a900460ff1660ff1603618fe2576002846001015f846fffffffffffffffffffffffffffffffff166fffffffffffffffffffffffffffffffff1681526020019081526020015f2060010160106101000a81548160ff021916908360ff1602179055506001846001015f836fffffffffffffffffffffffffffffffff166fffffffffffffffffffffffffffffffff1681526020019081526020015f2060010160106101000a81548160ff021916908360ff160217905550618f89848261a820565b836001015f826fffffffffffffffffffffffffffffffff166fffffffffffffffffffffffffffffffff1681526020019081526020015f205f0160109054906101000a90046fffffffffffffffffffffffffffffffff1691505b600160ff16846001015f866001015f866fffffffffffffffffffffffffffffffff166fffffffffffffffffffffffffffffffff1681526020019081526020015f206001015f9054906101000a90046fffffffffffffffffffffffffffffffff166fffffffffffffffffffffffffffffffff166fffffffffffffffffffffffffffffffff1681526020019081526020015f2060010160109054906101000a900460ff1660ff16141580156191385750600160ff16846001015f866001015f866fffffffffffffffffffffffffffffffff166fffffffffffffffffffffffffffffffff1681526020019081526020015f205f0160109054906101000a90046fffffffffffffffffffffffffffffffff166fffffffffffffffffffffffffffffffff166fffffffffffffffffffffffffffffffff1681526020019081526020015f2060010160109054906101000a900460ff1660ff1614155b15619199576001846001015f846fffffffffffffffffffffffffffffffff166fffffffffffffffffffffffffffffffff1681526020019081526020015f2060010160106101000a81548160ff021916908360ff160217905550809250619566565b600160ff16846001015f866001015f866fffffffffffffffffffffffffffffffff166fffffffffffffffffffffffffffffffff1681526020019081526020015f205f0160109054906101000a90046fffffffffffffffffffffffffffffffff166fffffffffffffffffffffffffffffffff166fffffffffffffffffffffffffffffffff1681526020019081526020015f2060010160109054906101000a900460ff1660ff16146193a3576002846001015f866001015f866fffffffffffffffffffffffffffffffff166fffffffffffffffffffffffffffffffff1681526020019081526020015f206001015f9054906101000a90046fffffffffffffffffffffffffffffffff166fffffffffffffffffffffffffffffffff166fffffffffffffffffffffffffffffffff1681526020019081526020015f2060010160106101000a81548160ff021916908360ff1602179055506001846001015f846fffffffffffffffffffffffffffffffff166fffffffffffffffffffffffffffffffff1681526020019081526020015f2060010160106101000a81548160ff021916908360ff16021790555061934a848361a320565b836001015f826fffffffffffffffffffffffffffffffff166fffffffffffffffffffffffffffffffff1681526020019081526020015f205f0160109054906101000a90046fffffffffffffffffffffffffffffffff1691505b836001015f826fffffffffffffffffffffffffffffffff166fffffffffffffffffffffffffffffffff1681526020019081526020015f2060010160109054906101000a900460ff16846001015f846fffffffffffffffffffffffffffffffff166fffffffffffffffffffffffffffffffff1681526020019081526020015f2060010160106101000a81548160ff021916908360ff1602179055506002846001015f836fffffffffffffffffffffffffffffffff166fffffffffffffffffffffffffffffffff1681526020019081526020015f2060010160106101000a81548160ff021916908360ff1602179055506002846001015f866001015f866fffffffffffffffffffffffffffffffff166fffffffffffffffffffffffffffffffff1681526020019081526020015f205f0160109054906101000a90046fffffffffffffffffffffffffffffffff166fffffffffffffffffffffffffffffffff166fffffffffffffffffffffffffffffffff1681526020019081526020015f2060010160106101000a81548160ff021916908360ff160217905550619544848261a820565b835f015f9054906101000a90046fffffffffffffffffffffffffffffffff1692505b5b5061856c565b6002836001015f846fffffffffffffffffffffffffffffffff166fffffffffffffffffffffffffffffffff1681526020019081526020015f2060010160106101000a81548160ff021916908360ff160217905550505050565b5f5b825f015f9054906101000a90046fffffffffffffffffffffffffffffffff166fffffffffffffffffffffffffffffffff16826fffffffffffffffffffffffffffffffff16141580156196bb5750600160ff16836001015f856001015f866fffffffffffffffffffffffffffffffff166fffffffffffffffffffffffffffffffff1681526020019081526020015f205f015f9054906101000a90046fffffffffffffffffffffffffffffffff166fffffffffffffffffffffffffffffffff166fffffffffffffffffffffffffffffffff1681526020019081526020015f2060010160109054906101000a900460ff1660ff16145b1561a1d2575f836001015f846fffffffffffffffffffffffffffffffff166fffffffffffffffffffffffffffffffff1681526020019081526020015f205f015f9054906101000a90046fffffffffffffffffffffffffffffffff169050836001015f856001015f846fffffffffffffffffffffffffffffffff166fffffffffffffffffffffffffffffffff1681526020019081526020015f205f015f9054906101000a90046fffffffffffffffffffffffffffffffff166fffffffffffffffffffffffffffffffff166fffffffffffffffffffffffffffffffff1681526020019081526020015f205f0160109054906101000a90046fffffffffffffffffffffffffffffffff166fffffffffffffffffffffffffffffffff16816fffffffffffffffffffffffffffffffff1603619cde57836001015f856001015f846fffffffffffffffffffffffffffffffff166fffffffffffffffffffffffffffffffff1681526020019081526020015f205f015f9054906101000a90046fffffffffffffffffffffffffffffffff166fffffffffffffffffffffffffffffffff166fffffffffffffffffffffffffffffffff1681526020019081526020015f206001015f9054906101000a90046fffffffffffffffffffffffffffffffff169150600160ff16846001015f846fffffffffffffffffffffffffffffffff166fffffffffffffffffffffffffffffffff1681526020019081526020015f2060010160109054906101000a900460ff1660ff1603619a99576002846001015f836fffffffffffffffffffffffffffffffff166fffffffffffffffffffffffffffffffff1681526020019081526020015f2060010160106101000a81548160ff021916908360ff1602179055506002846001015f846fffffffffffffffffffffffffffffffff166fffffffffffffffffffffffffffffffff1681526020019081526020015f2060010160106101000a81548160ff021916908360ff1602179055506001846001015f866001015f856fffffffffffffffffffffffffffffffff166fffffffffffffffffffffffffffffffff1681526020019081526020015f205f015f9054906101000a90046fffffffffffffffffffffffffffffffff166fffffffffffffffffffffffffffffffff166fffffffffffffffffffffffffffffffff1681526020019081526020015f2060010160106101000a81548160ff021916908360ff160217905550836001015f826fffffffffffffffffffffffffffffffff166fffffffffffffffffffffffffffffffff1681526020019081526020015f205f015f9054906101000a90046fffffffffffffffffffffffffffffffff169250619cd9565b836001015f826fffffffffffffffffffffffffffffffff166fffffffffffffffffffffffffffffffff1681526020019081526020015f206001015f9054906101000a90046fffffffffffffffffffffffffffffffff166fffffffffffffffffffffffffffffffff16836fffffffffffffffffffffffffffffffff1603619b2757809250619b26848461a320565b5b836001015f846fffffffffffffffffffffffffffffffff166fffffffffffffffffffffffffffffffff1681526020019081526020015f205f015f9054906101000a90046fffffffffffffffffffffffffffffffff1690506002846001015f836fffffffffffffffffffffffffffffffff166fffffffffffffffffffffffffffffffff1681526020019081526020015f2060010160106101000a81548160ff021916908360ff1602179055506001846001015f866001015f856fffffffffffffffffffffffffffffffff166fffffffffffffffffffffffffffffffff1681526020019081526020015f205f015f9054906101000a90046fffffffffffffffffffffffffffffffff166fffffffffffffffffffffffffffffffff166fffffffffffffffffffffffffffffffff1681526020019081526020015f2060010160106101000a81548160ff021916908360ff160217905550619cd884856001015f846fffffffffffffffffffffffffffffffff166fffffffffffffffffffffffffffffffff1681526020019081526020015f205f015f9054906101000a90046fffffffffffffffffffffffffffffffff1661a820565b5b61a1cc565b836001015f856001015f846fffffffffffffffffffffffffffffffff166fffffffffffffffffffffffffffffffff1681526020019081526020015f205f015f9054906101000a90046fffffffffffffffffffffffffffffffff166fffffffffffffffffffffffffffffffff166fffffffffffffffffffffffffffffffff1681526020019081526020015f205f0160109054906101000a90046fffffffffffffffffffffffffffffffff169150600160ff16846001015f846fffffffffffffffffffffffffffffffff166fffffffffffffffffffffffffffffffff1681526020019081526020015f2060010160109054906101000a900460ff1660ff1603619f8b576002846001015f836fffffffffffffffffffffffffffffffff166fffffffffffffffffffffffffffffffff1681526020019081526020015f2060010160106101000a81548160ff021916908360ff1602179055506002846001015f846fffffffffffffffffffffffffffffffff166fffffffffffffffffffffffffffffffff1681526020019081526020015f2060010160106101000a81548160ff021916908360ff1602179055506001846001015f866001015f856fffffffffffffffffffffffffffffffff166fffffffffffffffffffffffffffffffff1681526020019081526020015f205f015f9054906101000a90046fffffffffffffffffffffffffffffffff166fffffffffffffffffffffffffffffffff166fffffffffffffffffffffffffffffffff1681526020019081526020015f2060010160106101000a81548160ff021916908360ff160217905550836001015f826fffffffffffffffffffffffffffffffff166fffffffffffffffffffffffffffffffff1681526020019081526020015f205f015f9054906101000a90046fffffffffffffffffffffffffffffffff16925061a1cb565b836001015f826fffffffffffffffffffffffffffffffff166fffffffffffffffffffffffffffffffff1681526020019081526020015f205f0160109054906101000a90046fffffffffffffffffffffffffffffffff166fffffffffffffffffffffffffffffffff16836fffffffffffffffffffffffffffffffff160361a0195780925061a018848461a820565b5b836001015f846fffffffffffffffffffffffffffffffff166fffffffffffffffffffffffffffffffff1681526020019081526020015f205f015f9054906101000a90046fffffffffffffffffffffffffffffffff1690506002846001015f836fffffffffffffffffffffffffffffffff166fffffffffffffffffffffffffffffffff1681526020019081526020015f2060010160106101000a81548160ff021916908360ff1602179055506001846001015f866001015f856fffffffffffffffffffffffffffffffff166fffffffffffffffffffffffffffffffff1681526020019081526020015f205f015f9054906101000a90046fffffffffffffffffffffffffffffffff166fffffffffffffffffffffffffffffffff166fffffffffffffffffffffffffffffffff1681526020019081526020015f2060010160106101000a81548160ff021916908360ff16021790555061a1ca84856001015f846fffffffffffffffffffffffffffffffff166fffffffffffffffffffffffffffffffff1681526020019081526020015f205f015f9054906101000a90046fffffffffffffffffffffffffffffffff1661a320565b5b5b506195c8565b6002836001015f855f015f9054906101000a90046fffffffffffffffffffffffffffffffff166fffffffffffffffffffffffffffffffff166fffffffffffffffffffffffffffffffff1681526020019081526020015f2060010160106101000a81548160ff021916908360ff160217905550505050565b61a251617107565b5f73ffffffffffffffffffffffffffffffffffffffff168173ffffffffffffffffffffffffffffffffffffffff160361a2c1575f6040517f1e4fbdf700000000000000000000000000000000000000000000000000000000815260040161a2b8919061bdfb565b60405180910390fd5b61a2ca81614ab5565b50565b61a2d5617107565b5f61a2de61581d565b90506001815f018190555050565b61a2f4617107565b61a2fd81614b86565b50565b61a308617107565b61a312828261ad20565b5050565b61a31e617107565b565b5f826001015f836fffffffffffffffffffffffffffffffff166fffffffffffffffffffffffffffffffff1681526020019081526020015f206001015f9054906101000a90046fffffffffffffffffffffffffffffffff1690505f836001015f846fffffffffffffffffffffffffffffffff166fffffffffffffffffffffffffffffffff1681526020019081526020015f205f015f9054906101000a90046fffffffffffffffffffffffffffffffff1690505f846001015f846fffffffffffffffffffffffffffffffff166fffffffffffffffffffffffffffffffff1681526020019081526020015f205f0160109054906101000a90046fffffffffffffffffffffffffffffffff16905080856001015f866fffffffffffffffffffffffffffffffff166fffffffffffffffffffffffffffffffff1681526020019081526020015f206001015f6101000a8154816fffffffffffffffffffffffffffffffff02191690836fffffffffffffffffffffffffffffffff16021790555061a4a381614a77565b1561a5185783856001015f836fffffffffffffffffffffffffffffffff166fffffffffffffffffffffffffffffffff1681526020019081526020015f205f015f6101000a8154816fffffffffffffffffffffffffffffffff02191690836fffffffffffffffffffffffffffffffff1602179055505b81856001015f856fffffffffffffffffffffffffffffffff166fffffffffffffffffffffffffffffffff1681526020019081526020015f205f015f6101000a8154816fffffffffffffffffffffffffffffffff02191690836fffffffffffffffffffffffffffffffff16021790555061a59082614352565b1561a5d35782855f015f6101000a8154816fffffffffffffffffffffffffffffffff02191690836fffffffffffffffffffffffffffffffff16021790555061a73a565b846001015f836fffffffffffffffffffffffffffffffff166fffffffffffffffffffffffffffffffff1681526020019081526020015f205f0160109054906101000a90046fffffffffffffffffffffffffffffffff166fffffffffffffffffffffffffffffffff16846fffffffffffffffffffffffffffffffff160361a6c85782856001015f846fffffffffffffffffffffffffffffffff166fffffffffffffffffffffffffffffffff1681526020019081526020015f205f0160106101000a8154816fffffffffffffffffffffffffffffffff02191690836fffffffffffffffffffffffffffffffff16021790555061a739565b82856001015f846fffffffffffffffffffffffffffffffff166fffffffffffffffffffffffffffffffff1681526020019081526020015f206001015f6101000a8154816fffffffffffffffffffffffffffffffff02191690836fffffffffffffffffffffffffffffffff1602179055505b5b83856001015f856fffffffffffffffffffffffffffffffff166fffffffffffffffffffffffffffffffff1681526020019081526020015f205f0160106101000a8154816fffffffffffffffffffffffffffffffff02191690836fffffffffffffffffffffffffffffffff16021790555082856001015f866fffffffffffffffffffffffffffffffff166fffffffffffffffffffffffffffffffff1681526020019081526020015f205f015f6101000a8154816fffffffffffffffffffffffffffffffff02191690836fffffffffffffffffffffffffffffffff1602179055505050505050565b5f826001015f836fffffffffffffffffffffffffffffffff166fffffffffffffffffffffffffffffffff1681526020019081526020015f205f0160109054906101000a90046fffffffffffffffffffffffffffffffff1690505f836001015f846fffffffffffffffffffffffffffffffff166fffffffffffffffffffffffffffffffff1681526020019081526020015f205f015f9054906101000a90046fffffffffffffffffffffffffffffffff1690505f846001015f846fffffffffffffffffffffffffffffffff166fffffffffffffffffffffffffffffffff1681526020019081526020015f206001015f9054906101000a90046fffffffffffffffffffffffffffffffff16905080856001015f866fffffffffffffffffffffffffffffffff166fffffffffffffffffffffffffffffffff1681526020019081526020015f205f0160106101000a8154816fffffffffffffffffffffffffffffffff02191690836fffffffffffffffffffffffffffffffff16021790555061a9a381614a77565b1561aa185783856001015f836fffffffffffffffffffffffffffffffff166fffffffffffffffffffffffffffffffff1681526020019081526020015f205f015f6101000a8154816fffffffffffffffffffffffffffffffff02191690836fffffffffffffffffffffffffffffffff1602179055505b81856001015f856fffffffffffffffffffffffffffffffff166fffffffffffffffffffffffffffffffff1681526020019081526020015f205f015f6101000a8154816fffffffffffffffffffffffffffffffff02191690836fffffffffffffffffffffffffffffffff16021790555061aa9082614352565b1561aad35782855f015f6101000a8154816fffffffffffffffffffffffffffffffff02191690836fffffffffffffffffffffffffffffffff16021790555061ac3a565b846001015f836fffffffffffffffffffffffffffffffff166fffffffffffffffffffffffffffffffff1681526020019081526020015f206001015f9054906101000a90046fffffffffffffffffffffffffffffffff166fffffffffffffffffffffffffffffffff16846fffffffffffffffffffffffffffffffff160361abc85782856001015f846fffffffffffffffffffffffffffffffff166fffffffffffffffffffffffffffffffff1681526020019081526020015f206001015f6101000a8154816fffffffffffffffffffffffffffffffff02191690836fffffffffffffffffffffffffffffffff16021790555061ac39565b82856001015f846fffffffffffffffffffffffffffffffff166fffffffffffffffffffffffffffffffff1681526020019081526020015f205f0160106101000a8154816fffffffffffffffffffffffffffffffff02191690836fffffffffffffffffffffffffffffffff1602179055505b5b83856001015f856fffffffffffffffffffffffffffffffff166fffffffffffffffffffffffffffffffff1681526020019081526020015f206001015f6101000a8154816fffffffffffffffffffffffffffffffff02191690836fffffffffffffffffffffffffffffffff16021790555082856001015f866fffffffffffffffffffffffffffffffff166fffffffffffffffffffffffffffffffff1681526020019081526020015f205f015f6101000a8154816fffffffffffffffffffffffffffffffff02191690836fffffffffffffffffffffffffffffffff1602179055505050505050565b61ad28617107565b5f61ad31614cd8565b90508281600201908161ad44919061d6e9565b508181600301908161ad56919061d6e9565b505f5f1b815f01819055505f5f1b8160010181905550505050565b6040518060e001604052805f600181111561ad8f5761ad8e61b71e565b5b81526020015f600181111561ada75761ada661b71e565b5b81526020015f73ffffffffffffffffffffffffffffffffffffffff16815260200161add061ae0e565b81526020015f6fffffffffffffffffffffffffffffffff1681526020015f67ffffffffffffffff1681526020015f67ffffffffffffffff1681525090565b60405180606001604052805f81526020015f73ffffffffffffffffffffffffffffffffffffffff1681526020015f6bffffffffffffffffffffffff1681525090565b5f604051905090565b5f5ffd5b5f5ffd5b5f819050919050565b61ae738161ae61565b811461ae7d575f5ffd5b50565b5f8135905061ae8e8161ae6a565b92915050565b5f6020828403121561aea95761aea861ae59565b5b5f61aeb68482850161ae80565b91505092915050565b5f819050919050565b61aed18161aebf565b82525050565b5f60208201905061aeea5f83018461aec8565b92915050565b5f6fffffffffffffffffffffffffffffffff82169050919050565b61af148161aef0565b82525050565b5f60208201905061af2d5f83018461af0b565b92915050565b5f5ffd5b5f5ffd5b5f5ffd5b5f5f83601f84011261af545761af5361af33565b5b8235905067ffffffffffffffff81111561af715761af7061af37565b5b60208301915083602082028301111561af8d5761af8c61af3b565b5b9250929050565b5f5f6020838503121561afaa5761afa961ae59565b5b5f83013567ffffffffffffffff81111561afc75761afc661ae5d565b5b61afd38582860161af3f565b92509250509250929050565b5f81519050919050565b5f82825260208201905092915050565b5f819050602082019050919050565b5f8115159050919050565b61b01c8161b008565b82525050565b5f61b02d838361b013565b60208301905092915050565b5f602082019050919050565b5f61b04f8261afdf565b61b059818561afe9565b935061b0648361aff9565b805f5b8381101561b09457815161b07b888261b022565b975061b0868361b039565b92505060018101905061b067565b5085935050505092915050565b5f6020820190508181035f83015261b0b9818461b045565b905092915050565b5f5f83601f84011261b0d65761b0d561af33565b5b8235905067ffffffffffffffff81111561b0f35761b0f261af37565b5b6020830191508361012082028301111561b1105761b10f61af3b565b5b9250929050565b5f5f6020838503121561b12d5761b12c61ae59565b5b5f83013567ffffffffffffffff81111561b14a5761b14961ae5d565b5b61b1568582860161b0c1565b92509250509250929050565b5f81519050919050565b5f82825260208201905092915050565b5f819050602082019050919050565b5f61b1958261ae61565b9050919050565b61b1a58161b18b565b82525050565b5f61b1b6838361b19c565b60208301905092915050565b5f602082019050919050565b5f61b1d88261b162565b61b1e2818561b16c565b935061b1ed8361b17c565b805f5b8381101561b21d57815161b204888261b1ab565b975061b20f8361b1c2565b92505060018101905061b1f0565b5085935050505092915050565b5f6020820190508181035f83015261b242818461b1ce565b905092915050565b5f5ffd5b5f610120828403121561b2645761b26361b24a565b5b81905092915050565b61b2768161aebf565b811461b280575f5ffd5b50565b5f8135905061b2918161b26d565b92915050565b5f5f5f610260848603121561b2af5761b2ae61ae59565b5b5f61b2bc8682870161b24e565b93505061012061b2ce8682870161b24e565b92505061024061b2e08682870161b283565b9150509250925092565b5f73ffffffffffffffffffffffffffffffffffffffff82169050919050565b5f61b3138261b2ea565b9050919050565b61b3238161b309565b811461b32d575f5ffd5b50565b5f8135905061b33e8161b31a565b92915050565b6002811061b350575f5ffd5b50565b5f8135905061b3618161b344565b92915050565b61b3708161aef0565b811461b37a575f5ffd5b50565b5f8135905061b38b8161b367565b92915050565b5f5f5f6060848603121561b3a85761b3a761ae59565b5b5f61b3b58682870161b330565b935050602061b3c68682870161b353565b925050604061b3d78682870161b37d565b9150509250925092565b5f819050919050565b5f61b40461b3ff61b3fa8461aef0565b61b3e1565b61aef0565b9050919050565b61b4148161b3ea565b82525050565b5f60208201905061b42d5f83018461b40b565b92915050565b5f5f6040838503121561b4495761b44861ae59565b5b5f61b4568582860161b330565b925050602061b4678582860161b283565b9150509250929050565b61b47a8161b008565b82525050565b5f60208201905061b4935f83018461b471565b92915050565b61b4a28161aef0565b811461b4ac575f5ffd5b50565b5f8135905061b4bd8161b499565b92915050565b5f5ffd5b5f601f19601f8301169050919050565b7f4e487b71000000000000000000000000000000000000000000000000000000005f52604160045260245ffd5b61b50d8261b4c7565b810181811067ffffffffffffffff8211171561b52c5761b52b61b4d7565b5b80604052505050565b5f61b53e61ae50565b905061b54a828261b504565b919050565b5f67ffffffffffffffff82111561b5695761b56861b4d7565b5b61b5728261b4c7565b9050602081019050919050565b828183375f83830152505050565b5f61b59f61b59a8461b54f565b61b535565b90508281526020810184848401111561b5bb5761b5ba61b4c3565b5b61b5c684828561b57f565b509392505050565b5f82601f83011261b5e25761b5e161af33565b5b813561b5f284826020860161b58d565b91505092915050565b5f5f5f5f6080858703121561b6135761b61261ae59565b5b5f61b6208782880161b4af565b945050602061b6318782880161b330565b935050604085013567ffffffffffffffff81111561b6525761b65161ae5d565b5b61b65e8782880161b5ce565b925050606085013567ffffffffffffffff81111561b67f5761b67e61ae5d565b5b61b68b8782880161b5ce565b91505092959194509250565b6002811061b6a3575f5ffd5b50565b5f8135905061b6b48161b697565b92915050565b5f5f5f5f6080858703121561b6d25761b6d161ae59565b5b5f61b6df8782880161b330565b945050602061b6f08782880161b283565b935050604061b7018782880161b353565b925050606061b7128782880161b6a6565b91505092959194509250565b7f4e487b71000000000000000000000000000000000000000000000000000000005f52602160045260245ffd5b6002811061b75c5761b75b61b71e565b5b50565b5f81905061b76c8261b74b565b919050565b5f61b77b8261b75f565b9050919050565b61b78b8161b771565b82525050565b6002811061b7a25761b7a161b71e565b5b50565b5f81905061b7b28261b791565b919050565b5f61b7c18261b7a5565b9050919050565b61b7d18161b7b7565b82525050565b61b7e08161b309565b82525050565b61b7ef8161aebf565b82525050565b5f6bffffffffffffffffffffffff82169050919050565b61b8158161b7f5565b82525050565b606082015f82015161b82f5f85018261b7e6565b50602082015161b842602085018261b7d7565b50604082015161b855604085018261b80c565b50505050565b61b8648161b3ea565b82525050565b5f67ffffffffffffffff82169050919050565b61b8868161b86a565b82525050565b61012082015f82015161b8a15f85018261b782565b50602082015161b8b4602085018261b7c8565b50604082015161b8c7604085018261b7d7565b50606082015161b8da606085018261b81b565b50608082015161b8ed60c085018261b85b565b5060a082015161b90060e085018261b87d565b5060c082015161b91461010085018261b87d565b50505050565b5f6101208201905061b92e5f83018461b88c565b92915050565b5f6020828403121561b9495761b94861ae59565b5b5f61b9568482850161b330565b91505092915050565b5f5f6040838503121561b9755761b97461ae59565b5b5f61b9828582860161b330565b925050602061b9938582860161b353565b9150509250929050565b5f6020828403121561b9b25761b9b161ae59565b5b5f61b9bf8482850161b4af565b91505092915050565b5f7fff0000000000000000000000000000000000000000000000000000000000000082169050919050565b61b9fc8161b9c8565b82525050565b5f81519050919050565b5f82825260208201905092915050565b8281835e5f83830152505050565b5f61ba348261ba02565b61ba3e818561ba0c565b935061ba4e81856020860161ba1c565b61ba578161b4c7565b840191505092915050565b61ba6b8161b309565b82525050565b61ba7a8161ae61565b82525050565b5f81519050919050565b5f82825260208201905092915050565b5f819050602082019050919050565b5f61bab4838361b7e6565b60208301905092915050565b5f602082019050919050565b5f61bad68261ba80565b61bae0818561ba8a565b935061baeb8361ba9a565b805f5b8381101561bb1b57815161bb02888261baa9565b975061bb0d8361bac0565b92505060018101905061baee565b5085935050505092915050565b5f60e08201905061bb3b5f83018a61b9f3565b818103602083015261bb4d818961ba2a565b9050818103604083015261bb61818861ba2a565b905061bb70606083018761aec8565b61bb7d608083018661ba62565b61bb8a60a083018561ba71565b81810360c083015261bb9c818461bacc565b905098975050505050505050565b5f5f5f5f5f5f5f60e0888a03121561bbc55761bbc461ae59565b5b5f61bbd28a828b0161b330565b975050602061bbe38a828b0161b283565b965050604061bbf48a828b0161b353565b955050606061bc058a828b0161b6a6565b945050608061bc168a828b0161b283565b93505060a061bc278a828b0161b37d565b92505060c061bc388a828b0161ae80565b91505092959891949750929550565b5f81519050919050565b5f82825260208201905092915050565b5f819050602082019050919050565b61012082015f82015161bc855f85018261b782565b50602082015161bc98602085018261b7c8565b50604082015161bcab604085018261b7d7565b50606082015161bcbe606085018261b81b565b50608082015161bcd160c085018261b85b565b5060a082015161bce460e085018261b87d565b5060c082015161bcf861010085018261b87d565b50505050565b5f61bd09838361bc70565b6101208301905092915050565b5f602082019050919050565b5f61bd2c8261bc47565b61bd36818561bc51565b935061bd418361bc61565b805f5b8381101561bd7157815161bd58888261bcfe565b975061bd638361bd16565b92505060018101905061bd44565b5085935050505092915050565b61bd878161b18b565b82525050565b5f6040820190508181035f83015261bda5818561bd22565b905061bdb4602083018461bd7e565b9392505050565b5f5f610240838503121561bdd25761bdd161ae59565b5b5f61bddf8582860161b24e565b92505061012061bdf18582860161b24e565b9150509250929050565b5f60208201905061be0e5f83018461ba62565b92915050565b5f6101408201905061be285f83018561b88c565b61be3661012083018461bd7e565b9392505050565b5f60408201905061be505f83018561bd7e565b61be5d602083018461bd7e565b9392505050565b5f5f83601f84011261be795761be7861af33565b5b8235905067ffffffffffffffff81111561be965761be9561af37565b5b6020830191508361014082028301111561beb35761beb261af3b565b5b9250929050565b5f5f6020838503121561bed05761becf61ae59565b5b5f83013567ffffffffffffffff81111561beed5761beec61ae5d565b5b61bef98582860161be64565b92509250509250929050565b5f5f83601f84011261bf1a5761bf1961af33565b5b8235905067ffffffffffffffff81111561bf375761bf3661af37565b5b6020830191508361024082028301111561bf545761bf5361af3b565b5b9250929050565b5f5f6020838503121561bf715761bf7061ae59565b5b5f83013567ffffffffffffffff81111561bf8e5761bf8d61ae5d565b5b61bf9a8582860161bf05565b92509250509250929050565b7f4e487b71000000000000000000000000000000000000000000000000000000005f52603260045260245ffd5b5f6020828403121561bfe85761bfe761ae59565b5b5f61bff58482850161b353565b91505092915050565b61c0078161b7f5565b811461c011575f5ffd5b50565b5f8135905061c0228161bffe565b92915050565b5f6020828403121561c03d5761c03c61ae59565b5b5f61c04a8482850161c014565b91505092915050565b5f6020828403121561c0685761c06761ae59565b5b5f61c0758482850161b37d565b91505092915050565b7f4e487b71000000000000000000000000000000000000000000000000000000005f52601160045260245ffd5b5f61c0b58261aef0565b915061c0c08361aef0565b925082820261c0ce8161aef0565b915080821461c0e05761c0df61c07e565b5b5092915050565b5f61c0f18261aef0565b915061c0fc8361aef0565b925082820190506fffffffffffffffffffffffffffffffff81111561c1245761c12361c07e565b5b92915050565b5f61c1348261aebf565b915061c13f8361aebf565b925082820390508181111561c1575761c15661c07e565b5b92915050565b5f60408201905061c1705f83018561ba62565b61c17d602083018461aec8565b9392505050565b5f819050919050565b5f61c1a761c1a261c19d8461c184565b61b3e1565b61b86a565b9050919050565b61c1b78161c18d565b82525050565b5f60208201905061c1d05f83018461c1ae565b92915050565b7f48443a207a65726f2061646472657373000000000000000000000000000000005f82015250565b5f61c20a60108361ba0c565b915061c2158261c1d6565b602082019050919050565b5f6020820190508181035f83015261c2378161c1fe565b9050919050565b7f4549503731323a20556e696e697469616c697a656400000000000000000000005f82015250565b5f61c27260158361ba0c565b915061c27d8261c23e565b602082019050919050565b5f6020820190508181035f83015261c29f8161c266565b9050919050565b5f61c2b08261aebf565b915061c2bb8361aebf565b925082820190508082111561c2d35761c2d261c07e565b5b92915050565b5f61c2e7602084018461b353565b905092915050565b5f61c2fd602084018461b6a6565b905092915050565b5f61c313602084018461b330565b905092915050565b5f82905092915050565b5f61c333602084018461b283565b905092915050565b5f61c349602084018461c014565b905092915050565b6060820161c3615f83018361c325565b61c36d5f85018261b7e6565b5061c37b602083018361c305565b61c388602085018261b7d7565b5061c396604083018361c33b565b61c3a3604085018261b80c565b50505050565b5f61c3b7602084018461b37d565b905092915050565b61c3c88161b86a565b811461c3d2575f5ffd5b50565b5f8135905061c3e38161c3bf565b92915050565b5f61c3f7602084018461c3d5565b905092915050565b610120820161c4105f83018361c2d9565b61c41c5f85018261b782565b5061c42a602083018361c2ef565b61c437602085018261b7c8565b5061c445604083018361c305565b61c452604085018261b7d7565b5061c460606083018361c31b565b61c46d606085018261c351565b5061c47b60c083018361c3a9565b61c48860c085018261b85b565b5061c49660e083018361c3e9565b61c4a360e085018261b87d565b5061c4b261010083018361c3e9565b61c4c061010085018261b87d565b50505050565b5f6102608201905061c4da5f83018661c3ff565b61c4e861012083018561c3ff565b61c4f661024083018461aec8565b949350505050565b5f81519050919050565b5f81905092915050565b5f61c51c8261c4fe565b61c526818561c508565b935061c53681856020860161ba1c565b80840191505092915050565b5f61c54d828461c512565b915081905092915050565b5f8151905061c5668161b499565b92915050565b5f6020828403121561c5815761c58061ae59565b5b5f61c58e8482850161c558565b91505092915050565b5f82825260208201905092915050565b5f61c5b18261c4fe565b61c5bb818561c597565b935061c5cb81856020860161ba1c565b61c5d48161b4c7565b840191505092915050565b5f60408201905061c5f25f83018561aec8565b818103602083015261c604818461c5a7565b90509392505050565b5f60808201905061c6205f83018761bd7e565b61c62d602083018661ba62565b61c63a604083018561ba62565b61c647606083018461aec8565b95945050505050565b5f61c65a8261aebf565b915061c6658361aebf565b925082820261c6738161aebf565b9150828204841483151761c68a5761c68961c07e565b5b5092915050565b5f60608201905061c6a45f83018661bd7e565b61c6b1602083018561aec8565b61c6be604083018461ba62565b949350505050565b61c6cf8161b86a565b82525050565b5f60408201905061c6e85f83018561bd7e565b61c6f5602083018461c6c6565b9392505050565b5f6020828403121561c7115761c71061ae59565b5b5f61c71e8482850161c3d5565b91505092915050565b5f5ffd5b5f6060828403121561c7405761c73f61c727565b5b61c74a606061b535565b90505f61c7598482850161b283565b5f83015250602061c76c8482850161b330565b602083015250604061c7808482850161c014565b60408301525092915050565b5f610120828403121561c7a25761c7a161c727565b5b61c7ac60e061b535565b90505f61c7bb8482850161b353565b5f83015250602061c7ce8482850161b6a6565b602083015250604061c7e28482850161b330565b604083015250606061c7f68482850161c72b565b60608301525060c061c80a8482850161b37d565b60808301525060e061c81e8482850161c3d5565b60a08301525061010061c8338482850161c3d5565b60c08301525092915050565b5f610120828403121561c8555761c85461ae59565b5b5f61c8628482850161c78c565b91505092915050565b5f61c88561c88061c87b8461aef0565b61b3e1565b61aebf565b9050919050565b61c8958161c86b565b82525050565b5f60408201905061c8ae5f83018561bd7e565b61c8bb602083018461c88c565b9392505050565b5f6020828403121561c8d75761c8d661ae59565b5b5f61c8e48482850161b6a6565b91505092915050565b6060820161c8fd5f83018361c325565b61c9095f85018261b7e6565b5061c917602083018361c305565b61c924602085018261b7d7565b5061c932604083018361c33b565b61c93f604085018261b80c565b50505050565b5f60e08201905061c9585f83018861bd7e565b61c965602083018761c8ed565b61c972608083018661b40b565b61c97f60a083018561c6c6565b61c98c60c083018461c6c6565b9695505050505050565b7f4554485f5452414e534645525f4641494c4544000000000000000000000000005f82015250565b5f61c9ca60138361ba0c565b915061c9d58261c996565b602082019050919050565b5f6020820190508181035f83015261c9f78161c9be565b9050919050565b7f48443a2076616c7565203e2030000000000000000000000000000000000000005f82015250565b5f61ca32600d8361ba0c565b915061ca3d8261c9fe565b602082019050919050565b5f6020820190508181035f83015261ca5f8161ca26565b9050919050565b5f6102608201905061ca7a5f83018661c3ff565b61ca8861012083018561c3ff565b61ca9661024083018461af0b565b949350505050565b5f60608201905061cab15f83018661bd7e565b61cabe602083018561c88c565b61cacb604083018461ba62565b949350505050565b5f61cadd8261aef0565b915061cae88361aef0565b925082820390506fffffffffffffffffffffffffffffffff81111561cb105761cb0f61c07e565b5b92915050565b5f60a08201905061cb295f83018661ba62565b61cb36602083018561ba62565b61cb43604083018461c8ed565b949350505050565b7f48443a2076616c7565203c2066696c6c207072696365000000000000000000005f82015250565b5f61cb7f60168361ba0c565b915061cb8a8261cb4b565b602082019050919050565b5f6020820190508181035f83015261cbac8161cb73565b9050919050565b7f48443a20627579207072696365203c2066696c6c2070726963650000000000005f82015250565b5f61cbe7601a8361ba0c565b915061cbf28261cbb3565b602082019050919050565b5f6020820190508181035f83015261cc148161cbdb565b9050919050565b7f48443a2073656e64657220696e76616c696400000000000000000000000000005f82015250565b5f61cc4f60128361ba0c565b915061cc5a8261cc1b565b602082019050919050565b5f6020820190508181035f83015261cc7c8161cc43565b9050919050565b7f504d3a20657863656564206d61782070726f746f636f6c2073686172650000005f82015250565b5f61ccb7601d8361ba0c565b915061ccc28261cc83565b602082019050919050565b5f6020820190508181035f83015261cce48161ccab565b9050919050565b7f4e487b71000000000000000000000000000000000000000000000000000000005f52602260045260245ffd5b5f600282049050600182168061cd2f57607f821691505b60208210810361cd425761cd4161cceb565b5b50919050565b5f60a08201905061cd5b5f83018861bd7e565b61cd68602083018761bd7e565b61cd75604083018661aec8565b61cd82606083018561aec8565b61cd8f608083018461ba62565b9695505050505050565b5f819050919050565b61cdb361cdae8261ae61565b61cd99565b82525050565b5f8160f81b9050919050565b5f61cdcf8261cdb9565b9050919050565b61cde761cde28261b771565b61cdc5565b82525050565b61cdfe61cdf98261b7b7565b61cdc5565b82525050565b5f8160601b9050919050565b5f61ce1a8261ce04565b9050919050565b5f61ce2b8261ce10565b9050919050565b61ce4361ce3e8261b309565b61ce21565b82525050565b5f8160801b9050919050565b5f61ce5f8261ce49565b9050919050565b61ce7761ce728261aef0565b61ce55565b82525050565b5f8160c01b9050919050565b5f61ce938261ce7d565b9050919050565b61ceab61cea68261b86a565b61ce89565b82525050565b5f61cebc828b61cda2565b60208201915061cecc828a61cdd6565b60018201915061cedc828961cded565b60018201915061ceec828861ce32565b60148201915061cefc828761cda2565b60208201915061cf0c828661ce66565b60108201915061cf1c828561ce9a565b60088201915061cf2c828461ce9a565b6008820191508190509998505050505050505050565b7f43616e6e6f742072656d6f7665206d697373696e67206f7264657200000000005f82015250565b5f61cf76601b8361ba0c565b915061cf818261cf42565b602082019050919050565b5f6020820190508181035f83015261cfa38161cf6a565b9050919050565b5f60208201905061cfbd5f83018461bd7e565b92915050565b7f48443a2073616d65206f726465720000000000000000000000000000000000005f82015250565b5f61cff7600e8361ba0c565b915061d0028261cfc3565b602082019050919050565b5f6020820190508181035f83015261d0248161cfeb565b9050919050565b7f48443a2073696465206d69736d617463680000000000000000000000000000005f82015250565b5f61d05f60118361ba0c565b915061d06a8261d02b565b602082019050919050565b5f6020820190508181035f83015261d08c8161d053565b9050919050565b7f48443a206b696e64206d69736d617463680000000000000000000000000000005f82015250565b5f61d0c760118361ba0c565b915061d0d28261d093565b602082019050919050565b5f6020820190508181035f83015261d0f48161d0bb565b9050919050565b7f48443a2073616d65206d616b65720000000000000000000000000000000000005f82015250565b5f61d12f600e8361ba0c565b915061d13a8261d0fb565b602082019050919050565b5f6020820190508181035f83015261d15c8161d123565b9050919050565b7f48443a206173736574206d69736d6174636800000000000000000000000000005f82015250565b5f61d19760128361ba0c565b915061d1a28261d163565b602082019050919050565b5f6020820190508181035f83015261d1c48161d18b565b9050919050565b7f48443a206f7264657220636c6f736564000000000000000000000000000000005f82015250565b5f61d1ff60108361ba0c565b915061d20a8261d1cb565b602082019050919050565b5f6020820190508181035f83015261d22c8161d1f3565b9050919050565b7f4f56613a206d697373206d616b657200000000000000000000000000000000005f82015250565b5f61d267600f8361ba0c565b915061d2728261d233565b602082019050919050565b5f6020820190508181035f83015261d2948161d25b565b9050919050565b7f4f56613a206578706972656400000000000000000000000000000000000000005f82015250565b5f61d2cf600c8361ba0c565b915061d2da8261d29b565b602082019050919050565b5f6020820190508181035f83015261d2fc8161d2c3565b9050919050565b7f4f56613a207a65726f2073616c740000000000000000000000000000000000005f82015250565b5f61d337600e8361ba0c565b915061d3428261d303565b602082019050919050565b5f6020820190508181035f83015261d3648161d32b565b9050919050565b7f4f56613a20756e737570706f72746564206e66742061737365740000000000005f82015250565b5f61d39f601a8361ba0c565b915061d3aa8261d36b565b602082019050919050565b5f6020820190508181035f83015261d3cc8161d393565b9050919050565b7f4f56613a207a65726f20707269636500000000000000000000000000000000005f82015250565b5f61d407600f8361ba0c565b915061d4128261d3d3565b602082019050919050565b5f6020820190508181035f83015261d4348161d3fb565b9050919050565b7f4f56613a2063616e63656c6564000000000000000000000000000000000000005f82015250565b5f61d46f600d8361ba0c565b915061d47a8261d43b565b602082019050919050565b5f6020820190508181035f83015261d49c8161d463565b9050919050565b7f4e487b71000000000000000000000000000000000000000000000000000000005f52601260045260245ffd5b5f61d4da8261aef0565b915061d4e58361aef0565b92508261d4f55761d4f461d4a3565b5b828204905092915050565b61d5098161b7f5565b82525050565b5f60808201905061d5225f83018761ba71565b61d52f602083018661aec8565b61d53c604083018561ba62565b61d549606083018461d500565b95945050505050565b5f819050815f5260205f209050919050565b5f6020601f8301049050919050565b5f82821b905092915050565b5f6008830261d5ae7fffffffffffffffffffffffffffffffffffffffffffffffffffffffffffffffff8261d573565b61d5b8868361d573565b95508019841693508086168417925050509392505050565b5f61d5ea61d5e561d5e08461aebf565b61b3e1565b61aebf565b9050919050565b5f819050919050565b61d6038361d5d0565b61d61761d60f8261d5f1565b84845461d57f565b825550505050565b5f5f905090565b61d62e61d61f565b61d63981848461d5fa565b505050565b5b8181101561d65c5761d6515f8261d626565b60018101905061d63f565b5050565b601f82111561d6a15761d6728161d552565b61d67b8461d564565b8101602085101561d68a578190505b61d69e61d6968561d564565b83018261d63e565b50505b505050565b5f82821c905092915050565b5f61d6c15f198460080261d6a6565b1980831691505092915050565b5f61d6d9838361d6b2565b9150826002028217905092915050565b61d6f28261ba02565b67ffffffffffffffff81111561d70b5761d70a61b4d7565b5b61d715825461cd18565b61d72082828561d660565b5f60209050601f83116001811461d751575f841561d73f578287015190505b61d749858261d6ce565b86555061d7b0565b601f19841661d75f8661d552565b5f5b8281101561d7865784890151825560018201915060208501945060208101905061d761565b8683101561d7a3578489015161d79f601f89168261d6b2565b8355505b6001600288020188555050505b50505050505056fea2646970667358221220b41c7e01576425a8f6867f0194611ce03ecdc3818e42d29ddcb7894eb0e4247264736f6c634300081e0033","linkReferences":{}},"methodIdentifiers":{"cancelOrders(bytes32[])":"21c77c96","editOrders((bytes32,(uint8,uint8,address,(uint256,address,uint96),uint128,uint64,uint64))[])":"e8f27e95","eip712Domain()":"84b0196e","filledAmount(bytes32)":"0b20b7bc","getBestOrder(address,uint256,uint8,uint8)":"5dcc7f9c","getBestPrice(address,uint8)":"9e09126c","getNextBestPrice(address,uint8,uint128)":"436a5ed6","getOrders(address,uint256,uint8,uint8,uint256,uint128,bytes32)":"877edbff","initialize(uint128,address,string,string)":"5d52957e","makeOrders((uint8,uint8,address,(uint256,address,uint96),uint128,uint64,uint64)[])":"307725d9","matchOrder((uint8,uint8,address,(uint256,address,uint96),uint128,uint64,uint64),(uint8,uint8,address,(uint256,address,uint96),uint128,uint64,uint64))":"882849c9","matchOrderWithoutPayback((uint8,uint8,address,(uint256,address,uint96),uint128,uint64,uint64),(uint8,uint8,address,(uint256,address,uint96),uint128,uint64,uint64),uint256)":"366c39ed","matchOrders(((uint8,uint8,address,(uint256,address,uint96),uint128,uint64,uint64),(uint8,uint8,address,(uint256,address,uint96),uint128,uint64,uint64))[])":"fe971c98","orderQueues(address,uint8,uint128)":"e471ba46","orders(bytes32)":"9c3f1e90","owner()":"8da5cb5b","pause()":"8456cb59","paused()":"5c975abb","priceTrees(address,uint8)":"7d910dac","protocolShare()":"1103f315","renounceOwnership()":"715018a6","setProtocolShare(uint128)":"813e7c2a","setVault(address)":"6817031b","transferOwnership(address)":"f2fde38b","unpause()":"3f4ba83a","withdrawETH(address,uint256)":"4782f779"},"id":34}