{"abi":[{"type":"constructor","inputs":[],"stateMutability":"nonpayable"},{"type":"receive","stateMutability":"payable"},{"type":"function","name":"MAX_SUPPLY","inputs":[],"outputs":[{"name":"","type":"uint256","internalType":"uint256"}],"stateMutability":"view"},{"type":"function","name":"PER_MINT","inputs":[],"outputs":[{"name":"","type":"uint256","internalType":"uint256"}],"stateMutability":"view"},{"type":"function","name":"approve","inputs":[{"name":"to","type":"address","internalType":"address"},{"name":"tokenId","type":"uint256","internalType":"uint256"}],"outputs":[],"stateMutability":"payable"},{"type":"function","name":"balanceOf","inputs":[{"name":"owner","type":"address","internalType":"address"}],"outputs":[{"name":"","type":"uint256","internalType":"uint256"}],"stateMutability":"view"},{"type":"function","name":"getApproved","inputs":[{"name":"tokenId","type":"uint256","internalType":"uint256"}],"outputs":[{"name":"","type":"address","internalType":"address"}],"stateMutability":"view"},{"type":"function","name":"isApprovedForAll","inputs":[{"name":"owner","type":"address","internalType":"address"},{"name":"operator","type":"address","internalType":"address"}],"outputs":[{"name":"","type":"bool","internalType":"bool"}],"stateMutability":"view"},{"type":"function","name":"mint","inputs":[{"name":"to","type":"address","internalType":"address"},{"name":"quantity","type":"uint256","internalType":"uint256"}],"outputs":[],"stateMutability":"nonpayable"},{"type":"function","name":"mintStatus","inputs":[],"outputs":[{"name":"","type":"bool","internalType":"bool"}],"stateMutability":"view"},{"type":"function","name":"name","inputs":[],"outputs":[{"name":"","type":"string","internalType":"string"}],"stateMutability":"view"},{"type":"function","name":"owner","inputs":[],"outputs":[{"name":"","type":"address","internalType":"address"}],"stateMutability":"view"},{"type":"function","name":"ownerOf","inputs":[{"name":"tokenId","type":"uint256","internalType":"uint256"}],"outputs":[{"name":"","type":"address","internalType":"address"}],"stateMutability":"view"},{"type":"function","name":"renounceOwnership","inputs":[],"outputs":[],"stateMutability":"nonpayable"},{"type":"function","name":"safeTransferFrom","inputs":[{"name":"from","type":"address","internalType":"address"},{"name":"to","type":"address","internalType":"address"},{"name":"tokenId","type":"uint256","internalType":"uint256"}],"outputs":[],"stateMutability":"payable"},{"type":"function","name":"safeTransferFrom","inputs":[{"name":"from","type":"address","internalType":"address"},{"name":"to","type":"address","internalType":"address"},{"name":"tokenId","type":"uint256","internalType":"uint256"},{"name":"_data","type":"bytes","internalType":"bytes"}],"outputs":[],"stateMutability":"payable"},{"type":"function","name":"setApprovalForAll","inputs":[{"name":"operator","type":"address","internalType":"address"},{"name":"approved","type":"bool","internalType":"bool"}],"outputs":[],"stateMutability":"nonpayable"},{"type":"function","name":"setMintStatus","inputs":[{"name":"status","type":"bool","internalType":"bool"}],"outputs":[],"stateMutability":"nonpayable"},{"type":"function","name":"setTokenURI","inputs":[{"name":"tokenURI_","type":"string","internalType":"string"}],"outputs":[],"stateMutability":"nonpayable"},{"type":"function","name":"supportsInterface","inputs":[{"name":"interfaceId","type":"bytes4","internalType":"bytes4"}],"outputs":[{"name":"","type":"bool","internalType":"bool"}],"stateMutability":"view"},{"type":"function","name":"symbol","inputs":[],"outputs":[{"name":"","type":"string","internalType":"string"}],"stateMutability":"view"},{"type":"function","name":"tokenURI","inputs":[{"name":"tokenId","type":"uint256","internalType":"uint256"}],"outputs":[{"name":"","type":"string","internalType":"string"}],"stateMutability":"view"},{"type":"function","name":"totalSupply","inputs":[],"outputs":[{"name":"result","type":"uint256","internalType":"uint256"}],"stateMutability":"view"},{"type":"function","name":"transferFrom","inputs":[{"name":"from","type":"address","internalType":"address"},{"name":"to","type":"address","internalType":"address"},{"name":"tokenId","type":"uint256","internalType":"uint256"}],"outputs":[],"stateMutability":"payable"},{"type":"function","name":"transferOwnership","inputs":[{"name":"newOwner","type":"address","internalType":"address"}],"outputs":[],"stateMutability":"nonpayable"},{"type":"function","name":"withdrawETH","inputs":[],"outputs":[],"stateMutability":"nonpayable"},{"type":"event","name":"Approval","inputs":[{"name":"owner","type":"address","indexed":true,"internalType":"address"},{"name":"approved","type":"address","indexed":true,"internalType":"address"},{"name":"tokenId","type":"uint256","indexed":true,"internalType":"uint256"}],"anonymous":false},{"type":"event","name":"ApprovalForAll","inputs":[{"name":"owner","type":"address","indexed":true,"internalType":"address"},{"name":"operator","type":"address","indexed":true,"internalType":"address"},{"name":"approved","type":"bool","indexed":false,"internalType":"bool"}],"anonymous":false},{"type":"event","name":"ConsecutiveTransfer","inputs":[{"name":"fromTokenId","type":"uint256","indexed":true,"internalType":"uint256"},{"name":"toTokenId","type":"uint256","indexed":false,"internalType":"uint256"},{"name":"from","type":"address","indexed":true,"internalType":"address"},{"name":"to","type":"address","indexed":true,"internalType":"address"}],"anonymous":false},{"type":"event","name":"OwnershipTransferred","inputs":[{"name":"previousOwner","type":"address","indexed":true,"internalType":"address"},{"name":"newOwner","type":"address","indexed":true,"internalType":"address"}],"anonymous":false},{"type":"event","name":"Transfer","inputs":[{"name":"from","type":"address","indexed":true,"internalType":"address"},{"name":"to","type":"address","indexed":true,"internalType":"address"},{"name":"tokenId","type":"uint256","indexed":true,"internalType":"uint256"}],"anonymous":false},{"type":"error","name":"ApprovalCallerNotOwnerNorApproved","inputs":[]},{"type":"error","name":"ApprovalQueryForNonexistentToken","inputs":[]},{"type":"error","name":"BalanceQueryForZeroAddress","inputs":[]},{"type":"error","name":"MintERC2309QuantityExceedsLimit","inputs":[]},{"type":"error","name":"MintToZeroAddress","inputs":[]},{"type":"error","name":"MintZeroQuantity","inputs":[]},{"type":"error","name":"NotCompatibleWithSpotMints","inputs":[]},{"type":"error","name":"OwnableInvalidOwner","inputs":[{"name":"owner","type":"address","internalType":"address"}]},{"type":"error","name":"OwnableUnauthorizedAccount","inputs":[{"name":"account","type":"address","internalType":"address"}]},{"type":"error","name":"OwnerQueryForNonexistentToken","inputs":[]},{"type":"error","name":"OwnershipNotInitializedForExtraData","inputs":[]},{"type":"error","name":"ReentrancyGuardReentrantCall","inputs":[]},{"type":"error","name":"SequentialMintExceedsLimit","inputs":[]},{"type":"error","name":"SequentialUpToTooSmall","inputs":[]},{"type":"error","name":"SpotMintTokenIdTooSmall","inputs":[]},{"type":"error","name":"TokenAlreadyExists","inputs":[]},{"type":"error","name":"TransferCallerNotOwnerNorApproved","inputs":[]},{"type":"error","name":"TransferFromIncorrectOwner","inputs":[]},{"type":"error","name":"TransferToNonERC721ReceiverImplementer","inputs":[]},{"type":"error","name":"TransferToZeroAddress","inputs":[]},{"type":"error","name":"URIQueryForNonexistentToken","inputs":[]}],"bytecode":{"object":"0x608060405234801561000f575f5ffd5b50336040518060400160405280600581526020017f54726f6c6c0000000000000000000000000000000000000000000000000000008152506040518060400160405280600581526020017f54726f6c6c000000000000000000000000000000000000000000000000000000815250816002908161008c91906104ae565b50806003908161009c91906104ae565b506100ab61017860201b60201c565b5f819055506100be61017860201b60201c565b6100cc61017f60201b60201c565b10156100e9576100e863fed8210f60e01b6101a660201b60201c565b5b50505f73ffffffffffffffffffffffffffffffffffffffff168173ffffffffffffffffffffffffffffffffffffffff160361015b575f6040517f1e4fbdf700000000000000000000000000000000000000000000000000000000815260040161015291906105bc565b60405180910390fd5b61016a816101ae60201b60201c565b506001600a819055506105d5565b5f5f905090565b5f7fffffffffffffffffffffffffffffffffffffffffffffffffffffffffffffffff905090565b805f5260045ffd5b5f60095f9054906101000a900473ffffffffffffffffffffffffffffffffffffffff1690508160095f6101000a81548173ffffffffffffffffffffffffffffffffffffffff021916908373ffffffffffffffffffffffffffffffffffffffff1602179055508173ffffffffffffffffffffffffffffffffffffffff168173ffffffffffffffffffffffffffffffffffffffff167f8be0079c531659141344cd1fd0a4f28419497f9722a3daafe3b4186f6b6457e060405160405180910390a35050565b5f81519050919050565b7f4e487b71000000000000000000000000000000000000000000000000000000005f52604160045260245ffd5b7f4e487b71000000000000000000000000000000000000000000000000000000005f52602260045260245ffd5b5f60028204905060018216806102ec57607f821691505b6020821081036102ff576102fe6102a8565b5b50919050565b5f819050815f5260205f209050919050565b5f6020601f8301049050919050565b5f82821b905092915050565b5f600883026103617fffffffffffffffffffffffffffffffffffffffffffffffffffffffffffffffff82610326565b61036b8683610326565b95508019841693508086168417925050509392505050565b5f819050919050565b5f819050919050565b5f6103af6103aa6103a584610383565b61038c565b610383565b9050919050565b5f819050919050565b6103c883610395565b6103dc6103d4826103b6565b848454610332565b825550505050565b5f5f905090565b6103f36103e4565b6103fe8184846103bf565b505050565b5b81811015610421576104165f826103eb565b600181019050610404565b5050565b601f8211156104665761043781610305565b61044084610317565b8101602085101561044f578190505b61046361045b85610317565b830182610403565b50505b505050565b5f82821c905092915050565b5f6104865f198460080261046b565b1980831691505092915050565b5f61049e8383610477565b9150826002028217905092915050565b6104b782610271565b67ffffffffffffffff8111156104d0576104cf61027b565b5b6104da82546102d5565b6104e5828285610425565b5f60209050601f831160018114610516575f8415610504578287015190505b61050e8582610493565b865550610575565b601f19841661052486610305565b5f5b8281101561054b57848901518255600182019150602085019450602081019050610526565b868310156105685784890151610564601f891682610477565b8355505b6001600288020188555050505b505050505050565b5f73ffffffffffffffffffffffffffffffffffffffff82169050919050565b5f6105a68261057d565b9050919050565b6105b68161059c565b82525050565b5f6020820190506105cf5f8301846105ad565b92915050565b612494806105e25f395ff3fe60806040526004361061014e575f3560e01c8063715018a6116100b5578063c637b6e51161006e578063c637b6e514610443578063c87b56dd1461046d578063e086e5ec146104a9578063e0df5b6f146104bf578063e985e9c5146104e7578063f2fde38b1461052357610155565b8063715018a61461036b5780638da5cb5b1461038157806395d89b41146103ab5780639da3f8fd146103d5578063a22cb465146103ff578063b88d4fde1461042757610155565b806323b872dd1161010757806323b872dd1461026957806332cb6b0c1461028557806340c10f19146102af57806342842e0e146102d75780636352211e146102f357806370a082311461032f57610155565b806301ffc9a71461015957806306fdde0314610195578063081812fc146101bf578063095ea7b3146101fb57806318160ddd146102175780631f85e3ca1461024157610155565b3661015557005b5f5ffd5b348015610164575f5ffd5b5061017f600480360381019061017a9190611950565b61054b565b60405161018c9190611995565b60405180910390f35b3480156101a0575f5ffd5b506101a961055c565b6040516101b69190611a1e565b60405180910390f35b3480156101ca575f5ffd5b506101e560048036038101906101e09190611a71565b6105ec565b6040516101f29190611adb565b60405180910390f35b61021560048036038101906102109190611b1e565b610645565b005b348015610222575f5ffd5b5061022b610655565b6040516102389190611b6b565b60405180910390f35b34801561024c575f5ffd5b5061026760048036038101906102629190611bae565b6106a0565b005b610283600480360381019061027e9190611bd9565b6106c4565b005b348015610290575f5ffd5b5061029961096f565b6040516102a69190611b6b565b60405180910390f35b3480156102ba575f5ffd5b506102d560048036038101906102d09190611b1e565b610975565b005b6102f160048036038101906102ec9190611bd9565b610993565b005b3480156102fe575f5ffd5b5061031960048036038101906103149190611a71565b6109b2565b6040516103269190611adb565b60405180910390f35b34801561033a575f5ffd5b5061035560048036038101906103509190611c29565b6109c3565b6040516103629190611b6b565b60405180910390f35b348015610376575f5ffd5b5061037f610a57565b005b34801561038c575f5ffd5b50610395610a6a565b6040516103a29190611adb565b60405180910390f35b3480156103b6575f5ffd5b506103bf610a92565b6040516103cc9190611a1e565b60405180910390f35b3480156103e0575f5ffd5b506103e9610b22565b6040516103f69190611995565b60405180910390f35b34801561040a575f5ffd5b5061042560048036038101906104209190611c54565b610b34565b005b610441600480360381019061043c9190611dbe565b610c3a565b005b34801561044e575f5ffd5b50610457610c8b565b6040516104649190611b6b565b60405180910390f35b348015610478575f5ffd5b50610493600480360381019061048e9190611a71565b610c90565b6040516104a09190611a1e565b60405180910390f35b3480156104b4575f5ffd5b506104bd610d6a565b005b3480156104ca575f5ffd5b506104e560048036038101906104e09190611e9b565b610e24565b005b3480156104f2575f5ffd5b5061050d60048036038101906105089190611ee6565b610e42565b60405161051a9190611995565b60405180910390f35b34801561052e575f5ffd5b5061054960048036038101906105449190611c29565b610ed0565b005b5f61055582610f54565b9050919050565b60606002805461056b90611f51565b80601f016020809104026020016040519081016040528092919081815260200182805461059790611f51565b80156105e25780601f106105b9576101008083540402835291602001916105e2565b820191905f5260205f20905b8154815290600101906020018083116105c557829003601f168201915b5050505050905090565b5f6105f682610fe5565b61060b5761060a63cf4700e460e01b611088565b5b60065f8381526020019081526020015f205f015f9054906101000a900473ffffffffffffffffffffffffffffffffffffffff169050919050565b61065182826001611090565b5050565b5f61065e6111ba565b6001545f54030390507fffffffffffffffffffffffffffffffffffffffffffffffffffffffffffffffff6106906111c1565b1461069d57600854810190505b90565b6106a86111e8565b80600c5f6101000a81548160ff02191690831515021790555050565b5f6106ce8261126f565b905073ffffffffffffffffffffffffffffffffffffffff8473ffffffffffffffffffffffffffffffffffffffff161693508373ffffffffffffffffffffffffffffffffffffffff168173ffffffffffffffffffffffffffffffffffffffff16146107435761074263a114810060e01b611088565b5b5f5f61074e8461137e565b91509150610764818761075f6113a1565b6113a8565b61078f57610779866107746113a1565b610e42565b61078e5761078d6359c896be60e01b611088565b5b5b61079c86868660016113eb565b80156107a6575f82555b60055f8773ffffffffffffffffffffffffffffffffffffffff1673ffffffffffffffffffffffffffffffffffffffff1681526020019081526020015f205f8154600190039190508190555060055f8673ffffffffffffffffffffffffffffffffffffffff1673ffffffffffffffffffffffffffffffffffffffff1681526020019081526020015f205f81546001019190508190555061086e8561084a8888876113f1565b7c020000000000000000000000000000000000000000000000000000000017611418565b60045f8681526020019081526020015f20819055505f7c02000000000000000000000000000000000000000000000000000000008416036108ea575f6001850190505f60045f8381526020019081526020015f2054036108e8575f5481146108e7578360045f8381526020019081526020015f20819055505b5b505b5f73ffffffffffffffffffffffffffffffffffffffff8673ffffffffffffffffffffffffffffffffffffffff161690508481887fddf252ad1be2c89b69c2b068fc378daa952ba7f163c4a11628f55a4df523b3ef5f5fa45f81036109595761095863ea553b3460e01b611088565b5b6109668787876001611442565b50505050505050565b6107e881565b61097d611448565b610987828261148e565b61098f6114ab565b5050565b6109ad83838360405180602001604052805f815250610c3a565b505050565b5f6109bc8261126f565b9050919050565b5f5f73ffffffffffffffffffffffffffffffffffffffff168273ffffffffffffffffffffffffffffffffffffffff1603610a0857610a07638f4eb60460e01b611088565b5b67ffffffffffffffff60055f8473ffffffffffffffffffffffffffffffffffffffff1673ffffffffffffffffffffffffffffffffffffffff1681526020019081526020015f2054169050919050565b610a5f6111e8565b610a685f6114b5565b565b5f60095f9054906101000a900473ffffffffffffffffffffffffffffffffffffffff16905090565b606060038054610aa190611f51565b80601f0160208091040260200160405190810160405280929190818152602001828054610acd90611f51565b8015610b185780601f10610aef57610100808354040283529160200191610b18565b820191905f5260205f20905b815481529060010190602001808311610afb57829003601f168201915b5050505050905090565b600c5f9054906101000a900460ff1681565b8060075f610b406113a1565b73ffffffffffffffffffffffffffffffffffffffff1673ffffffffffffffffffffffffffffffffffffffff1681526020019081526020015f205f8473ffffffffffffffffffffffffffffffffffffffff1673ffffffffffffffffffffffffffffffffffffffff1681526020019081526020015f205f6101000a81548160ff0219169083151502179055508173ffffffffffffffffffffffffffffffffffffffff16610be96113a1565b73ffffffffffffffffffffffffffffffffffffffff167f17307eab39ab6107e8899845ad3d59bd9653f200f220920489ca2b5937696c3183604051610c2e9190611995565b60405180910390a35050565b610c458484846106c4565b5f8373ffffffffffffffffffffffffffffffffffffffff163b14610c8557610c6f84848484611578565b610c8457610c8363d1a57ed660e01b611088565b5b5b50505050565b600481565b6060610c9b82610fe5565b610cda576040517f08c379a0000000000000000000000000000000000000000000000000000000008152600401610cd190611ff1565b60405180910390fd5b600b8054610ce790611f51565b80601f0160208091040260200160405190810160405280929190818152602001828054610d1390611f51565b8015610d5e5780601f10610d3557610100808354040283529160200191610d5e565b820191905f5260205f20905b815481529060010190602001808311610d4157829003601f168201915b50505050509050919050565b610d726111e8565b5f610d7b6116a2565b73ffffffffffffffffffffffffffffffffffffffff1647604051610d9e9061203c565b5f6040518083038185875af1925050503d805f8114610dd8576040519150601f19603f3d011682016040523d82523d5f602084013e610ddd565b606091505b5050905080610e21576040517f08c379a0000000000000000000000000000000000000000000000000000000008152600401610e189061209a565b60405180910390fd5b50565b610e2c6111e8565b8181600b9182610e3d929190612262565b505050565b5f60075f8473ffffffffffffffffffffffffffffffffffffffff1673ffffffffffffffffffffffffffffffffffffffff1681526020019081526020015f205f8373ffffffffffffffffffffffffffffffffffffffff1673ffffffffffffffffffffffffffffffffffffffff1681526020019081526020015f205f9054906101000a900460ff16905092915050565b610ed86111e8565b5f73ffffffffffffffffffffffffffffffffffffffff168173ffffffffffffffffffffffffffffffffffffffff1603610f48575f6040517f1e4fbdf7000000000000000000000000000000000000000000000000000000008152600401610f3f9190611adb565b60405180910390fd5b610f51816114b5565b50565b5f6301ffc9a760e01b827bffffffffffffffffffffffffffffffffffffffffffffffffffffffff19161480610fae57506380ac58cd60e01b827bffffffffffffffffffffffffffffffffffffffffffffffffffffffff1916145b80610fde5750635b5e139f60e01b827bffffffffffffffffffffffffffffffffffffffffffffffffffffffff1916145b9050919050565b5f81610fef6111ba565b1161108257610ffc6111c1565b8211156110245761101d60045f8481526020019081526020015f20546116a9565b9050611083565b5f54821015611081575f5b5f60045f8581526020019081526020015f20549150810361105b57826110549061235c565b925061102f565b5f7c01000000000000000000000000000000000000000000000000000000008216149150505b5b5b919050565b805f5260045ffd5b5f61109a836109b2565b90508180156110dc57508073ffffffffffffffffffffffffffffffffffffffff166110c36113a1565b73ffffffffffffffffffffffffffffffffffffffff1614155b15611108576110f2816110ed6113a1565b610e42565b6111075761110663cfb3b94260e01b611088565b5b5b8360065f8581526020019081526020015f205f015f6101000a81548173ffffffffffffffffffffffffffffffffffffffff021916908373ffffffffffffffffffffffffffffffffffffffff160217905550828473ffffffffffffffffffffffffffffffffffffffff168273ffffffffffffffffffffffffffffffffffffffff167f8c5be1e5ebec7d5bd14f71427d1e84f3dd0314c0f7b2291e5b200ac8c7c3b92560405160405180910390a450505050565b5f5f905090565b5f7fffffffffffffffffffffffffffffffffffffffffffffffffffffffffffffffff905090565b6111f06116a2565b73ffffffffffffffffffffffffffffffffffffffff1661120e610a6a565b73ffffffffffffffffffffffffffffffffffffffff161461126d576112316116a2565b6040517f118cdaa70000000000000000000000000000000000000000000000000000000081526004016112649190611adb565b60405180910390fd5b565b5f816112796111ba565b116113685760045f8381526020019081526020015f2054905061129a6111c1565b8211156112bf576112aa816116a9565b611379576112be63df2d9b4260e01b611088565b5b5f8103611340575f5482106112df576112de63df2d9b4260e01b611088565b5b5b60045f836001900393508381526020019081526020015f205490505f81031561133b575f7c0100000000000000000000000000000000000000000000000000000000821603156113795761133a63df2d9b4260e01b611088565b5b6112e0565b5f7c010000000000000000000000000000000000000000000000000000000082160315611379575b61137863df2d9b4260e01b611088565b5b919050565b5f5f5f60065f8581526020019081526020015f2090508092508254915050915091565b5f33905090565b5f73ffffffffffffffffffffffffffffffffffffffff8316925073ffffffffffffffffffffffffffffffffffffffff821691508382148383141790509392505050565b50505050565b5f5f60e883901c905060e86114078686846116e9565b62ffffff16901b9150509392505050565b5f73ffffffffffffffffffffffffffffffffffffffff83169250814260a01b178317905092915050565b50505050565b6002600a5403611484576040517f3ee5aeb500000000000000000000000000000000000000000000000000000000815260040160405180910390fd5b6002600a81905550565b6114a7828260405180602001604052805f8152506116f1565b5050565b6001600a81905550565b5f60095f9054906101000a900473ffffffffffffffffffffffffffffffffffffffff1690508160095f6101000a81548173ffffffffffffffffffffffffffffffffffffffff021916908373ffffffffffffffffffffffffffffffffffffffff1602179055508173ffffffffffffffffffffffffffffffffffffffff168173ffffffffffffffffffffffffffffffffffffffff167f8be0079c531659141344cd1fd0a4f28419497f9722a3daafe3b4186f6b6457e060405160405180910390a35050565b5f8373ffffffffffffffffffffffffffffffffffffffff1663150b7a0261159d6113a1565b8786866040518563ffffffff1660e01b81526004016115bf94939291906123d5565b6020604051808303815f875af19250505080156115fa57506040513d601f19601f820116820180604052508101906115f79190612433565b60015b61164f573d805f8114611628576040519150601f19603f3d011682016040523d82523d5f602084013e61162d565b606091505b505f8151036116475761164663d1a57ed660e01b611088565b5b805181602001fd5b63150b7a0260e01b7bffffffffffffffffffffffffffffffffffffffffffffffffffffffff1916817bffffffffffffffffffffffffffffffffffffffffffffffffffffffff191614915050949350505050565b5f33905090565b5f7c0100000000000000000000000000000000000000000000000000000000821673ffffffffffffffffffffffffffffffffffffffff8316119050919050565b5f9392505050565b6116fb8383611767565b5f8373ffffffffffffffffffffffffffffffffffffffff163b14611762575f5f5490505f83820390505b6117375f868380600101945086611578565b61174c5761174b63d1a57ed660e01b611088565b5b81811061172557815f541461175f575f5ffd5b50505b505050565b5f5f5490505f82036117845761178363b562e8dd60e01b611088565b5b6117905f8483856113eb565b6117ae8361179f5f865f6113f1565b6117a8856118db565b17611418565b60045f8381526020019081526020015f2081905550600160406001901b17820260055f8573ffffffffffffffffffffffffffffffffffffffff1673ffffffffffffffffffffffffffffffffffffffff1681526020019081526020015f205f82825401925050819055505f73ffffffffffffffffffffffffffffffffffffffff8473ffffffffffffffffffffffffffffffffffffffff161690505f810361185f5761185e632e07630060e01b611088565b5b5f83830190505f8390506118716111c1565b60018303111561188c5761188b6381647e3a60e01b611088565b5b5b80835f7fddf252ad1be2c89b69c2b068fc378daa952ba7f163c4a11628f55a4df523b3ef5f5fa481816001019150810361188d57815f819055505050506118d65f848385611442565b505050565b5f6001821460e11b9050919050565b5f604051905090565b5f5ffd5b5f5ffd5b5f7fffffffff0000000000000000000000000000000000000000000000000000000082169050919050565b61192f816118fb565b8114611939575f5ffd5b50565b5f8135905061194a81611926565b92915050565b5f60208284031215611965576119646118f3565b5b5f6119728482850161193c565b91505092915050565b5f8115159050919050565b61198f8161197b565b82525050565b5f6020820190506119a85f830184611986565b92915050565b5f81519050919050565b5f82825260208201905092915050565b8281835e5f83830152505050565b5f601f19601f8301169050919050565b5f6119f0826119ae565b6119fa81856119b8565b9350611a0a8185602086016119c8565b611a13816119d6565b840191505092915050565b5f6020820190508181035f830152611a3681846119e6565b905092915050565b5f819050919050565b611a5081611a3e565b8114611a5a575f5ffd5b50565b5f81359050611a6b81611a47565b92915050565b5f60208284031215611a8657611a856118f3565b5b5f611a9384828501611a5d565b91505092915050565b5f73ffffffffffffffffffffffffffffffffffffffff82169050919050565b5f611ac582611a9c565b9050919050565b611ad581611abb565b82525050565b5f602082019050611aee5f830184611acc565b92915050565b611afd81611abb565b8114611b07575f5ffd5b50565b5f81359050611b1881611af4565b92915050565b5f5f60408385031215611b3457611b336118f3565b5b5f611b4185828601611b0a565b9250506020611b5285828601611a5d565b9150509250929050565b611b6581611a3e565b82525050565b5f602082019050611b7e5f830184611b5c565b92915050565b611b8d8161197b565b8114611b97575f5ffd5b50565b5f81359050611ba881611b84565b92915050565b5f60208284031215611bc357611bc26118f3565b5b5f611bd084828501611b9a565b91505092915050565b5f5f5f60608486031215611bf057611bef6118f3565b5b5f611bfd86828701611b0a565b9350506020611c0e86828701611b0a565b9250506040611c1f86828701611a5d565b9150509250925092565b5f60208284031215611c3e57611c3d6118f3565b5b5f611c4b84828501611b0a565b91505092915050565b5f5f60408385031215611c6a57611c696118f3565b5b5f611c7785828601611b0a565b9250506020611c8885828601611b9a565b9150509250929050565b5f5ffd5b5f5ffd5b7f4e487b71000000000000000000000000000000000000000000000000000000005f52604160045260245ffd5b611cd0826119d6565b810181811067ffffffffffffffff82111715611cef57611cee611c9a565b5b80604052505050565b5f611d016118ea565b9050611d0d8282611cc7565b919050565b5f67ffffffffffffffff821115611d2c57611d2b611c9a565b5b611d35826119d6565b9050602081019050919050565b828183375f83830152505050565b5f611d62611d5d84611d12565b611cf8565b905082815260208101848484011115611d7e57611d7d611c96565b5b611d89848285611d42565b509392505050565b5f82601f830112611da557611da4611c92565b5b8135611db5848260208601611d50565b91505092915050565b5f5f5f5f60808587031215611dd657611dd56118f3565b5b5f611de387828801611b0a565b9450506020611df487828801611b0a565b9350506040611e0587828801611a5d565b925050606085013567ffffffffffffffff811115611e2657611e256118f7565b5b611e3287828801611d91565b91505092959194509250565b5f5ffd5b5f5ffd5b5f5f83601f840112611e5b57611e5a611c92565b5b8235905067ffffffffffffffff811115611e7857611e77611e3e565b5b602083019150836001820283011115611e9457611e93611e42565b5b9250929050565b5f5f60208385031215611eb157611eb06118f3565b5b5f83013567ffffffffffffffff811115611ece57611ecd6118f7565b5b611eda85828601611e46565b92509250509250929050565b5f5f60408385031215611efc57611efb6118f3565b5b5f611f0985828601611b0a565b9250506020611f1a85828601611b0a565b9150509250929050565b7f4e487b71000000000000000000000000000000000000000000000000000000005f52602260045260245ffd5b5f6002820490506001821680611f6857607f821691505b602082108103611f7b57611f7a611f24565b5b50919050565b7f54686520656e6572677920686173206e6f7420796574206265656e20636f6c6c5f8201527f6563746564000000000000000000000000000000000000000000000000000000602082015250565b5f611fdb6025836119b8565b9150611fe682611f81565b604082019050919050565b5f6020820190508181035f83015261200881611fcf565b9050919050565b5f81905092915050565b50565b5f6120275f8361200f565b915061203282612019565b5f82019050919050565b5f6120468261201c565b9150819050919050565b7f7769746864726177206661696c656400000000000000000000000000000000005f82015250565b5f612084600f836119b8565b915061208f82612050565b602082019050919050565b5f6020820190508181035f8301526120b181612078565b9050919050565b5f82905092915050565b5f819050815f5260205f209050919050565b5f6020601f8301049050919050565b5f82821b905092915050565b5f6008830261211e7fffffffffffffffffffffffffffffffffffffffffffffffffffffffffffffffff826120e3565b61212886836120e3565b95508019841693508086168417925050509392505050565b5f819050919050565b5f61216361215e61215984611a3e565b612140565b611a3e565b9050919050565b5f819050919050565b61217c83612149565b6121906121888261216a565b8484546120ef565b825550505050565b5f5f905090565b6121a7612198565b6121b2818484612173565b505050565b5b818110156121d5576121ca5f8261219f565b6001810190506121b8565b5050565b601f82111561221a576121eb816120c2565b6121f4846120d4565b81016020851015612203578190505b61221761220f856120d4565b8301826121b7565b50505b505050565b5f82821c905092915050565b5f61223a5f198460080261221f565b1980831691505092915050565b5f612252838361222b565b9150826002028217905092915050565b61226c83836120b8565b67ffffffffffffffff81111561228557612284611c9a565b5b61228f8254611f51565b61229a8282856121d9565b5f601f8311600181146122c7575f84156122b5578287013590505b6122bf8582612247565b865550612326565b601f1984166122d5866120c2565b5f5b828110156122fc578489013582556001820191506020850194506020810190506122d7565b868310156123195784890135612315601f89168261222b565b8355505b6001600288020188555050505b50505050505050565b7f4e487b71000000000000000000000000000000000000000000000000000000005f52601160045260245ffd5b5f61236682611a3e565b91505f82036123785761237761232f565b5b600182039050919050565b5f81519050919050565b5f82825260208201905092915050565b5f6123a782612383565b6123b1818561238d565b93506123c18185602086016119c8565b6123ca816119d6565b840191505092915050565b5f6080820190506123e85f830187611acc565b6123f56020830186611acc565b6124026040830185611b5c565b8181036060830152612414818461239d565b905095945050505050565b5f8151905061242d81611926565b92915050565b5f60208284031215612448576124476118f3565b5b5f6124558482850161241f565b9150509291505056fea264697066735822122042bb77da5c5d3240931e2a1ad2ae0f7723cbb467ba7dc2402d09f198da3b626c64736f6c634300081e0033","linkReferences":{}},"methodIdentifiers":{"MAX_SUPPLY()":"32cb6b0c","PER_MINT()":"c637b6e5","approve(address,uint256)":"095ea7b3","balanceOf(address)":"70a08231","getApproved(uint256)":"081812fc","isApprovedForAll(address,address)":"e985e9c5","mint(address,uint256)":"40c10f19","mintStatus()":"9da3f8fd","name()":"06fdde03","owner()":"8da5cb5b","ownerOf(uint256)":"6352211e","renounceOwnership()":"715018a6","safeTransferFrom(address,address,uint256)":"42842e0e","safeTransferFrom(address,address,uint256,bytes)":"b88d4fde","setApprovalForAll(address,bool)":"a22cb465","setMintStatus(bool)":"1f85e3ca","setTokenURI(string)":"e0df5b6f","supportsInterface(bytes4)":"01ffc9a7","symbol()":"95d89b41","tokenURI(uint256)":"c87b56dd","totalSupply()":"18160ddd","transferFrom(address,address,uint256)":"23b872dd","transferOwnership(address)":"f2fde38b","withdrawETH()":"e086e5ec"},"id":50}