{"abi":[{"type":"function","name":"ASSET_TYPEHASH","inputs":[],"outputs":[{"name":"","type":"bytes32","internalType":"bytes32"}],"stateMutability":"view"},{"type":"function","name":"ORDERKEY_SENTINEL","inputs":[],"outputs":[{"name":"","type":"bytes32","internalType":"OrderKey"}],"stateMutability":"view"},{"type":"function","name":"ORDER_TYPEHASH","inputs":[],"outputs":[{"name":"","type":"bytes32","internalType":"bytes32"}],"stateMutability":"view"}],"bytecode":{"object":"0x61019661004d600b8282823980515f1a6073146041577f4e487b71000000000000000000000000000000000000000000000000000000005f525f60045260245ffd5b305f52607381538281f3fe730000000000000000000000000000000000000000301460806040526004361061004a575f3560e01c80633c75f2e61461004e578063f973a2091461006c578063fcd0d9d31461008a575b5f5ffd5b6100566100a8565b604051610063919061011f565b60405180910390f35b6100746100ae565b6040516100819190610147565b60405180910390f35b6100926100d2565b60405161009f9190610147565b60405180910390f35b5f5f1b81565b7f7e112775c49cc2f5d597cc604eac1616afa66ee95cc7c4d46a97ca90b539ca3381565b7f631e462bf410c643f967c13284911d970aa0a06097a11e4a1a7ad9549175d78a81565b5f819050919050565b5f610109826100f6565b9050919050565b610119816100ff565b82525050565b5f6020820190506101325f830184610110565b92915050565b610141816100f6565b82525050565b5f60208201905061015a5f830184610138565b9291505056fea264697066735822122079da7f6fa4a27e0310ebd96ad80809997446c1c22eb2e19a4b93b838723a468964736f6c634300081e0033","linkReferences":{}},"methodIdentifiers":{"ASSET_TYPEHASH()":"fcd0d9d3","ORDERKEY_SENTINEL()":"3c75f2e6","ORDER_TYPEHASH()":"f973a209"},"id":42}