{"abi":[{"type":"function","name":"initialize","inputs":[{"name":"newProtocolFee","type":"uint128","internalType":"uint128"}],"outputs":[],"stateMutability":"nonpayable"},{"type":"function","name":"owner","inputs":[],"outputs":[{"name":"","type":"address","internalType":"address"}],"stateMutability":"view"},{"type":"function","name":"protocolShare","inputs":[],"outputs":[{"name":"","type":"uint128","internalType":"uint128"}],"stateMutability":"view"},{"type":"function","name":"renounceOwnership","inputs":[],"outputs":[],"stateMutability":"nonpayable"},{"type":"function","name":"setProtocolShare","inputs":[{"name":"newProtocolShare","type":"uint128","internalType":"uint128"}],"outputs":[],"stateMutability":"nonpayable"},{"type":"function","name":"transferOwnership","inputs":[{"name":"newOwner","type":"address","internalType":"address"}],"outputs":[],"stateMutability":"nonpayable"},{"type":"event","name":"Initialized","inputs":[{"name":"version","type":"uint64","indexed":false,"internalType":"uint64"}],"anonymous":false},{"type":"event","name":"LogUpdatedProtocolShare","inputs":[{"name":"newProtocolShare","type":"uint128","indexed":true,"internalType":"uint128"}],"anonymous":false},{"type":"event","name":"OwnershipTransferred","inputs":[{"name":"previousOwner","type":"address","indexed":true,"internalType":"address"},{"name":"newOwner","type":"address","indexed":true,"internalType":"address"}],"anonymous":false},{"type":"error","name":"InvalidInitialization","inputs":[]},{"type":"error","name":"NotInitializing","inputs":[]},{"type":"error","name":"OwnableInvalidOwner","inputs":[{"name":"owner","type":"address","internalType":"address"}]},{"type":"error","name":"OwnableUnauthorizedAccount","inputs":[{"name":"account","type":"address","internalType":"address"}]}],"bytecode":{"object":"0x6080604052348015600e575f5ffd5b5061090e8061001c5f395ff3fe608060405234801561000f575f5ffd5b5060043610610060575f3560e01c80631103f3151461006457806356db9ef114610082578063715018a61461009e578063813e7c2a146100a85780638da5cb5b146100c4578063f2fde38b146100e2575b5f5ffd5b61006c6100fe565b60405161007991906106d3565b60405180910390f35b61009c6004803603810190610097919061071a565b61011e565b005b6100a661029f565b005b6100c260048036038101906100bd919061071a565b6102b2565b005b6100cc6102c6565b6040516100d99190610784565b60405180910390f35b6100fc60048036038101906100f791906107c7565b6102fb565b005b5f5f9054906101000a90046fffffffffffffffffffffffffffffffff1681565b5f61012761037f565b90505f815f0160089054906101000a900460ff161590505f825f015f9054906101000a900467ffffffffffffffff1690505f5f8267ffffffffffffffff1614801561016f5750825b90505f60018367ffffffffffffffff161480156101a257505f3073ffffffffffffffffffffffffffffffffffffffff163b145b9050811580156101b0575080155b156101e7576040517ff92ee8a900000000000000000000000000000000000000000000000000000000815260040160405180910390fd5b6001855f015f6101000a81548167ffffffffffffffff021916908367ffffffffffffffff1602179055508315610234576001855f0160086101000a81548160ff0219169083151502179055505b61023d86610392565b8315610297575f855f0160086101000a81548160ff0219169083151502179055507fc7f505b2f371ae2175ee4913f4499e1f2633a7b5936321eed1cdaeb6115181d2600160405161028e9190610847565b60405180910390a15b505050505050565b6102a76103a6565b6102b05f61042d565b565b6102ba6103a6565b6102c3816104fe565b50565b5f5f6102d06105e0565b9050805f015f9054906101000a900473ffffffffffffffffffffffffffffffffffffffff1691505090565b6103036103a6565b5f73ffffffffffffffffffffffffffffffffffffffff168173ffffffffffffffffffffffffffffffffffffffff1603610373575f6040517f1e4fbdf700000000000000000000000000000000000000000000000000000000815260040161036a9190610784565b60405180910390fd5b61037c8161042d565b50565b5f5f610389610607565b90508091505090565b61039a610630565b6103a381610670565b50565b6103ae610684565b73ffffffffffffffffffffffffffffffffffffffff166103cc6102c6565b73ffffffffffffffffffffffffffffffffffffffff161461042b576103ef610684565b6040517f118cdaa70000000000000000000000000000000000000000000000000000000081526004016104229190610784565b60405180910390fd5b565b5f6104366105e0565b90505f815f015f9054906101000a900473ffffffffffffffffffffffffffffffffffffffff16905082825f015f6101000a81548173ffffffffffffffffffffffffffffffffffffffff021916908373ffffffffffffffffffffffffffffffffffffffff1602179055508273ffffffffffffffffffffffffffffffffffffffff168173ffffffffffffffffffffffffffffffffffffffff167f8be0079c531659141344cd1fd0a4f28419497f9722a3daafe3b4186f6b6457e060405160405180910390a3505050565b6103e86fffffffffffffffffffffffffffffffff16816fffffffffffffffffffffffffffffffff161115610567576040517f08c379a000000000000000000000000000000000000000000000000000000000815260040161055e906108ba565b60405180910390fd5b805f5f6101000a8154816fffffffffffffffffffffffffffffffff02191690836fffffffffffffffffffffffffffffffff160217905550806fffffffffffffffffffffffffffffffff167f0b52884d4590055c8791518c34458834f75feed662340ef0b5af2898e7a9be9f60405160405180910390a250565b5f7f9016d09d72d40fdae2fd8ceac6b6234c7706214fd39c1cd1e609a0528c199300905090565b5f7ff0c57e16840df040f15088dc2f81fe391c3923bec73e23a9662efc9c229c6a005f1b905090565b61063861068b565b61066e576040517fd7e6bcf800000000000000000000000000000000000000000000000000000000815260040160405180910390fd5b565b610678610630565b610681816104fe565b50565b5f33905090565b5f61069461037f565b5f0160089054906101000a900460ff16905090565b5f6fffffffffffffffffffffffffffffffff82169050919050565b6106cd816106a9565b82525050565b5f6020820190506106e65f8301846106c4565b92915050565b5f5ffd5b6106f9816106a9565b8114610703575f5ffd5b50565b5f81359050610714816106f0565b92915050565b5f6020828403121561072f5761072e6106ec565b5b5f61073c84828501610706565b91505092915050565b5f73ffffffffffffffffffffffffffffffffffffffff82169050919050565b5f61076e82610745565b9050919050565b61077e81610764565b82525050565b5f6020820190506107975f830184610775565b92915050565b6107a681610764565b81146107b0575f5ffd5b50565b5f813590506107c18161079d565b92915050565b5f602082840312156107dc576107db6106ec565b5b5f6107e9848285016107b3565b91505092915050565b5f819050919050565b5f67ffffffffffffffff82169050919050565b5f819050919050565b5f61083161082c610827846107f2565b61080e565b6107fb565b9050919050565b61084181610817565b82525050565b5f60208201905061085a5f830184610838565b92915050565b5f82825260208201905092915050565b7f504d3a20657863656564206d61782070726f746f636f6c2073686172650000005f82015250565b5f6108a4601d83610860565b91506108af82610870565b602082019050919050565b5f6020820190508181035f8301526108d181610898565b905091905056fea2646970667358221220715eba666831a8cda713c3e3a2196b0a462c6c74eb3f32986d8e88a4519ba2a364736f6c634300081e0033","linkReferences":{}},"methodIdentifiers":{"initialize(uint128)":"56db9ef1","owner()":"8da5cb5b","protocolShare()":"1103f315","renounceOwnership()":"715018a6","setProtocolShare(uint128)":"813e7c2a","transferOwnership(address)":"f2fde38b"},"id":48}