{"abi":[{"type":"constructor","inputs":[],"stateMutability":"nonpayable"},{"type":"receive","stateMutability":"payable"},{"type":"function","name":"auctionCount","inputs":[],"outputs":[{"name":"","type":"uint256","internalType":"uint256"}],"stateMutability":"view"},{"type":"function","name":"auctions","inputs":[{"name":"","type":"uint256","internalType":"uint256"}],"outputs":[{"name":"seller","type":"address","internalType":"address"},{"name":"nftCollection","type":"address","internalType":"address"},{"name":"tokenId","type":"uint256","internalType":"uint256"},{"name":"currency","type":"address","internalType":"address"},{"name":"minBid","type":"uint256","internalType":"uint256"},{"name":"endTime","type":"uint256","internalType":"uint256"},{"name":"minBidIncrement","type":"uint256","internalType":"uint256"},{"name":"settled","type":"bool","internalType":"bool"},{"name":"highestBidder","type":"address","internalType":"address"},{"name":"highestBid","type":"uint256","internalType":"uint256"}],"stateMutability":"view"},{"type":"function","name":"bids","inputs":[{"name":"","type":"address","internalType":"address"},{"name":"","type":"uint256","internalType":"uint256"}],"outputs":[{"name":"","type":"uint256","internalType":"uint256"}],"stateMutability":"view"},{"type":"function","name":"claimNFTForWinner","inputs":[{"name":"_auctionId","type":"uint256","internalType":"uint256"}],"outputs":[],"stateMutability":"nonpayable"},{"type":"function","name":"claimableWinner","inputs":[{"name":"","type":"uint256","internalType":"uint256"}],"outputs":[{"name":"","type":"address","internalType":"address"}],"stateMutability":"view"},{"type":"function","name":"createAuction","inputs":[{"name":"_nftCollection","type":"address","internalType":"address"},{"name":"_tokenId","type":"uint256","internalType":"uint256"},{"name":"_currency","type":"address","internalType":"address"},{"name":"_minBid","type":"uint256","internalType":"uint256"},{"name":"_duration","type":"uint256","internalType":"uint256"},{"name":"_minBidIncrement","type":"uint256","internalType":"uint256"}],"outputs":[],"stateMutability":"nonpayable"},{"type":"function","name":"getTotalFeesCollected","inputs":[{"name":"currency","type":"address","internalType":"address"}],"outputs":[{"name":"","type":"uint256","internalType":"uint256"}],"stateMutability":"view"},{"type":"function","name":"initialize","inputs":[{"name":"_initialOwner","type":"address","internalType":"address"},{"name":"_perFee","type":"uint256","internalType":"uint256"}],"outputs":[],"stateMutability":"nonpayable"},{"type":"function","name":"isWhitelistedCollection","inputs":[{"name":"","type":"address","internalType":"address"}],"outputs":[{"name":"","type":"bool","internalType":"bool"}],"stateMutability":"view"},{"type":"function","name":"nftDelivered","inputs":[{"name":"","type":"uint256","internalType":"uint256"}],"outputs":[{"name":"","type":"bool","internalType":"bool"}],"stateMutability":"view"},{"type":"function","name":"onERC721Received","inputs":[{"name":"","type":"address","internalType":"address"},{"name":"","type":"address","internalType":"address"},{"name":"","type":"uint256","internalType":"uint256"},{"name":"","type":"bytes","internalType":"bytes"}],"outputs":[{"name":"","type":"bytes4","internalType":"bytes4"}],"stateMutability":"nonpayable"},{"type":"function","name":"owner","inputs":[],"outputs":[{"name":"","type":"address","internalType":"address"}],"stateMutability":"view"},{"type":"function","name":"pause","inputs":[],"outputs":[],"stateMutability":"nonpayable"},{"type":"function","name":"paused","inputs":[],"outputs":[{"name":"","type":"bool","internalType":"bool"}],"stateMutability":"view"},{"type":"function","name":"pendingReturns","inputs":[{"name":"","type":"uint256","internalType":"uint256"},{"name":"","type":"address","internalType":"address"}],"outputs":[{"name":"","type":"uint256","internalType":"uint256"}],"stateMutability":"view"},{"type":"function","name":"perFee","inputs":[],"outputs":[{"name":"","type":"uint256","internalType":"uint256"}],"stateMutability":"view"},{"type":"function","name":"placeBid","inputs":[{"name":"_auctionId","type":"uint256","internalType":"uint256"},{"name":"_amount","type":"uint256","internalType":"uint256"}],"outputs":[],"stateMutability":"payable"},{"type":"function","name":"renounceOwnership","inputs":[],"outputs":[],"stateMutability":"nonpayable"},{"type":"function","name":"setPerFee","inputs":[{"name":"_perFee","type":"uint256","internalType":"uint256"}],"outputs":[],"stateMutability":"nonpayable"},{"type":"function","name":"setWhitelistedCollection","inputs":[{"name":"collection","type":"address","internalType":"address"},{"name":"isWhitelisted","type":"bool","internalType":"bool"}],"outputs":[],"stateMutability":"nonpayable"},{"type":"function","name":"settleAuction","inputs":[{"name":"_auctionId","type":"uint256","internalType":"uint256"}],"outputs":[],"stateMutability":"nonpayable"},{"type":"function","name":"totalFeesCollected","inputs":[{"name":"","type":"address","internalType":"address"}],"outputs":[{"name":"","type":"uint256","internalType":"uint256"}],"stateMutability":"view"},{"type":"function","name":"transferOwnership","inputs":[{"name":"newOwner","type":"address","internalType":"address"}],"outputs":[],"stateMutability":"nonpayable"},{"type":"function","name":"unpause","inputs":[],"outputs":[],"stateMutability":"nonpayable"},{"type":"function","name":"withdraw","inputs":[{"name":"_auctionId","type":"uint256","internalType":"uint256"}],"outputs":[],"stateMutability":"nonpayable"},{"type":"function","name":"withdrawERC20","inputs":[{"name":"recipient","type":"address","internalType":"address"},{"name":"token","type":"address","internalType":"address"},{"name":"amount","type":"uint256","internalType":"uint256"}],"outputs":[],"stateMutability":"nonpayable"},{"type":"function","name":"withdrawETH","inputs":[{"name":"recipient","type":"address","internalType":"address"},{"name":"amount","type":"uint256","internalType":"uint256"}],"outputs":[],"stateMutability":"nonpayable"},{"type":"event","name":"AuctionCreated","inputs":[{"name":"auctionId","type":"uint256","indexed":false,"internalType":"uint256"},{"name":"seller","type":"address","indexed":false,"internalType":"address"},{"name":"nftCollection","type":"address","indexed":false,"internalType":"address"},{"name":"tokenId","type":"uint256","indexed":false,"internalType":"uint256"},{"name":"minBid","type":"uint256","indexed":false,"internalType":"uint256"},{"name":"endTime","type":"uint256","indexed":false,"internalType":"uint256"},{"name":"minBidIncrement","type":"uint256","indexed":false,"internalType":"uint256"},{"name":"currency","type":"address","indexed":false,"internalType":"address"}],"anonymous":false},{"type":"event","name":"AuctionPerFeeSet","inputs":[{"name":"oldPerFee","type":"uint256","indexed":false,"internalType":"uint256"},{"name":"newPerFee","type":"uint256","indexed":false,"internalType":"uint256"}],"anonymous":false},{"type":"event","name":"AuctionSettled","inputs":[{"name":"auctionId","type":"uint256","indexed":false,"internalType":"uint256"},{"name":"winner","type":"address","indexed":false,"internalType":"address"},{"name":"amount","type":"uint256","indexed":false,"internalType":"uint256"}],"anonymous":false},{"type":"event","name":"BidPlaced","inputs":[{"name":"auctionId","type":"uint256","indexed":false,"internalType":"uint256"},{"name":"bidder","type":"address","indexed":false,"internalType":"address"},{"name":"amount","type":"uint256","indexed":false,"internalType":"uint256"}],"anonymous":false},{"type":"event","name":"Initialized","inputs":[{"name":"version","type":"uint64","indexed":false,"internalType":"uint64"}],"anonymous":false},{"type":"event","name":"LogWithdrawERC20","inputs":[{"name":"recipient","type":"address","indexed":false,"internalType":"address"},{"name":"token","type":"address","indexed":false,"internalType":"address"},{"name":"amount","type":"uint256","indexed":false,"internalType":"uint256"}],"anonymous":false},{"type":"event","name":"LogWithdrawETH","inputs":[{"name":"recipient","type":"address","indexed":false,"internalType":"address"},{"name":"amount","type":"uint256","indexed":false,"internalType":"uint256"}],"anonymous":false},{"type":"event","name":"NftDeliveryFailed","inputs":[{"name":"auctionId","type":"uint256","indexed":true,"internalType":"uint256"},{"name":"winner","type":"address","indexed":true,"internalType":"address"},{"name":"reason","type":"bytes","indexed":false,"internalType":"bytes"}],"anonymous":false},{"type":"event","name":"OwnershipTransferred","inputs":[{"name":"previousOwner","type":"address","indexed":true,"internalType":"address"},{"name":"newOwner","type":"address","indexed":true,"internalType":"address"}],"anonymous":false},{"type":"event","name":"Paused","inputs":[{"name":"account","type":"address","indexed":false,"internalType":"address"}],"anonymous":false},{"type":"event","name":"Unpaused","inputs":[{"name":"account","type":"address","indexed":false,"internalType":"address"}],"anonymous":false},{"type":"error","name":"EnforcedPause","inputs":[]},{"type":"error","name":"ExpectedPause","inputs":[]},{"type":"error","name":"InvalidInitialization","inputs":[]},{"type":"error","name":"NotInitializing","inputs":[]},{"type":"error","name":"OwnableInvalidOwner","inputs":[{"name":"owner","type":"address","internalType":"address"}]},{"type":"error","name":"OwnableUnauthorizedAccount","inputs":[{"name":"account","type":"address","internalType":"address"}]},{"type":"error","name":"ReentrancyGuardReentrantCall","inputs":[]},{"type":"error","name":"SafeERC20FailedOperation","inputs":[{"name":"token","type":"address","internalType":"address"}]}],"bytecode":{"object":"0x608080604052346100b8577ff0c57e16840df040f15088dc2f81fe391c3923bec73e23a9662efc9c229c6a009081549060ff8260401c166100a957506001600160401b036002600160401b031982821601610064575b604051611edb90816100bd8239f35b6001600160401b031990911681179091556040519081527fc7f505b2f371ae2175ee4913f4499e1f2633a7b5936321eed1cdaeb6115181d290602090a15f8080610055565b63f92ee8a960e01b8152600490fd5b5f80fdfe6080604052600436101561001a575b3615610018575f80fd5b005b5f3560e01c806301495c1c146101c4578063078e94ca146101bf57806307ad24d61461016557806314ec4106146101ba578063150b7a02146101b55780632ad71573146101b05780632e1a7d4d146101ab5780632e993611146101a65780633f4ba83a146101a157806344004cc11461019c5780634782f779146101975780634fc0c20b14610192578063571a26a01461018d57806357c90de5146101885780635c975abb14610183578063650c22761461017e578063715018a6146101795780637a5c2b80146101745780638214ff3e1461016f5780638456cb591461016a57806388a40eed146101655780638da5cb5b146101605780638ddac1ef1461015b578063cd6dc68714610156578063dcbb347314610151578063f2fde38b1461014c5763f79427d40361000e57611535565b611508565b6114d9565b6113a2565b611355565b611321565b61027e565b6112bc565b61127c565b61124a565b6111e3565b611190565b611162565b610f2e565b610e7e565b610d74565b610cf5565b610c40565b610bcb565b61072d565b610600565b6105e3565b610547565b6102b9565b610225565b6101de565b6001600160a01b038116036101da57565b5f80fd5b346101da5760403660031901126101da576004356101fb816101c9565b60018060a01b03165f52600460205260405f206024355f52602052602060405f2054604051908152f35b346101da5760403660031901126101da57600435610242816101c9565b60243580151581036101da576100189161025a611c36565b60018060a01b03165f52600760205260405f209060ff801983541691151516179055565b346101da5760203660031901126101da5760043561029b816101c9565b60018060a01b03165f526008602052602060405f2054604051908152f35b346101da5760c03660031901126101da576004356102d6816101c9565b602435906044356102e6816101c9565b6064356084359160a4356102f8611c6e565b610300611c9d565b61030b841515611551565b6001600160a01b0385165f9081526007602052604090205461032f9060ff16611594565b6001600160a01b03851695863b156101da57604051632142170760e11b815233600482015230602482015260448101829052965f908890606490829084905af19384156104b6577ff945d05980306495bcd83f24e135d89a9b484f5176423e455b1edc7316c2bd34976104849561049d575b506103b56103b06001546115f8565b600155565b6104316103c2874261160b565b6103ca61050a565b338152906001600160a01b038a166020830152604082018590526001600160a01b038716606083015283608083015260a08201528460c08201525f60e08201525f6101008201525f61012082015261042c6001545f52600260205260405f2090565b611618565b61043e600154964261160b565b604080519788523360208901526001600160a01b03988916908801526060870192909252608086015260a085015260c084015290921660e0820152908190610100820190565b0390a161001860015f80516020611e6683398151915255565b806104aa6104b0926104cf565b806105d9565b5f6103a1565b6115d9565b634e487b7160e01b5f52604160045260245ffd5b67ffffffffffffffff81116104e357604052565b6104bb565b90601f8019910116810190811067ffffffffffffffff8211176104e357604052565b60405190610140820182811067ffffffffffffffff8211176104e357604052565b67ffffffffffffffff81116104e357601f01601f191660200190565b346101da5760803660031901126101da576105636004356101c9565b61056e6024356101c9565b60643567ffffffffffffffff81116101da57366023820112156101da5780600401359061059a8261052b565b916105a860405193846104e8565b80835236602482840101116101da575f928160246020940184830137010152604051630a85bd0160e11b8152602090f35b5f9103126101da57565b346101da575f3660031901126101da576020600154604051908152f35b346101da5760203660031901126101da5760043561061c611c6e565b610624611c9d565b805f52600260205260405f205f6106e861065b610649855f52600360205260405f2090565b335f9081526020919091526040902090565b5493610668851515611711565b61067e610679600786015460ff1690565b611753565b6106c06106b86106ac600761069b855f52600260205260405f2090565b015460081c6001600160a01b031690565b6001600160a01b031690565b331415611791565b6106d333915f52600360205260405f2090565b9060018060a01b03165f5260205260405f2090565b55600301546001600160a01b0316908161071d57610707915033611d11565b61001860015f80516020611e6683398151915255565b610728913390611cc7565b610707565b346101da5760203660031901126101da57600435610749611c6e565b610751611c9d565b610763815f52600260205260405f2090565b9061077460058301544210156117d6565b600782019061079361078e61078a845460ff1690565b1590565b611816565b815460ff19166001178255600883019182546108186107be6107b65f5484611854565b612710900490565b600187018054909491906107dc906106ac906001600160a01b031681565b9460018060a01b039560028a01918254916040809881518099819263152a902d60e11b8352876004840160209093929193604081019481520152565b03818c85165afa9283156104b6575f975f94610b96575b50865460081c8a166001600160a01b031615610af15750505461085c906106ac906001600160a01b031681565b845490959060081c6001600160a01b03169254863b156101da578751632142170760e11b81523060048201526001600160a01b0394909416602485015260448401527fc9f72b276a388619c6d185d146697036241880c36654b1a3ffdad07c24038d999a61048498610a16978c95879392915f908290606490829084905af19081610ade575b50610ab757898c7f2df0c25943ea54c7badb9ef04575d6f9176f082cdc04f7d5d8b619603317541961097c8b8561097061091a611886565b83549093906109609060081c6001600160a01b0316610941895f52600560205260405f2090565b80546001600160a01b0319166001600160a01b03909216919091179055565b5460081c6001600160a01b031690565b169451918291826118b5565b0390a35b6003820180549091166001600160a01b031680610a3f575050936109c4846109bf6109ca946109b86109cf995460018060a01b031690565b94546118fc565b6118fc565b90611d11565b611d11565b5f80526008602052610a047f5eff886ea0ce6ca488a3d6e336d6c0f75f46d19b42c06ce5ee98e42c96d256c75b91825461160b565b90555460081c6001600160a01b031690565b935490519283526001600160a01b03909316602083015260408201929092529081906060820190565b93610a71610a9795610ab098610a6b896109bf6109fc9b97996109b8610a8a9a5460018060a01b031690565b91611cc7565b8354610a85906001600160a01b03166106ac565b611cc7565b546001600160a01b031690565b6001600160a01b03165f90815260086020526040902090565b9055610960565b610ad9610acc8d5f52600660205260405f2090565b805460ff19166001179055565b610980565b806104aa610aeb926104cf565b5f6108e2565b965097505050505095610b0a905460018060a01b031690565b90833b156101da578251632142170760e11b81523060048201526001600160a01b039290921660248301526044820152915f908390606490829084905af180156104b6577fc9f72b276a388619c6d185d146697036241880c36654b1a3ffdad07c24038d999561048493610a1692610b83575b50610960565b806104aa610b90926104cf565b5f610b7d565b909350610bba919750883d8a11610bc4575b610bb281836104e8565b810190611867565b969096925f61082f565b503d610ba8565b346101da575f3660031901126101da57610be3611c36565b5f80516020611e46833981519152805460ff811615610c2e5760ff191690557f5db9ee0a495bf2e6ff9c91a7834c1ba4fdd244a5e8aa4e537bd38aeae4b073aa6020604051338152a1005b604051638dfc202b60e01b8152600490fd5b346101da5760603660031901126101da577fd2b94cbb92c9891699cc0b41778f7c3abf2fbdd5d2b2e0d3dfe8d64b6f886856600435610c7e816101c9565b60243590610c8b826101c9565b610cdf604435610c99611c6e565b610ca1611c36565b610cb581846001600160a01b038716611cc7565b604080516001600160a01b0394851681529490931660208501529183019190915281906060820190565b0390a160015f80516020611e6683398151915255005b346101da5760403660031901126101da577fab0f46966ebb6f17d26b8f6add4624e39fcfdeaccfeaba589d57f81cb5cb6666600435610d33816101c9565b60243590610d3f611c6e565b610d47611c36565b610d518282611d11565b604080516001600160a01b03909216825260208201929092529081908101610cdf565b346101da5760203660031901126101da57600435610d90611c6e565b610d98611c9d565b610daa815f52600260205260405f2090565b90610dc1610dbc600784015460ff1690565b611909565b610de3610ddc6106ac610a8a845f52600560205260405f2090565b331461194b565b6001820154600290610dff906106ac906001600160a01b031681565b92015491803b156101da57604051632142170760e11b815230600482015233602482015260448101939093525f908390606490829084905af19081156104b65761070792610e5b92610e6b575b505f52600560205260405f2090565b80546001600160a01b0319169055565b806104aa610e78926104cf565b5f610e4c565b346101da5760203660031901126101da57600480355f9081526002602081815260409283902080546001820154938201546003830154968301546005840154600685015460078601546008968701548a516001600160a01b039788168152998716988a0198909852988801939093529783166060870152608086015260a085019690965260c084019590955260ff8416151560e08401529290921c90921661010083015261012082015261014090f35b60403660031901126101da577f0e54eff26401bf69b81b26f60bd85ef47f5d85275c1d268d84f68d6897431c47602435600435610f69611c6e565b610f71611c9d565b6110c2610f86825f52600260205260405f2090565b610f956005820154421061198f565b836007820191610fb1610fac61078a855460ff1690565b6119cb565b610fc16004820154831015611a09565b60036008820191610fd483548511611a4b565b335f90815260046020526040902061100290610ffa9089905b905f5260205260405f2090565b548511611a97565b335f9081526004602052604090206110269061101f908990610fed565b54856118fc565b908461104689610fed3360018060a01b03165f52600460205260405f2090565b556110576006820154831015611af4565b91909101546001600160a01b03919082168061114f57506110878161108161108d93341015611b38565b346118fc565b33611d11565b8154908115159081611135575b506110f7575b50558054610100600160a81b0319163360081b610100600160a81b0316179055565b5f6110d9336106d3845f52600360205260405f2090565b55604080519182523360208301528101919091528060608101610484565b61112e61110c875f52600360205260405f2090565b855460081c6001600160a01b031660018060a01b03165f5260205260405f2090565b555f6110a0565b855433925060081c6001600160a01b03161614155f61109a565b9061115d9130903390611d5b565b61108d565b346101da575f3660031901126101da57602060ff5f80516020611e4683398151915254166040519015158152f35b346101da5760203660031901126101da576004356111ac611c36565b5f5460408051918252602082018390527f280715eda6f99309ba4b67957336c1c1f0e65ad2c2a85b36e76bb4a37a1e0a6491a15f55005b346101da575f3660031901126101da576111fb611c36565b5f80516020611e2683398151915280546001600160a01b031981169091555f906001600160a01b03167f8be0079c531659141344cd1fd0a4f28419497f9722a3daafe3b4186f6b6457e08280a3005b346101da5760203660031901126101da576004355f526005602052602060018060a01b0360405f205416604051908152f35b346101da5760203660031901126101da57600435611299816101c9565b60018060a01b03165f526007602052602060ff60405f2054166040519015158152f35b346101da575f3660031901126101da576112d4611c36565b6112dc611c9d565b5f80516020611e46833981519152600160ff198254161790557f62e78cea01bee320cd4e420270b5ea74000d11b0c9f74754ebdbfc544b05a2586020604051338152a1005b346101da575f3660031901126101da575f80516020611e26833981519152546040516001600160a01b039091168152602090f35b346101da5760403660031901126101da576020611399602435611377816101c9565b6004355f526003835260405f209060018060a01b03165f5260205260405f2090565b54604051908152f35b346101da5760403660031901126101da576004356113bf816101c9565b5f80516020611e86833981519152549067ffffffffffffffff60ff8360401c16159216801590816114d1575b60011490816114c7575b1590816114be575b506114ac575f80516020611e86833981519152805467ffffffffffffffff191660011790556114359082611483575b60243590611b7c565b61143b57005b5f80516020611e86833981519152805460ff60401b19169055604051600181527fc7f505b2f371ae2175ee4913f4499e1f2633a7b5936321eed1cdaeb6115181d290602090a1005b5f80516020611e86833981519152805460ff60401b19166801000000000000000017905561142c565b60405163f92ee8a960e01b8152600490fd5b9050155f6113fd565b303b1591506113f5565b8391506113eb565b346101da5760203660031901126101da576004355f526006602052602060ff60405f2054166040519015158152f35b346101da5760203660031901126101da57610018600435611528816101c9565b611530611c36565b611bc5565b346101da575f3660031901126101da5760205f54604051908152f35b1561155857565b60405162461bcd60e51b815260206004820152601460248201527304475726174696f6e206d757374206265203e20360641b6044820152606490fd5b1561159b57565b60405162461bcd60e51b815260206004820152601660248201527510dbdb1b1958dd1a5bdb881b9bdd08185b1b1bddd95960521b6044820152606490fd5b6040513d5f823e3d90fd5b634e487b7160e01b5f52601160045260245ffd5b5f1981146116065760010190565b6115e4565b9190820180921161160657565b815181546001600160a01b0319166001600160a01b03909116178155906008906101209060208101516001850180546001600160a01b0319166001600160a01b039092169190911790556040810151600285015560608101516003850180546001600160a01b0319166001600160a01b039092169190911790556080810151600485015560a0810151600585015560c0810151600685015561170a600785016116d96116c760e0850151151590565b829060ff801983541691151516179055565b6101008301516001600160a01b03168154610100600160a81b03191660089190911b610100600160a81b0316179055565b0151910155565b1561171857565b60405162461bcd60e51b81526020600482015260136024820152724e6f7468696e6720746f20776974686472617760681b6044820152606490fd5b1561175a57565b60405162461bcd60e51b815260206004820152600f60248201526e139bdd081cd95d1d1b1959081e595d608a1b6044820152606490fd5b1561179857565b60405162461bcd60e51b815260206004820152601660248201527557696e6e65722063616e6e6f7420776974686472617760501b6044820152606490fd5b156117dd57565b60405162461bcd60e51b8152602060048201526011602482015270105d58dd1a5bdb881b9bdd08195b991959607a1b6044820152606490fd5b1561181d57565b60405162461bcd60e51b815260206004820152600f60248201526e105b1c9958591e481cd95d1d1b1959608a1b6044820152606490fd5b8181029291811591840414171561160657565b91908260409103126101da5760208251611880816101c9565b92015190565b3d156118b0573d906118978261052b565b916118a560405193846104e8565b82523d5f602084013e565b606090565b602080825282518183018190529093925f5b8281106118e857505060409293505f838284010152601f8019910116010190565b8181018601518482016040015285016118c7565b9190820391821161160657565b1561191057565b60405162461bcd60e51b8152602060048201526013602482015272105d58dd1a5bdb881b9bdd081cd95d1d1b1959606a1b6044820152606490fd5b1561195257565b60405162461bcd60e51b81526020600482015260156024820152744e6f7420656c696769626c6520746f20636c61696d60581b6044820152606490fd5b1561199657565b60405162461bcd60e51b815260206004820152600d60248201526c105d58dd1a5bdb88195b991959609a1b6044820152606490fd5b156119d257565b60405162461bcd60e51b815260206004820152600f60248201526e105d58dd1a5bdb881cd95d1d1b1959608a1b6044820152606490fd5b15611a1057565b60405162461bcd60e51b81526020600482015260136024820152724269642062656c6f77206d696e20707269636560681b6044820152606490fd5b15611a5257565b60405162461bcd60e51b815260206004820152601b60248201527f426964206e6f7420686967686572207468616e2063757272656e7400000000006044820152606490fd5b15611a9e57565b60405162461bcd60e51b815260206004820152602860248201527f4e657720626964206d75737420626520686967686572207468616e20707265766044820152671a5bdd5cc8189a5960c21b6064820152608490fd5b15611afb57565b60405162461bcd60e51b815260206004820152601560248201527442696420696e6372656d656e7420746f6f206c6f7760581b6044820152606490fd5b15611b3f57565b60405162461bcd60e51b8152602060048201526015602482015274125b9cdd59999a58da595b9d08115512081cd95b9d605a1b6044820152606490fd5b611b9890611b88611df7565b611b90611df7565b611530611df7565b611ba0611df7565b611ba8611df7565b611bb0611df7565b60015f80516020611e66833981519152555f55565b6001600160a01b03908116908115611c1e575f80516020611e2683398151915280546001600160a01b031981168417909155167f8be0079c531659141344cd1fd0a4f28419497f9722a3daafe3b4186f6b6457e05f80a3565b604051631e4fbdf760e01b81525f6004820152602490fd5b5f80516020611e26833981519152546001600160a01b03163303611c5657565b60405163118cdaa760e01b8152336004820152602490fd5b5f80516020611e668339815191526002815414611c8b5760029055565b604051633ee5aeb560e01b8152600490fd5b60ff5f80516020611e468339815191525416611cb557565b60405163d93c066560e01b8152600490fd5b60405163a9059cbb60e01b60208201526001600160a01b0390921660248301526044820192909252611d0f91611d0a82606481015b03601f1981018452836104e8565b611d9d565b565b5f80809381935af115611d2057565b60405162461bcd60e51b815260206004820152601360248201527211551217d514905394d1915497d19052531151606a1b6044820152606490fd5b6040516323b872dd60e01b60208201526001600160a01b0392831660248201529290911660448301526064820192909252611d0f91611d0a8260848101611cfc565b905f602091828151910182855af1156115d9575f513d611dee57506001600160a01b0381163b155b611dcc5750565b604051635274afe760e01b81526001600160a01b039091166004820152602490fd5b60011415611dc5565b60ff5f80516020611e868339815191525460401c1615611e1357565b604051631afcd79f60e31b8152600490fdfe9016d09d72d40fdae2fd8ceac6b6234c7706214fd39c1cd1e609a0528c199300cd5ed15c6e187e77e9aee88184c21f4f2182ab5827cb3b7e07fbedcd63f033009b779b17422d0df92223018b32b4d1fa46e071723d6817e2486d003becc55f00f0c57e16840df040f15088dc2f81fe391c3923bec73e23a9662efc9c229c6a00a26469706673582212206a7bab39e82dbb571d342875d6ea5345b0e61e3c31325a986bb89e783e7af73264736f6c63430008170033","linkReferences":{}},"methodIdentifiers":{"auctionCount()":"2ad71573","auctions(uint256)":"571a26a0","bids(address,uint256)":"01495c1c","claimNFTForWinner(uint256)":"4fc0c20b","claimableWinner(uint256)":"7a5c2b80","createAuction(address,uint256,address,uint256,uint256,uint256)":"14ec4106","getTotalFeesCollected(address)":"07ad24d6","initialize(address,uint256)":"cd6dc687","isWhitelistedCollection(address)":"8214ff3e","nftDelivered(uint256)":"dcbb3473","onERC721Received(address,address,uint256,bytes)":"150b7a02","owner()":"8da5cb5b","pause()":"8456cb59","paused()":"5c975abb","pendingReturns(uint256,address)":"8ddac1ef","perFee()":"f79427d4","placeBid(uint256,uint256)":"57c90de5","renounceOwnership()":"715018a6","setPerFee(uint256)":"650c2276","setWhitelistedCollection(address,bool)":"078e94ca","settleAuction(uint256)":"2e993611","totalFeesCollected(address)":"88a40eed","transferOwnership(address)":"f2fde38b","unpause()":"3f4ba83a","withdraw(uint256)":"2e1a7d4d","withdrawERC20(address,address,uint256)":"44004cc1","withdrawETH(address,uint256)":"4782f779"},"id":63}