{"abi":[{"type":"function","name":"getOrderHash","inputs":[{"name":"order","type":"tuple","internalType":"struct LibOrder.Order","components":[{"name":"side","type":"uint8","internalType":"enum LibOrder.Side"},{"name":"saleKind","type":"uint8","internalType":"enum LibOrder.SaleKind"},{"name":"maker","type":"address","internalType":"address"},{"name":"nft","type":"tuple","internalType":"struct LibOrder.Asset","components":[{"name":"tokenId","type":"uint256","internalType":"uint256"},{"name":"collection","type":"address","internalType":"address"},{"name":"amount","type":"uint96","internalType":"uint96"}]},{"name":"price","type":"uint128","internalType":"Price"},{"name":"expiry","type":"uint64","internalType":"uint64"},{"name":"salt","type":"uint64","internalType":"uint64"}]}],"outputs":[{"name":"","type":"bytes32","internalType":"OrderKey"}],"stateMutability":"pure"}],"bytecode":{"object":"0x6080604052348015600e575f5ffd5b506107f88061001c5f395ff3fe608060405234801561000f575f5ffd5b5060043610610029575f3560e01c8063a46f44391461002d575b5f5ffd5b61004760048036038101906100429190610491565b61005d565b60405161005491906104e6565b60405180910390f35b5f6100678261006e565b9050919050565b5f7f7e112775c49cc2f5d597cc604eac1616afa66ee95cc7c4d46a97ca90b539ca33825f0151836020015184604001516100ab86606001516100ee565b86608001518760a001518860c001516040516020016100d19897969594939291906106b2565b604051602081830303815290604052805190602001209050919050565b5f7f631e462bf410c643f967c13284911d970aa0a06097a11e4a1a7ad9549175d78a825f015183602001518460400151604051602001610131949392919061077f565b604051602081830303815290604052805190602001209050919050565b5f604051905090565b5f5ffd5b5f5ffd5b5f601f19601f8301169050919050565b7f4e487b71000000000000000000000000000000000000000000000000000000005f52604160045260245ffd5b6101a58261015f565b810181811067ffffffffffffffff821117156101c4576101c361016f565b5b80604052505050565b5f6101d661014e565b90506101e2828261019c565b919050565b600281106101f3575f5ffd5b50565b5f81359050610204816101e7565b92915050565b60028110610216575f5ffd5b50565b5f813590506102278161020a565b92915050565b5f73ffffffffffffffffffffffffffffffffffffffff82169050919050565b5f6102568261022d565b9050919050565b6102668161024c565b8114610270575f5ffd5b50565b5f813590506102818161025d565b92915050565b5f819050919050565b61029981610287565b81146102a3575f5ffd5b50565b5f813590506102b481610290565b92915050565b5f6bffffffffffffffffffffffff82169050919050565b6102da816102ba565b81146102e4575f5ffd5b50565b5f813590506102f5816102d1565b92915050565b5f606082840312156103105761030f61015b565b5b61031a60606101cd565b90505f610329848285016102a6565b5f83015250602061033c84828501610273565b6020830152506040610350848285016102e7565b60408301525092915050565b5f6fffffffffffffffffffffffffffffffff82169050919050565b6103808161035c565b811461038a575f5ffd5b50565b5f8135905061039b81610377565b92915050565b5f67ffffffffffffffff82169050919050565b6103bd816103a1565b81146103c7575f5ffd5b50565b5f813590506103d8816103b4565b92915050565b5f61012082840312156103f4576103f361015b565b5b6103fe60e06101cd565b90505f61040d848285016101f6565b5f83015250602061042084828501610219565b602083015250604061043484828501610273565b6040830152506060610448848285016102fb565b60608301525060c061045c8482850161038d565b60808301525060e0610470848285016103ca565b60a083015250610100610485848285016103ca565b60c08301525092915050565b5f61012082840312156104a7576104a6610157565b5b5f6104b4848285016103de565b91505092915050565b5f819050919050565b5f6104d0826104bd565b9050919050565b6104e0816104c6565b82525050565b5f6020820190506104f95f8301846104d7565b92915050565b5f819050919050565b610519610514826104bd565b6104ff565b82525050565b7f4e487b71000000000000000000000000000000000000000000000000000000005f52602160045260245ffd5b6002811061055d5761055c61051f565b5b50565b5f81905061056d8261054c565b919050565b5f61057c82610560565b9050919050565b5f8160f81b9050919050565b5f61059982610583565b9050919050565b6105b16105ac82610572565b61058f565b82525050565b600281106105c8576105c761051f565b5b50565b5f8190506105d8826105b7565b919050565b5f6105e7826105cb565b9050919050565b6105ff6105fa826105dd565b61058f565b82525050565b5f8160601b9050919050565b5f61061b82610605565b9050919050565b5f61062c82610611565b9050919050565b61064461063f8261024c565b610622565b82525050565b5f8160801b9050919050565b5f6106608261064a565b9050919050565b6106786106738261035c565b610656565b82525050565b5f8160c01b9050919050565b5f6106948261067e565b9050919050565b6106ac6106a7826103a1565b61068a565b82525050565b5f6106bd828b610508565b6020820191506106cd828a6105a0565b6001820191506106dd82896105ee565b6001820191506106ed8288610633565b6014820191506106fd8287610508565b60208201915061070d8286610667565b60108201915061071d828561069b565b60088201915061072d828461069b565b6008820191508190509998505050505050505050565b61074c816104bd565b82525050565b61075b81610287565b82525050565b61076a8161024c565b82525050565b610779816102ba565b82525050565b5f6080820190506107925f830187610743565b61079f6020830186610752565b6107ac6040830185610761565b6107b96060830184610770565b9594505050505056fea2646970667358221220dad6c30f1c98436dac350abf9954415388a8744b0f77ca588705589941907f7364736f6c634300081e0033","linkReferences":{}},"methodIdentifiers":{"getOrderHash((uint8,uint8,address,(uint256,address,uint96),uint128,uint64,uint64))":"a46f4439"},"id":46}