{"abi":[{"type":"function","name":"MAX_PROTOCOL_SHARE","inputs":[],"outputs":[{"name":"","type":"uint128","internalType":"uint128"}],"stateMutability":"view"},{"type":"function","name":"TOTAL_SHARE","inputs":[],"outputs":[{"name":"","type":"uint128","internalType":"uint128"}],"stateMutability":"view"},{"type":"function","name":"TYPE_HASH","inputs":[],"outputs":[{"name":"","type":"bytes32","internalType":"bytes32"}],"stateMutability":"view"}],"bytecode":{"object":"0x61018261004d600b8282823980515f1a6073146041577f4e487b71000000000000000000000000000000000000000000000000000000005f525f60045260245ffd5b305f52607381538281f3fe730000000000000000000000000000000000000000301460806040526004361061004a575f3560e01c806364d4c8191461004e578063a931208f1461006c578063bf41e16f1461008a575b5f5ffd5b6100566100a8565b60405161006391906100f0565b60405180910390f35b6100746100cc565b6040516100819190610133565b60405180910390f35b6100926100d2565b60405161009f9190610133565b60405180910390f35b7f4ec7427a1de4d1086f228665556ea9a0a419f75736571115e79d40a51f96cc5f81565b6103e881565b61271081565b5f819050919050565b6100ea816100d8565b82525050565b5f6020820190506101035f8301846100e1565b92915050565b5f6fffffffffffffffffffffffffffffffff82169050919050565b61012d81610109565b82525050565b5f6020820190506101465f830184610124565b9291505056fea2646970667358221220213407bd0129fa819dec7123395bd4e17979fe0e7d0e2430a900771bb561e1af64736f6c634300081e0033","linkReferences":{}},"methodIdentifiers":{"MAX_PROTOCOL_SHARE()":"a931208f","TOTAL_SHARE()":"bf41e16f","TYPE_HASH()":"64d4c819"},"id":43}