{"abi":[{"type":"receive","stateMutability":"payable"},{"type":"function","name":"ETHBalance","inputs":[{"name":"","type":"bytes32","internalType":"OrderKey"}],"outputs":[{"name":"","type":"uint256","internalType":"uint256"}],"stateMutability":"view"},{"type":"function","name":"NFTBalance","inputs":[{"name":"","type":"bytes32","internalType":"OrderKey"}],"outputs":[{"name":"","type":"uint256","internalType":"uint256"}],"stateMutability":"view"},{"type":"function","name":"balanceOf","inputs":[{"name":"orderKey","type":"bytes32","internalType":"OrderKey"}],"outputs":[{"name":"ETHAmount","type":"uint256","internalType":"uint256"},{"name":"tokenId","type":"uint256","internalType":"uint256"}],"stateMutability":"view"},{"type":"function","name":"batchTransferERC721","inputs":[{"name":"to","type":"address","internalType":"address"},{"name":"assets","type":"tuple[]","internalType":"struct LibOrder.NFTInfo[]","components":[{"name":"collection","type":"address","internalType":"address"},{"name":"tokenId","type":"uint256","internalType":"uint256"}]}],"outputs":[],"stateMutability":"nonpayable"},{"type":"function","name":"depositETH","inputs":[{"name":"orderKey","type":"bytes32","internalType":"OrderKey"},{"name":"ETHAmount","type":"uint256","internalType":"uint256"}],"outputs":[],"stateMutability":"payable"},{"type":"function","name":"depositNFT","inputs":[{"name":"orderKey","type":"bytes32","internalType":"OrderKey"},{"name":"from","type":"address","internalType":"address"},{"name":"collection","type":"address","internalType":"address"},{"name":"tokenId","type":"uint256","internalType":"uint256"}],"outputs":[],"stateMutability":"nonpayable"},{"type":"function","name":"editETH","inputs":[{"name":"oldOrderKey","type":"bytes32","internalType":"OrderKey"},{"name":"newOrderKey","type":"bytes32","internalType":"OrderKey"},{"name":"oldETHAmount","type":"uint256","internalType":"uint256"},{"name":"newETHAmount","type":"uint256","internalType":"uint256"},{"name":"to","type":"address","internalType":"address"}],"outputs":[],"stateMutability":"payable"},{"type":"function","name":"editNFT","inputs":[{"name":"oldOrderKey","type":"bytes32","internalType":"OrderKey"},{"name":"newOrderKey","type":"bytes32","internalType":"OrderKey"}],"outputs":[],"stateMutability":"nonpayable"},{"type":"function","name":"initialize","inputs":[],"outputs":[],"stateMutability":"nonpayable"},{"type":"function","name":"onERC721Received","inputs":[{"name":"","type":"address","internalType":"address"},{"name":"","type":"address","internalType":"address"},{"name":"","type":"uint256","internalType":"uint256"},{"name":"","type":"bytes","internalType":"bytes"}],"outputs":[{"name":"","type":"bytes4","internalType":"bytes4"}],"stateMutability":"nonpayable"},{"type":"function","name":"orderBook","inputs":[],"outputs":[{"name":"","type":"address","internalType":"address"}],"stateMutability":"view"},{"type":"function","name":"owner","inputs":[],"outputs":[{"name":"","type":"address","internalType":"address"}],"stateMutability":"view"},{"type":"function","name":"renounceOwnership","inputs":[],"outputs":[],"stateMutability":"nonpayable"},{"type":"function","name":"setOrderBook","inputs":[{"name":"newOrderBook","type":"address","internalType":"address"}],"outputs":[],"stateMutability":"nonpayable"},{"type":"function","name":"transferERC721","inputs":[{"name":"from","type":"address","internalType":"address"},{"name":"to","type":"address","internalType":"address"},{"name":"assets","type":"tuple","internalType":"struct LibOrder.Asset","components":[{"name":"tokenId","type":"uint256","internalType":"uint256"},{"name":"collection","type":"address","internalType":"address"},{"name":"amount","type":"uint96","internalType":"uint96"}]}],"outputs":[],"stateMutability":"nonpayable"},{"type":"function","name":"transferOwnership","inputs":[{"name":"newOwner","type":"address","internalType":"address"}],"outputs":[],"stateMutability":"nonpayable"},{"type":"function","name":"withdrawETH","inputs":[{"name":"orderKey","type":"bytes32","internalType":"OrderKey"},{"name":"ETHAmount","type":"uint256","internalType":"uint256"},{"name":"to","type":"address","internalType":"address"}],"outputs":[],"stateMutability":"nonpayable"},{"type":"function","name":"withdrawNFT","inputs":[{"name":"orderKey","type":"bytes32","internalType":"OrderKey"},{"name":"to","type":"address","internalType":"address"},{"name":"collection","type":"address","internalType":"address"},{"name":"tokenId","type":"uint256","internalType":"uint256"}],"outputs":[],"stateMutability":"nonpayable"},{"type":"event","name":"Initialized","inputs":[{"name":"version","type":"uint64","indexed":false,"internalType":"uint64"}],"anonymous":false},{"type":"event","name":"OwnershipTransferred","inputs":[{"name":"previousOwner","type":"address","indexed":true,"internalType":"address"},{"name":"newOwner","type":"address","indexed":true,"internalType":"address"}],"anonymous":false},{"type":"error","name":"InvalidInitialization","inputs":[]},{"type":"error","name":"NotInitializing","inputs":[]},{"type":"error","name":"OwnableInvalidOwner","inputs":[{"name":"owner","type":"address","internalType":"address"}]},{"type":"error","name":"OwnableUnauthorizedAccount","inputs":[{"name":"account","type":"address","internalType":"address"}]}],"bytecode":{"object":"0x6080604052348015600e575f5ffd5b50611dba8061001c5f395ff3fe60806040526004361061010c575f3560e01c80638129fc1c11610094578063bf0a59e011610063578063bf0a59e01461033c578063ca1e298a14610358578063e7a394fa14610380578063eb214e091461039c578063f2fde38b146103d857610113565b80638129fc1c146102985780638a03f995146102ae5780638da5cb5b146102ea5780639a1598c81461031457610113565b80635eb0c73a116100db5780635eb0c73a146101cb5780635f91a0f0146101f35780636c7f15421461021b578063715018a614610258578063776af5ba1461026e57610113565b80630b049458146101175780630f5daeaf1461013f578063150b7a021461016757806352439753146101a357610113565b3661011357005b5f5ffd5b348015610122575f5ffd5b5061013d600480360381019061013891906113bf565b610400565b005b34801561014a575f5ffd5b5061016560048036038101906101609190611470565b6104e3565b005b348015610172575f5ffd5b5061018d60048036038101906101889190611605565b61057d565b60405161019a91906116bf565b60405180910390f35b3480156101ae575f5ffd5b506101c960048036038101906101c491906116d8565b610590565b005b3480156101d6575f5ffd5b506101f160048036038101906101ec919061175e565b6106b8565b005b3480156101fe575f5ffd5b50610219600480360381019061021491906116d8565b61078d565b005b348015610226575f5ffd5b50610241600480360381019061023c91906117ae565b610864565b60405161024f9291906117e8565b60405180910390f35b348015610263575f5ffd5b5061026c610893565b005b348015610279575f5ffd5b506102826108a6565b60405161028f919061181e565b60405180910390f35b3480156102a3575f5ffd5b506102ac6108ca565b005b3480156102b9575f5ffd5b506102d460048036038101906102cf91906117ae565b610a51565b6040516102e19190611837565b60405180910390f35b3480156102f5575f5ffd5b506102fe610a66565b60405161030b919061181e565b60405180910390f35b34801561031f575f5ffd5b5061033a60048036038101906103359190611850565b610a9b565b005b6103566004803603810190610351919061187b565b610b53565b005b348015610363575f5ffd5b5061037e600480360381019061037991906118f2565b610ce9565b005b61039a60048036038101906103959190611930565b610db6565b005b3480156103a7575f5ffd5b506103c260048036038101906103bd91906117ae565b610eb2565b6040516103cf9190611837565b60405180910390f35b3480156103e3575f5ffd5b506103fe60048036038101906103f99190611850565b610ec7565b005b5f5f9054906101000a900473ffffffffffffffffffffffffffffffffffffffff1673ffffffffffffffffffffffffffffffffffffffff163373ffffffffffffffffffffffffffffffffffffffff161461048e576040517f08c379a0000000000000000000000000000000000000000000000000000000008152600401610485906119c8565b60405180910390fd5b8160015f8581526020019081526020015f205f8282546104ae9190611a13565b925050819055506104de828273ffffffffffffffffffffffffffffffffffffffff16610f4b90919063ffffffff16565b505050565b5f5f90505b828290508110156105775761056c6104fe610f9b565b8585858581811061051257610511611a46565b5b9050604002016020013586868681811061052f5761052e611a46565b5b9050604002015f0160208101906105469190611850565b73ffffffffffffffffffffffffffffffffffffffff16610fa2909392919063ffffffff16565b8060010190506104e8565b50505050565b5f63150b7a0260e01b9050949350505050565b5f5f9054906101000a900473ffffffffffffffffffffffffffffffffffffffff1673ffffffffffffffffffffffffffffffffffffffff163373ffffffffffffffffffffffffffffffffffffffff161461061e576040517f08c379a0000000000000000000000000000000000000000000000000000000008152600401610615906119c8565b60405180910390fd5b8060025f8681526020019081526020015f205414610671576040517f08c379a000000000000000000000000000000000000000000000000000000000815260040161066890611abd565b60405180910390fd5b60025f8581526020019081526020015f205f90556106b23084838573ffffffffffffffffffffffffffffffffffffffff16610fa2909392919063ffffffff16565b50505050565b5f5f9054906101000a900473ffffffffffffffffffffffffffffffffffffffff1673ffffffffffffffffffffffffffffffffffffffff163373ffffffffffffffffffffffffffffffffffffffff1614610746576040517f08c379a000000000000000000000000000000000000000000000000000000000815260040161073d906119c8565b60405180910390fd5b6107888383835f01358460200160208101906107629190611850565b73ffffffffffffffffffffffffffffffffffffffff16610fa2909392919063ffffffff16565b505050565b5f5f9054906101000a900473ffffffffffffffffffffffffffffffffffffffff1673ffffffffffffffffffffffffffffffffffffffff163373ffffffffffffffffffffffffffffffffffffffff161461081b576040517f08c379a0000000000000000000000000000000000000000000000000000000008152600401610812906119c8565b60405180910390fd5b6108488330838573ffffffffffffffffffffffffffffffffffffffff16610fa2909392919063ffffffff16565b8060025f8681526020019081526020015f208190555050505050565b5f5f60015f8481526020019081526020015f2054915060025f8481526020019081526020015f20549050915091565b61089b61103d565b6108a45f6110c4565b565b5f5f9054906101000a900473ffffffffffffffffffffffffffffffffffffffff1681565b5f6108d3611195565b90505f815f0160089054906101000a900460ff161590505f825f015f9054906101000a900467ffffffffffffffff1690505f5f8267ffffffffffffffff1614801561091b5750825b90505f60018367ffffffffffffffff1614801561094e57505f3073ffffffffffffffffffffffffffffffffffffffff163b145b90508115801561095c575080155b15610993576040517ff92ee8a900000000000000000000000000000000000000000000000000000000815260040160405180910390fd5b6001855f015f6101000a81548167ffffffffffffffff021916908367ffffffffffffffff16021790555083156109e0576001855f0160086101000a81548160ff0219169083151502179055505b6109f06109eb610f9b565b6111a8565b8315610a4a575f855f0160086101000a81548160ff0219169083151502179055507fc7f505b2f371ae2175ee4913f4499e1f2633a7b5936321eed1cdaeb6115181d26001604051610a419190611b30565b60405180910390a15b5050505050565b6001602052805f5260405f205f915090505481565b5f5f610a706111bc565b9050805f015f9054906101000a900473ffffffffffffffffffffffffffffffffffffffff1691505090565b610aa361103d565b5f73ffffffffffffffffffffffffffffffffffffffff168173ffffffffffffffffffffffffffffffffffffffff1603610b11576040517f08c379a0000000000000000000000000000000000000000000000000000000008152600401610b0890611b93565b60405180910390fd5b805f5f6101000a81548173ffffffffffffffffffffffffffffffffffffffff021916908373ffffffffffffffffffffffffffffffffffffffff16021790555050565b5f5f9054906101000a900473ffffffffffffffffffffffffffffffffffffffff1673ffffffffffffffffffffffffffffffffffffffff163373ffffffffffffffffffffffffffffffffffffffff1614610be1576040517f08c379a0000000000000000000000000000000000000000000000000000000008152600401610bd8906119c8565b60405180910390fd5b5f60015f8781526020019081526020015f208190555081831115610c4e578160015f8681526020019081526020015f2081905550610c498284610c249190611a13565b8273ffffffffffffffffffffffffffffffffffffffff16610f4b90919063ffffffff16565b610ce2565b81831015610cca578282610c629190611a13565b341015610ca4576040517f08c379a0000000000000000000000000000000000000000000000000000000008152600401610c9b90611bfb565b60405180910390fd5b8234610cb09190611c19565b60015f8681526020019081526020015f2081905550610ce1565b8260015f8681526020019081526020015f20819055505b5b5050505050565b5f5f9054906101000a900473ffffffffffffffffffffffffffffffffffffffff1673ffffffffffffffffffffffffffffffffffffffff163373ffffffffffffffffffffffffffffffffffffffff1614610d77576040517f08c379a0000000000000000000000000000000000000000000000000000000008152600401610d6e906119c8565b60405180910390fd5b60025f8381526020019081526020015f205460025f8381526020019081526020015f208190555060025f8381526020019081526020015f205f90555050565b5f5f9054906101000a900473ffffffffffffffffffffffffffffffffffffffff1673ffffffffffffffffffffffffffffffffffffffff163373ffffffffffffffffffffffffffffffffffffffff1614610e44576040517f08c379a0000000000000000000000000000000000000000000000000000000008152600401610e3b906119c8565b60405180910390fd5b80341015610e87576040517f08c379a0000000000000000000000000000000000000000000000000000000008152600401610e7e90611c96565b60405180910390fd5b3460015f8481526020019081526020015f205f828254610ea79190611c19565b925050819055505050565b6002602052805f5260405f205f915090505481565b610ecf61103d565b5f73ffffffffffffffffffffffffffffffffffffffff168173ffffffffffffffffffffffffffffffffffffffff1603610f3f575f6040517f1e4fbdf7000000000000000000000000000000000000000000000000000000008152600401610f36919061181e565b60405180910390fd5b610f48816110c4565b50565b5f5f5f5f5f85875af1905080610f96576040517f08c379a0000000000000000000000000000000000000000000000000000000008152600401610f8d90611cfe565b60405180910390fd5b505050565b5f33905090565b5f6040517f42842e0e00000000000000000000000000000000000000000000000000000000815284600482015283602482015282604482015260205f6064835f8a5af13d15601f3d1160015f511416171691505080611036576040517f08c379a000000000000000000000000000000000000000000000000000000000815260040161102d90611d66565b60405180910390fd5b5050505050565b611045610f9b565b73ffffffffffffffffffffffffffffffffffffffff16611063610a66565b73ffffffffffffffffffffffffffffffffffffffff16146110c257611086610f9b565b6040517f118cdaa70000000000000000000000000000000000000000000000000000000081526004016110b9919061181e565b60405180910390fd5b565b5f6110cd6111bc565b90505f815f015f9054906101000a900473ffffffffffffffffffffffffffffffffffffffff16905082825f015f6101000a81548173ffffffffffffffffffffffffffffffffffffffff021916908373ffffffffffffffffffffffffffffffffffffffff1602179055508273ffffffffffffffffffffffffffffffffffffffff168173ffffffffffffffffffffffffffffffffffffffff167f8be0079c531659141344cd1fd0a4f28419497f9722a3daafe3b4186f6b6457e060405160405180910390a3505050565b5f5f61119f6111e3565b90508091505090565b6111b061120c565b6111b98161124c565b50565b5f7f9016d09d72d40fdae2fd8ceac6b6234c7706214fd39c1cd1e609a0528c199300905090565b5f7ff0c57e16840df040f15088dc2f81fe391c3923bec73e23a9662efc9c229c6a005f1b905090565b6112146112d0565b61124a576040517fd7e6bcf800000000000000000000000000000000000000000000000000000000815260040160405180910390fd5b565b61125461120c565b5f73ffffffffffffffffffffffffffffffffffffffff168173ffffffffffffffffffffffffffffffffffffffff16036112c4575f6040517f1e4fbdf70000000000000000000000000000000000000000000000000000000081526004016112bb919061181e565b60405180910390fd5b6112cd816110c4565b50565b5f6112d9611195565b5f0160089054906101000a900460ff16905090565b5f604051905090565b5f5ffd5b5f5ffd5b5f819050919050565b611311816112ff565b811461131b575f5ffd5b50565b5f8135905061132c81611308565b92915050565b5f819050919050565b61134481611332565b811461134e575f5ffd5b50565b5f8135905061135f8161133b565b92915050565b5f73ffffffffffffffffffffffffffffffffffffffff82169050919050565b5f61138e82611365565b9050919050565b61139e81611384565b81146113a8575f5ffd5b50565b5f813590506113b981611395565b92915050565b5f5f5f606084860312156113d6576113d56112f7565b5b5f6113e38682870161131e565b93505060206113f486828701611351565b9250506040611405868287016113ab565b9150509250925092565b5f5ffd5b5f5ffd5b5f5ffd5b5f5f83601f8401126114305761142f61140f565b5b8235905067ffffffffffffffff81111561144d5761144c611413565b5b60208301915083604082028301111561146957611468611417565b5b9250929050565b5f5f5f60408486031215611487576114866112f7565b5b5f611494868287016113ab565b935050602084013567ffffffffffffffff8111156114b5576114b46112fb565b5b6114c18682870161141b565b92509250509250925092565b5f5ffd5b5f601f19601f8301169050919050565b7f4e487b71000000000000000000000000000000000000000000000000000000005f52604160045260245ffd5b611517826114d1565b810181811067ffffffffffffffff82111715611536576115356114e1565b5b80604052505050565b5f6115486112ee565b9050611554828261150e565b919050565b5f67ffffffffffffffff821115611573576115726114e1565b5b61157c826114d1565b9050602081019050919050565b828183375f83830152505050565b5f6115a96115a484611559565b61153f565b9050828152602081018484840111156115c5576115c46114cd565b5b6115d0848285611589565b509392505050565b5f82601f8301126115ec576115eb61140f565b5b81356115fc848260208601611597565b91505092915050565b5f5f5f5f6080858703121561161d5761161c6112f7565b5b5f61162a878288016113ab565b945050602061163b878288016113ab565b935050604061164c87828801611351565b925050606085013567ffffffffffffffff81111561166d5761166c6112fb565b5b611679878288016115d8565b91505092959194509250565b5f7fffffffff0000000000000000000000000000000000000000000000000000000082169050919050565b6116b981611685565b82525050565b5f6020820190506116d25f8301846116b0565b92915050565b5f5f5f5f608085870312156116f0576116ef6112f7565b5b5f6116fd8782880161131e565b945050602061170e878288016113ab565b935050604061171f878288016113ab565b925050606061173087828801611351565b91505092959194509250565b5f5ffd5b5f606082840312156117555761175461173c565b5b81905092915050565b5f5f5f60a08486031215611775576117746112f7565b5b5f611782868287016113ab565b9350506020611793868287016113ab565b92505060406117a486828701611740565b9150509250925092565b5f602082840312156117c3576117c26112f7565b5b5f6117d08482850161131e565b91505092915050565b6117e281611332565b82525050565b5f6040820190506117fb5f8301856117d9565b61180860208301846117d9565b9392505050565b61181881611384565b82525050565b5f6020820190506118315f83018461180f565b92915050565b5f60208201905061184a5f8301846117d9565b92915050565b5f60208284031215611865576118646112f7565b5b5f611872848285016113ab565b91505092915050565b5f5f5f5f5f60a08688031215611894576118936112f7565b5b5f6118a18882890161131e565b95505060206118b28882890161131e565b94505060406118c388828901611351565b93505060606118d488828901611351565b92505060806118e5888289016113ab565b9150509295509295909350565b5f5f60408385031215611908576119076112f7565b5b5f6119158582860161131e565b92505060206119268582860161131e565b9150509250929050565b5f5f60408385031215611946576119456112f7565b5b5f6119538582860161131e565b925050602061196485828601611351565b9150509250929050565b5f82825260208201905092915050565b7f48563a206f6e6c79205768696d4c616e64204f72646572426f6f6b00000000005f82015250565b5f6119b2601b8361196e565b91506119bd8261197e565b602082019050919050565b5f6020820190508181035f8301526119df816119a6565b9050919050565b7f4e487b71000000000000000000000000000000000000000000000000000000005f52601160045260245ffd5b5f611a1d82611332565b9150611a2883611332565b9250828203905081811115611a4057611a3f6119e6565b5b92915050565b7f4e487b71000000000000000000000000000000000000000000000000000000005f52603260045260245ffd5b7f48563a206e6f74206d6174636820746f6b656e496400000000000000000000005f82015250565b5f611aa760158361196e565b9150611ab282611a73565b602082019050919050565b5f6020820190508181035f830152611ad481611a9b565b9050919050565b5f819050919050565b5f67ffffffffffffffff82169050919050565b5f819050919050565b5f611b1a611b15611b1084611adb565b611af7565b611ae4565b9050919050565b611b2a81611b00565b82525050565b5f602082019050611b435f830184611b21565b92915050565b7f48563a207a65726f2061646472657373000000000000000000000000000000005f82015250565b5f611b7d60108361196e565b9150611b8882611b49565b602082019050919050565b5f6020820190508181035f830152611baa81611b71565b9050919050565b7f48563a206e6f74206d61746368206e6577455448416d6f756e740000000000005f82015250565b5f611be5601a8361196e565b9150611bf082611bb1565b602082019050919050565b5f6020820190508181035f830152611c1281611bd9565b9050919050565b5f611c2382611332565b9150611c2e83611332565b9250828201905080821115611c4657611c456119e6565b5b92915050565b7f48563a206e6f74206d6174636820455448416d6f756e740000000000000000005f82015250565b5f611c8060178361196e565b9150611c8b82611c4c565b602082019050919050565b5f6020820190508181035f830152611cad81611c74565b9050919050565b7f4554485f5452414e534645525f4641494c4544000000000000000000000000005f82015250565b5f611ce860138361196e565b9150611cf382611cb4565b602082019050919050565b5f6020820190508181035f830152611d1581611cdc565b9050919050565b7f4e46545f5452414e534645525f46524f4d5f4641494c454400000000000000005f82015250565b5f611d5060188361196e565b9150611d5b82611d1c565b602082019050919050565b5f6020820190508181035f830152611d7d81611d44565b905091905056fea2646970667358221220a8fa0d485a53c355cc24da9e39dc4c5d807b27f5b5efb07d05e05a4a59c7d8bf64736f6c634300081e0033","linkReferences":{}},"methodIdentifiers":{"ETHBalance(bytes32)":"8a03f995","NFTBalance(bytes32)":"eb214e09","balanceOf(bytes32)":"6c7f1542","batchTransferERC721(address,(address,uint256)[])":"0f5daeaf","depositETH(bytes32,uint256)":"e7a394fa","depositNFT(bytes32,address,address,uint256)":"5f91a0f0","editETH(bytes32,bytes32,uint256,uint256,address)":"bf0a59e0","editNFT(bytes32,bytes32)":"ca1e298a","initialize()":"8129fc1c","onERC721Received(address,address,uint256,bytes)":"150b7a02","orderBook()":"776af5ba","owner()":"8da5cb5b","renounceOwnership()":"715018a6","setOrderBook(address)":"9a1598c8","transferERC721(address,address,(uint256,address,uint96))":"5eb0c73a","transferOwnership(address)":"f2fde38b","withdrawETH(bytes32,uint256,address)":"0b049458","withdrawNFT(bytes32,address,address,uint256)":"52439753"},"id":38}