{"abi":[{"type":"function","name":"getBestOrder","inputs":[{"name":"collection","type":"address","internalType":"address"},{"name":"tokenId","type":"uint256","internalType":"uint256"},{"name":"side","type":"uint8","internalType":"enum LibOrder.Side"},{"name":"saleKind","type":"uint8","internalType":"enum LibOrder.SaleKind"}],"outputs":[{"name":"orderResult","type":"tuple","internalType":"struct LibOrder.Order","components":[{"name":"side","type":"uint8","internalType":"enum LibOrder.Side"},{"name":"saleKind","type":"uint8","internalType":"enum LibOrder.SaleKind"},{"name":"maker","type":"address","internalType":"address"},{"name":"nft","type":"tuple","internalType":"struct LibOrder.Asset","components":[{"name":"tokenId","type":"uint256","internalType":"uint256"},{"name":"collection","type":"address","internalType":"address"},{"name":"amount","type":"uint96","internalType":"uint96"}]},{"name":"price","type":"uint128","internalType":"Price"},{"name":"expiry","type":"uint64","internalType":"uint64"},{"name":"salt","type":"uint64","internalType":"uint64"}]}],"stateMutability":"view"},{"type":"function","name":"getBestPrice","inputs":[{"name":"collection","type":"address","internalType":"address"},{"name":"side","type":"uint8","internalType":"enum LibOrder.Side"}],"outputs":[{"name":"price","type":"uint128","internalType":"Price"}],"stateMutability":"view"},{"type":"function","name":"getNextBestPrice","inputs":[{"name":"collection","type":"address","internalType":"address"},{"name":"side","type":"uint8","internalType":"enum LibOrder.Side"},{"name":"price","type":"uint128","internalType":"Price"}],"outputs":[{"name":"nextBestPrice","type":"uint128","internalType":"Price"}],"stateMutability":"view"},{"type":"function","name":"getOrders","inputs":[{"name":"collection","type":"address","internalType":"address"},{"name":"tokenId","type":"uint256","internalType":"uint256"},{"name":"side","type":"uint8","internalType":"enum LibOrder.Side"},{"name":"saleKind","type":"uint8","internalType":"enum LibOrder.SaleKind"},{"name":"count","type":"uint256","internalType":"uint256"},{"name":"price","type":"uint128","internalType":"Price"},{"name":"firstOrderKey","type":"bytes32","internalType":"OrderKey"}],"outputs":[{"name":"resultOrders","type":"tuple[]","internalType":"struct LibOrder.Order[]","components":[{"name":"side","type":"uint8","internalType":"enum LibOrder.Side"},{"name":"saleKind","type":"uint8","internalType":"enum LibOrder.SaleKind"},{"name":"maker","type":"address","internalType":"address"},{"name":"nft","type":"tuple","internalType":"struct LibOrder.Asset","components":[{"name":"tokenId","type":"uint256","internalType":"uint256"},{"name":"collection","type":"address","internalType":"address"},{"name":"amount","type":"uint96","internalType":"uint96"}]},{"name":"price","type":"uint128","internalType":"Price"},{"name":"expiry","type":"uint64","internalType":"uint64"},{"name":"salt","type":"uint64","internalType":"uint64"}]},{"name":"nextOrderKey","type":"bytes32","internalType":"OrderKey"}],"stateMutability":"view"},{"type":"function","name":"orderQueues","inputs":[{"name":"","type":"address","internalType":"address"},{"name":"","type":"uint8","internalType":"enum LibOrder.Side"},{"name":"","type":"uint128","internalType":"Price"}],"outputs":[{"name":"head","type":"bytes32","internalType":"OrderKey"},{"name":"tail","type":"bytes32","internalType":"OrderKey"}],"stateMutability":"view"},{"type":"function","name":"orders","inputs":[{"name":"","type":"bytes32","internalType":"OrderKey"}],"outputs":[{"name":"order","type":"tuple","internalType":"struct LibOrder.Order","components":[{"name":"side","type":"uint8","internalType":"enum LibOrder.Side"},{"name":"saleKind","type":"uint8","internalType":"enum LibOrder.SaleKind"},{"name":"maker","type":"address","internalType":"address"},{"name":"nft","type":"tuple","internalType":"struct LibOrder.Asset","components":[{"name":"tokenId","type":"uint256","internalType":"uint256"},{"name":"collection","type":"address","internalType":"address"},{"name":"amount","type":"uint96","internalType":"uint96"}]},{"name":"price","type":"uint128","internalType":"Price"},{"name":"expiry","type":"uint64","internalType":"uint64"},{"name":"salt","type":"uint64","internalType":"uint64"}]},{"name":"next","type":"bytes32","internalType":"OrderKey"}],"stateMutability":"view"},{"type":"function","name":"priceTrees","inputs":[{"name":"","type":"address","internalType":"address"},{"name":"","type":"uint8","internalType":"enum LibOrder.Side"}],"outputs":[{"name":"root","type":"uint128","internalType":"Price"}],"stateMutability":"view"},{"type":"event","name":"Initialized","inputs":[{"name":"version","type":"uint64","indexed":false,"internalType":"uint64"}],"anonymous":false},{"type":"error","name":"CannotFindNextEmptyKey","inputs":[]},{"type":"error","name":"CannotFindPrevEmptyKey","inputs":[]},{"type":"error","name":"InvalidInitialization","inputs":[]},{"type":"error","name":"NotInitializing","inputs":[]}],"bytecode":{"object":"0x6080604052348015600e575f5ffd5b506128278061001c5f395ff3fe608060405234801561000f575f5ffd5b506004361061007b575f3560e01c8063877edbff11610059578063877edbff1461010f5780639c3f1e90146101405780639e09126c14610171578063e471ba46146101a15761007b565b8063436a5ed61461007f5780635dcc7f9c146100af5780637d910dac146100df575b5f5ffd5b61009960048036038101906100949190612117565b6101d2565b6040516100a691906121a0565b60405180910390f35b6100c960048036038101906100c4919061220f565b610448565b6040516100d6919061246f565b60405180910390f35b6100f960048036038101906100f49190612489565b6109ed565b60405161010691906121a0565b60405180910390f35b610129600480360381019061012491906124fa565b610a2d565b6040516101379291906126ee565b60405180910390f35b61015a6004803603810190610155919061271c565b611306565b604051610168929190612747565b60405180910390f35b61018b60048036038101906101869190612489565b611554565b60405161019891906121a0565b60405180910390f35b6101bb60048036038101906101b69190612117565b61167e565b6040516101c9929190612770565b60405180910390f35b5f6101dc826116b4565b15610309576001808111156101f4576101f3612273565b5b83600181111561020757610206612273565b5b146102895761028460015f8673ffffffffffffffffffffffffffffffffffffffff1673ffffffffffffffffffffffffffffffffffffffff1681526020019081526020015f205f8560018111156102605761025f612273565b5b600181111561027257610271612273565b5b81526020019081526020015f206116e3565b610302565b61030160015f8673ffffffffffffffffffffffffffffffffffffffff1673ffffffffffffffffffffffffffffffffffffffff1681526020019081526020015f205f8560018111156102dd576102dc612273565b5b60018111156102ef576102ee612273565b5b81526020019081526020015f206117da565b5b9050610441565b60018081111561031c5761031b612273565b5b83600181111561032f5761032e612273565b5b146103bb576103b68260015f8773ffffffffffffffffffffffffffffffffffffffff1673ffffffffffffffffffffffffffffffffffffffff1681526020019081526020015f205f86600181111561038957610388612273565b5b600181111561039b5761039a612273565b5b81526020019081526020015f206118d190919063ffffffff16565b61043e565b61043d8260015f8773ffffffffffffffffffffffffffffffffffffffff1673ffffffffffffffffffffffffffffffffffffffff1681526020019081526020015f205f8660018111156104105761040f612273565b5b600181111561042257610421612273565b5b81526020019081526020015f20611b2b90919063ffffffff16565b5b90505b9392505050565b610450611f72565b5f61045b8685611554565b90505b61046781611d85565b156109e4575f60025f8873ffffffffffffffffffffffffffffffffffffffff1673ffffffffffffffffffffffffffffffffffffffff1681526020019081526020015f205f8660018111156104be576104bd612273565b5b60018111156104d0576104cf612273565b5b81526020019081526020015f205f836fffffffffffffffffffffffffffffffff166fffffffffffffffffffffffffffffffff1681526020019081526020015f206040518060400160405290815f820154815260200160018201548152505090505f815f015190505b61054181611db5565b156109ab575f5f5f8381526020019081526020015f206040518060400160405290815f82016040518060e00160405290815f82015f9054906101000a900460ff16600181111561059457610593612273565b5b60018111156105a6576105a5612273565b5b81526020015f820160019054906101000a900460ff1660018111156105ce576105cd612273565b5b60018111156105e0576105df612273565b5b81526020015f820160029054906101000a900473ffffffffffffffffffffffffffffffffffffffff1673ffffffffffffffffffffffffffffffffffffffff1673ffffffffffffffffffffffffffffffffffffffff168152602001600182016040518060600160405290815f8201548152602001600182015f9054906101000a900473ffffffffffffffffffffffffffffffffffffffff1673ffffffffffffffffffffffffffffffffffffffff1673ffffffffffffffffffffffffffffffffffffffff1681526020016001820160149054906101000a90046bffffffffffffffffffffffff166bffffffffffffffffffffffff166bffffffffffffffffffffffff16815250508152602001600382015f9054906101000a90046fffffffffffffffffffffffffffffffff166fffffffffffffffffffffffffffffffff166fffffffffffffffffffffffffffffffff1681526020016003820160109054906101000a900467ffffffffffffffff1667ffffffffffffffff1667ffffffffffffffff1681526020016003820160189054906101000a900467ffffffffffffffff1667ffffffffffffffff1667ffffffffffffffff1681525050815260200160048201548152505090506001808111156107b9576107b8612273565b5b8760018111156107cc576107cb612273565b5b1480156107fc57506001808111156107e7576107e6612273565b5b8660018111156107fa576107f9612273565b5b145b1561088d5760018081111561081457610813612273565b5b815f01515f0151600181111561082d5761082c612273565b5b148015610864575060018081111561084857610847612273565b5b815f015160200151600181111561086257610861612273565b5b145b801561087a5750805f0151606001515f01518814155b1561088c578060200151915050610538565b5b6001808111156108a05761089f612273565b5b8760018111156108b3576108b2612273565b5b1480156108e357505f60018111156108ce576108cd612273565b5b8660018111156108e1576108e0612273565b5b145b1561095e576001808111156108fb576108fa612273565b5b815f01515f0151600181111561091457610913612273565b5b14801561094b575060018081111561092f5761092e612273565b5b815f015160200151600181111561094957610948612273565b5b145b1561095d578060200151915050610538565b5b5f815f015160a0015167ffffffffffffffff16148061098d575042815f015160a0015167ffffffffffffffff16115b1561099e57805f01519450506109ab565b8060200151915050610538565b5f84608001516fffffffffffffffffffffffffffffffff1611156109d05750506109e4565b6109db8887856101d2565b9250505061045e565b50949350505050565b6001602052815f5260405f20602052805f5260405f205f9150915050805f015f9054906101000a90046fffffffffffffffffffffffffffffffff16905081565b60605f8467ffffffffffffffff811115610a4a57610a49612797565b5b604051908082528060200260200182016040528015610a8357816020015b610a70611f72565b815260200190600190039081610a685790505b509150610a8f846116b4565b15610aa557610a9e8988611554565b9350610ac2565b610aae83611dc3565b15610ac157610abe8988866101d2565b93505b5b5f5b610acd85611d85565b8015610ad857508581105b156112f9575f60025f8c73ffffffffffffffffffffffffffffffffffffffff1673ffffffffffffffffffffffffffffffffffffffff1681526020019081526020015f205f8a6001811115610b2f57610b2e612273565b5b6001811115610b4157610b40612273565b5b81526020019081526020015f205f876fffffffffffffffffffffffffffffffff166fffffffffffffffffffffffffffffffff1681526020019081526020015f206040518060400160405290815f820154815260200160018201548152505090505f815f01519050610bb186611db5565b15610e44575b610bc081611db5565b8015610bcc5750858114155b15610e3e575f5f5f8381526020019081526020015f206040518060400160405290815f82016040518060e00160405290815f82015f9054906101000a900460ff166001811115610c1f57610c1e612273565b5b6001811115610c3157610c30612273565b5b81526020015f820160019054906101000a900460ff166001811115610c5957610c58612273565b5b6001811115610c6b57610c6a612273565b5b81526020015f820160029054906101000a900473ffffffffffffffffffffffffffffffffffffffff1673ffffffffffffffffffffffffffffffffffffffff1673ffffffffffffffffffffffffffffffffffffffff168152602001600182016040518060600160405290815f8201548152602001600182015f9054906101000a900473ffffffffffffffffffffffffffffffffffffffff1673ffffffffffffffffffffffffffffffffffffffff1673ffffffffffffffffffffffffffffffffffffffff1681526020016001820160149054906101000a90046bffffffffffffffffffffffff166bffffffffffffffffffffffff166bffffffffffffffffffffffff16815250508152602001600382015f9054906101000a90046fffffffffffffffffffffffffffffffff166fffffffffffffffffffffffffffffffff166fffffffffffffffffffffffffffffffff1681526020016003820160109054906101000a900467ffffffffffffffff1667ffffffffffffffff1667ffffffffffffffff1681526020016003820160189054906101000a900467ffffffffffffffff1667ffffffffffffffff1667ffffffffffffffff1681525050815260200160048201548152505090508060200151915050610bb7565b5f5f1b95505b5b610e4e81611db5565b8015610e5957508783105b156112e5575f5f5f8381526020019081526020015f206040518060400160405290815f82016040518060e00160405290815f82015f9054906101000a900460ff166001811115610eac57610eab612273565b5b6001811115610ebe57610ebd612273565b5b81526020015f820160019054906101000a900460ff166001811115610ee657610ee5612273565b5b6001811115610ef857610ef7612273565b5b81526020015f820160029054906101000a900473ffffffffffffffffffffffffffffffffffffffff1673ffffffffffffffffffffffffffffffffffffffff1673ffffffffffffffffffffffffffffffffffffffff168152602001600182016040518060600160405290815f8201548152602001600182015f9054906101000a900473ffffffffffffffffffffffffffffffffffffffff1673ffffffffffffffffffffffffffffffffffffffff1673ffffffffffffffffffffffffffffffffffffffff1681526020016001820160149054906101000a90046bffffffffffffffffffffffff166bffffffffffffffffffffffff166bffffffffffffffffffffffff16815250508152602001600382015f9054906101000a90046fffffffffffffffffffffffffffffffff166fffffffffffffffffffffffffffffffff166fffffffffffffffffffffffffffffffff1681526020016003820160109054906101000a900467ffffffffffffffff1667ffffffffffffffff1667ffffffffffffffff1681526020016003820160189054906101000a900467ffffffffffffffff1667ffffffffffffffff1667ffffffffffffffff168152505081526020016004820154815250509050806020015191505f815f015160a0015167ffffffffffffffff16141580156110f6575042815f015160a0015167ffffffffffffffff16105b156111015750610e45565b60018081111561111457611113612273565b5b8b600181111561112757611126612273565b5b14801561115757505f600181111561114257611141612273565b5b8a600181111561115557611154612273565b5b145b156111cb5760018081111561116f5761116e612273565b5b815f01515f0151600181111561118857611187612273565b5b1480156111bf57506001808111156111a3576111a2612273565b5b815f01516020015160018111156111bd576111bc612273565b5b145b156111ca5750610e45565b5b6001808111156111de576111dd612273565b5b8b60018111156111f1576111f0612273565b5b148015611221575060018081111561120c5761120b612273565b5b8a600181111561121f5761121e612273565b5b145b156112ab5760018081111561123957611238612273565b5b815f01515f0151600181111561125257611251612273565b5b148015611289575060018081111561126d5761126c612273565b5b815f015160200151600181111561128757611286612273565b5b145b801561129f5750805f0151606001515f01518c14155b156112aa5750610e45565b5b805f01518685815181106112c2576112c16127c4565b5b6020026020010181905250806020015194506112dd84611dd0565b935050610e45565b6112f08c8b896101d2565b96505050610ac4565b5097509795505050505050565b5f602052805f5260405f205f91509050805f016040518060e00160405290815f82015f9054906101000a900460ff16600181111561134757611346612273565b5b600181111561135957611358612273565b5b81526020015f820160019054906101000a900460ff16600181111561138157611380612273565b5b600181111561139357611392612273565b5b81526020015f820160029054906101000a900473ffffffffffffffffffffffffffffffffffffffff1673ffffffffffffffffffffffffffffffffffffffff1673ffffffffffffffffffffffffffffffffffffffff168152602001600182016040518060600160405290815f8201548152602001600182015f9054906101000a900473ffffffffffffffffffffffffffffffffffffffff1673ffffffffffffffffffffffffffffffffffffffff1673ffffffffffffffffffffffffffffffffffffffff1681526020016001820160149054906101000a90046bffffffffffffffffffffffff166bffffffffffffffffffffffff166bffffffffffffffffffffffff16815250508152602001600382015f9054906101000a90046fffffffffffffffffffffffffffffffff166fffffffffffffffffffffffffffffffff166fffffffffffffffffffffffffffffffff1681526020016003820160109054906101000a900467ffffffffffffffff1667ffffffffffffffff1667ffffffffffffffff1681526020016003820160189054906101000a900467ffffffffffffffff1667ffffffffffffffff1667ffffffffffffffff1681525050908060040154905082565b5f60018081111561156857611567612273565b5b82600181111561157b5761157a612273565b5b146115fd576115f860015f8573ffffffffffffffffffffffffffffffffffffffff1673ffffffffffffffffffffffffffffffffffffffff1681526020019081526020015f205f8460018111156115d4576115d3612273565b5b60018111156115e6576115e5612273565b5b81526020019081526020015f206116e3565b611676565b61167560015f8573ffffffffffffffffffffffffffffffffffffffff1673ffffffffffffffffffffffffffffffffffffffff1681526020019081526020015f205f84600181111561165157611650612273565b5b600181111561166357611662612273565b5b81526020019081526020015f206117da565b5b905092915050565b6002602052825f5260405f20602052815f5260405f20602052805f5260405f205f925092505050805f0154908060010154905082565b5f5f6fffffffffffffffffffffffffffffffff16826fffffffffffffffffffffffffffffffff16149050919050565b5f815f015f9054906101000a90046fffffffffffffffffffffffffffffffff16905061170e81611d85565b156117d5575b611772826001015f836fffffffffffffffffffffffffffffffff166fffffffffffffffffffffffffffffffff1681526020019081526020015f205f0160109054906101000a90046fffffffffffffffffffffffffffffffff16611d85565b156117d457816001015f826fffffffffffffffffffffffffffffffff166fffffffffffffffffffffffffffffffff1681526020019081526020015f205f0160109054906101000a90046fffffffffffffffffffffffffffffffff169050611714565b5b919050565b5f815f015f9054906101000a90046fffffffffffffffffffffffffffffffff16905061180581611d85565b156118cc575b611869826001015f836fffffffffffffffffffffffffffffffff166fffffffffffffffffffffffffffffffff1681526020019081526020015f206001015f9054906101000a90046fffffffffffffffffffffffffffffffff16611d85565b156118cb57816001015f826fffffffffffffffffffffffffffffffff166fffffffffffffffffffffffffffffffff1681526020019081526020015f206001015f9054906101000a90046fffffffffffffffffffffffffffffffff16905061180b565b5b919050565b5f6118db826116b4565b15611912576040517f999e600b00000000000000000000000000000000000000000000000000000000815260040160405180910390fd5b611970836001015f846fffffffffffffffffffffffffffffffff166fffffffffffffffffffffffffffffffff1681526020019081526020015f206001015f9054906101000a90046fffffffffffffffffffffffffffffffff16611d85565b156119db576119d483846001015f856fffffffffffffffffffffffffffffffff166fffffffffffffffffffffffffffffffff1681526020019081526020015f206001015f9054906101000a90046fffffffffffffffffffffffffffffffff16611ddc565b9050611b25565b826001015f836fffffffffffffffffffffffffffffffff166fffffffffffffffffffffffffffffffff1681526020019081526020015f205f015f9054906101000a90046fffffffffffffffffffffffffffffffff1690505b611a3c81611d85565b8015611ac05750826001015f826fffffffffffffffffffffffffffffffff166fffffffffffffffffffffffffffffffff1681526020019081526020015f206001015f9054906101000a90046fffffffffffffffffffffffffffffffff166fffffffffffffffffffffffffffffffff16826fffffffffffffffffffffffffffffffff16145b15611b2457809150826001015f826fffffffffffffffffffffffffffffffff166fffffffffffffffffffffffffffffffff1681526020019081526020015f205f015f9054906101000a90046fffffffffffffffffffffffffffffffff169050611a33565b5b92915050565b5f611b35826116b4565b15611b6c576040517fdb39187800000000000000000000000000000000000000000000000000000000815260040160405180910390fd5b611bca836001015f846fffffffffffffffffffffffffffffffff166fffffffffffffffffffffffffffffffff1681526020019081526020015f205f0160109054906101000a90046fffffffffffffffffffffffffffffffff16611d85565b15611c3557611c2e83846001015f856fffffffffffffffffffffffffffffffff166fffffffffffffffffffffffffffffffff1681526020019081526020015f205f0160109054906101000a90046fffffffffffffffffffffffffffffffff16611ea7565b9050611d7f565b826001015f836fffffffffffffffffffffffffffffffff166fffffffffffffffffffffffffffffffff1681526020019081526020015f205f015f9054906101000a90046fffffffffffffffffffffffffffffffff1690505b611c9681611d85565b8015611d1a5750826001015f826fffffffffffffffffffffffffffffffff166fffffffffffffffffffffffffffffffff1681526020019081526020015f205f0160109054906101000a90046fffffffffffffffffffffffffffffffff166fffffffffffffffffffffffffffffffff16826fffffffffffffffffffffffffffffffff16145b15611d7e57809150826001015f826fffffffffffffffffffffffffffffffff166fffffffffffffffffffffffffffffffff1681526020019081526020015f205f015f9054906101000a90046fffffffffffffffffffffffffffffffff169050611c8d565b5b92915050565b5f5f6fffffffffffffffffffffffffffffffff16826fffffffffffffffffffffffffffffffff1614159050919050565b5f5f5f1b8214159050919050565b5f5f5f1b82149050919050565b5f816001019050919050565b5f5b611e3c836001015f846fffffffffffffffffffffffffffffffff166fffffffffffffffffffffffffffffffff1681526020019081526020015f205f0160109054906101000a90046fffffffffffffffffffffffffffffffff16611d85565b15611e9e57826001015f836fffffffffffffffffffffffffffffffff166fffffffffffffffffffffffffffffffff1681526020019081526020015f205f0160109054906101000a90046fffffffffffffffffffffffffffffffff169150611dde565b81905092915050565b5f5b611f07836001015f846fffffffffffffffffffffffffffffffff166fffffffffffffffffffffffffffffffff1681526020019081526020015f206001015f9054906101000a90046fffffffffffffffffffffffffffffffff16611d85565b15611f6957826001015f836fffffffffffffffffffffffffffffffff166fffffffffffffffffffffffffffffffff1681526020019081526020015f206001015f9054906101000a90046fffffffffffffffffffffffffffffffff169150611ea9565b81905092915050565b6040518060e001604052805f6001811115611f9057611f8f612273565b5b81526020015f6001811115611fa857611fa7612273565b5b81526020015f73ffffffffffffffffffffffffffffffffffffffff168152602001611fd161200f565b81526020015f6fffffffffffffffffffffffffffffffff1681526020015f67ffffffffffffffff1681526020015f67ffffffffffffffff1681525090565b60405180606001604052805f81526020015f73ffffffffffffffffffffffffffffffffffffffff1681526020015f6bffffffffffffffffffffffff1681525090565b5f5ffd5b5f73ffffffffffffffffffffffffffffffffffffffff82169050919050565b5f61207e82612055565b9050919050565b61208e81612074565b8114612098575f5ffd5b50565b5f813590506120a981612085565b92915050565b600281106120bb575f5ffd5b50565b5f813590506120cc816120af565b92915050565b5f6fffffffffffffffffffffffffffffffff82169050919050565b6120f6816120d2565b8114612100575f5ffd5b50565b5f81359050612111816120ed565b92915050565b5f5f5f6060848603121561212e5761212d612051565b5b5f61213b8682870161209b565b935050602061214c868287016120be565b925050604061215d86828701612103565b9150509250925092565b5f819050919050565b5f61218a612185612180846120d2565b612167565b6120d2565b9050919050565b61219a81612170565b82525050565b5f6020820190506121b35f830184612191565b92915050565b5f819050919050565b6121cb816121b9565b81146121d5575f5ffd5b50565b5f813590506121e6816121c2565b92915050565b600281106121f8575f5ffd5b50565b5f81359050612209816121ec565b92915050565b5f5f5f5f6080858703121561222757612226612051565b5b5f6122348782880161209b565b9450506020612245878288016121d8565b9350506040612256878288016120be565b9250506060612267878288016121fb565b91505092959194509250565b7f4e487b71000000000000000000000000000000000000000000000000000000005f52602160045260245ffd5b600281106122b1576122b0612273565b5b50565b5f8190506122c1826122a0565b919050565b5f6122d0826122b4565b9050919050565b6122e0816122c6565b82525050565b600281106122f7576122f6612273565b5b50565b5f819050612307826122e6565b919050565b5f612316826122fa565b9050919050565b6123268161230c565b82525050565b61233581612074565b82525050565b612344816121b9565b82525050565b5f6bffffffffffffffffffffffff82169050919050565b61236a8161234a565b82525050565b606082015f8201516123845f85018261233b565b506020820151612397602085018261232c565b5060408201516123aa6040850182612361565b50505050565b6123b981612170565b82525050565b5f67ffffffffffffffff82169050919050565b6123db816123bf565b82525050565b61012082015f8201516123f65f8501826122d7565b506020820151612409602085018261231d565b50604082015161241c604085018261232c565b50606082015161242f6060850182612370565b50608082015161244260c08501826123b0565b5060a082015161245560e08501826123d2565b5060c08201516124696101008501826123d2565b50505050565b5f610120820190506124835f8301846123e1565b92915050565b5f5f6040838503121561249f5761249e612051565b5b5f6124ac8582860161209b565b92505060206124bd858286016120be565b9150509250929050565b5f819050919050565b6124d9816124c7565b81146124e3575f5ffd5b50565b5f813590506124f4816124d0565b92915050565b5f5f5f5f5f5f5f60e0888a03121561251557612514612051565b5b5f6125228a828b0161209b565b97505060206125338a828b016121d8565b96505060406125448a828b016120be565b95505060606125558a828b016121fb565b94505060806125668a828b016121d8565b93505060a06125778a828b01612103565b92505060c06125888a828b016124e6565b91505092959891949750929550565b5f81519050919050565b5f82825260208201905092915050565b5f819050602082019050919050565b61012082015f8201516125d55f8501826122d7565b5060208201516125e8602085018261231d565b5060408201516125fb604085018261232c565b50606082015161260e6060850182612370565b50608082015161262160c08501826123b0565b5060a082015161263460e08501826123d2565b5060c08201516126486101008501826123d2565b50505050565b5f61265983836125c0565b6101208301905092915050565b5f602082019050919050565b5f61267c82612597565b61268681856125a1565b9350612691836125b1565b805f5b838110156126c15781516126a8888261264e565b97506126b383612666565b925050600181019050612694565b5085935050505092915050565b5f6126d8826124c7565b9050919050565b6126e8816126ce565b82525050565b5f6040820190508181035f8301526127068185612672565b905061271560208301846126df565b9392505050565b5f6020828403121561273157612730612051565b5b5f61273e848285016124e6565b91505092915050565b5f6101408201905061275b5f8301856123e1565b6127696101208301846126df565b9392505050565b5f6040820190506127835f8301856126df565b61279060208301846126df565b9392505050565b7f4e487b71000000000000000000000000000000000000000000000000000000005f52604160045260245ffd5b7f4e487b71000000000000000000000000000000000000000000000000000000005f52603260045260245ffdfea2646970667358221220e16e0b41e19b5da894f4d4db161ddfe332a774a141e95cb7add0f46c86192c6964736f6c634300081e0033","linkReferences":{}},"methodIdentifiers":{"getBestOrder(address,uint256,uint8,uint8)":"5dcc7f9c","getBestPrice(address,uint8)":"9e09126c","getNextBestPrice(address,uint8,uint128)":"436a5ed6","getOrders(address,uint256,uint8,uint8,uint256,uint128,bytes32)":"877edbff","orderQueues(address,uint8,uint128)":"e471ba46","orders(bytes32)":"9c3f1e90","priceTrees(address,uint8)":"7d910dac"},"id":35}