{"abi":[{"type":"constructor","inputs":[],"stateMutability":"nonpayable"},{"type":"receive","stateMutability":"payable"},{"type":"function","name":"approve","inputs":[{"name":"to","type":"address","internalType":"address"},{"name":"tokenId","type":"uint256","internalType":"uint256"}],"outputs":[],"stateMutability":"nonpayable"},{"type":"function","name":"balanceOf","inputs":[{"name":"owner","type":"address","internalType":"address"}],"outputs":[{"name":"","type":"uint256","internalType":"uint256"}],"stateMutability":"view"},{"type":"function","name":"baseURI","inputs":[],"outputs":[{"name":"","type":"string","internalType":"string"}],"stateMutability":"view"},{"type":"function","name":"burn","inputs":[{"name":"tokenId","type":"uint256","internalType":"uint256"}],"outputs":[],"stateMutability":"nonpayable"},{"type":"function","name":"editer","inputs":[],"outputs":[{"name":"","type":"address","internalType":"address"}],"stateMutability":"view"},{"type":"function","name":"fromMaster","inputs":[{"name":"","type":"uint256","internalType":"uint256"}],"outputs":[{"name":"","type":"uint256","internalType":"uint256"}],"stateMutability":"view"},{"type":"function","name":"getApproved","inputs":[{"name":"tokenId","type":"uint256","internalType":"uint256"}],"outputs":[{"name":"","type":"address","internalType":"address"}],"stateMutability":"view"},{"type":"function","name":"getMetadata","inputs":[{"name":"tokenId","type":"uint256","internalType":"uint256"}],"outputs":[{"name":"","type":"tuple","internalType":"struct NFTManager.NFTMetadata","components":[{"name":"name","type":"string","internalType":"string"},{"name":"description","type":"string","internalType":"string"},{"name":"metadataURL","type":"string","internalType":"string"},{"name":"royaltyBps","type":"uint96","internalType":"uint96"},{"name":"royaltyReceiver","type":"address","internalType":"address"},{"name":"usageLimit","type":"uint256","internalType":"uint256"}]}],"stateMutability":"view"},{"type":"function","name":"initialize","inputs":[{"name":"name_","type":"string","internalType":"string"},{"name":"symbol_","type":"string","internalType":"string"},{"name":"maxSupply_","type":"uint256","internalType":"uint256"},{"name":"baseURI_","type":"string","internalType":"string"},{"name":"_initialOwner","type":"address","internalType":"address"},{"name":"_vrfPod","type":"address","internalType":"address"}],"outputs":[],"stateMutability":"nonpayable"},{"type":"function","name":"isApprovedForAll","inputs":[{"name":"owner","type":"address","internalType":"address"},{"name":"operator","type":"address","internalType":"address"}],"outputs":[{"name":"","type":"bool","internalType":"bool"}],"stateMutability":"view"},{"type":"function","name":"isEditer","inputs":[{"name":"","type":"address","internalType":"address"},{"name":"","type":"uint256","internalType":"uint256"}],"outputs":[{"name":"","type":"bool","internalType":"bool"}],"stateMutability":"view"},{"type":"function","name":"isMaster","inputs":[{"name":"","type":"uint256","internalType":"uint256"}],"outputs":[{"name":"","type":"bool","internalType":"bool"}],"stateMutability":"view"},{"type":"function","name":"isPrintExist","inputs":[{"name":"","type":"uint256","internalType":"uint256"},{"name":"","type":"uint256","internalType":"uint256"}],"outputs":[{"name":"","type":"bool","internalType":"bool"}],"stateMutability":"view"},{"type":"function","name":"isWhiteListed","inputs":[{"name":"","type":"address","internalType":"address"},{"name":"","type":"uint256","internalType":"uint256"}],"outputs":[{"name":"","type":"bool","internalType":"bool"}],"stateMutability":"view"},{"type":"function","name":"lockTransfer","inputs":[{"name":"tokenId","type":"uint256","internalType":"uint256"}],"outputs":[],"stateMutability":"nonpayable"},{"type":"function","name":"maxSupply","inputs":[],"outputs":[{"name":"","type":"uint256","internalType":"uint256"}],"stateMutability":"view"},{"type":"function","name":"metadata","inputs":[{"name":"","type":"uint256","internalType":"uint256"}],"outputs":[{"name":"name","type":"string","internalType":"string"},{"name":"description","type":"string","internalType":"string"},{"name":"metadataURL","type":"string","internalType":"string"},{"name":"royaltyBps","type":"uint96","internalType":"uint96"},{"name":"royaltyReceiver","type":"address","internalType":"address"},{"name":"usageLimit","type":"uint256","internalType":"uint256"}],"stateMutability":"view"},{"type":"function","name":"mintBatchPrintEditionByOrder","inputs":[{"name":"to","type":"address","internalType":"address"},{"name":"amount","type":"uint256","internalType":"uint256"},{"name":"masterId","type":"uint256","internalType":"uint256"},{"name":"startingPrintNumber","type":"uint256","internalType":"uint256"},{"name":"metadataURLs","type":"string[]","internalType":"string[]"}],"outputs":[],"stateMutability":"nonpayable"},{"type":"function","name":"mintBatchPrintEditionRandomMasters","inputs":[{"name":"to","type":"address","internalType":"address"},{"name":"masterIds","type":"uint256[]","internalType":"uint256[]"},{"name":"totalAmount","type":"uint256","internalType":"uint256"}],"outputs":[],"stateMutability":"nonpayable"},{"type":"function","name":"mintMaster","inputs":[{"name":"to","type":"address","internalType":"address"},{"name":"md","type":"tuple","internalType":"struct NFTManager.NFTMetadata","components":[{"name":"name","type":"string","internalType":"string"},{"name":"description","type":"string","internalType":"string"},{"name":"metadataURL","type":"string","internalType":"string"},{"name":"royaltyBps","type":"uint96","internalType":"uint96"},{"name":"royaltyReceiver","type":"address","internalType":"address"},{"name":"usageLimit","type":"uint256","internalType":"uint256"}]}],"outputs":[{"name":"","type":"uint256","internalType":"uint256"}],"stateMutability":"nonpayable"},{"type":"function","name":"mintPrintEdition","inputs":[{"name":"to","type":"address","internalType":"address"},{"name":"masterId","type":"uint256","internalType":"uint256"},{"name":"printNumber","type":"uint256","internalType":"uint256"},{"name":"metadataURL","type":"string","internalType":"string"}],"outputs":[{"name":"","type":"uint256","internalType":"uint256"}],"stateMutability":"nonpayable"},{"type":"function","name":"name","inputs":[],"outputs":[{"name":"","type":"string","internalType":"string"}],"stateMutability":"view"},{"type":"function","name":"nextRequestId","inputs":[],"outputs":[{"name":"","type":"uint256","internalType":"uint256"}],"stateMutability":"view"},{"type":"function","name":"nextTokenId","inputs":[],"outputs":[{"name":"","type":"uint256","internalType":"uint256"}],"stateMutability":"view"},{"type":"function","name":"owner","inputs":[],"outputs":[{"name":"","type":"address","internalType":"address"}],"stateMutability":"view"},{"type":"function","name":"ownerOf","inputs":[{"name":"tokenId","type":"uint256","internalType":"uint256"}],"outputs":[{"name":"","type":"address","internalType":"address"}],"stateMutability":"view"},{"type":"function","name":"pause","inputs":[],"outputs":[],"stateMutability":"nonpayable"},{"type":"function","name":"paused","inputs":[],"outputs":[{"name":"","type":"bool","internalType":"bool"}],"stateMutability":"view"},{"type":"function","name":"pendingHead","inputs":[],"outputs":[{"name":"","type":"uint256","internalType":"uint256"}],"stateMutability":"view"},{"type":"function","name":"pendingTail","inputs":[],"outputs":[{"name":"","type":"uint256","internalType":"uint256"}],"stateMutability":"view"},{"type":"function","name":"printEditionNumber","inputs":[{"name":"","type":"uint256","internalType":"uint256"}],"outputs":[{"name":"","type":"uint256","internalType":"uint256"}],"stateMutability":"view"},{"type":"function","name":"rawFulfillRandomWords","inputs":[{"name":"randomWords","type":"uint256[]","internalType":"uint256[]"}],"outputs":[{"name":"","type":"uint256[]","internalType":"uint256[]"}],"stateMutability":"nonpayable"},{"type":"function","name":"remainingUses","inputs":[{"name":"","type":"uint256","internalType":"uint256"}],"outputs":[{"name":"","type":"uint256","internalType":"uint256"}],"stateMutability":"view"},{"type":"function","name":"renounceOwnership","inputs":[],"outputs":[],"stateMutability":"nonpayable"},{"type":"function","name":"requests","inputs":[{"name":"","type":"uint256","internalType":"uint256"}],"outputs":[{"name":"receiver","type":"address","internalType":"address"},{"name":"totalAmount","type":"uint256","internalType":"uint256"},{"name":"fulfilled","type":"bool","internalType":"bool"}],"stateMutability":"view"},{"type":"function","name":"reservedSupply","inputs":[],"outputs":[{"name":"","type":"uint256","internalType":"uint256"}],"stateMutability":"view"},{"type":"function","name":"royaltyInfo","inputs":[{"name":"tokenId","type":"uint256","internalType":"uint256"},{"name":"salePrice","type":"uint256","internalType":"uint256"}],"outputs":[{"name":"receiver","type":"address","internalType":"address"},{"name":"royaltyAmount","type":"uint256","internalType":"uint256"}],"stateMutability":"view"},{"type":"function","name":"safeTransferFrom","inputs":[{"name":"from","type":"address","internalType":"address"},{"name":"to","type":"address","internalType":"address"},{"name":"tokenId","type":"uint256","internalType":"uint256"}],"outputs":[],"stateMutability":"nonpayable"},{"type":"function","name":"safeTransferFrom","inputs":[{"name":"from","type":"address","internalType":"address"},{"name":"to","type":"address","internalType":"address"},{"name":"tokenId","type":"uint256","internalType":"uint256"},{"name":"data","type":"bytes","internalType":"bytes"}],"outputs":[],"stateMutability":"nonpayable"},{"type":"function","name":"setApprovalForAll","inputs":[{"name":"operator","type":"address","internalType":"address"},{"name":"approved","type":"bool","internalType":"bool"}],"outputs":[],"stateMutability":"nonpayable"},{"type":"function","name":"setBaseURI","inputs":[{"name":"_uri","type":"string","internalType":"string"}],"outputs":[],"stateMutability":"nonpayable"},{"type":"function","name":"setEditer","inputs":[{"name":"operator","type":"address","internalType":"address"},{"name":"approved","type":"bool","internalType":"bool"},{"name":"masterId","type":"uint256","internalType":"uint256"}],"outputs":[],"stateMutability":"nonpayable"},{"type":"function","name":"setMaxSupply","inputs":[{"name":"maxSupply_","type":"uint256","internalType":"uint256"}],"outputs":[],"stateMutability":"nonpayable"},{"type":"function","name":"setRoyaltyInfo","inputs":[{"name":"tokenId","type":"uint256","internalType":"uint256"},{"name":"receiver","type":"address","internalType":"address"},{"name":"royaltyBps","type":"uint96","internalType":"uint96"}],"outputs":[],"stateMutability":"nonpayable"},{"type":"function","name":"setVrfPod","inputs":[{"name":"_vrfPod","type":"address","internalType":"address"}],"outputs":[],"stateMutability":"nonpayable"},{"type":"function","name":"setWhiteList","inputs":[{"name":"operator","type":"address","internalType":"address"},{"name":"approved","type":"bool","internalType":"bool"},{"name":"masterId","type":"uint256","internalType":"uint256"}],"outputs":[],"stateMutability":"nonpayable"},{"type":"function","name":"supportsInterface","inputs":[{"name":"interfaceId","type":"bytes4","internalType":"bytes4"}],"outputs":[{"name":"","type":"bool","internalType":"bool"}],"stateMutability":"view"},{"type":"function","name":"symbol","inputs":[],"outputs":[{"name":"","type":"string","internalType":"string"}],"stateMutability":"view"},{"type":"function","name":"tokenURI","inputs":[{"name":"tokenId","type":"uint256","internalType":"uint256"}],"outputs":[{"name":"","type":"string","internalType":"string"}],"stateMutability":"view"},{"type":"function","name":"totalMinted","inputs":[],"outputs":[{"name":"","type":"uint256","internalType":"uint256"}],"stateMutability":"view"},{"type":"function","name":"transferFrom","inputs":[{"name":"from","type":"address","internalType":"address"},{"name":"to","type":"address","internalType":"address"},{"name":"tokenId","type":"uint256","internalType":"uint256"}],"outputs":[],"stateMutability":"nonpayable"},{"type":"function","name":"transferLocked","inputs":[{"name":"","type":"uint256","internalType":"uint256"}],"outputs":[{"name":"","type":"bool","internalType":"bool"}],"stateMutability":"view"},{"type":"function","name":"transferOwnership","inputs":[{"name":"newOwner","type":"address","internalType":"address"}],"outputs":[],"stateMutability":"nonpayable"},{"type":"function","name":"unlockTransfer","inputs":[{"name":"tokenId","type":"uint256","internalType":"uint256"}],"outputs":[],"stateMutability":"nonpayable"},{"type":"function","name":"unpause","inputs":[],"outputs":[],"stateMutability":"nonpayable"},{"type":"function","name":"useNFT","inputs":[{"name":"tokenId","type":"uint256","internalType":"uint256"}],"outputs":[],"stateMutability":"nonpayable"},{"type":"function","name":"vrfPod","inputs":[],"outputs":[{"name":"","type":"address","internalType":"contract IVrfPod"}],"stateMutability":"view"},{"type":"event","name":"Approval","inputs":[{"name":"owner","type":"address","indexed":true,"internalType":"address"},{"name":"approved","type":"address","indexed":true,"internalType":"address"},{"name":"tokenId","type":"uint256","indexed":true,"internalType":"uint256"}],"anonymous":false},{"type":"event","name":"ApprovalForAll","inputs":[{"name":"owner","type":"address","indexed":true,"internalType":"address"},{"name":"operator","type":"address","indexed":true,"internalType":"address"},{"name":"approved","type":"bool","indexed":false,"internalType":"bool"}],"anonymous":false},{"type":"event","name":"BatchMetadataUpdate","inputs":[{"name":"_fromTokenId","type":"uint256","indexed":false,"internalType":"uint256"},{"name":"_toTokenId","type":"uint256","indexed":false,"internalType":"uint256"}],"anonymous":false},{"type":"event","name":"Initialized","inputs":[{"name":"version","type":"uint64","indexed":false,"internalType":"uint64"}],"anonymous":false},{"type":"event","name":"MetadataUpdate","inputs":[{"name":"_tokenId","type":"uint256","indexed":false,"internalType":"uint256"}],"anonymous":false},{"type":"event","name":"MintCompleted","inputs":[{"name":"requestId","type":"uint256","indexed":false,"internalType":"uint256"},{"name":"chosenMasterIds","type":"uint256[]","indexed":false,"internalType":"uint256[]"}],"anonymous":false},{"type":"event","name":"MintRequested","inputs":[{"name":"requestId","type":"uint256","indexed":false,"internalType":"uint256"},{"name":"to","type":"address","indexed":true,"internalType":"address"},{"name":"totalAmount","type":"uint256","indexed":false,"internalType":"uint256"},{"name":"masterIds","type":"uint256[]","indexed":false,"internalType":"uint256[]"}],"anonymous":false},{"type":"event","name":"MintedNFT","inputs":[{"name":"to","type":"address","indexed":true,"internalType":"address"},{"name":"tokenId","type":"uint256","indexed":false,"internalType":"uint256"},{"name":"masterId","type":"uint256","indexed":false,"internalType":"uint256"},{"name":"printNumber","type":"uint256","indexed":false,"internalType":"uint256"},{"name":"usageLimit","type":"uint256","indexed":false,"internalType":"uint256"}],"anonymous":false},{"type":"event","name":"NFTUsed","inputs":[{"name":"tokenID","type":"uint256","indexed":false,"internalType":"uint256"},{"name":"remainingUses","type":"uint256","indexed":false,"internalType":"uint256"},{"name":"timestamp","type":"uint256","indexed":false,"internalType":"uint256"}],"anonymous":false},{"type":"event","name":"OwnershipTransferred","inputs":[{"name":"previousOwner","type":"address","indexed":true,"internalType":"address"},{"name":"newOwner","type":"address","indexed":true,"internalType":"address"}],"anonymous":false},{"type":"event","name":"Paused","inputs":[{"name":"account","type":"address","indexed":false,"internalType":"address"}],"anonymous":false},{"type":"event","name":"Received","inputs":[{"name":"sender","type":"address","indexed":true,"internalType":"address"},{"name":"amount","type":"uint256","indexed":false,"internalType":"uint256"}],"anonymous":false},{"type":"event","name":"Transfer","inputs":[{"name":"from","type":"address","indexed":true,"internalType":"address"},{"name":"to","type":"address","indexed":true,"internalType":"address"},{"name":"tokenId","type":"uint256","indexed":true,"internalType":"uint256"}],"anonymous":false},{"type":"event","name":"Unpaused","inputs":[{"name":"account","type":"address","indexed":false,"internalType":"address"}],"anonymous":false},{"type":"error","name":"ERC721IncorrectOwner","inputs":[{"name":"sender","type":"address","internalType":"address"},{"name":"tokenId","type":"uint256","internalType":"uint256"},{"name":"owner","type":"address","internalType":"address"}]},{"type":"error","name":"ERC721InsufficientApproval","inputs":[{"name":"operator","type":"address","internalType":"address"},{"name":"tokenId","type":"uint256","internalType":"uint256"}]},{"type":"error","name":"ERC721InvalidApprover","inputs":[{"name":"approver","type":"address","internalType":"address"}]},{"type":"error","name":"ERC721InvalidOperator","inputs":[{"name":"operator","type":"address","internalType":"address"}]},{"type":"error","name":"ERC721InvalidOwner","inputs":[{"name":"owner","type":"address","internalType":"address"}]},{"type":"error","name":"ERC721InvalidReceiver","inputs":[{"name":"receiver","type":"address","internalType":"address"}]},{"type":"error","name":"ERC721InvalidSender","inputs":[{"name":"sender","type":"address","internalType":"address"}]},{"type":"error","name":"ERC721NonexistentToken","inputs":[{"name":"tokenId","type":"uint256","internalType":"uint256"}]},{"type":"error","name":"EnforcedPause","inputs":[]},{"type":"error","name":"ExpectedPause","inputs":[]},{"type":"error","name":"InvalidInitialization","inputs":[]},{"type":"error","name":"NotInitializing","inputs":[]},{"type":"error","name":"OwnableInvalidOwner","inputs":[{"name":"owner","type":"address","internalType":"address"}]},{"type":"error","name":"OwnableUnauthorizedAccount","inputs":[{"name":"account","type":"address","internalType":"address"}]},{"type":"error","name":"ReentrancyGuardReentrantCall","inputs":[]}],"bytecode":{"object":"0x60808060405234620000bd577ff0c57e16840df040f15088dc2f81fe391c3923bec73e23a9662efc9c229c6a009081549060ff8260401c16620000ae57506001600160401b036002600160401b03198282160162000068575b60405161462b9081620000c28239f35b6001600160401b031990911681179091556040519081527fc7f505b2f371ae2175ee4913f4499e1f2633a7b5936321eed1cdaeb6115181d290602090a15f808062000058565b63f92ee8a960e01b8152600490fd5b5f80fdfe6080806040526004361015610048575b50361561001a575f80fd5b6040513481527f88a5966d370b9919b20f3e2c13ff65706f196a4e32cc2c12bf57088f8852587460203392a2005b5f905f3560e01c90816301ffc9a7146136105750806306fdde0314613547578063081812fc146134ff578063095ea7b31461341d57806309a7ea7b14612eeb5780630c0b863314612ec1578063103fb5d214612e975780631495fa9914612d9a57806323b872dd14612d835780632a55205a14612d4f5780632d68b47014612d275780632d872a48146127dc5780633f4ba83a1461276757806342842e0e1461273e57806342966c68146125e657806344d19d2b146125c95780634daf1ac514611f7357806355b9d44314611df157806355f804b314611cef5780635a0bc37c14611cd25780635c975abb14611ca45780636352211e14611c745780636441f8f114611c2b5780636a84a98514611c0e5780636c0360eb14611b575780636f8b44b014611ade57806370a0823114611a8a578063715018a614611a2357806375794a3c14611a0757806378ba76d5146119d357806381d12c58146119855780638456cb59146119205780638ad20e69146118f65780638da5cb5b146118c25780638dccfc691461152a57806395d89b41146114295780639b343a09146113df578063a22cb46514611336578063a2309ff8146112f8578063a3c6b127146112c9578063a574cea41461119f578063b88d4fde1461113b578063bb875836146110fb578063bed62f3514611099578063c6ef9fc714610b61578063c87b56dd14610abc578063d1a4584014610587578063d5abeb0114610569578063d9852f8d146104ef578063da3f5f5b146104a6578063e00a4d2214610477578063e3684e39146103d0578063e833b03f146103b2578063e985e9c514610365578063f2fde38b1461033b578063f6485eea146102ee5763fe8f09c00361000f57346102eb57806003193601126102eb576003546040516001600160a01b039091168152602090f35b80fd5b50346102eb57610338610300366139bb565b909161030a614473565b60018060a01b03168452600c60205260408420908452602052604083209060ff801983541691151516179055565b80f35b50346102eb5760203660031901126102eb576103386103586136ed565b610360614473565b614194565b50346102eb5760403660031901126102eb5761037f6136ed565b61039061038a613703565b91613879565b9060018060a01b03165f52602052602060ff60405f2054166040519015158152f35b50346102eb57806003193601126102eb576020601254604051908152f35b50346102eb5760203660031901126102eb57604061043a916004358152600d602052206103fc816138e9565b90610409600182016138e9565b610456610418600284016138e9565b610448600460038601549501549360405197889760c0895260c08901906136af565b9087820360208901526136af565b9085820360408701526136af565b916001600160601b038116606085015260601c608084015260a08301520390f35b50346102eb5760203660031901126102eb5760ff60406020926004358152600e84522054166040519015158152f35b50346102eb5760403660031901126102eb5760209060ff906040906001600160a01b036104d16136ed565b168152600c8452818120602435825284522054166040519015158152f35b50346102eb5760203660031901126102eb5760043561050d816141c4565b505f805160206145368339815191525461053c90336001600160a01b0391821614908115610555575b50613abc565b8152600e60205260408120805460ff1916600117905580f35b9050610560836141c4565b1633145f610536565b50346102eb57806003193601126102eb576020600154604051908152f35b50346102eb57600319906040368301126102eb576105a36136ed565b90602435926001600160401b038411610ab85760c09084360301126102eb57604051926105cf84613719565b80600401356001600160401b038111610ab4576105f290600436918401016137c1565b845260248101356001600160401b038111610ab45761061790600436918401016137c1565b602085015260448101356001600160401b038111610ab45761063f90600436918401016137c1565b604085015260648101356001600160601b0381168103610ab05760608501526084810135906001600160a01b0382168203610ab05760a4916080860152013560a08401528054338252600b6020526040822090825260205260ff6040822054168015610a90575b6106af90613e06565b6106b761425e565b6106bf614288565b60808301516001600160a01b031615610a4b578054916106e3600154841115613e44565b6106ec83613ec4565b82556106f883826142b7565b828252600660205260408220600160ff19825416179055600d602052604082209380518051906001600160401b038211610961576107408261073a89546138b1565b89613a84565b602090601f83116001146109e35761076f92918691836108d5575b50508160011b915f199060031b1c19161790565b85555b60208101518051906001600160401b038211610961576107a28261079960018a01546138b1565b60018a01613a84565b602090601f8311600114610975576107d092918691836108d55750508160011b915f199060031b1c19161790565b60018601555b60408101519485516001600160401b038111610961576020966108098261080060028601546138b1565b60028601613a84565b8790601f83116001146108e0575f80516020614556833981519152959361084e8460a095608098956004958c926108d55750508160011b915f199060031b1c19161790565b60028201555b606083810151878501515f196001881b011690911b6001600160601b0319166001600160601b039190911617600382015583830151918291015587875260088952604087205501516040519486865286888701526040860152606085015260018060a01b031692a260015f805160206145b683398151915255604051908152f35b015190505f8061075b565b9060028401875288872091875b601f198516811061094a575093600184608097946004945f805160206145568339815191529a9860a098601f19811610610932575b505050811b016002820155610854565b01515f1960f88460031b161c191690555f8080610922565b91928a6001819286850151815501940192016108ed565b634e487b7160e01b85526041600452602485fd5b9190600188018652602086209086935b601f19841685106109c8576001945083601f198116106109b0575b505050811b0160018601556107d6565b01515f1960f88460031b161c191690555f80806109a0565b81810151835560209485019460019093019290910190610985565b9190878652602086209086935b601f1984168510610a30576001945083601f19811610610a18575b505050811b018555610772565b01515f1960f88460031b161c191690555f8080610a0b565b818101518355602094850194600190930192909101906109f0565b60405162461bcd60e51b815260206004820152601860248201527f496e76616c696420726f79616c747920726563656976657200000000000000006044820152606490fd5b505f80516020614536833981519152546001600160a01b031633146106a6565b5f80fd5b8280fd5b5080fd5b50346102eb5760203660031901126102eb576040610b5d91600435610ae0816141c4565b508152600d60205220604051610af581613719565b610afe826138e9565b8152610b0c600183016138e9565b602082015260a06004610b21600285016138e9565b9384604085015260038101546001600160601b038116606086015260601c608085015201549101526040519182916020835260208301906136af565b0390f35b50346102eb5760203660031901126102eb576004356001600160401b038111610ab857610b9290369060040161398b565b60105490926001600160a01b03918216330361106557831561102e57601154601254811015610ff357610bc481613ec4565b60115581526013602052604081205493848252600f602052604082209260ff600385015416610fba578354168015610f835760405180816020600288015492838152016002880187526020872092875b818110610f6a575050610c299250038261374f565b600185015492610c388461382a565b96610c46604051988961374f565b848852610c528561382a565b601f19013660208a0137600554858103908111610f5657600599989995919293955585945b818610610ce757610b5d8a7f2a921b8ba8f59378d365219a18a8096264af78d4f1278bdee7afdf4d18321c698b8b6003600160ff198284015416179101556040519081526040602082015280610cd060408201856139ee565b0390a16040519182916020835260208301906139ee565b908699929598939694979187878b8281105f14610eef57610d0f90610d2a93610d2493613f07565b35909192989c509a9998969a5b885190614093565b87613edf565b5195868a5260069586602052610d4660ff60408d205416613e85565b87610d518b87613edf565b528a5496610d5e88613ec4565b8c55610d6a888b6142b7565b878c5260205260408b2060ff198154169055600a6020528760408c205560019b5b888c52600960205260408c208d8d5260205260ff60408d20541615610dcd5760ff6040610dbe8e9f9e9a9b9c9d9e613ec4565b9e9d9c9b9a9950610d8b915050565b939991959b600193988a98610e7860408f9d95999f945f80516020614556833981519152958481526007602052818382205585815260096020528281208282526020528281208a60ff19825416179055858152600d60205282812085825283822090808203610e88575b5050858152600d6020526004838220015492818685935260086020522055604051948594859094939260609260808301968352602083015260408201520152565b0390a20194909192989798610c77565b600481610e968293856140b1565b610ea48e82018f86016140b1565b610eb460028201600286016140b1565b6003818101805491860180546001600160601b039093166001600160601b031993841681178255915490921617905501549101555f80610e37565b610f35610f43610f10610d249486610f0a610d2a9887614093565b91613f07565b35926040519283918c6020840196876040919493926060820195825260208201520152565b03601f19810183528261374f565b519020909192989c509a9998969a610d1c565b634e487b7160e01b5f52601160045260245ffd5b8454835260019485019486945060209093019201610c14565b60405162461bcd60e51b815260206004820152600f60248201526e125b9d985b1a59081c995c5d595cdd608a1b6044820152606490fd5b60405162461bcd60e51b8152602060048201526011602482015270105b1c9958591e48199d5b199a5b1b1959607a1b6044820152606490fd5b60405162461bcd60e51b81526020600482015260136024820152724e6f2070656e64696e6720726571756573747360681b6044820152606490fd5b60405162461bcd60e51b815260206004820152600f60248201526e4e6f2072616e646f6d20776f72647360881b6044820152606490fd5b60405162461bcd60e51b815260206004820152600c60248201526b155b985d5d1a1bdc9a5e995960a21b6044820152606490fd5b50346102eb5760203660031901126102eb576004356110b7816141c4565b505f80516020614536833981519152546110e590336001600160a01b03918216149081156105555750613abc565b8152600e60205260408120805460ff1916905580f35b50346102eb5760203660031901126102eb576111156136ed565b61111d614473565b60018060a01b03166001600160601b0360a01b601054161760105580f35b50346102eb5760803660031901126102eb576111556136ed565b61115d613703565b606435916001600160401b03831161119b573660238401121561119b5761119161033893369060248160040135910161378b565b9160443591613f17565b8380fd5b50346102eb57602080600319360112610ab85760408051926004356111c385613719565b8160a060609687815287878201528786820152828882015282608082015201526111ec816141c4565b508152600d8352206040519261120184613719565b61120a826138e9565b8452611218600183016138e9565b83850190815261122a600284016138e9565b90604086019182526112a86003850154926001600160601b03926004868a0197858716895260808b0196881c875201549560a08a019687526112986112828a60c06040519d8e9d8e5251918d015260e08c01906136af565b925192601f1993848c83030160408d01526136af565b92519189840301908901526136af565b9351166080850152516001600160a01b031660a08401525160c08301520390f35b50346102eb5760203660031901126102eb5760ff60406020926004358152600684522054166040519015158152f35b50346102eb57806003193601126102eb5780545f1981019190821161132257602082604051908152f35b634e487b7160e01b81526011600452602490fd5b50346102eb5760403660031901126102eb576113506136ed565b6024359081151590818303610ab0576001600160a01b03169182156113c6576113979061137c33613879565b845f5260205260405f209060ff801983541691151516179055565b6040519081527f17307eab39ab6107e8899845ad3d59bd9653f200f220920489ca2b5937696c3160203392a380f35b604051630b61174360e31b815260048101849052602490fd5b50346102eb576103386113f1366139bb565b90916113fb614473565b60018060a01b03168452600b60205260408420908452602052604083209060ff801983541691151516179055565b50346102eb57806003193601126102eb576040517f80bb2b638cc20bc4d0a60d66940f3ab4a00c1d7b313497ca82fb0b4ab00793018054825f61146b836138b1565b92838352602094600191866001821691825f146115085750506001146114ae575b505061149a9250038361374f565b610b5d6040519282849384528301906136af565b8592505f527ff4bad0a69248f59680a4f2b3000328cec71a413447c96781cfe5996daa8c456e905f915b8583106114f057505061149a9350820101858061148c565b805483890185015287945086939092019181016114d8565b925093505061149a94915060ff191682840152151560051b820101858061148c565b5034610ab0576060366003190112610ab0576115446136ed565b6024356001600160401b038111610ab05761156390369060040161398b565b8015611884575f5b81811061182357506115806044355f54613ed2565b61158d6005548092613ed2565b5f19810191908211610f56576115aa6115b3926001541015613e44565b60443590613ed2565b6005556115c1600454613ec4565b908160045560405193608085018581106001600160401b038211176117c5576040526001600160a01b03168085526044356020860152936116018261382a565b61160e604051918261374f565b82815260208101368460051b870111610ab05785905b8460051b870182106118135750506040820190815260608201905f8252845f52600f602052602060405f209360018060a01b038151166001600160601b0360a01b86541617855501516001840155600283019051908151916001600160401b0383116117c5576801000000000000000083116117c55760209082548484558085106117f8575b5001905f5260205f205f5b8381106117e457505050509060036116dd9251151591019060ff801983541691151516179055565b6012546116e981613ec4565b6012555f9081526013602052604090208290556010546001600160a01b0316803b15610ab0575f8091604460405180948193631b739ef160e01b8352886004840152833560248401525af180156117d9576117a9575b50604080519283526044356020840152606090830181905282018190526001600160fb1b0381116117a55781817fd6b1e2266ea2925e60676b4f379eee486e4dadb414d434b018703847198d813f9460809360051b908484013760051b8101030190a280f35b8480fd5b9094506001600160401b0381116117c5576040525f935f61173f565b634e487b7160e01b5f52604160045260245ffd5b6040513d5f823e3d90fd5b6001906020845194019381840155016116b5565b61180d90845f5285845f209182019101613a21565b5f6116aa565b8135815260209182019101611624565b600190335f526020600b815260405f209061183f838688613f07565b355f525260ff60405f2054168015611861575b61185b90613e06565b0161156b565b5061185b828060a01b035f80516020614536833981519152541633149050611852565b60405162461bcd60e51b8152602060048201526016602482015275139bc81b585cdd195c8812511cc81c1c9bdd9a59195960521b6044820152606490fd5b34610ab0575f366003190112610ab0575f80516020614536833981519152546040516001600160a01b039091168152602090f35b34610ab0576020366003190112610ab0576004355f52600a602052602060405f2054604051908152f35b34610ab0575f366003190112610ab057611938614473565b61194061425e565b5f80516020614576833981519152600160ff198254161790557f62e78cea01bee320cd4e420270b5ea74000d11b0c9f74754ebdbfc544b05a2586020604051338152a1005b34610ab0576020366003190112610ab0576004355f52600f602052606060405f2060018060a01b038154169060ff600360018301549201541690604051928352602083015215156040820152f35b34610ab0576119e136613814565b905f52600960205260405f20905f52602052602060ff60405f2054166040519015158152f35b34610ab0575f366003190112610ab05760205f54604051908152f35b34610ab0575f366003190112610ab057611a3b614473565b5f8051602061453683398151915280546001600160a01b031981169091555f906001600160a01b03167f8be0079c531659141344cd1fd0a4f28419497f9722a3daafe3b4186f6b6457e08280a3005b34610ab0576020366003190112610ab057611aa36136ed565b6001600160a01b03811615611ac657611abd602091613841565b54604051908152f35b6040516322718ad960e21b81525f6004820152602490fd5b34610ab0576020366003190112610ab057600435611afa614473565b5f545f198101908111610f56578110611b1257600155005b60405162461bcd60e51b815260206004820152601b60248201527f43616e6e6f7420736574206c657373207468616e206d696e74656400000000006044820152606490fd5b34610ab0575f366003190112610ab0576040516002545f82611b78836138b1565b91828252602093600190856001821691825f14611bee575050600114611ba6575b5061149a9250038361374f565b84915060025f525f80516020614516833981519152905f915b858310611bd657505061149a935082010185611b99565b80548389018501528794508693909201918101611bbf565b60ff19168582015261149a95151560051b8501019250879150611b999050565b34610ab0575f366003190112610ab0576020600454604051908152f35b34610ab0576040366003190112610ab0576001600160a01b03611c4c6136ed565b165f52600b60205260405f206024355f52602052602060ff60405f2054166040519015158152f35b34610ab0576020366003190112610ab0576020611c926004356141c4565b6040516001600160a01b039091168152f35b34610ab0575f366003190112610ab057602060ff5f8051602061457683398151915254166040519015158152f35b34610ab0575f366003190112610ab0576020601154604051908152f35b34610ab057602080600319360112610ab0576001600160401b03600435818111610ab057611d219036906004016137c1565b91611d2a614473565b82519182116117c557611d4782611d426002546138b1565b613a37565b602090601f8311600114611d8657508190611d76935f92611d7b5750508160011b915f199060031b1c19161790565b600255005b01519050838061075b565b90601f1983169360025f525f80516020614516833981519152925f905b868210611dd95750508360019510611dc1575b505050811b01600255005b01515f1960f88460031b161c19169055828080611db6565b80600185968294968601518155019501930190611da3565b34610ab057602080600319360112610ab057600435611e0e614288565b805f52600a825260405f2054335f52600c835260405f20905f52825260ff60405f2054168015611f53575b15611f1a57611e4661425e565b611e4f816141c4565b50805f526008825260405f205415611ee157805f526008825260405f20918254908115610f56577f1f578273dff496d7ffbd4ee7e1a35b80c7e32ea1d3c7a2f2a0e9698a54cd762a936008925f19019055825f525260405f2054611ecb6040519283924291846040919493926060820195825260208201520152565b0390a160015f805160206145b683398151915255005b60405162461bcd60e51b81526004810183905260116024820152704e6f2072656d61696e696e67207573657360781b6044820152606490fd5b60405162461bcd60e51b8152600481018390526011602482015270139bc81058d8d95cdcc81d1bc8195a591d607a1b6044820152606490fd5b505f80516020614536833981519152546001600160a01b03163314611e39565b34610ab05760a0366003190112610ab057611f8c6136ed565b608435906001600160401b038211610ab05736602383011215610ab0578160040135611fb78161382a565b92611fc5604051948561374f565b8184526024602085019260051b82010190368211610ab05760248101925b82841061259a578585335f52600b60205260405f206044355f5260205260ff60405f205416801561257a575b61201890613e06565b61202061425e565b612028614288565b606435916120396024355f54613ed2565b805f19810111610f5657600154612054915f19011115613e44565b6044355f52600660205261206e60ff60405f205416613e85565b602435815103612535575f5b60243581106120965760015f805160206145b683398151915255005b5f546120a181613ec4565b5f556120ad81856142b7565b805f52600660205260405f2060ff198154169055600a60205260443560405f20555f945b6044355f52600960205260405f20815f5260205260ff60405f205416156121505760018091019501936103e885101561210b5793946120d1565b60405162461bcd60e51b815260206004820152601f60248201527f5072696e74206e756d626572207363616e206c696d69742072656163686564006044820152606490fd5b9450805f5260076020528460405f20556044355f52600960205260405f20855f5260205260405f20600160ff198254161790556044355f52600d60205260405f206004604051916121a083613719565b6121a9816138e9565b83526121b7600182016138e9565b60208401526121c8600282016138e9565b604084015260038101546001600160601b038116606085015260601c608084015201548060a0830152825f52600860205260405f20556122088385613edf565b516040820152815f52600d60205260405f209080518051906001600160401b0382116117c5576122428261223c86546138b1565b86613a84565b602090601f83116001146124cd5761227092915f91836124545750508160011b915f199060031b1c19161790565b82555b60208101518051906001600160401b0382116117c5576122a38261229a60018701546138b1565b60018701613a84565b602090601f831160011461245f576122d192915f91836124545750508160011b915f199060031b1c19161790565b60018301555b60408101518051906001600160401b0382116117c557612307826122fe60028701546138b1565b60028701613a84565b602090601f83116001146123df57926123408360049460a09460019a9998975f926123d45750508160011b915f199060031b1c19161790565b60028501555b606081810151608083015189851b8a90031690911b6001600160601b0319166001600160601b03919091161760038501550151910155805f5260086020525f805160206145568339815191526123cb60405f20546040519182918a888060a01b038b169660443590859094939260609260808301968352602083015260408201520152565b0390a20161207a565b015190508d8061075b565b90600285015f5260205f20915f5b601f198516811061243c57508360a093600199989796938a93600497601f19811610612424575b505050811b016002850155612346565b01515f1960f88460031b161c191690558c8080612414565b919260206001819286850151815501940192016123ed565b015190508a8061075b565b9190600185015f5260205f20905f935b601f19841685106124b2576001945083601f1981161061249a575b505050811b0160018301556122d7565b01515f1960f88460031b161c1916905589808061248a565b8181015183556020948501946001909301929091019061246f565b9190845f5260205f20905f935b601f198416851061251a576001945083601f19811610612502575b505050811b018255612273565b01515f1960f88460031b161c191690558980806124f5565b818101518355602094850194600190930192909101906124da565b60405162461bcd60e51b815260206004820152601d60248201527f4d657461646174612055524c73206c656e677468206d69736d617463680000006044820152606490fd5b505f80516020614536833981519152546001600160a01b0316331461200f565b83356001600160401b038111610ab0576020916125be8392602436918701016137c1565b815201930192611fe3565b34610ab0575f366003190112610ab0576020600554604051908152f35b34610ab0576020366003190112610ab057600435805f525f805160206145968339815191528060205260018060a01b03908160405f205416913315159081612690575b5050905f9181612672575b8383526020526040822080546001600160a01b03191690557fddf252ad1be2c89b69c2b068fc378daa952ba7f163c4a11628f55a4df523b3ef8280a4005b61267b846144ab565b61268482613841565b83198154019055612634565b816126e0575b50156126a3578380612629565b506126c05760249060405190637e27328960e01b82526004820152fd5b60405163177e802f60e01b81523360048201526024810191909152604490fd5b3384149150811561271f575b81156126fa575b5084612696565b9050835f525f805160206145d6833981519152602052339060405f20541614846126f3565b905061272a83613879565b335f5260205260ff60405f205416906126ec565b34610ab05761276561274f366137df565b906040519261275d84613734565b5f8452613f17565b005b34610ab0575f366003190112610ab05761277f614473565b5f80516020614576833981519152805460ff8116156127ca5760ff191690557f5db9ee0a495bf2e6ff9c91a7834c1ba4fdd244a5e8aa4e537bd38aeae4b073aa6020604051338152a1005b604051638dfc202b60e01b8152600490fd5b34610ab0576080366003190112610ab0576127f56136ed565b6064356001600160401b038111610ab0576128149036906004016137c1565b90335f52600b60205260405f206024355f5260205260ff60405f2054168015612d07575b61284190613e06565b61284961425e565b612851614288565b5f5490612862600154831115613e44565b6024355f52600660205261287c60ff60405f205416613e85565b6024355f52600960205260405f206044355f5260205260ff60405f205416612cc2576128a782613ec4565b5f556128b382826142b7565b815f52600660205260405f2060ff198154169055600a60205260243560405f2055600760205260443560405f20556024355f52600d60205260405f20926004604051946128ff86613719565b612908816138e9565b8652612916600182016138e9565b6020870152612927600282016138e9565b5060038101546001600160601b038116606088015260601c6080870152015460a08501526040840152815f52600d60205260405f209280518051906001600160401b0382116117c5576129848261297e88546138b1565b88613a84565b602090601f8311600114612c5a576129b292915f9183612be15750508160011b915f199060031b1c19161790565b84555b60208101518051906001600160401b0382116117c5576129e5826129dc60018901546138b1565b60018901613a84565b602090601f8311600114612bec57612a1392915f9183612be15750508160011b915f199060031b1c19161790565b60018501555b60408101519384516001600160401b0381116117c557602095612a438261080060028601546138b1565b8690601f8311600114612b67579180612a81925f805160206145568339815191529695945f92612b5c5750508160011b915f199060031b1c19161790565b60028201555b606080830151608084015190911b6001600160601b0319166001600160601b03919091161760038201556001600160a01b039160049060a001519101556024355f526009855260405f206044355f52855260405f20600160ff198254161790556024355f52600d8552600460405f200154845f526008865260405f2055600d8552600460405f20015492612b40604051928392169460443560243588859094939260609260808301968352602083015260408201520152565b0390a260015f805160206145b683398151915255604051908152f35b01519050898061075b565b90600284015f52875f20915f5b601f1985168110612bca57509183916001935f80516020614556833981519152979695601f19811610612bb2575b505050811b016002820155612a87565b01515f1960f88460031b161c19169055888080612ba2565b919289600181928685015181550194019201612b74565b01519050878061075b565b9190600187015f5260205f20905f935b601f1984168510612c3f576001945083601f19811610612c27575b505050811b016001850155612a19565b01515f1960f88460031b161c19169055868080612c17565b81810151835560209485019460019093019290910190612bfc565b9190865f5260205f20905f935b601f1984168510612ca7576001945083601f19811610612c8f575b505050811b0184556129b5565b01515f1960f88460031b161c19169055868080612c82565b81810151835560209485019460019093019290910190612c67565b60405162461bcd60e51b815260206004820152601b60248201527f5072696e74206e756d62657220616c72656164792065786973747300000000006044820152606490fd5b505f80516020614536833981519152546001600160a01b03163314612838565b34610ab0575f366003190112610ab0576010546040516001600160a01b039091168152602090f35b34610ab057612d66612d6036613814565b90613d5c565b604080516001600160a01b03939093168352602083019190915290f35b34610ab057612765612d94366137df565b91613b91565b34610ab0576060366003190112610ab057600435612db6613703565b90604435906001600160601b038216809203610ab057612dd5816141c4565b505f80516020614536833981519152546001600160a01b0390811633148015612e7f575b612e0290613abc565b831615612e47575f52600d602052612e36600360405f20019283906001600160601b0382549181199060601b169116179055565b81546001600160601b031916179055005b60405162461bcd60e51b815260206004820152601060248201526f24b73b30b634b2103932b1b2b4bb32b960811b6044820152606490fd5b50612e0281612e8d846141c4565b1633149050612df9565b34610ab0576020366003190112610ab0576004355f526007602052602060405f2054604051908152f35b34610ab0576020366003190112610ab0576004355f526008602052602060405f2054604051908152f35b34610ab05760c0366003190112610ab0576001600160401b03600435818111610ab057612f1c9036906004016137c1565b90602435818111610ab057612f359036906004016137c1565b91606435828111610ab057612f4e9036906004016137c1565b926001600160a01b0390608435908282168203610ab05760a435928316809303610ab0577ff0c57e16840df040f15088dc2f81fe391c3923bec73e23a9662efc9c229c6a009485549660ff8860401c16159582891698891580613416575b6001809b14908161340c575b159081613403575b506133f15767ffffffffffffffff1981168a178955876133d2575b50604435895581518381116117c557612ff981611d426002546138b1565b6020601f938483116001146133675761302892915f91836132955750508160011b915f199060031b1c19161790565b6002555b6130346144d4565b61303c6144d4565b80518381116117c5577f80bb2b638cc20bc4d0a60d66940f3ab4a00c1d7b313497ca82fb0b4ab00793009161307183546138b1565b84811161331c575b506020908483116001146132a0576130a792915f91836132955750508160011b915f199060031b1c19161790565b90555b82519182116117c5577f80bb2b638cc20bc4d0a60d66940f3ab4a00c1d7b313497ca82fb0b4ab0079301926130df84546138b1565b828111613240575b5060209183116001146131bd57918061311a9261315b9695945f926124545750508160011b915f199060031b1c19161790565b90555b6131256144d4565b61312d6144d4565b855f805160206145b6833981519152556131456144d4565b61314d6144d4565b61315681614194565b61420a565b6131636144d4565b6001600160601b0360a01b6010541617601055825f5561317f57005b805468ff0000000000000000191690556040519081527fc7f505b2f371ae2175ee4913f4499e1f2633a7b5936321eed1cdaeb6115181d290602090a1005b9392918891601f19821690845f527ff4bad0a69248f59680a4f2b3000328cec71a413447c96781cfe5996daa8c456e915f5b8181106132285750968361315b9810613210575b505050811b01905561311d565b01515f1960f88460031b161c19169055898080613203565b8289015184558c9590930192602092830192016131ef565b61328690855f527ff4bad0a69248f59680a4f2b3000328cec71a413447c96781cfe5996daa8c456e8480870160051c8201926020881061328c575b0160051c0190613a21565b896130e7565b9250819261327b565b015190508c8061075b565b8b9291601f19831691855f527f37c58c799b6609234b945e882912ee9ad34948a1dfaa20a97485e1a7752bbf81925f5b818110613304575084116132ec575b505050811b0190556130aa565b01515f1960f88460031b161c191690558b80806132df565b8284015185558f9690940193602093840193016132d0565b61336190845f527f37c58c799b6609234b945e882912ee9ad34948a1dfaa20a97485e1a7752bbf818680860160051c8201926020871061328c570160051c0190613a21565b8b613079565b8b9291601f1983169160025f525f80516020614516833981519152925f5b8181106133ba575084116133a2575b505050811b0160025561302c565b01515f1960f88460031b161c191690558b8080613394565b8284015185558f969094019360209384019301613385565b68ffffffffffffffffff19166801000000000000000117885589612fdb565b60405163f92ee8a960e01b8152600490fd5b9050158b612fc0565b303b159150612fb8565b5087612fac565b34610ab0576040366003190112610ab0576134366136ed565b602435613442816141c4565b331515806134ec575b806134ce575b6134b6576001600160a01b039283169282918491167f8c5be1e5ebec7d5bd14f71427d1e84f3dd0314c0f7b2291e5b200ac8c7c3b9255f80a45f9081525f805160206145d68339815191526020526040902080546001600160a01b0319169091179055005b60405163a9fbf51f60e01b8152336004820152602490fd5b506134d881613879565b335f5260205260ff60405f20541615613451565b506001600160a01b03811633141561344b565b34610ab0576020366003190112610ab05760043561351c816141c4565b505f525f805160206145d6833981519152602052602060018060a01b0360405f205416604051908152f35b34610ab0575f366003190112610ab0576040517f80bb2b638cc20bc4d0a60d66940f3ab4a00c1d7b313497ca82fb0b4ab00793008054825f613588836138b1565b92838352602094600191866001821691825f146115085750506001146135b657505061149a9250038361374f565b8592505f527f37c58c799b6609234b945e882912ee9ad34948a1dfaa20a97485e1a7752bbf81905f915b8583106135f857505061149a9350820101858061148c565b805483890185015287945086939092019181016135e0565b34610ab0576020366003190112610ab0576004359063ffffffff60e01b8216809203610ab05760209163152a902d60e11b8114908115613652575b5015158152f35b632483248360e11b81149150811561366c575b508361364b565b6380ac58cd60e01b81149150811561369e575b811561368d575b5083613665565b6301ffc9a760e01b14905083613686565b635b5e139f60e01b8114915061367f565b91908251928382525f5b8481106136d9575050825f602080949584010152601f8019910116010190565b6020818301810151848301820152016136b9565b600435906001600160a01b0382168203610ab057565b602435906001600160a01b0382168203610ab057565b60c081019081106001600160401b038211176117c557604052565b602081019081106001600160401b038211176117c557604052565b90601f801991011681019081106001600160401b038211176117c557604052565b6001600160401b0381116117c557601f01601f191660200190565b92919261379782613770565b916137a5604051938461374f565b829481845281830111610ab0578281602093845f960137010152565b9080601f83011215610ab0578160206137dc9335910161378b565b90565b6060906003190112610ab0576001600160a01b03906004358281168103610ab057916024359081168103610ab0579060443590565b6040906003190112610ab0576004359060243590565b6001600160401b0381116117c55760051b60200190565b6001600160a01b03165f9081527f80bb2b638cc20bc4d0a60d66940f3ab4a00c1d7b313497ca82fb0b4ab00793036020526040902090565b6001600160a01b03165f9081527f80bb2b638cc20bc4d0a60d66940f3ab4a00c1d7b313497ca82fb0b4ab00793056020526040902090565b90600182811c921680156138df575b60208310146138cb57565b634e487b7160e01b5f52602260045260245ffd5b91607f16916138c0565b9060405191825f82546138fb816138b1565b908184526020946001916001811690815f14613969575060011461392b575b5050506139299250038361374f565b565b5f90815285812095935091905b81831061395157505061392993508201015f808061391a565b85548884018501529485019487945091830191613938565b9250505061392994925060ff191682840152151560051b8201015f808061391a565b9181601f84011215610ab0578235916001600160401b038311610ab0576020808501948460051b010111610ab057565b6060906003190112610ab0576004356001600160a01b0381168103610ab057906024358015158103610ab0579060443590565b9081518082526020808093019301915f5b828110613a0d575050505090565b8351855293810193928101926001016139ff565b818110613a2c575050565b5f8155600101613a21565b90601f8211613a44575050565b6139299160025f525f80516020614516833981519152906020601f840160051c83019310613a7a575b601f0160051c0190613a21565b9091508190613a6d565b9190601f8111613a9357505050565b613929925f5260205f20906020601f840160051c83019310613a7a57601f0160051c0190613a21565b15613ac357565b60405162461bcd60e51b815260206004820152600e60248201526d139bdd08185d5d1a1bdc9a5e995960921b6044820152606490fd5b15613b0057565b60405162461bcd60e51b815260206004820152601c60248201527f5472616e73666572206c6f636b656420666f722074686973204e4654000000006044820152606490fd5b15613b4c57565b60405162461bcd60e51b815260206004820152601960248201527f4e465420686173206e6f2072656d61696e696e672075736573000000000000006044820152606490fd5b91805f526020600e8152604093613bae60ff865f20541615613af9565b825f5260088252613bc3855f20541515613b45565b6001600160a01b0391848316908115613d4557908491825f525f805160206145968339815191529081815285895f2054169733151580613ca0575b50613c0d9089613c8257613841565b60018154019055835f5252865f20816001600160601b0360a01b825416179055857fddf252ad1be2c89b69c2b068fc378daa952ba7f163c4a11628f55a4df523b3ef5f80a41692838303613c615750505050565b6064945051926364283d7b60e01b8452600484015260248301526044820152fd5b613c8b866144ab565b613c948a613841565b80545f19019055613841565b8091929394955090613cf9575b15613cbd5790869392915f613bfe565b888789613cda576024915190637e27328960e01b82526004820152fd5b905163177e802f60e01b81523360048201526024810191909152604490fd5b503388148015613d2a575b80613cad5750865f525f805160206145d6833981519152825233868a5f20541614613cad565b50613d3488613879565b335f52825260ff895f205416613d04565b8651633250574960e11b81525f6004820152602490fd5b9190915f52600d60205260405f209160405190613d7882613719565b613d81846138e9565b8252613d8f600185016138e9565b6020830152613da0600285016138e9565b604083015260038401549160a060046001600160601b0385169485606085015260601c96876080850152015491015283158015613dfe575b613df457818102918183041490151715610f5657612710900490565b505090505f905f90565b508115613dd8565b15613e0d57565b60405162461bcd60e51b815260206004820152600f60248201526e139bdd081dda1a5d195b1a5cdd1959608a1b6044820152606490fd5b15613e4b57565b60405162461bcd60e51b815260206004820152601260248201527145786365656473206d617820737570706c7960701b6044820152606490fd5b15613e8c57565b60405162461bcd60e51b815260206004820152601060248201526f125b9d985b1a59081b585cdd195c925960821b6044820152606490fd5b5f198114610f565760010190565b91908201809211610f5657565b8051821015613ef35760209160051b010190565b634e487b7160e01b5f52603260045260245ffd5b9190811015613ef35760051b0190565b919091815f52602093600e8552604092613f3760ff855f20541615613af9565b805f5260088652613f4c845f20541515613b45565b613f57818685613b91565b843b613f66575b505050505050565b94809693949560018060a01b0380971696613faf87519485938493630a85bd0160e11b9889865233600487015216602485015260448401526080606484015260848301906136af565b03815f895af15f9181614053575b5061401b575050503d5f14614013573d92613fd784613770565b93613fe48351958661374f565b84523d5f8286013e5b8351938461400d578251633250574960e11b815260048101859052602490fd5b84925001fd5b606092613fed565b9194506001600160e01b03199091160361403c5750505f8080808080613f5e565b602492505190633250574960e11b82526004820152fd5b9091508681813d831161408c575b61406b818361374f565b81010312610ab057516001600160e01b031981168103610ab057905f613fbd565b503d614061565b811561409d570690565b634e487b7160e01b5f52601260045260245ffd5b90808214614190576140c381546138b1565b906001600160401b0382116117c5576140e6826140e085546138b1565b85613a84565b5f90601f83116001146141225761411392915f91836141175750508160011b915f199060031b1c19161790565b9055565b015490505f8061075b565b90601f198316915f5260209160205f2090855f5260205f20935f905b82821061417757505090846001959493921061415f575b505050811b019055565b01545f1960f88460031b161c191690555f8080614155565b849581929585015481556001809101960194019061413e565b5050565b6001600160a01b038116156141ac576139299061420a565b604051631e4fbdf760e01b81525f6004820152602490fd5b5f8181525f8051602061459683398151915260205260409020546001600160a01b03169081156141f2575090565b60249060405190637e27328960e01b82526004820152fd5b5f8051602061453683398151915280546001600160a01b039283166001600160a01b0319821681179092559091167f8be0079c531659141344cd1fd0a4f28419497f9722a3daafe3b4186f6b6457e05f80a3565b60ff5f80516020614576833981519152541661427657565b60405163d93c066560e01b8152600490fd5b5f805160206145b683398151915260028154146142a55760029055565b604051633ee5aeb560e01b8152600490fd5b60408051926142c584613734565b5f84526001600160a01b039383851693841561445c57825f525f805160206145968339815191528386602098838a52875f205416801515938461443e575b61430c86613841565b60018154019055835f528a52875f20826001600160601b0360a01b8254161790557fddf252ad1be2c89b69c2b068fc378daa952ba7f163c4a11628f55a4df523b3ef5f80a4614427573b614362575b5050505050565b8461439f9184959697945180938192630a85bd0160e11b968784523360048501525f602485015260448401526080606484015260848301906136af565b03815f895af15f91816143e7575b506143c7575050503d5f14614013573d92613fd784613770565b9194506001600160e01b03199091160361403c5750505f8080808061435b565b9091508681813d8311614420575b6143ff818361374f565b81010312610ab057516001600160e01b031981168103610ab057905f6143ad565b503d6143f5565b83516339e3563760e11b81525f6004820152602490fd5b614447846144ab565b61445082613841565b80545f19019055614303565b8351633250574960e11b81525f6004820152602490fd5b5f80516020614536833981519152546001600160a01b0316330361449357565b60405163118cdaa760e01b8152336004820152602490fd5b5f525f805160206145d683398151915260205260405f206001600160601b0360a01b8154169055565b60ff7ff0c57e16840df040f15088dc2f81fe391c3923bec73e23a9662efc9c229c6a005460401c161561450357565b604051631afcd79f60e31b8152600490fdfe405787fa12a823e0f2b7631cc41b3ba8828b3321ca811111fa75cd3aa3bb5ace9016d09d72d40fdae2fd8ceac6b6234c7706214fd39c1cd1e609a0528c199300060b3ebf0f3fed8201b43b0e7e834e2148fb17ec1489260bffb34e430cca9872cd5ed15c6e187e77e9aee88184c21f4f2182ab5827cb3b7e07fbedcd63f0330080bb2b638cc20bc4d0a60d66940f3ab4a00c1d7b313497ca82fb0b4ab00793029b779b17422d0df92223018b32b4d1fa46e071723d6817e2486d003becc55f0080bb2b638cc20bc4d0a60d66940f3ab4a00c1d7b313497ca82fb0b4ab0079304a2646970667358221220203d8702d6329cf7f339ee4c6d02c5c01ed4a202743d65dad20d893344a7d42564736f6c63430008170033","linkReferences":{}},"methodIdentifiers":{"approve(address,uint256)":"095ea7b3","balanceOf(address)":"70a08231","baseURI()":"6c0360eb","burn(uint256)":"42966c68","editer()":"fe8f09c0","fromMaster(uint256)":"8ad20e69","getApproved(uint256)":"081812fc","getMetadata(uint256)":"a574cea4","initialize(string,string,uint256,string,address,address)":"09a7ea7b","isApprovedForAll(address,address)":"e985e9c5","isEditer(address,uint256)":"da3f5f5b","isMaster(uint256)":"a3c6b127","isPrintExist(uint256,uint256)":"78ba76d5","isWhiteListed(address,uint256)":"6441f8f1","lockTransfer(uint256)":"d9852f8d","maxSupply()":"d5abeb01","metadata(uint256)":"e3684e39","mintBatchPrintEditionByOrder(address,uint256,uint256,uint256,string[])":"4daf1ac5","mintBatchPrintEditionRandomMasters(address,uint256[],uint256)":"8dccfc69","mintMaster(address,(string,string,string,uint96,address,uint256))":"d1a45840","mintPrintEdition(address,uint256,uint256,string)":"2d872a48","name()":"06fdde03","nextRequestId()":"6a84a985","nextTokenId()":"75794a3c","owner()":"8da5cb5b","ownerOf(uint256)":"6352211e","pause()":"8456cb59","paused()":"5c975abb","pendingHead()":"5a0bc37c","pendingTail()":"e833b03f","printEditionNumber(uint256)":"103fb5d2","rawFulfillRandomWords(uint256[])":"c6ef9fc7","remainingUses(uint256)":"0c0b8633","renounceOwnership()":"715018a6","requests(uint256)":"81d12c58","reservedSupply()":"44d19d2b","royaltyInfo(uint256,uint256)":"2a55205a","safeTransferFrom(address,address,uint256)":"42842e0e","safeTransferFrom(address,address,uint256,bytes)":"b88d4fde","setApprovalForAll(address,bool)":"a22cb465","setBaseURI(string)":"55f804b3","setEditer(address,bool,uint256)":"f6485eea","setMaxSupply(uint256)":"6f8b44b0","setRoyaltyInfo(uint256,address,uint96)":"1495fa99","setVrfPod(address)":"bb875836","setWhiteList(address,bool,uint256)":"9b343a09","supportsInterface(bytes4)":"01ffc9a7","symbol()":"95d89b41","tokenURI(uint256)":"c87b56dd","totalMinted()":"a2309ff8","transferFrom(address,address,uint256)":"23b872dd","transferLocked(uint256)":"e00a4d22","transferOwnership(address)":"f2fde38b","unlockTransfer(uint256)":"bed62f35","unpause()":"3f4ba83a","useNFT(uint256)":"55b9d443","vrfPod()":"2d68b470"},"id":82}