{"abi":[{"type":"constructor","inputs":[],"stateMutability":"nonpayable"},{"type":"receive","stateMutability":"payable"},{"type":"function","name":"approve","inputs":[{"name":"to","type":"address","internalType":"address"},{"name":"tokenId","type":"uint256","internalType":"uint256"}],"outputs":[],"stateMutability":"nonpayable"},{"type":"function","name":"balanceOf","inputs":[{"name":"owner","type":"address","internalType":"address"}],"outputs":[{"name":"","type":"uint256","internalType":"uint256"}],"stateMutability":"view"},{"type":"function","name":"baseURI","inputs":[],"outputs":[{"name":"","type":"string","internalType":"string"}],"stateMutability":"view"},{"type":"function","name":"burn","inputs":[{"name":"tokenId","type":"uint256","internalType":"uint256"}],"outputs":[],"stateMutability":"nonpayable"},{"type":"function","name":"editer","inputs":[],"outputs":[{"name":"","type":"address","internalType":"address"}],"stateMutability":"view"},{"type":"function","name":"fromMaster","inputs":[{"name":"","type":"uint256","internalType":"uint256"}],"outputs":[{"name":"","type":"uint256","internalType":"uint256"}],"stateMutability":"view"},{"type":"function","name":"getApproved","inputs":[{"name":"tokenId","type":"uint256","internalType":"uint256"}],"outputs":[{"name":"","type":"address","internalType":"address"}],"stateMutability":"view"},{"type":"function","name":"getMetadata","inputs":[{"name":"tokenId","type":"uint256","internalType":"uint256"}],"outputs":[{"name":"","type":"tuple","internalType":"struct NFTManager.NFTMetadata","components":[{"name":"name","type":"string","internalType":"string"},{"name":"description","type":"string","internalType":"string"},{"name":"metadataURL","type":"string","internalType":"string"},{"name":"royaltyBps","type":"uint96","internalType":"uint96"},{"name":"royaltyReceiver","type":"address","internalType":"address"},{"name":"usageLimit","type":"uint256","internalType":"uint256"}]}],"stateMutability":"view"},{"type":"function","name":"initialize","inputs":[{"name":"name_","type":"string","internalType":"string"},{"name":"symbol_","type":"string","internalType":"string"},{"name":"maxSupply_","type":"uint256","internalType":"uint256"},{"name":"baseURI_","type":"string","internalType":"string"},{"name":"_initialOwner","type":"address","internalType":"address"},{"name":"_vrfPod","type":"address","internalType":"address"}],"outputs":[],"stateMutability":"nonpayable"},{"type":"function","name":"isApprovedForAll","inputs":[{"name":"owner","type":"address","internalType":"address"},{"name":"operator","type":"address","internalType":"address"}],"outputs":[{"name":"","type":"bool","internalType":"bool"}],"stateMutability":"view"},{"type":"function","name":"isEditer","inputs":[{"name":"","type":"address","internalType":"address"},{"name":"","type":"uint256","internalType":"uint256"}],"outputs":[{"name":"","type":"bool","internalType":"bool"}],"stateMutability":"view"},{"type":"function","name":"isMaster","inputs":[{"name":"","type":"uint256","internalType":"uint256"}],"outputs":[{"name":"","type":"bool","internalType":"bool"}],"stateMutability":"view"},{"type":"function","name":"isPrintExist","inputs":[{"name":"","type":"uint256","internalType":"uint256"},{"name":"","type":"uint256","internalType":"uint256"}],"outputs":[{"name":"","type":"bool","internalType":"bool"}],"stateMutability":"view"},{"type":"function","name":"isWhiteListed","inputs":[{"name":"","type":"address","internalType":"address"},{"name":"","type":"uint256","internalType":"uint256"}],"outputs":[{"name":"","type":"bool","internalType":"bool"}],"stateMutability":"view"},{"type":"function","name":"lockTransfer","inputs":[{"name":"tokenId","type":"uint256","internalType":"uint256"}],"outputs":[],"stateMutability":"nonpayable"},{"type":"function","name":"maxSupply","inputs":[],"outputs":[{"name":"","type":"uint256","internalType":"uint256"}],"stateMutability":"view"},{"type":"function","name":"metadata","inputs":[{"name":"","type":"uint256","internalType":"uint256"}],"outputs":[{"name":"name","type":"string","internalType":"string"},{"name":"description","type":"string","internalType":"string"},{"name":"metadataURL","type":"string","internalType":"string"},{"name":"royaltyBps","type":"uint96","internalType":"uint96"},{"name":"royaltyReceiver","type":"address","internalType":"address"},{"name":"usageLimit","type":"uint256","internalType":"uint256"}],"stateMutability":"view"},{"type":"function","name":"mintBatchPrintEditionByOrder","inputs":[{"name":"to","type":"address","internalType":"address"},{"name":"amount","type":"uint256","internalType":"uint256"},{"name":"masterId","type":"uint256","internalType":"uint256"},{"name":"startingPrintNumber","type":"uint256","internalType":"uint256"}],"outputs":[],"stateMutability":"nonpayable"},{"type":"function","name":"mintBatchPrintEditionRandomMasters","inputs":[{"name":"to","type":"address","internalType":"address"},{"name":"masterIds","type":"uint256[]","internalType":"uint256[]"},{"name":"totalAmount","type":"uint256","internalType":"uint256"}],"outputs":[],"stateMutability":"nonpayable"},{"type":"function","name":"mintMaster","inputs":[{"name":"to","type":"address","internalType":"address"},{"name":"md","type":"tuple","internalType":"struct NFTManager.NFTMetadata","components":[{"name":"name","type":"string","internalType":"string"},{"name":"description","type":"string","internalType":"string"},{"name":"metadataURL","type":"string","internalType":"string"},{"name":"royaltyBps","type":"uint96","internalType":"uint96"},{"name":"royaltyReceiver","type":"address","internalType":"address"},{"name":"usageLimit","type":"uint256","internalType":"uint256"}]}],"outputs":[{"name":"","type":"uint256","internalType":"uint256"}],"stateMutability":"nonpayable"},{"type":"function","name":"mintPrintEdition","inputs":[{"name":"to","type":"address","internalType":"address"},{"name":"masterId","type":"uint256","internalType":"uint256"},{"name":"printNumber","type":"uint256","internalType":"uint256"},{"name":"metadataURL","type":"string","internalType":"string"}],"outputs":[{"name":"","type":"uint256","internalType":"uint256"}],"stateMutability":"nonpayable"},{"type":"function","name":"name","inputs":[],"outputs":[{"name":"","type":"string","internalType":"string"}],"stateMutability":"view"},{"type":"function","name":"nextRequestId","inputs":[],"outputs":[{"name":"","type":"uint256","internalType":"uint256"}],"stateMutability":"view"},{"type":"function","name":"nextTokenId","inputs":[],"outputs":[{"name":"","type":"uint256","internalType":"uint256"}],"stateMutability":"view"},{"type":"function","name":"owner","inputs":[],"outputs":[{"name":"","type":"address","internalType":"address"}],"stateMutability":"view"},{"type":"function","name":"ownerOf","inputs":[{"name":"tokenId","type":"uint256","internalType":"uint256"}],"outputs":[{"name":"","type":"address","internalType":"address"}],"stateMutability":"view"},{"type":"function","name":"pause","inputs":[],"outputs":[],"stateMutability":"nonpayable"},{"type":"function","name":"paused","inputs":[],"outputs":[{"name":"","type":"bool","internalType":"bool"}],"stateMutability":"view"},{"type":"function","name":"pendingHead","inputs":[],"outputs":[{"name":"","type":"uint256","internalType":"uint256"}],"stateMutability":"view"},{"type":"function","name":"pendingTail","inputs":[],"outputs":[{"name":"","type":"uint256","internalType":"uint256"}],"stateMutability":"view"},{"type":"function","name":"printEditionNumber","inputs":[{"name":"","type":"uint256","internalType":"uint256"}],"outputs":[{"name":"","type":"uint256","internalType":"uint256"}],"stateMutability":"view"},{"type":"function","name":"rawFulfillRandomWords","inputs":[{"name":"randomWords","type":"uint256[]","internalType":"uint256[]"}],"outputs":[{"name":"","type":"uint256[]","internalType":"uint256[]"}],"stateMutability":"nonpayable"},{"type":"function","name":"remainingUses","inputs":[{"name":"","type":"uint256","internalType":"uint256"}],"outputs":[{"name":"","type":"uint256","internalType":"uint256"}],"stateMutability":"view"},{"type":"function","name":"renounceOwnership","inputs":[],"outputs":[],"stateMutability":"nonpayable"},{"type":"function","name":"requests","inputs":[{"name":"","type":"uint256","internalType":"uint256"}],"outputs":[{"name":"receiver","type":"address","internalType":"address"},{"name":"totalAmount","type":"uint256","internalType":"uint256"},{"name":"fulfilled","type":"bool","internalType":"bool"}],"stateMutability":"view"},{"type":"function","name":"reservedSupply","inputs":[],"outputs":[{"name":"","type":"uint256","internalType":"uint256"}],"stateMutability":"view"},{"type":"function","name":"royaltyInfo","inputs":[{"name":"tokenId","type":"uint256","internalType":"uint256"},{"name":"salePrice","type":"uint256","internalType":"uint256"}],"outputs":[{"name":"receiver","type":"address","internalType":"address"},{"name":"royaltyAmount","type":"uint256","internalType":"uint256"}],"stateMutability":"view"},{"type":"function","name":"safeTransferFrom","inputs":[{"name":"from","type":"address","internalType":"address"},{"name":"to","type":"address","internalType":"address"},{"name":"tokenId","type":"uint256","internalType":"uint256"}],"outputs":[],"stateMutability":"nonpayable"},{"type":"function","name":"safeTransferFrom","inputs":[{"name":"from","type":"address","internalType":"address"},{"name":"to","type":"address","internalType":"address"},{"name":"tokenId","type":"uint256","internalType":"uint256"},{"name":"data","type":"bytes","internalType":"bytes"}],"outputs":[],"stateMutability":"nonpayable"},{"type":"function","name":"setApprovalForAll","inputs":[{"name":"operator","type":"address","internalType":"address"},{"name":"approved","type":"bool","internalType":"bool"}],"outputs":[],"stateMutability":"nonpayable"},{"type":"function","name":"setBaseURI","inputs":[{"name":"_uri","type":"string","internalType":"string"}],"outputs":[],"stateMutability":"nonpayable"},{"type":"function","name":"setEditer","inputs":[{"name":"operator","type":"address","internalType":"address"},{"name":"approved","type":"bool","internalType":"bool"},{"name":"masterId","type":"uint256","internalType":"uint256"}],"outputs":[],"stateMutability":"nonpayable"},{"type":"function","name":"setMaxSupply","inputs":[{"name":"maxSupply_","type":"uint256","internalType":"uint256"}],"outputs":[],"stateMutability":"nonpayable"},{"type":"function","name":"setRoyaltyInfo","inputs":[{"name":"tokenId","type":"uint256","internalType":"uint256"},{"name":"receiver","type":"address","internalType":"address"},{"name":"royaltyBps","type":"uint96","internalType":"uint96"}],"outputs":[],"stateMutability":"nonpayable"},{"type":"function","name":"setVrfPod","inputs":[{"name":"_vrfPod","type":"address","internalType":"address"}],"outputs":[],"stateMutability":"nonpayable"},{"type":"function","name":"setWhiteList","inputs":[{"name":"operator","type":"address","internalType":"address"},{"name":"approved","type":"bool","internalType":"bool"},{"name":"masterId","type":"uint256","internalType":"uint256"}],"outputs":[],"stateMutability":"nonpayable"},{"type":"function","name":"supportsInterface","inputs":[{"name":"interfaceId","type":"bytes4","internalType":"bytes4"}],"outputs":[{"name":"","type":"bool","internalType":"bool"}],"stateMutability":"view"},{"type":"function","name":"symbol","inputs":[],"outputs":[{"name":"","type":"string","internalType":"string"}],"stateMutability":"view"},{"type":"function","name":"tokenURI","inputs":[{"name":"tokenId","type":"uint256","internalType":"uint256"}],"outputs":[{"name":"","type":"string","internalType":"string"}],"stateMutability":"view"},{"type":"function","name":"totalMinted","inputs":[],"outputs":[{"name":"","type":"uint256","internalType":"uint256"}],"stateMutability":"view"},{"type":"function","name":"transferFrom","inputs":[{"name":"from","type":"address","internalType":"address"},{"name":"to","type":"address","internalType":"address"},{"name":"tokenId","type":"uint256","internalType":"uint256"}],"outputs":[],"stateMutability":"nonpayable"},{"type":"function","name":"transferLocked","inputs":[{"name":"","type":"uint256","internalType":"uint256"}],"outputs":[{"name":"","type":"bool","internalType":"bool"}],"stateMutability":"view"},{"type":"function","name":"transferOwnership","inputs":[{"name":"newOwner","type":"address","internalType":"address"}],"outputs":[],"stateMutability":"nonpayable"},{"type":"function","name":"unlockTransfer","inputs":[{"name":"tokenId","type":"uint256","internalType":"uint256"}],"outputs":[],"stateMutability":"nonpayable"},{"type":"function","name":"unpause","inputs":[],"outputs":[],"stateMutability":"nonpayable"},{"type":"function","name":"useNFT","inputs":[{"name":"tokenId","type":"uint256","internalType":"uint256"}],"outputs":[],"stateMutability":"nonpayable"},{"type":"function","name":"vrfPod","inputs":[],"outputs":[{"name":"","type":"address","internalType":"contract IVrfPod"}],"stateMutability":"view"},{"type":"event","name":"Approval","inputs":[{"name":"owner","type":"address","indexed":true,"internalType":"address"},{"name":"approved","type":"address","indexed":true,"internalType":"address"},{"name":"tokenId","type":"uint256","indexed":true,"internalType":"uint256"}],"anonymous":false},{"type":"event","name":"ApprovalForAll","inputs":[{"name":"owner","type":"address","indexed":true,"internalType":"address"},{"name":"operator","type":"address","indexed":true,"internalType":"address"},{"name":"approved","type":"bool","indexed":false,"internalType":"bool"}],"anonymous":false},{"type":"event","name":"BatchMetadataUpdate","inputs":[{"name":"_fromTokenId","type":"uint256","indexed":false,"internalType":"uint256"},{"name":"_toTokenId","type":"uint256","indexed":false,"internalType":"uint256"}],"anonymous":false},{"type":"event","name":"Initialized","inputs":[{"name":"version","type":"uint64","indexed":false,"internalType":"uint64"}],"anonymous":false},{"type":"event","name":"MetadataUpdate","inputs":[{"name":"_tokenId","type":"uint256","indexed":false,"internalType":"uint256"}],"anonymous":false},{"type":"event","name":"MintCompleted","inputs":[{"name":"requestId","type":"uint256","indexed":false,"internalType":"uint256"},{"name":"chosenMasterIds","type":"uint256[]","indexed":false,"internalType":"uint256[]"}],"anonymous":false},{"type":"event","name":"MintRequested","inputs":[{"name":"requestId","type":"uint256","indexed":false,"internalType":"uint256"},{"name":"to","type":"address","indexed":true,"internalType":"address"},{"name":"totalAmount","type":"uint256","indexed":false,"internalType":"uint256"},{"name":"masterIds","type":"uint256[]","indexed":false,"internalType":"uint256[]"}],"anonymous":false},{"type":"event","name":"MintedNFT","inputs":[{"name":"to","type":"address","indexed":true,"internalType":"address"},{"name":"tokenId","type":"uint256","indexed":false,"internalType":"uint256"},{"name":"masterId","type":"uint256","indexed":false,"internalType":"uint256"},{"name":"printNumber","type":"uint256","indexed":false,"internalType":"uint256"},{"name":"usageLimit","type":"uint256","indexed":false,"internalType":"uint256"}],"anonymous":false},{"type":"event","name":"NFTUsed","inputs":[{"name":"tokenID","type":"uint256","indexed":false,"internalType":"uint256"},{"name":"remainingUses","type":"uint256","indexed":false,"internalType":"uint256"},{"name":"timestamp","type":"uint256","indexed":false,"internalType":"uint256"}],"anonymous":false},{"type":"event","name":"OwnershipTransferred","inputs":[{"name":"previousOwner","type":"address","indexed":true,"internalType":"address"},{"name":"newOwner","type":"address","indexed":true,"internalType":"address"}],"anonymous":false},{"type":"event","name":"Paused","inputs":[{"name":"account","type":"address","indexed":false,"internalType":"address"}],"anonymous":false},{"type":"event","name":"Received","inputs":[{"name":"sender","type":"address","indexed":true,"internalType":"address"},{"name":"amount","type":"uint256","indexed":false,"internalType":"uint256"}],"anonymous":false},{"type":"event","name":"Transfer","inputs":[{"name":"from","type":"address","indexed":true,"internalType":"address"},{"name":"to","type":"address","indexed":true,"internalType":"address"},{"name":"tokenId","type":"uint256","indexed":true,"internalType":"uint256"}],"anonymous":false},{"type":"event","name":"Unpaused","inputs":[{"name":"account","type":"address","indexed":false,"internalType":"address"}],"anonymous":false},{"type":"error","name":"ERC721IncorrectOwner","inputs":[{"name":"sender","type":"address","internalType":"address"},{"name":"tokenId","type":"uint256","internalType":"uint256"},{"name":"owner","type":"address","internalType":"address"}]},{"type":"error","name":"ERC721InsufficientApproval","inputs":[{"name":"operator","type":"address","internalType":"address"},{"name":"tokenId","type":"uint256","internalType":"uint256"}]},{"type":"error","name":"ERC721InvalidApprover","inputs":[{"name":"approver","type":"address","internalType":"address"}]},{"type":"error","name":"ERC721InvalidOperator","inputs":[{"name":"operator","type":"address","internalType":"address"}]},{"type":"error","name":"ERC721InvalidOwner","inputs":[{"name":"owner","type":"address","internalType":"address"}]},{"type":"error","name":"ERC721InvalidReceiver","inputs":[{"name":"receiver","type":"address","internalType":"address"}]},{"type":"error","name":"ERC721InvalidSender","inputs":[{"name":"sender","type":"address","internalType":"address"}]},{"type":"error","name":"ERC721NonexistentToken","inputs":[{"name":"tokenId","type":"uint256","internalType":"uint256"}]},{"type":"error","name":"EnforcedPause","inputs":[]},{"type":"error","name":"ExpectedPause","inputs":[]},{"type":"error","name":"InvalidInitialization","inputs":[]},{"type":"error","name":"NotInitializing","inputs":[]},{"type":"error","name":"OwnableInvalidOwner","inputs":[{"name":"owner","type":"address","internalType":"address"}]},{"type":"error","name":"OwnableUnauthorizedAccount","inputs":[{"name":"account","type":"address","internalType":"address"}]},{"type":"error","name":"ReentrancyGuardReentrantCall","inputs":[]}],"bytecode":{"object":"0x60808060405234620000bd577ff0c57e16840df040f15088dc2f81fe391c3923bec73e23a9662efc9c229c6a009081549060ff8260401c16620000ae57506001600160401b036002600160401b03198282160162000068575b6040516142979081620000c28239f35b6001600160401b031990911681179091556040519081527fc7f505b2f371ae2175ee4913f4499e1f2633a7b5936321eed1cdaeb6115181d290602090a15f808062000058565b63f92ee8a960e01b8152600490fd5b5f80fdfe6080806040526004361015610048575b50361561001a575f80fd5b6040513481527f88a5966d370b9919b20f3e2c13ff65706f196a4e32cc2c12bf57088f8852587460203392a2005b5f905f3560e01c90816301ffc9a71461327c5750806306fdde03146131b3578063081812fc1461316b578063095ea7b31461308957806309a7ea7b14612b4c5780630c0b863314612b22578063103fb5d214612af85780631495fa99146129fb57806323b872dd146129e45780632a55205a146129b05780632d68b470146129885780632d872a481461243d5780633f4ba83a146123c857806342842e0e1461239f57806342966c681461224757806344d19d2b1461222a57806355b9d443146120a857806355f804b314611fa65780635a0bc37c14611f895780635c975abb14611f5b578063604de26814611ca45780636352211e14611c745780636441f8f114611c2b5780636a84a98514611c0e5780636c0360eb14611b575780636f8b44b014611ade57806370a0823114611a8a578063715018a614611a2357806375794a3c14611a0757806378ba76d5146119d357806381d12c58146119855780638456cb59146119205780638ad20e69146118f65780638da5cb5b146118c25780638dccfc691461152a57806395d89b41146114295780639b343a09146113df578063a22cb46514611336578063a2309ff8146112f8578063a3c6b127146112c9578063a574cea41461119f578063b88d4fde1461113b578063bb875836146110fb578063bed62f3514611099578063c6ef9fc714610b61578063c87b56dd14610abc578063d1a4584014610587578063d5abeb0114610569578063d9852f8d146104ef578063da3f5f5b146104a6578063e00a4d2214610477578063e3684e39146103d0578063e833b03f146103b2578063e985e9c514610365578063f2fde38b1461033b578063f6485eea146102ee5763fe8f09c00361000f57346102eb57806003193601126102eb576003546040516001600160a01b039091168152602090f35b80fd5b50346102eb5761033861030036613610565b909161030a6140df565b60018060a01b03168452600c60205260408420908452602052604083209060ff801983541691151516179055565b80f35b50346102eb5760203660031901126102eb57610338610358613359565b6103606140df565b613e00565b50346102eb5760403660031901126102eb5761037f613359565b61039061038a61336f565b916134ce565b9060018060a01b03165f52602052602060ff60405f2054166040519015158152f35b50346102eb57806003193601126102eb576020601254604051908152f35b50346102eb5760203660031901126102eb57604061043a916004358152600d602052206103fc8161353e565b906104096001820161353e565b6104566104186002840161353e565b610448600460038601549501549360405197889760c0895260c089019061331b565b90878203602089015261331b565b90858203604087015261331b565b916001600160601b038116606085015260601c608084015260a08301520390f35b50346102eb5760203660031901126102eb5760ff60406020926004358152600e84522054166040519015158152f35b50346102eb5760403660031901126102eb5760209060ff906040906001600160a01b036104d1613359565b168152600c8452818120602435825284522054166040519015158152f35b50346102eb5760203660031901126102eb5760043561050d81613e30565b505f805160206141a28339815191525461053c90336001600160a01b0391821614908115610555575b50613711565b8152600e60205260408120805460ff1916600117905580f35b905061056083613e30565b1633145f610536565b50346102eb57806003193601126102eb576020600154604051908152f35b50346102eb57600319906040368301126102eb576105a3613359565b90602435926001600160401b038411610ab85760c09084360301126102eb57604051926105cf84613385565b80600401356001600160401b038111610ab4576105f2906004369184010161342d565b845260248101356001600160401b038111610ab457610617906004369184010161342d565b602085015260448101356001600160401b038111610ab45761063f906004369184010161342d565b604085015260648101356001600160601b0381168103610ab05760608501526084810135906001600160a01b0382168203610ab05760a4916080860152013560a08401528054338252600b6020526040822090825260205260ff6040822054168015610a90575b6106af90613a5b565b6106b7613eca565b6106bf613ef4565b60808301516001600160a01b031615610a4b578054916106e3600154841115613a99565b6106ec83613b19565b82556106f88382613f23565b828252600660205260408220600160ff19825416179055600d602052604082209380518051906001600160401b038211610961576107408261073a8954613506565b896136d9565b602090601f83116001146109e35761076f92918691836108d5575b50508160011b915f199060031b1c19161790565b85555b60208101518051906001600160401b038211610961576107a28261079960018a0154613506565b60018a016136d9565b602090601f8311600114610975576107d092918691836108d55750508160011b915f199060031b1c19161790565b60018601555b60408101519485516001600160401b03811161096157602096610809826108006002860154613506565b600286016136d9565b8790601f83116001146108e0575f805160206141c2833981519152959361084e8460a095608098956004958c926108d55750508160011b915f199060031b1c19161790565b60028201555b606083810151878501515f196001881b011690911b6001600160601b0319166001600160601b039190911617600382015583830151918291015587875260088952604087205501516040519486865286888701526040860152606085015260018060a01b031692a260015f8051602061422283398151915255604051908152f35b015190505f8061075b565b9060028401875288872091875b601f198516811061094a575093600184608097946004945f805160206141c28339815191529a9860a098601f19811610610932575b505050811b016002820155610854565b01515f1960f88460031b161c191690555f8080610922565b91928a6001819286850151815501940192016108ed565b634e487b7160e01b85526041600452602485fd5b9190600188018652602086209086935b601f19841685106109c8576001945083601f198116106109b0575b505050811b0160018601556107d6565b01515f1960f88460031b161c191690555f80806109a0565b81810151835560209485019460019093019290910190610985565b9190878652602086209086935b601f1984168510610a30576001945083601f19811610610a18575b505050811b018555610772565b01515f1960f88460031b161c191690555f8080610a0b565b818101518355602094850194600190930192909101906109f0565b60405162461bcd60e51b815260206004820152601860248201527f496e76616c696420726f79616c747920726563656976657200000000000000006044820152606490fd5b505f805160206141a2833981519152546001600160a01b031633146106a6565b5f80fd5b8280fd5b5080fd5b50346102eb5760203660031901126102eb576040610b5d91600435610ae081613e30565b508152600d60205220604051610af581613385565b610afe8261353e565b8152610b0c6001830161353e565b602082015260a06004610b216002850161353e565b9384604085015260038101546001600160601b038116606086015260601c6080850152015491015260405191829160208352602083019061331b565b0390f35b50346102eb5760203660031901126102eb576004356001600160401b038111610ab857610b929036906004016135e0565b60105490926001600160a01b03918216330361106557831561102e57601154601254811015610ff357610bc481613b19565b60115581526013602052604081205493848252600f602052604082209260ff600385015416610fba578354168015610f835760405180816020600288015492838152016002880187526020872092875b818110610f6a575050610c29925003826133bb565b600185015492610c3884613c3b565b96610c4660405198896133bb565b848852610c5285613c3b565b601f19013660208a0137600554858103908111610f5657600599989995919293955585945b818610610ce757610b5d8a7f2a921b8ba8f59378d365219a18a8096264af78d4f1278bdee7afdf4d18321c698b8b6003600160ff198284015416179101556040519081526040602082015280610cd06040820185613643565b0390a1604051918291602083526020830190613643565b908699929598939694979187878b8281105f14610eef57610d0f90610d2a93610d2493613c17565b35909192989c509a9998969a5b885190613dce565b87613dec565b5195868a5260069586602052610d4660ff60408d205416613ada565b87610d518b87613dec565b528a5496610d5e88613b19565b8c55610d6a888b613f23565b878c5260205260408b2060ff198154169055600a6020528760408c205560019b5b888c52600960205260408c208d8d5260205260ff60408d20541615610dcd5760ff6040610dbe8e9f9e9a9b9c9d9e613b19565b9e9d9c9b9a9950610d8b915050565b939991959b600193988a98610e7860408f9d95999f945f805160206141c2833981519152958481526007602052818382205585815260096020528281208282526020528281208a60ff19825416179055858152600d60205282812085825283822090808203610e88575b5050858152600d6020526004838220015492818685935260086020522055604051948594859094939260609260808301968352602083015260408201520152565b0390a20194909192989798610c77565b600481610e96829385613b34565b610ea48e82018f8601613b34565b610eb46002820160028601613b34565b6003818101805491860180546001600160601b039093166001600160601b031993841681178255915490921617905501549101555f80610e37565b610f35610f43610f10610d249486610f0a610d2a9887613dce565b91613c17565b35926040519283918c6020840196876040919493926060820195825260208201520152565b03601f1981018352826133bb565b519020909192989c509a9998969a610d1c565b634e487b7160e01b5f52601160045260245ffd5b8454835260019485019486945060209093019201610c14565b60405162461bcd60e51b815260206004820152600f60248201526e125b9d985b1a59081c995c5d595cdd608a1b6044820152606490fd5b60405162461bcd60e51b8152602060048201526011602482015270105b1c9958591e48199d5b199a5b1b1959607a1b6044820152606490fd5b60405162461bcd60e51b81526020600482015260136024820152724e6f2070656e64696e6720726571756573747360681b6044820152606490fd5b60405162461bcd60e51b815260206004820152600f60248201526e4e6f2072616e646f6d20776f72647360881b6044820152606490fd5b60405162461bcd60e51b815260206004820152600c60248201526b155b985d5d1a1bdc9a5e995960a21b6044820152606490fd5b50346102eb5760203660031901126102eb576004356110b781613e30565b505f805160206141a2833981519152546110e590336001600160a01b03918216149081156105555750613711565b8152600e60205260408120805460ff1916905580f35b50346102eb5760203660031901126102eb57611115613359565b61111d6140df565b60018060a01b03166001600160601b0360a01b601054161760105580f35b50346102eb5760803660031901126102eb57611155613359565b61115d61336f565b606435916001600160401b03831161119b573660238401121561119b576111916103389336906024816004013591016133f7565b9160443591613c52565b8380fd5b50346102eb57602080600319360112610ab85760408051926004356111c385613385565b8160a060609687815287878201528786820152828882015282608082015201526111ec81613e30565b508152600d8352206040519261120184613385565b61120a8261353e565b84526112186001830161353e565b83850190815261122a6002840161353e565b90604086019182526112a86003850154926001600160601b03926004868a0197858716895260808b0196881c875201549560a08a019687526112986112828a60c06040519d8e9d8e5251918d015260e08c019061331b565b925192601f1993848c83030160408d015261331b565b925191898403019089015261331b565b9351166080850152516001600160a01b031660a08401525160c08301520390f35b50346102eb5760203660031901126102eb5760ff60406020926004358152600684522054166040519015158152f35b50346102eb57806003193601126102eb5780545f1981019190821161132257602082604051908152f35b634e487b7160e01b81526011600452602490fd5b50346102eb5760403660031901126102eb57611350613359565b6024359081151590818303610ab0576001600160a01b03169182156113c6576113979061137c336134ce565b845f5260205260405f209060ff801983541691151516179055565b6040519081527f17307eab39ab6107e8899845ad3d59bd9653f200f220920489ca2b5937696c3160203392a380f35b604051630b61174360e31b815260048101849052602490fd5b50346102eb576103386113f136613610565b90916113fb6140df565b60018060a01b03168452600b60205260408420908452602052604083209060ff801983541691151516179055565b50346102eb57806003193601126102eb576040517f80bb2b638cc20bc4d0a60d66940f3ab4a00c1d7b313497ca82fb0b4ab00793018054825f61146b83613506565b92838352602094600191866001821691825f146115085750506001146114ae575b505061149a925003836133bb565b610b5d60405192828493845283019061331b565b8592505f527ff4bad0a69248f59680a4f2b3000328cec71a413447c96781cfe5996daa8c456e905f915b8583106114f057505061149a9350820101858061148c565b805483890185015287945086939092019181016114d8565b925093505061149a94915060ff191682840152151560051b820101858061148c565b5034610ab0576060366003190112610ab057611544613359565b6024356001600160401b038111610ab0576115639036906004016135e0565b8015611884575f5b81811061182357506115806044355f54613b27565b61158d6005548092613b27565b5f19810191908211610f56576115aa6115b3926001541015613a99565b60443590613b27565b6005556115c1600454613b19565b908160045560405193608085018581106001600160401b038211176117c5576040526001600160a01b031680855260443560208601529361160182613c3b565b61160e60405191826133bb565b82815260208101368460051b870111610ab05785905b8460051b870182106118135750506040820190815260608201905f8252845f52600f602052602060405f209360018060a01b038151166001600160601b0360a01b86541617855501516001840155600283019051908151916001600160401b0383116117c5576801000000000000000083116117c55760209082548484558085106117f8575b5001905f5260205f205f5b8381106117e457505050509060036116dd9251151591019060ff801983541691151516179055565b6012546116e981613b19565b6012555f9081526013602052604090208290556010546001600160a01b0316803b15610ab0575f8091604460405180948193631b739ef160e01b8352886004840152833560248401525af180156117d9576117a9575b50604080519283526044356020840152606090830181905282018190526001600160fb1b0381116117a55781817fd6b1e2266ea2925e60676b4f379eee486e4dadb414d434b018703847198d813f9460809360051b908484013760051b8101030190a280f35b8480fd5b9094506001600160401b0381116117c5576040525f935f61173f565b634e487b7160e01b5f52604160045260245ffd5b6040513d5f823e3d90fd5b6001906020845194019381840155016116b5565b61180d90845f5285845f209182019101613676565b5f6116aa565b8135815260209182019101611624565b600190335f526020600b815260405f209061183f838688613c17565b355f525260ff60405f2054168015611861575b61185b90613a5b565b0161156b565b5061185b828060a01b035f805160206141a2833981519152541633149050611852565b60405162461bcd60e51b8152602060048201526016602482015275139bc81b585cdd195c8812511cc81c1c9bdd9a59195960521b6044820152606490fd5b34610ab0575f366003190112610ab0575f805160206141a2833981519152546040516001600160a01b039091168152602090f35b34610ab0576020366003190112610ab0576004355f52600a602052602060405f2054604051908152f35b34610ab0575f366003190112610ab0576119386140df565b611940613eca565b5f805160206141e2833981519152600160ff198254161790557f62e78cea01bee320cd4e420270b5ea74000d11b0c9f74754ebdbfc544b05a2586020604051338152a1005b34610ab0576020366003190112610ab0576004355f52600f602052606060405f2060018060a01b038154169060ff600360018301549201541690604051928352602083015215156040820152f35b34610ab0576119e136613480565b905f52600960205260405f20905f52602052602060ff60405f2054166040519015158152f35b34610ab0575f366003190112610ab05760205f54604051908152f35b34610ab0575f366003190112610ab057611a3b6140df565b5f805160206141a283398151915280546001600160a01b031981169091555f906001600160a01b03167f8be0079c531659141344cd1fd0a4f28419497f9722a3daafe3b4186f6b6457e08280a3005b34610ab0576020366003190112610ab057611aa3613359565b6001600160a01b03811615611ac657611abd602091613496565b54604051908152f35b6040516322718ad960e21b81525f6004820152602490fd5b34610ab0576020366003190112610ab057600435611afa6140df565b5f545f198101908111610f56578110611b1257600155005b60405162461bcd60e51b815260206004820152601b60248201527f43616e6e6f7420736574206c657373207468616e206d696e74656400000000006044820152606490fd5b34610ab0575f366003190112610ab0576040516002545f82611b7883613506565b91828252602093600190856001821691825f14611bee575050600114611ba6575b5061149a925003836133bb565b84915060025f525f80516020614182833981519152905f915b858310611bd657505061149a935082010185611b99565b80548389018501528794508693909201918101611bbf565b60ff19168582015261149a95151560051b8501019250879150611b999050565b34610ab0575f366003190112610ab0576020600454604051908152f35b34610ab0576040366003190112610ab0576001600160a01b03611c4c613359565b165f52600b60205260405f206024355f52602052602060ff60405f2054166040519015158152f35b34610ab0576020366003190112610ab0576020611c92600435613e30565b6040516001600160a01b039091168152f35b34610ab0576080366003190112610ab057611cbd613359565b335f52600b60205260405f206044355f5260205260ff60405f2054168015611f3b575b611ce990613a5b565b611cf1613eca565b611cf9613ef4565b606435611d096024355f54613b27565b5f198101908111610f5657611d22906001541015613a99565b6044355f526006602052611d3c60ff60405f205416613ada565b5f5b6024358110611d5a5760015f8051602061422283398151915255005b5f54611d6581613b19565b5f55611d718185613f23565b805f52600660205260405f2060ff198154169055600a60205260443560405f20555f925b6044355f52600960205260405f20815f5260205260ff60405f20541615611e145760018091019301936103e8851015611dcf579392611d95565b60405162461bcd60e51b815260206004820152601f60248201527f5072696e74206e756d626572207363616e206c696d69742072656163686564006044820152606490fd5b925090600191805f5260076020528360405f20556044355f52600960205260405f20845f5260205260405f208360ff198254161790556044355f52600d8060205260405f20825f5260405f2090808203611ed4575b50506044355f526020525f805160206141c2833981519152611ecb600460405f200154835f5260086020528060405f205560405191829188888060a01b038b169660443590859094939260609260808301968352602083015260408201520152565b0390a201611d3e565b600481611ee2829385613b34565b611ef0888201898601613b34565b611f006002808301908601613b34565b6003818101805491860180546001600160601b039093166001600160601b031993841681178255915490921617905501549101558680611e69565b505f805160206141a2833981519152546001600160a01b03163314611ce0565b34610ab0575f366003190112610ab057602060ff5f805160206141e283398151915254166040519015158152f35b34610ab0575f366003190112610ab0576020601154604051908152f35b34610ab057602080600319360112610ab0576001600160401b03600435818111610ab057611fd890369060040161342d565b91611fe16140df565b82519182116117c557611ffe82611ff9600254613506565b61368c565b602090601f831160011461203d5750819061202d935f926120325750508160011b915f199060031b1c19161790565b600255005b01519050838061075b565b90601f1983169360025f525f80516020614182833981519152925f905b8682106120905750508360019510612078575b505050811b01600255005b01515f1960f88460031b161c1916905582808061206d565b8060018596829496860151815501950193019061205a565b34610ab057602080600319360112610ab0576004356120c5613ef4565b805f52600a825260405f2054335f52600c835260405f20905f52825260ff60405f205416801561220a575b156121d1576120fd613eca565b61210681613e30565b50805f526008825260405f20541561219857805f526008825260405f20918254908115610f56577f1f578273dff496d7ffbd4ee7e1a35b80c7e32ea1d3c7a2f2a0e9698a54cd762a936008925f19019055825f525260405f20546121826040519283924291846040919493926060820195825260208201520152565b0390a160015f8051602061422283398151915255005b60405162461bcd60e51b81526004810183905260116024820152704e6f2072656d61696e696e67207573657360781b6044820152606490fd5b60405162461bcd60e51b8152600481018390526011602482015270139bc81058d8d95cdcc81d1bc8195a591d607a1b6044820152606490fd5b505f805160206141a2833981519152546001600160a01b031633146120f0565b34610ab0575f366003190112610ab0576020600554604051908152f35b34610ab0576020366003190112610ab057600435805f525f805160206142028339815191528060205260018060a01b03908160405f2054169133151590816122f1575b5050905f91816122d3575b8383526020526040822080546001600160a01b03191690557fddf252ad1be2c89b69c2b068fc378daa952ba7f163c4a11628f55a4df523b3ef8280a4005b6122dc84614117565b6122e582613496565b83198154019055612295565b81612341575b501561230457838061228a565b506123215760249060405190637e27328960e01b82526004820152fd5b60405163177e802f60e01b81523360048201526024810191909152604490fd5b33841491508115612380575b811561235b575b50846122f7565b9050835f525f80516020614242833981519152602052339060405f2054161484612354565b905061238b836134ce565b335f5260205260ff60405f2054169061234d565b34610ab0576123c66123b03661344b565b90604051926123be846133a0565b5f8452613c52565b005b34610ab0575f366003190112610ab0576123e06140df565b5f805160206141e2833981519152805460ff81161561242b5760ff191690557f5db9ee0a495bf2e6ff9c91a7834c1ba4fdd244a5e8aa4e537bd38aeae4b073aa6020604051338152a1005b604051638dfc202b60e01b8152600490fd5b34610ab0576080366003190112610ab057612456613359565b6064356001600160401b038111610ab05761247590369060040161342d565b90335f52600b60205260405f206024355f5260205260ff60405f2054168015612968575b6124a290613a5b565b6124aa613eca565b6124b2613ef4565b5f54906124c3600154831115613a99565b6024355f5260066020526124dd60ff60405f205416613ada565b6024355f52600960205260405f206044355f5260205260ff60405f2054166129235761250882613b19565b5f556125148282613f23565b815f52600660205260405f2060ff198154169055600a60205260243560405f2055600760205260443560405f20556024355f52600d60205260405f209260046040519461256086613385565b6125698161353e565b86526125776001820161353e565b60208701526125886002820161353e565b5060038101546001600160601b038116606088015260601c6080870152015460a08501526040840152815f52600d60205260405f209280518051906001600160401b0382116117c5576125e5826125df8854613506565b886136d9565b602090601f83116001146128bb5761261392915f91836128425750508160011b915f199060031b1c19161790565b84555b60208101518051906001600160401b0382116117c5576126468261263d6001890154613506565b600189016136d9565b602090601f831160011461284d5761267492915f91836128425750508160011b915f199060031b1c19161790565b60018501555b60408101519384516001600160401b0381116117c5576020956126a4826108006002860154613506565b8690601f83116001146127c85791806126e2925f805160206141c28339815191529695945f926127bd5750508160011b915f199060031b1c19161790565b60028201555b606080830151608084015190911b6001600160601b0319166001600160601b03919091161760038201556001600160a01b039160049060a001519101556024355f526009855260405f206044355f52855260405f20600160ff198254161790556024355f52600d8552600460405f200154845f526008865260405f2055600d8552600460405f200154926127a1604051928392169460443560243588859094939260609260808301968352602083015260408201520152565b0390a260015f8051602061422283398151915255604051908152f35b01519050898061075b565b90600284015f52875f20915f5b601f198516811061282b57509183916001935f805160206141c2833981519152979695601f19811610612813575b505050811b0160028201556126e8565b01515f1960f88460031b161c19169055888080612803565b9192896001819286850151815501940192016127d5565b01519050878061075b565b9190600187015f5260205f20905f935b601f19841685106128a0576001945083601f19811610612888575b505050811b01600185015561267a565b01515f1960f88460031b161c19169055868080612878565b8181015183556020948501946001909301929091019061285d565b9190865f5260205f20905f935b601f1984168510612908576001945083601f198116106128f0575b505050811b018455612616565b01515f1960f88460031b161c191690558680806128e3565b818101518355602094850194600190930192909101906128c8565b60405162461bcd60e51b815260206004820152601b60248201527f5072696e74206e756d62657220616c72656164792065786973747300000000006044820152606490fd5b505f805160206141a2833981519152546001600160a01b03163314612499565b34610ab0575f366003190112610ab0576010546040516001600160a01b039091168152602090f35b34610ab0576129c76129c136613480565b906139b1565b604080516001600160a01b03939093168352602083019190915290f35b34610ab0576123c66129f53661344b565b916137e6565b34610ab0576060366003190112610ab057600435612a1761336f565b90604435906001600160601b038216809203610ab057612a3681613e30565b505f805160206141a2833981519152546001600160a01b0390811633148015612ae0575b612a6390613711565b831615612aa8575f52600d602052612a97600360405f20019283906001600160601b0382549181199060601b169116179055565b81546001600160601b031916179055005b60405162461bcd60e51b815260206004820152601060248201526f24b73b30b634b2103932b1b2b4bb32b960811b6044820152606490fd5b50612a6381612aee84613e30565b1633149050612a5a565b34610ab0576020366003190112610ab0576004355f526007602052602060405f2054604051908152f35b34610ab0576020366003190112610ab0576004355f526008602052602060405f2054604051908152f35b34610ab05760c0366003190112610ab0576001600160401b03600435818111610ab057612b7d90369060040161342d565b90602435818111610ab057612b9690369060040161342d565b91606435828111610ab057612baf90369060040161342d565b926001600160a01b0390608435908282168203610ab05760a435928316809303610ab0577ff0c57e16840df040f15088dc2f81fe391c3923bec73e23a9662efc9c229c6a009485549660ff8860401c16159582891698891580613082575b6001809b149081613078575b15908161306f575b5061305d5767ffffffffffffffff1981168a1789558761303e575b50604435895581518381116117c557612c5a81611ff9600254613506565b6020601f93848311600114612fd357612c8992915f9183612f015750508160011b915f199060031b1c19161790565b6002555b612c95614140565b612c9d614140565b80518381116117c5577f80bb2b638cc20bc4d0a60d66940f3ab4a00c1d7b313497ca82fb0b4ab007930091612cd28354613506565b848111612f88575b50602090848311600114612f0c57612d0892915f9183612f015750508160011b915f199060031b1c19161790565b90555b82519182116117c5577f80bb2b638cc20bc4d0a60d66940f3ab4a00c1d7b313497ca82fb0b4ab007930192612d408454613506565b828111612eac575b506020918311600114612e29579180612d7b92612dbc9695945f92612e1e5750508160011b915f199060031b1c19161790565b90555b612d86614140565b612d8e614140565b855f8051602061422283398151915255612da6614140565b612dae614140565b612db781613e00565b613e76565b612dc4614140565b6001600160601b0360a01b6010541617601055825f55612de057005b805468ff0000000000000000191690556040519081527fc7f505b2f371ae2175ee4913f4499e1f2633a7b5936321eed1cdaeb6115181d290602090a1005b015190508a8061075b565b9392918891601f19821690845f527ff4bad0a69248f59680a4f2b3000328cec71a413447c96781cfe5996daa8c456e915f5b818110612e9457509683612dbc9810612e7c575b505050811b019055612d7e565b01515f1960f88460031b161c19169055898080612e6f565b8289015184558c959093019260209283019201612e5b565b612ef290855f527ff4bad0a69248f59680a4f2b3000328cec71a413447c96781cfe5996daa8c456e8480870160051c82019260208810612ef8575b0160051c0190613676565b89612d48565b92508192612ee7565b015190508c8061075b565b8b9291601f19831691855f527f37c58c799b6609234b945e882912ee9ad34948a1dfaa20a97485e1a7752bbf81925f5b818110612f7057508411612f58575b505050811b019055612d0b565b01515f1960f88460031b161c191690558b8080612f4b565b8284015185558f969094019360209384019301612f3c565b612fcd90845f527f37c58c799b6609234b945e882912ee9ad34948a1dfaa20a97485e1a7752bbf818680860160051c82019260208710612ef8570160051c0190613676565b8b612cda565b8b9291601f1983169160025f525f80516020614182833981519152925f5b8181106130265750841161300e575b505050811b01600255612c8d565b01515f1960f88460031b161c191690558b8080613000565b8284015185558f969094019360209384019301612ff1565b68ffffffffffffffffff19166801000000000000000117885589612c3c565b60405163f92ee8a960e01b8152600490fd5b9050158b612c21565b303b159150612c19565b5087612c0d565b34610ab0576040366003190112610ab0576130a2613359565b6024356130ae81613e30565b33151580613158575b8061313a575b613122576001600160a01b039283169282918491167f8c5be1e5ebec7d5bd14f71427d1e84f3dd0314c0f7b2291e5b200ac8c7c3b9255f80a45f9081525f805160206142428339815191526020526040902080546001600160a01b0319169091179055005b60405163a9fbf51f60e01b8152336004820152602490fd5b50613144816134ce565b335f5260205260ff60405f205416156130bd565b506001600160a01b0381163314156130b7565b34610ab0576020366003190112610ab05760043561318881613e30565b505f525f80516020614242833981519152602052602060018060a01b0360405f205416604051908152f35b34610ab0575f366003190112610ab0576040517f80bb2b638cc20bc4d0a60d66940f3ab4a00c1d7b313497ca82fb0b4ab00793008054825f6131f483613506565b92838352602094600191866001821691825f1461150857505060011461322257505061149a925003836133bb565b8592505f527f37c58c799b6609234b945e882912ee9ad34948a1dfaa20a97485e1a7752bbf81905f915b85831061326457505061149a9350820101858061148c565b8054838901850152879450869390920191810161324c565b34610ab0576020366003190112610ab0576004359063ffffffff60e01b8216809203610ab05760209163152a902d60e11b81149081156132be575b5015158152f35b632483248360e11b8114915081156132d8575b50836132b7565b6380ac58cd60e01b81149150811561330a575b81156132f9575b50836132d1565b6301ffc9a760e01b149050836132f2565b635b5e139f60e01b811491506132eb565b91908251928382525f5b848110613345575050825f602080949584010152601f8019910116010190565b602081830181015184830182015201613325565b600435906001600160a01b0382168203610ab057565b602435906001600160a01b0382168203610ab057565b60c081019081106001600160401b038211176117c557604052565b602081019081106001600160401b038211176117c557604052565b90601f801991011681019081106001600160401b038211176117c557604052565b6001600160401b0381116117c557601f01601f191660200190565b929192613403826133dc565b9161341160405193846133bb565b829481845281830111610ab0578281602093845f960137010152565b9080601f83011215610ab057816020613448933591016133f7565b90565b6060906003190112610ab0576001600160a01b03906004358281168103610ab057916024359081168103610ab0579060443590565b6040906003190112610ab0576004359060243590565b6001600160a01b03165f9081527f80bb2b638cc20bc4d0a60d66940f3ab4a00c1d7b313497ca82fb0b4ab00793036020526040902090565b6001600160a01b03165f9081527f80bb2b638cc20bc4d0a60d66940f3ab4a00c1d7b313497ca82fb0b4ab00793056020526040902090565b90600182811c92168015613534575b602083101461352057565b634e487b7160e01b5f52602260045260245ffd5b91607f1691613515565b9060405191825f825461355081613506565b908184526020946001916001811690815f146135be5750600114613580575b50505061357e925003836133bb565b565b5f90815285812095935091905b8183106135a657505061357e93508201015f808061356f565b8554888401850152948501948794509183019161358d565b9250505061357e94925060ff191682840152151560051b8201015f808061356f565b9181601f84011215610ab0578235916001600160401b038311610ab0576020808501948460051b010111610ab057565b6060906003190112610ab0576004356001600160a01b0381168103610ab057906024358015158103610ab0579060443590565b9081518082526020808093019301915f5b828110613662575050505090565b835185529381019392810192600101613654565b818110613681575050565b5f8155600101613676565b90601f8211613699575050565b61357e9160025f525f80516020614182833981519152906020601f840160051c830193106136cf575b601f0160051c0190613676565b90915081906136c2565b9190601f81116136e857505050565b61357e925f5260205f20906020601f840160051c830193106136cf57601f0160051c0190613676565b1561371857565b60405162461bcd60e51b815260206004820152600e60248201526d139bdd08185d5d1a1bdc9a5e995960921b6044820152606490fd5b1561375557565b60405162461bcd60e51b815260206004820152601c60248201527f5472616e73666572206c6f636b656420666f722074686973204e4654000000006044820152606490fd5b156137a157565b60405162461bcd60e51b815260206004820152601960248201527f4e465420686173206e6f2072656d61696e696e672075736573000000000000006044820152606490fd5b91805f526020600e815260409361380360ff865f2054161561374e565b825f5260088252613818855f2054151561379a565b6001600160a01b039184831690811561399a57908491825f525f805160206142028339815191529081815285895f20541697331515806138f5575b5061386290896138d757613496565b60018154019055835f5252865f20816001600160601b0360a01b825416179055857fddf252ad1be2c89b69c2b068fc378daa952ba7f163c4a11628f55a4df523b3ef5f80a416928383036138b65750505050565b6064945051926364283d7b60e01b8452600484015260248301526044820152fd5b6138e086614117565b6138e98a613496565b80545f19019055613496565b809192939495509061394e575b156139125790869392915f613853565b88878961392f576024915190637e27328960e01b82526004820152fd5b905163177e802f60e01b81523360048201526024810191909152604490fd5b50338814801561397f575b806139025750865f525f80516020614242833981519152825233868a5f20541614613902565b50613989886134ce565b335f52825260ff895f205416613959565b8651633250574960e11b81525f6004820152602490fd5b9190915f52600d60205260405f2091604051906139cd82613385565b6139d68461353e565b82526139e46001850161353e565b60208301526139f56002850161353e565b604083015260038401549160a060046001600160601b0385169485606085015260601c96876080850152015491015283158015613a53575b613a4957818102918183041490151715610f5657612710900490565b505090505f905f90565b508115613a2d565b15613a6257565b60405162461bcd60e51b815260206004820152600f60248201526e139bdd081dda1a5d195b1a5cdd1959608a1b6044820152606490fd5b15613aa057565b60405162461bcd60e51b815260206004820152601260248201527145786365656473206d617820737570706c7960701b6044820152606490fd5b15613ae157565b60405162461bcd60e51b815260206004820152601060248201526f125b9d985b1a59081b585cdd195c925960821b6044820152606490fd5b5f198114610f565760010190565b91908201809211610f5657565b90808214613c1357613b468154613506565b906001600160401b0382116117c557613b6982613b638554613506565b856136d9565b5f90601f8311600114613ba557613b9692915f9183613b9a5750508160011b915f199060031b1c19161790565b9055565b015490505f8061075b565b90601f198316915f5260209160205f2090855f5260205f20935f905b828210613bfa575050908460019594939210613be2575b505050811b019055565b01545f1960f88460031b161c191690555f8080613bd8565b8495819295850154815560018091019601940190613bc1565b5050565b9190811015613c275760051b0190565b634e487b7160e01b5f52603260045260245ffd5b6001600160401b0381116117c55760051b60200190565b919091815f52602093600e8552604092613c7260ff855f2054161561374e565b805f5260088652613c87845f2054151561379a565b613c928186856137e6565b843b613ca1575b505050505050565b94809693949560018060a01b0380971696613cea87519485938493630a85bd0160e11b98898652336004870152166024850152604484015260806064840152608483019061331b565b03815f895af15f9181613d8e575b50613d56575050503d5f14613d4e573d92613d12846133dc565b93613d1f835195866133bb565b84523d5f8286013e5b83519384613d48578251633250574960e11b815260048101859052602490fd5b84925001fd5b606092613d28565b9194506001600160e01b031990911603613d775750505f8080808080613c99565b602492505190633250574960e11b82526004820152fd5b9091508681813d8311613dc7575b613da681836133bb565b81010312610ab057516001600160e01b031981168103610ab057905f613cf8565b503d613d9c565b8115613dd8570690565b634e487b7160e01b5f52601260045260245ffd5b8051821015613c275760209160051b010190565b6001600160a01b03811615613e185761357e90613e76565b604051631e4fbdf760e01b81525f6004820152602490fd5b5f8181525f8051602061420283398151915260205260409020546001600160a01b0316908115613e5e575090565b60249060405190637e27328960e01b82526004820152fd5b5f805160206141a283398151915280546001600160a01b039283166001600160a01b0319821681179092559091167f8be0079c531659141344cd1fd0a4f28419497f9722a3daafe3b4186f6b6457e05f80a3565b60ff5f805160206141e28339815191525416613ee257565b60405163d93c066560e01b8152600490fd5b5f805160206142228339815191526002815414613f115760029055565b604051633ee5aeb560e01b8152600490fd5b6040805192613f31846133a0565b5f84526001600160a01b03938385169384156140c857825f525f805160206142028339815191528386602098838a52875f20541680151593846140aa575b613f7886613496565b60018154019055835f528a52875f20826001600160601b0360a01b8254161790557fddf252ad1be2c89b69c2b068fc378daa952ba7f163c4a11628f55a4df523b3ef5f80a4614093573b613fce575b5050505050565b8461400b9184959697945180938192630a85bd0160e11b968784523360048501525f6024850152604484015260806064840152608483019061331b565b03815f895af15f9181614053575b50614033575050503d5f14613d4e573d92613d12846133dc565b9194506001600160e01b031990911603613d775750505f80808080613fc7565b9091508681813d831161408c575b61406b81836133bb565b81010312610ab057516001600160e01b031981168103610ab057905f614019565b503d614061565b83516339e3563760e11b81525f6004820152602490fd5b6140b384614117565b6140bc82613496565b80545f19019055613f6f565b8351633250574960e11b81525f6004820152602490fd5b5f805160206141a2833981519152546001600160a01b031633036140ff57565b60405163118cdaa760e01b8152336004820152602490fd5b5f525f8051602061424283398151915260205260405f206001600160601b0360a01b8154169055565b60ff7ff0c57e16840df040f15088dc2f81fe391c3923bec73e23a9662efc9c229c6a005460401c161561416f57565b604051631afcd79f60e31b8152600490fdfe405787fa12a823e0f2b7631cc41b3ba8828b3321ca811111fa75cd3aa3bb5ace9016d09d72d40fdae2fd8ceac6b6234c7706214fd39c1cd1e609a0528c199300060b3ebf0f3fed8201b43b0e7e834e2148fb17ec1489260bffb34e430cca9872cd5ed15c6e187e77e9aee88184c21f4f2182ab5827cb3b7e07fbedcd63f0330080bb2b638cc20bc4d0a60d66940f3ab4a00c1d7b313497ca82fb0b4ab00793029b779b17422d0df92223018b32b4d1fa46e071723d6817e2486d003becc55f0080bb2b638cc20bc4d0a60d66940f3ab4a00c1d7b313497ca82fb0b4ab0079304a2646970667358221220e6d2c8c2c16b02be6f4452c54eca4f989e13ca42af4863d975f343fd1016d09264736f6c63430008170033","linkReferences":{}},"methodIdentifiers":{"approve(address,uint256)":"095ea7b3","balanceOf(address)":"70a08231","baseURI()":"6c0360eb","burn(uint256)":"42966c68","editer()":"fe8f09c0","fromMaster(uint256)":"8ad20e69","getApproved(uint256)":"081812fc","getMetadata(uint256)":"a574cea4","initialize(string,string,uint256,string,address,address)":"09a7ea7b","isApprovedForAll(address,address)":"e985e9c5","isEditer(address,uint256)":"da3f5f5b","isMaster(uint256)":"a3c6b127","isPrintExist(uint256,uint256)":"78ba76d5","isWhiteListed(address,uint256)":"6441f8f1","lockTransfer(uint256)":"d9852f8d","maxSupply()":"d5abeb01","metadata(uint256)":"e3684e39","mintBatchPrintEditionByOrder(address,uint256,uint256,uint256)":"604de268","mintBatchPrintEditionRandomMasters(address,uint256[],uint256)":"8dccfc69","mintMaster(address,(string,string,string,uint96,address,uint256))":"d1a45840","mintPrintEdition(address,uint256,uint256,string)":"2d872a48","name()":"06fdde03","nextRequestId()":"6a84a985","nextTokenId()":"75794a3c","owner()":"8da5cb5b","ownerOf(uint256)":"6352211e","pause()":"8456cb59","paused()":"5c975abb","pendingHead()":"5a0bc37c","pendingTail()":"e833b03f","printEditionNumber(uint256)":"103fb5d2","rawFulfillRandomWords(uint256[])":"c6ef9fc7","remainingUses(uint256)":"0c0b8633","renounceOwnership()":"715018a6","requests(uint256)":"81d12c58","reservedSupply()":"44d19d2b","royaltyInfo(uint256,uint256)":"2a55205a","safeTransferFrom(address,address,uint256)":"42842e0e","safeTransferFrom(address,address,uint256,bytes)":"b88d4fde","setApprovalForAll(address,bool)":"a22cb465","setBaseURI(string)":"55f804b3","setEditer(address,bool,uint256)":"f6485eea","setMaxSupply(uint256)":"6f8b44b0","setRoyaltyInfo(uint256,address,uint96)":"1495fa99","setVrfPod(address)":"bb875836","setWhiteList(address,bool,uint256)":"9b343a09","supportsInterface(bytes4)":"01ffc9a7","symbol()":"95d89b41","tokenURI(uint256)":"c87b56dd","totalMinted()":"a2309ff8","transferFrom(address,address,uint256)":"23b872dd","transferLocked(uint256)":"e00a4d22","transferOwnership(address)":"f2fde38b","unlockTransfer(uint256)":"bed62f35","unpause()":"3f4ba83a","useNFT(uint256)":"55b9d443","vrfPod()":"2d68b470"},"id":77}