{"abi":[{"type":"constructor","inputs":[],"stateMutability":"nonpayable"},{"type":"receive","stateMutability":"payable"},{"type":"function","name":"approve","inputs":[{"name":"to","type":"address","internalType":"address"},{"name":"tokenId","type":"uint256","internalType":"uint256"}],"outputs":[],"stateMutability":"nonpayable"},{"type":"function","name":"balanceOf","inputs":[{"name":"owner","type":"address","internalType":"address"}],"outputs":[{"name":"","type":"uint256","internalType":"uint256"}],"stateMutability":"view"},{"type":"function","name":"baseURI","inputs":[],"outputs":[{"name":"","type":"string","internalType":"string"}],"stateMutability":"view"},{"type":"function","name":"burn","inputs":[{"name":"tokenId","type":"uint256","internalType":"uint256"}],"outputs":[],"stateMutability":"nonpayable"},{"type":"function","name":"editer","inputs":[],"outputs":[{"name":"","type":"address","internalType":"address"}],"stateMutability":"view"},{"type":"function","name":"fromMaster","inputs":[{"name":"","type":"uint256","internalType":"uint256"}],"outputs":[{"name":"","type":"uint256","internalType":"uint256"}],"stateMutability":"view"},{"type":"function","name":"getApproved","inputs":[{"name":"tokenId","type":"uint256","internalType":"uint256"}],"outputs":[{"name":"","type":"address","internalType":"address"}],"stateMutability":"view"},{"type":"function","name":"getMetadata","inputs":[{"name":"tokenId","type":"uint256","internalType":"uint256"}],"outputs":[{"name":"","type":"tuple","internalType":"struct NFTManager.NFTMetadata","components":[{"name":"name","type":"string","internalType":"string"},{"name":"description","type":"string","internalType":"string"},{"name":"metadataURL","type":"string","internalType":"string"},{"name":"royaltyBps","type":"uint96","internalType":"uint96"},{"name":"royaltyReceiver","type":"address","internalType":"address"},{"name":"usageLimit","type":"uint256","internalType":"uint256"}]}],"stateMutability":"view"},{"type":"function","name":"initialize","inputs":[{"name":"name_","type":"string","internalType":"string"},{"name":"symbol_","type":"string","internalType":"string"},{"name":"maxSupply_","type":"uint256","internalType":"uint256"},{"name":"baseURI_","type":"string","internalType":"string"},{"name":"_initialOwner","type":"address","internalType":"address"},{"name":"_vrfPod","type":"address","internalType":"address"}],"outputs":[],"stateMutability":"nonpayable"},{"type":"function","name":"isApprovedForAll","inputs":[{"name":"owner","type":"address","internalType":"address"},{"name":"operator","type":"address","internalType":"address"}],"outputs":[{"name":"","type":"bool","internalType":"bool"}],"stateMutability":"view"},{"type":"function","name":"isEditer","inputs":[{"name":"","type":"address","internalType":"address"},{"name":"","type":"uint256","internalType":"uint256"}],"outputs":[{"name":"","type":"bool","internalType":"bool"}],"stateMutability":"view"},{"type":"function","name":"isMaster","inputs":[{"name":"","type":"uint256","internalType":"uint256"}],"outputs":[{"name":"","type":"bool","internalType":"bool"}],"stateMutability":"view"},{"type":"function","name":"isPrintExist","inputs":[{"name":"","type":"uint256","internalType":"uint256"},{"name":"","type":"uint256","internalType":"uint256"}],"outputs":[{"name":"","type":"bool","internalType":"bool"}],"stateMutability":"view"},{"type":"function","name":"isWhiteListed","inputs":[{"name":"","type":"address","internalType":"address"},{"name":"","type":"uint256","internalType":"uint256"}],"outputs":[{"name":"","type":"bool","internalType":"bool"}],"stateMutability":"view"},{"type":"function","name":"lockTransfer","inputs":[{"name":"tokenId","type":"uint256","internalType":"uint256"}],"outputs":[],"stateMutability":"nonpayable"},{"type":"function","name":"maxSupply","inputs":[],"outputs":[{"name":"","type":"uint256","internalType":"uint256"}],"stateMutability":"view"},{"type":"function","name":"metadata","inputs":[{"name":"","type":"uint256","internalType":"uint256"}],"outputs":[{"name":"name","type":"string","internalType":"string"},{"name":"description","type":"string","internalType":"string"},{"name":"metadataURL","type":"string","internalType":"string"},{"name":"royaltyBps","type":"uint96","internalType":"uint96"},{"name":"royaltyReceiver","type":"address","internalType":"address"},{"name":"usageLimit","type":"uint256","internalType":"uint256"}],"stateMutability":"view"},{"type":"function","name":"mintBatchPrintEditionByOrder","inputs":[{"name":"to","type":"address","internalType":"address"},{"name":"amount","type":"uint256","internalType":"uint256"},{"name":"masterId","type":"uint256","internalType":"uint256"},{"name":"startingPrintNumber","type":"uint256","internalType":"uint256"}],"outputs":[],"stateMutability":"nonpayable"},{"type":"function","name":"mintBatchPrintEditionRandomMasters","inputs":[{"name":"to","type":"address","internalType":"address"},{"name":"masterIds","type":"uint256[]","internalType":"uint256[]"},{"name":"totalAmount","type":"uint256","internalType":"uint256"}],"outputs":[],"stateMutability":"nonpayable"},{"type":"function","name":"mintMaster","inputs":[{"name":"to","type":"address","internalType":"address"},{"name":"md","type":"tuple","internalType":"struct NFTManager.NFTMetadata","components":[{"name":"name","type":"string","internalType":"string"},{"name":"description","type":"string","internalType":"string"},{"name":"metadataURL","type":"string","internalType":"string"},{"name":"royaltyBps","type":"uint96","internalType":"uint96"},{"name":"royaltyReceiver","type":"address","internalType":"address"},{"name":"usageLimit","type":"uint256","internalType":"uint256"}]}],"outputs":[{"name":"","type":"uint256","internalType":"uint256"}],"stateMutability":"nonpayable"},{"type":"function","name":"mintPrintEdition","inputs":[{"name":"to","type":"address","internalType":"address"},{"name":"masterId","type":"uint256","internalType":"uint256"},{"name":"printNumber","type":"uint256","internalType":"uint256"},{"name":"metadataURL","type":"string","internalType":"string"}],"outputs":[{"name":"","type":"uint256","internalType":"uint256"}],"stateMutability":"nonpayable"},{"type":"function","name":"name","inputs":[],"outputs":[{"name":"","type":"string","internalType":"string"}],"stateMutability":"view"},{"type":"function","name":"nextRequestId","inputs":[],"outputs":[{"name":"","type":"uint256","internalType":"uint256"}],"stateMutability":"view"},{"type":"function","name":"nextTokenId","inputs":[],"outputs":[{"name":"","type":"uint256","internalType":"uint256"}],"stateMutability":"view"},{"type":"function","name":"owner","inputs":[],"outputs":[{"name":"","type":"address","internalType":"address"}],"stateMutability":"view"},{"type":"function","name":"ownerOf","inputs":[{"name":"tokenId","type":"uint256","internalType":"uint256"}],"outputs":[{"name":"","type":"address","internalType":"address"}],"stateMutability":"view"},{"type":"function","name":"pause","inputs":[],"outputs":[],"stateMutability":"nonpayable"},{"type":"function","name":"paused","inputs":[],"outputs":[{"name":"","type":"bool","internalType":"bool"}],"stateMutability":"view"},{"type":"function","name":"printEditionNumber","inputs":[{"name":"","type":"uint256","internalType":"uint256"}],"outputs":[{"name":"","type":"uint256","internalType":"uint256"}],"stateMutability":"view"},{"type":"function","name":"rawFulfillRandomWords","inputs":[{"name":"requestId","type":"uint256","internalType":"uint256"},{"name":"randomWords","type":"uint256[]","internalType":"uint256[]"}],"outputs":[],"stateMutability":"nonpayable"},{"type":"function","name":"remainingUses","inputs":[{"name":"","type":"uint256","internalType":"uint256"}],"outputs":[{"name":"","type":"uint256","internalType":"uint256"}],"stateMutability":"view"},{"type":"function","name":"renounceOwnership","inputs":[],"outputs":[],"stateMutability":"nonpayable"},{"type":"function","name":"requests","inputs":[{"name":"","type":"uint256","internalType":"uint256"}],"outputs":[{"name":"receiver","type":"address","internalType":"address"},{"name":"totalAmount","type":"uint256","internalType":"uint256"},{"name":"fulfilled","type":"bool","internalType":"bool"}],"stateMutability":"view"},{"type":"function","name":"reservedSupply","inputs":[],"outputs":[{"name":"","type":"uint256","internalType":"uint256"}],"stateMutability":"view"},{"type":"function","name":"royaltyInfo","inputs":[{"name":"tokenId","type":"uint256","internalType":"uint256"},{"name":"salePrice","type":"uint256","internalType":"uint256"}],"outputs":[{"name":"receiver","type":"address","internalType":"address"},{"name":"royaltyAmount","type":"uint256","internalType":"uint256"}],"stateMutability":"view"},{"type":"function","name":"safeTransferFrom","inputs":[{"name":"from","type":"address","internalType":"address"},{"name":"to","type":"address","internalType":"address"},{"name":"tokenId","type":"uint256","internalType":"uint256"}],"outputs":[],"stateMutability":"nonpayable"},{"type":"function","name":"safeTransferFrom","inputs":[{"name":"from","type":"address","internalType":"address"},{"name":"to","type":"address","internalType":"address"},{"name":"tokenId","type":"uint256","internalType":"uint256"},{"name":"data","type":"bytes","internalType":"bytes"}],"outputs":[],"stateMutability":"nonpayable"},{"type":"function","name":"setApprovalForAll","inputs":[{"name":"operator","type":"address","internalType":"address"},{"name":"approved","type":"bool","internalType":"bool"}],"outputs":[],"stateMutability":"nonpayable"},{"type":"function","name":"setBaseURI","inputs":[{"name":"_uri","type":"string","internalType":"string"}],"outputs":[],"stateMutability":"nonpayable"},{"type":"function","name":"setEditer","inputs":[{"name":"operator","type":"address","internalType":"address"},{"name":"approved","type":"bool","internalType":"bool"},{"name":"masterId","type":"uint256","internalType":"uint256"}],"outputs":[],"stateMutability":"nonpayable"},{"type":"function","name":"setMaxSupply","inputs":[{"name":"maxSupply_","type":"uint256","internalType":"uint256"}],"outputs":[],"stateMutability":"nonpayable"},{"type":"function","name":"setRoyaltyInfo","inputs":[{"name":"tokenId","type":"uint256","internalType":"uint256"},{"name":"receiver","type":"address","internalType":"address"},{"name":"royaltyBps","type":"uint96","internalType":"uint96"}],"outputs":[],"stateMutability":"nonpayable"},{"type":"function","name":"setWhiteList","inputs":[{"name":"operator","type":"address","internalType":"address"},{"name":"approved","type":"bool","internalType":"bool"},{"name":"masterId","type":"uint256","internalType":"uint256"}],"outputs":[],"stateMutability":"nonpayable"},{"type":"function","name":"supportsInterface","inputs":[{"name":"interfaceId","type":"bytes4","internalType":"bytes4"}],"outputs":[{"name":"","type":"bool","internalType":"bool"}],"stateMutability":"view"},{"type":"function","name":"symbol","inputs":[],"outputs":[{"name":"","type":"string","internalType":"string"}],"stateMutability":"view"},{"type":"function","name":"tokenURI","inputs":[{"name":"tokenId","type":"uint256","internalType":"uint256"}],"outputs":[{"name":"","type":"string","internalType":"string"}],"stateMutability":"view"},{"type":"function","name":"totalMinted","inputs":[],"outputs":[{"name":"","type":"uint256","internalType":"uint256"}],"stateMutability":"view"},{"type":"function","name":"transferFrom","inputs":[{"name":"from","type":"address","internalType":"address"},{"name":"to","type":"address","internalType":"address"},{"name":"tokenId","type":"uint256","internalType":"uint256"}],"outputs":[],"stateMutability":"nonpayable"},{"type":"function","name":"transferLocked","inputs":[{"name":"","type":"uint256","internalType":"uint256"}],"outputs":[{"name":"","type":"bool","internalType":"bool"}],"stateMutability":"view"},{"type":"function","name":"transferOwnership","inputs":[{"name":"newOwner","type":"address","internalType":"address"}],"outputs":[],"stateMutability":"nonpayable"},{"type":"function","name":"unlockTransfer","inputs":[{"name":"tokenId","type":"uint256","internalType":"uint256"}],"outputs":[],"stateMutability":"nonpayable"},{"type":"function","name":"unpause","inputs":[],"outputs":[],"stateMutability":"nonpayable"},{"type":"function","name":"useNFT","inputs":[{"name":"tokenId","type":"uint256","internalType":"uint256"}],"outputs":[],"stateMutability":"nonpayable"},{"type":"function","name":"vrfPod","inputs":[],"outputs":[{"name":"","type":"address","internalType":"contract IVrfPod"}],"stateMutability":"view"},{"type":"event","name":"Approval","inputs":[{"name":"owner","type":"address","indexed":true,"internalType":"address"},{"name":"approved","type":"address","indexed":true,"internalType":"address"},{"name":"tokenId","type":"uint256","indexed":true,"internalType":"uint256"}],"anonymous":false},{"type":"event","name":"ApprovalForAll","inputs":[{"name":"owner","type":"address","indexed":true,"internalType":"address"},{"name":"operator","type":"address","indexed":true,"internalType":"address"},{"name":"approved","type":"bool","indexed":false,"internalType":"bool"}],"anonymous":false},{"type":"event","name":"BatchMetadataUpdate","inputs":[{"name":"_fromTokenId","type":"uint256","indexed":false,"internalType":"uint256"},{"name":"_toTokenId","type":"uint256","indexed":false,"internalType":"uint256"}],"anonymous":false},{"type":"event","name":"Initialized","inputs":[{"name":"version","type":"uint64","indexed":false,"internalType":"uint64"}],"anonymous":false},{"type":"event","name":"MetadataUpdate","inputs":[{"name":"_tokenId","type":"uint256","indexed":false,"internalType":"uint256"}],"anonymous":false},{"type":"event","name":"MintCompleted","inputs":[{"name":"requestId","type":"uint256","indexed":false,"internalType":"uint256"},{"name":"chosenMasterIds","type":"uint256[]","indexed":false,"internalType":"uint256[]"}],"anonymous":false},{"type":"event","name":"MintRequested","inputs":[{"name":"requestId","type":"uint256","indexed":false,"internalType":"uint256"},{"name":"to","type":"address","indexed":true,"internalType":"address"},{"name":"totalAmount","type":"uint256","indexed":false,"internalType":"uint256"},{"name":"masterIds","type":"uint256[]","indexed":false,"internalType":"uint256[]"}],"anonymous":false},{"type":"event","name":"MintedNFT","inputs":[{"name":"to","type":"address","indexed":true,"internalType":"address"},{"name":"tokenId","type":"uint256","indexed":false,"internalType":"uint256"},{"name":"masterId","type":"uint256","indexed":false,"internalType":"uint256"},{"name":"printNumber","type":"uint256","indexed":false,"internalType":"uint256"},{"name":"usageLimit","type":"uint256","indexed":false,"internalType":"uint256"}],"anonymous":false},{"type":"event","name":"NFTUsed","inputs":[{"name":"tokenID","type":"uint256","indexed":false,"internalType":"uint256"},{"name":"remainingUses","type":"uint256","indexed":false,"internalType":"uint256"},{"name":"timestamp","type":"uint256","indexed":false,"internalType":"uint256"}],"anonymous":false},{"type":"event","name":"OwnershipTransferred","inputs":[{"name":"previousOwner","type":"address","indexed":true,"internalType":"address"},{"name":"newOwner","type":"address","indexed":true,"internalType":"address"}],"anonymous":false},{"type":"event","name":"Paused","inputs":[{"name":"account","type":"address","indexed":false,"internalType":"address"}],"anonymous":false},{"type":"event","name":"Received","inputs":[{"name":"sender","type":"address","indexed":true,"internalType":"address"},{"name":"amount","type":"uint256","indexed":false,"internalType":"uint256"}],"anonymous":false},{"type":"event","name":"Transfer","inputs":[{"name":"from","type":"address","indexed":true,"internalType":"address"},{"name":"to","type":"address","indexed":true,"internalType":"address"},{"name":"tokenId","type":"uint256","indexed":true,"internalType":"uint256"}],"anonymous":false},{"type":"event","name":"Unpaused","inputs":[{"name":"account","type":"address","indexed":false,"internalType":"address"}],"anonymous":false},{"type":"error","name":"ERC721IncorrectOwner","inputs":[{"name":"sender","type":"address","internalType":"address"},{"name":"tokenId","type":"uint256","internalType":"uint256"},{"name":"owner","type":"address","internalType":"address"}]},{"type":"error","name":"ERC721InsufficientApproval","inputs":[{"name":"operator","type":"address","internalType":"address"},{"name":"tokenId","type":"uint256","internalType":"uint256"}]},{"type":"error","name":"ERC721InvalidApprover","inputs":[{"name":"approver","type":"address","internalType":"address"}]},{"type":"error","name":"ERC721InvalidOperator","inputs":[{"name":"operator","type":"address","internalType":"address"}]},{"type":"error","name":"ERC721InvalidOwner","inputs":[{"name":"owner","type":"address","internalType":"address"}]},{"type":"error","name":"ERC721InvalidReceiver","inputs":[{"name":"receiver","type":"address","internalType":"address"}]},{"type":"error","name":"ERC721InvalidSender","inputs":[{"name":"sender","type":"address","internalType":"address"}]},{"type":"error","name":"ERC721NonexistentToken","inputs":[{"name":"tokenId","type":"uint256","internalType":"uint256"}]},{"type":"error","name":"EnforcedPause","inputs":[]},{"type":"error","name":"ExpectedPause","inputs":[]},{"type":"error","name":"InvalidInitialization","inputs":[]},{"type":"error","name":"NotInitializing","inputs":[]},{"type":"error","name":"OwnableInvalidOwner","inputs":[{"name":"owner","type":"address","internalType":"address"}]},{"type":"error","name":"OwnableUnauthorizedAccount","inputs":[{"name":"account","type":"address","internalType":"address"}]},{"type":"error","name":"ReentrancyGuardReentrantCall","inputs":[]}],"bytecode":{"object":"0x60808060405234620000bd577ff0c57e16840df040f15088dc2f81fe391c3923bec73e23a9662efc9c229c6a009081549060ff8260401c16620000ae57506001600160401b036002600160401b03198282160162000068575b6040516140849081620000c28239f35b6001600160401b031990911681179091556040519081527fc7f505b2f371ae2175ee4913f4499e1f2633a7b5936321eed1cdaeb6115181d290602090a15f808062000058565b63f92ee8a960e01b8152600490fd5b5f80fdfe6080806040526004361015610048575b50361561001a575f80fd5b6040513481527f88a5966d370b9919b20f3e2c13ff65706f196a4e32cc2c12bf57088f8852587460203392a2005b5f905f3560e01c90816301ffc9a7146130ba5750806306fdde0314612ff1578063081812fc14612fa9578063095ea7b314612ec757806309a7ea7b1461298a5780630c0b863314612960578063103fb5d2146129365780631495fa99146128395780631fe543e31461242b57806323b872dd146124145780632a55205a146123e05780632d68b470146123b85780632d872a4814611e6d5780633f4ba83a14611df857806342842e0e14611dcf57806342966c6814611c7757806344d19d2b14611c5a57806355b9d44314611aea57806355f804b3146119e85780635c975abb146119ba578063604de268146117035780636352211e146116d35780636441f8f11461168a5780636a84a9851461166d5780636c0360eb146115b65780636f8b44b01461153d57806370a08231146114e9578063715018a61461148257806375794a3c1461146657806378ba76d51461143257806381d12c58146113e45780638456cb591461137f5780638ad20e69146113555780638da5cb5b146113215780638dccfc6914610f7357806395d89b4114610e725780639b343a0914610e28578063a22cb46514610d7f578063a2309ff814610d41578063a3c6b12714610d12578063a574cea414610be8578063b88d4fde14610b84578063bed62f3514610b22578063c87b56dd14610a7d578063d1a4584014610548578063d5abeb011461052a578063d9852f8d146104b0578063da3f5f5b14610467578063e00a4d2214610438578063e3684e3914610391578063e985e9c514610344578063f2fde38b1461031a578063f6485eea146102cd5763fe8f09c00361000f57346102ca57806003193601126102ca576003546040516001600160a01b039091168152602090f35b80fd5b50346102ca576103176102df3661344e565b90916102e9613ecc565b60018060a01b03168452600c60205260408420908452602052604083209060ff801983541691151516179055565b80f35b50346102ca5760203660031901126102ca57610317610337613197565b61033f613ecc565b613bed565b50346102ca5760403660031901126102ca5761035e613197565b61036f6103696131ad565b9161333c565b9060018060a01b03165f52602052602060ff60405f2054166040519015158152f35b50346102ca5760203660031901126102ca5760406103fb916004358152600d602052206103bd816133ac565b906103ca600182016133ac565b6104176103d9600284016133ac565b610409600460038601549501549360405197889760c0895260c0890190613159565b908782036020890152613159565b908582036040870152613159565b916001600160601b038116606085015260601c608084015260a08301520390f35b50346102ca5760203660031901126102ca5760ff60406020926004358152600e84522054166040519015158152f35b50346102ca5760403660031901126102ca5760209060ff906040906001600160a01b03610492613197565b168152600c8452818120602435825284522054166040519015158152f35b50346102ca5760203660031901126102ca576004356104ce81613c1d565b505f80516020613f8f833981519152546104fd90336001600160a01b0391821614908115610516575b5061351c565b8152600e60205260408120805460ff1916600117905580f35b905061052183613c1d565b1633145f6104f7565b50346102ca57806003193601126102ca576020600154604051908152f35b50346102ca57600319906040368301126102ca57610564613197565b90602435926001600160401b038411610a795760c09084360301126102ca5760405192610590846131c3565b80600401356001600160401b038111610a75576105b3906004369184010161326b565b845260248101356001600160401b038111610a75576105d8906004369184010161326b565b602085015260448101356001600160401b038111610a7557610600906004369184010161326b565b604085015260648101356001600160601b0381168103610a715760608501526084810135906001600160a01b0382168203610a715760a4916080860152013560a08401528054338252600b6020526040822090825260205260ff6040822054168015610a51575b610670906139e5565b610678613e73565b610680613e9d565b60808301516001600160a01b031615610a0c578054916106a4600154841115613a23565b6106ad836135e7565b82556106b98382613cb7565b828252600660205260408220600160ff19825416179055600d602052604082209380518051906001600160401b03821161092257610701826106fb8954613374565b896134e4565b602090601f83116001146109a4576107309291869183610896575b50508160011b915f199060031b1c19161790565b85555b60208101518051906001600160401b038211610922576107638261075a60018a0154613374565b60018a016134e4565b602090601f83116001146109365761079192918691836108965750508160011b915f199060031b1c19161790565b60018601555b60408101519485516001600160401b038111610922576020966107ca826107c16002860154613374565b600286016134e4565b8790601f83116001146108a1575f80516020613faf833981519152959361080f8460a095608098956004958c926108965750508160011b915f199060031b1c19161790565b60028201555b606083810151878501515f196001881b011690911b6001600160601b0319166001600160601b039190911617600382015583830151918291015587875260088952604087205501516040519486865286888701526040860152606085015260018060a01b031692a260015f8051602061400f83398151915255604051908152f35b015190505f8061071c565b9060028401875288872091875b601f198516811061090b575093600184608097946004945f80516020613faf8339815191529a9860a098601f198116106108f3575b505050811b016002820155610815565b01515f1960f88460031b161c191690555f80806108e3565b91928a6001819286850151815501940192016108ae565b634e487b7160e01b85526041600452602485fd5b9190600188018652602086209086935b601f1984168510610989576001945083601f19811610610971575b505050811b016001860155610797565b01515f1960f88460031b161c191690555f8080610961565b81810151835560209485019460019093019290910190610946565b9190878652602086209086935b601f19841685106109f1576001945083601f198116106109d9575b505050811b018555610733565b01515f1960f88460031b161c191690555f80806109cc565b818101518355602094850194600190930192909101906109b1565b60405162461bcd60e51b815260206004820152601860248201527f496e76616c696420726f79616c747920726563656976657200000000000000006044820152606490fd5b505f80516020613f8f833981519152546001600160a01b03163314610667565b5f80fd5b8280fd5b5080fd5b50346102ca5760203660031901126102ca576040610b1e91600435610aa181613c1d565b508152600d60205220604051610ab6816131c3565b610abf826133ac565b8152610acd600183016133ac565b602082015260a06004610ae2600285016133ac565b9384604085015260038101546001600160601b038116606086015260601c60808501520154910152604051918291602083526020830190613159565b0390f35b50346102ca5760203660031901126102ca57600435610b4081613c1d565b505f80516020613f8f83398151915254610b6e90336001600160a01b0391821614908115610516575061351c565b8152600e60205260408120805460ff1916905580f35b50346102ca5760803660031901126102ca57610b9e613197565b610ba66131ad565b606435916001600160401b038311610be45736602384011215610be457610bda610317933690602481600401359101613235565b9160443591613a71565b8380fd5b50346102ca57602080600319360112610a79576040805192600435610c0c856131c3565b8160a06060968781528787820152878682015282888201528260808201520152610c3581613c1d565b508152600d83522060405192610c4a846131c3565b610c53826133ac565b8452610c61600183016133ac565b838501908152610c73600284016133ac565b9060408601918252610cf16003850154926001600160601b03926004868a0197858716895260808b0196881c875201549560a08a01968752610ce1610ccb8a60c06040519d8e9d8e5251918d015260e08c0190613159565b925192601f1993848c83030160408d0152613159565b9251918984030190890152613159565b9351166080850152516001600160a01b031660a08401525160c08301520390f35b50346102ca5760203660031901126102ca5760ff60406020926004358152600684522054166040519015158152f35b50346102ca57806003193601126102ca5780545f19810191908211610d6b57602082604051908152f35b634e487b7160e01b81526011600452602490fd5b50346102ca5760403660031901126102ca57610d99613197565b6024359081151590818303610a71576001600160a01b0316918215610e0f57610de090610dc53361333c565b845f5260205260405f209060ff801983541691151516179055565b6040519081527f17307eab39ab6107e8899845ad3d59bd9653f200f220920489ca2b5937696c3160203392a380f35b604051630b61174360e31b815260048101849052602490fd5b50346102ca57610317610e3a3661344e565b9091610e44613ecc565b60018060a01b03168452600b60205260408420908452602052604083209060ff801983541691151516179055565b50346102ca57806003193601126102ca576040517f80bb2b638cc20bc4d0a60d66940f3ab4a00c1d7b313497ca82fb0b4ab00793018054825f610eb483613374565b92838352602094600191866001821691825f14610f51575050600114610ef7575b5050610ee3925003836131f9565b610b1e604051928284938452830190613159565b8592505f527ff4bad0a69248f59680a4f2b3000328cec71a413447c96781cfe5996daa8c456e905f915b858310610f39575050610ee393508201018580610ed5565b80548389018501528794508693909201918101610f21565b9250935050610ee394915060ff191682840152151560051b8201018580610ed5565b5034610a71576060366003190112610a7157610f8d613197565b6024356001600160401b038111610a7157610fac903690600401613289565b610fb4613e73565b610fbc613e9d565b5f5b8181106112c05750801561128257610fd96044355f54613a64565b610fe66005548092613a64565b5f1981019190821161126e5761100361100c926001541015613a23565b60443590613a64565b60055561101a6004546135e7565b908160045560405193608085018581106001600160401b03821117611210576040526001600160a01b031680855260443560208601529361105a82613559565b61106760405191826131f9565b82815260208101368460051b870111610a715785905b8460051b8701821061125e5750506040820190815260608201905f8252845f52600f602052602060405f209360018060a01b038151166001600160601b0360a01b86541617855501516001840155600283019051908151916001600160401b03831161121057680100000000000000008311611210576020908254848455808510611243575b5001905f5260205f205f5b83811061122f57505050509060036111369251151591019060ff801983541691151516179055565b6010546001600160a01b0316803b15610a71575f8091604460405180948193631b739ef160e01b8352886004840152833560248401525af18015611224576111f4575b50604080519283526044356020840152606090830181905282018190526001600160fb1b0381116111f05781817fd6b1e2266ea2925e60676b4f379eee486e4dadb414d434b018703847198d813f9460809360051b908484013760051b8101030190a260015f8051602061400f8339815191525580f35b8480fd5b9094506001600160401b038111611210576040525f935f611179565b634e487b7160e01b5f52604160045260245ffd5b6040513d5f823e3d90fd5b60019060208451940193818401550161110e565b61125890845f5285845f209182019101613481565b5f611103565b813581526020918201910161107d565b634e487b7160e01b5f52601160045260245ffd5b60405162461bcd60e51b8152602060048201526016602482015275139bc81b585cdd195c8812511cc81c1c9bdd9a59195960521b6044820152606490fd5b600190335f526020600b815260405f20906112dc838688613570565b355f525260ff60405f20541680156112fe575b6112f8906139e5565b01610fbe565b506112f8828060a01b035f80516020613f8f8339815191525416331490506112ef565b34610a71575f366003190112610a71575f80516020613f8f833981519152546040516001600160a01b039091168152602090f35b34610a71576020366003190112610a71576004355f52600a602052602060405f2054604051908152f35b34610a71575f366003190112610a7157611397613ecc565b61139f613e73565b5f80516020613fcf833981519152600160ff198254161790557f62e78cea01bee320cd4e420270b5ea74000d11b0c9f74754ebdbfc544b05a2586020604051338152a1005b34610a71576020366003190112610a71576004355f52600f602052606060405f2060018060a01b038154169060ff600360018301549201541690604051928352602083015215156040820152f35b34610a7157611440366132ee565b905f52600960205260405f20905f52602052602060ff60405f2054166040519015158152f35b34610a71575f366003190112610a715760205f54604051908152f35b34610a71575f366003190112610a715761149a613ecc565b5f80516020613f8f83398151915280546001600160a01b031981169091555f906001600160a01b03167f8be0079c531659141344cd1fd0a4f28419497f9722a3daafe3b4186f6b6457e08280a3005b34610a71576020366003190112610a7157611502613197565b6001600160a01b038116156115255761151c602091613304565b54604051908152f35b6040516322718ad960e21b81525f6004820152602490fd5b34610a71576020366003190112610a7157600435611559613ecc565b5f545f19810190811161126e57811061157157600155005b60405162461bcd60e51b815260206004820152601b60248201527f43616e6e6f7420736574206c657373207468616e206d696e74656400000000006044820152606490fd5b34610a71575f366003190112610a71576040516002545f826115d783613374565b91828252602093600190856001821691825f1461164d575050600114611605575b50610ee3925003836131f9565b84915060025f525f80516020613f6f833981519152905f915b858310611635575050610ee39350820101856115f8565b8054838901850152879450869390920191810161161e565b60ff191685820152610ee395151560051b85010192508791506115f89050565b34610a71575f366003190112610a71576020600454604051908152f35b34610a71576040366003190112610a71576001600160a01b036116ab613197565b165f52600b60205260405f206024355f52602052602060ff60405f2054166040519015158152f35b34610a71576020366003190112610a715760206116f1600435613c1d565b6040516001600160a01b039091168152f35b34610a71576080366003190112610a715761171c613197565b335f52600b60205260405f206044355f5260205260ff60405f205416801561199a575b611748906139e5565b611750613e73565b611758613e9d565b6064356117686024355f54613a64565b5f19810190811161126e57611781906001541015613a23565b6044355f52600660205261179b60ff60405f2054166135a8565b5f5b60243581106117b95760015f8051602061400f83398151915255005b5f546117c4816135e7565b5f556117d08185613cb7565b805f52600660205260405f2060ff198154169055600a60205260443560405f20555f925b6044355f52600960205260405f20815f5260205260ff60405f205416156118735760018091019301936103e885101561182e5793926117f4565b60405162461bcd60e51b815260206004820152601f60248201527f5072696e74206e756d626572207363616e206c696d69742072656163686564006044820152606490fd5b925090600191805f5260076020528360405f20556044355f52600960205260405f20845f5260205260405f208360ff198254161790556044355f52600d8060205260405f20825f5260405f2090808203611933575b50506044355f526020525f80516020613faf83398151915261192a600460405f200154835f5260086020528060405f205560405191829188888060a01b038b169660443590859094939260609260808301968352602083015260408201520152565b0390a20161179d565b6004816119418293856135f5565b61194f8882018986016135f5565b61195f60028083019086016135f5565b6003818101805491860180546001600160601b039093166001600160601b0319938416811782559154909216179055015491015586806118c8565b505f80516020613f8f833981519152546001600160a01b0316331461173f565b34610a71575f366003190112610a7157602060ff5f80516020613fcf83398151915254166040519015158152f35b34610a7157602080600319360112610a71576001600160401b03600435818111610a7157611a1a90369060040161326b565b91611a23613ecc565b825191821161121057611a4082611a3b600254613374565b613497565b602090601f8311600114611a7f57508190611a6f935f92611a745750508160011b915f199060031b1c19161790565b600255005b01519050838061071c565b90601f1983169360025f525f80516020613f6f833981519152925f905b868210611ad25750508360019510611aba575b505050811b01600255005b01515f1960f88460031b161c19169055828080611aaf565b80600185968294968601518155019501930190611a9c565b34610a7157602080600319360112610a715760043590611b08613e9d565b815f52600a815260405f2054335f52600c825260405f20905f52815260ff60405f2054168015611c3a575b15611c0257611b40613e73565b611b4982613c1d565b50815f526008815260405f205415611bca57815f526008815260405f2091825491821561126e577f1f578273dff496d7ffbd4ee7e1a35b80c7e32ea1d3c7a2f2a0e9698a54cd762a936060935f19019055815f526008815260405f205490604051928352820152426040820152a160015f8051602061400f83398151915255005b6064906040519062461bcd60e51b8252600482015260116024820152704e6f2072656d61696e696e67207573657360781b6044820152fd5b6064906040519062461bcd60e51b825260048201526011602482015270139bc81058d8d95cdcc81d1bc8195a591d607a1b6044820152fd5b505f80516020613f8f833981519152546001600160a01b03163314611b33565b34610a71575f366003190112610a71576020600554604051908152f35b34610a71576020366003190112610a7157600435805f525f80516020613fef8339815191528060205260018060a01b03908160405f205416913315159081611d21575b5050905f9181611d03575b8383526020526040822080546001600160a01b03191690557fddf252ad1be2c89b69c2b068fc378daa952ba7f163c4a11628f55a4df523b3ef8280a4005b611d0c84613f04565b611d1582613304565b83198154019055611cc5565b81611d71575b5015611d34578380611cba565b50611d515760249060405190637e27328960e01b82526004820152fd5b60405163177e802f60e01b81523360048201526024810191909152604490fd5b33841491508115611db0575b8115611d8b575b5084611d27565b9050835f525f8051602061402f833981519152602052339060405f2054161484611d84565b9050611dbb8361333c565b335f5260205260ff60405f20541690611d7d565b34610a7157611df6611de0366132b9565b9060405192611dee846131de565b5f8452613a71565b005b34610a71575f366003190112610a7157611e10613ecc565b5f80516020613fcf833981519152805460ff811615611e5b5760ff191690557f5db9ee0a495bf2e6ff9c91a7834c1ba4fdd244a5e8aa4e537bd38aeae4b073aa6020604051338152a1005b604051638dfc202b60e01b8152600490fd5b34610a71576080366003190112610a7157611e86613197565b6064356001600160401b038111610a7157611ea590369060040161326b565b90335f52600b60205260405f206024355f5260205260ff60405f2054168015612398575b611ed2906139e5565b611eda613e73565b611ee2613e9d565b5f5490611ef3600154831115613a23565b6024355f526006602052611f0d60ff60405f2054166135a8565b6024355f52600960205260405f206044355f5260205260ff60405f20541661235357611f38826135e7565b5f55611f448282613cb7565b815f52600660205260405f2060ff198154169055600a60205260243560405f2055600760205260443560405f20556024355f52600d60205260405f2092600460405194611f90866131c3565b611f99816133ac565b8652611fa7600182016133ac565b6020870152611fb8600282016133ac565b5060038101546001600160601b038116606088015260601c6080870152015460a08501526040840152815f52600d60205260405f209280518051906001600160401b038211611210576120158261200f8854613374565b886134e4565b602090601f83116001146122eb5761204392915f91836122725750508160011b915f199060031b1c19161790565b84555b60208101518051906001600160401b038211611210576120768261206d6001890154613374565b600189016134e4565b602090601f831160011461227d576120a492915f91836122725750508160011b915f199060031b1c19161790565b60018501555b60408101519384516001600160401b038111611210576020956120d4826107c16002860154613374565b8690601f83116001146121f8579180612112925f80516020613faf8339815191529695945f926121ed5750508160011b915f199060031b1c19161790565b60028201555b606080830151608084015190911b6001600160601b0319166001600160601b03919091161760038201556001600160a01b039160049060a001519101556024355f526009855260405f206044355f52855260405f20600160ff198254161790556024355f52600d8552600460405f200154845f526008865260405f2055600d8552600460405f200154926121d1604051928392169460443560243588859094939260609260808301968352602083015260408201520152565b0390a260015f8051602061400f83398151915255604051908152f35b01519050898061071c565b90600284015f52875f20915f5b601f198516811061225b57509183916001935f80516020613faf833981519152979695601f19811610612243575b505050811b016002820155612118565b01515f1960f88460031b161c19169055888080612233565b919289600181928685015181550194019201612205565b01519050878061071c565b9190600187015f5260205f20905f935b601f19841685106122d0576001945083601f198116106122b8575b505050811b0160018501556120aa565b01515f1960f88460031b161c191690558680806122a8565b8181015183556020948501946001909301929091019061228d565b9190865f5260205f20905f935b601f1984168510612338576001945083601f19811610612320575b505050811b018455612046565b01515f1960f88460031b161c19169055868080612313565b818101518355602094850194600190930192909101906122f8565b60405162461bcd60e51b815260206004820152601b60248201527f5072696e74206e756d62657220616c72656164792065786973747300000000006044820152606490fd5b505f80516020613f8f833981519152546001600160a01b03163314611ec9565b34610a71575f366003190112610a71576010546040516001600160a01b039091168152602090f35b34610a71576123f76123f1366132ee565b9061393b565b604080516001600160a01b03939093168352602083019190915290f35b34610a7157611df6612425366132b9565b91613770565b34610a71576040366003190112610a71576024356001600160401b038111610a715761245b903690600401613289565b6010546001600160a01b03919082163303612805576004355f52600f60205260405f209160ff6003840154166127cc578254168015612795576040518081602060028701549283815201600287015f5260205f20925f5b81811061277c5750506124c7925003826131f9565b6001840154926124d684613559565b956124e460405197886131f9565b8487526124f085613559565b601f190136602089013760055485810390811161126e5760059594939295555f935b8085106125935787876003600160ff198284015416179101556040516040810160043582526040602083015282518091526020606083019301905f5b81811061257d577f2a921b8ba8f59378d365219a18a8096264af78d4f1278bdee7afdf4d18321c6984860385a1005b825185526020948501949092019160010161254e565b6125a585878496989a95979994613570565b3585518015612768576125b9910686613594565b5194855f52600698896020526125d560ff60405f2054166135a8565b866125e08a87613594565b525f54996125ed8b6135e7565b5f556125f98b8a613cb7565b8a5f5260205260405f2060ff198154169055600a6020528660405f205560015b875f52600960205260405f20815f5260205260ff60405f2054161561264657612641906135e7565b612619565b88976001949992969b6126f45f80516020613faf833981519152939c9599979c825f5260076020528060405f2055835f52600960205260405f20815f5260205260405f208860ff19825416179055835f52600d60205260405f20835f5260405f2090808203612701575b5050835f52600d602052600460405f20015490835f5260086020528160405f2055604051948594859094939260609260808301968352602083015260408201520152565b0390a20193929194612512565b60048161270f8293856135f5565b61271d8c82018d86016135f5565b61272d60028201600286016135f5565b6003818101805491860180546001600160601b039093166001600160601b031993841681178255915490921617905501549101558f806126b0565b634e487b7160e01b5f52601260045260245ffd5b84548352600194850194869450602090930192016124b2565b60405162461bcd60e51b815260206004820152600f60248201526e125b9d985b1a59081c995c5d595cdd608a1b6044820152606490fd5b60405162461bcd60e51b8152602060048201526011602482015270105b1c9958591e48199d5b199a5b1b1959607a1b6044820152606490fd5b60405162461bcd60e51b815260206004820152600c60248201526b155b985d5d1a1bdc9a5e995960a21b6044820152606490fd5b34610a71576060366003190112610a71576004356128556131ad565b90604435906001600160601b038216809203610a715761287481613c1d565b505f80516020613f8f833981519152546001600160a01b039081163314801561291e575b6128a19061351c565b8316156128e6575f52600d6020526128d5600360405f20019283906001600160601b0382549181199060601b169116179055565b81546001600160601b031916179055005b60405162461bcd60e51b815260206004820152601060248201526f24b73b30b634b2103932b1b2b4bb32b960811b6044820152606490fd5b506128a18161292c84613c1d565b1633149050612898565b34610a71576020366003190112610a71576004355f526007602052602060405f2054604051908152f35b34610a71576020366003190112610a71576004355f526008602052602060405f2054604051908152f35b34610a715760c0366003190112610a71576001600160401b03600435818111610a71576129bb90369060040161326b565b90602435818111610a71576129d490369060040161326b565b91606435828111610a71576129ed90369060040161326b565b926001600160a01b0390608435908282168203610a715760a435928316809303610a71577ff0c57e16840df040f15088dc2f81fe391c3923bec73e23a9662efc9c229c6a009485549660ff8860401c16159582891698891580612ec0575b6001809b149081612eb6575b159081612ead575b50612e9b5767ffffffffffffffff1981168a17895587612e7c575b506044358955815183811161121057612a9881611a3b600254613374565b6020601f93848311600114612e1157612ac792915f9183612d3f5750508160011b915f199060031b1c19161790565b6002555b612ad3613f2d565b612adb613f2d565b8051838111611210577f80bb2b638cc20bc4d0a60d66940f3ab4a00c1d7b313497ca82fb0b4ab007930091612b108354613374565b848111612dc6575b50602090848311600114612d4a57612b4692915f9183612d3f5750508160011b915f199060031b1c19161790565b90555b8251918211611210577f80bb2b638cc20bc4d0a60d66940f3ab4a00c1d7b313497ca82fb0b4ab007930192612b7e8454613374565b828111612cea575b506020918311600114612c67579180612bb992612bfa9695945f92612c5c5750508160011b915f199060031b1c19161790565b90555b612bc4613f2d565b612bcc613f2d565b855f8051602061400f83398151915255612be4613f2d565b612bec613f2d565b612bf581613bed565b613c63565b612c02613f2d565b6001600160601b0360a01b6010541617601055825f55612c1e57005b805468ff0000000000000000191690556040519081527fc7f505b2f371ae2175ee4913f4499e1f2633a7b5936321eed1cdaeb6115181d290602090a1005b015190508a8061071c565b9392918891601f19821690845f527ff4bad0a69248f59680a4f2b3000328cec71a413447c96781cfe5996daa8c456e915f5b818110612cd257509683612bfa9810612cba575b505050811b019055612bbc565b01515f1960f88460031b161c19169055898080612cad565b8289015184558c959093019260209283019201612c99565b612d3090855f527ff4bad0a69248f59680a4f2b3000328cec71a413447c96781cfe5996daa8c456e8480870160051c82019260208810612d36575b0160051c0190613481565b89612b86565b92508192612d25565b015190508c8061071c565b8b9291601f19831691855f527f37c58c799b6609234b945e882912ee9ad34948a1dfaa20a97485e1a7752bbf81925f5b818110612dae57508411612d96575b505050811b019055612b49565b01515f1960f88460031b161c191690558b8080612d89565b8284015185558f969094019360209384019301612d7a565b612e0b90845f527f37c58c799b6609234b945e882912ee9ad34948a1dfaa20a97485e1a7752bbf818680860160051c82019260208710612d36570160051c0190613481565b8b612b18565b8b9291601f1983169160025f525f80516020613f6f833981519152925f5b818110612e6457508411612e4c575b505050811b01600255612acb565b01515f1960f88460031b161c191690558b8080612e3e565b8284015185558f969094019360209384019301612e2f565b68ffffffffffffffffff19166801000000000000000117885589612a7a565b60405163f92ee8a960e01b8152600490fd5b9050158b612a5f565b303b159150612a57565b5087612a4b565b34610a71576040366003190112610a7157612ee0613197565b602435612eec81613c1d565b33151580612f96575b80612f78575b612f60576001600160a01b039283169282918491167f8c5be1e5ebec7d5bd14f71427d1e84f3dd0314c0f7b2291e5b200ac8c7c3b9255f80a45f9081525f8051602061402f8339815191526020526040902080546001600160a01b0319169091179055005b60405163a9fbf51f60e01b8152336004820152602490fd5b50612f828161333c565b335f5260205260ff60405f20541615612efb565b506001600160a01b038116331415612ef5565b34610a71576020366003190112610a7157600435612fc681613c1d565b505f525f8051602061402f833981519152602052602060018060a01b0360405f205416604051908152f35b34610a71575f366003190112610a71576040517f80bb2b638cc20bc4d0a60d66940f3ab4a00c1d7b313497ca82fb0b4ab00793008054825f61303283613374565b92838352602094600191866001821691825f14610f51575050600114613060575050610ee3925003836131f9565b8592505f527f37c58c799b6609234b945e882912ee9ad34948a1dfaa20a97485e1a7752bbf81905f915b8583106130a2575050610ee393508201018580610ed5565b8054838901850152879450869390920191810161308a565b34610a71576020366003190112610a71576004359063ffffffff60e01b8216809203610a715760209163152a902d60e11b81149081156130fc575b5015158152f35b632483248360e11b811491508115613116575b50836130f5565b6380ac58cd60e01b811491508115613148575b8115613137575b508361310f565b6301ffc9a760e01b14905083613130565b635b5e139f60e01b81149150613129565b91908251928382525f5b848110613183575050825f602080949584010152601f8019910116010190565b602081830181015184830182015201613163565b600435906001600160a01b0382168203610a7157565b602435906001600160a01b0382168203610a7157565b60c081019081106001600160401b0382111761121057604052565b602081019081106001600160401b0382111761121057604052565b90601f801991011681019081106001600160401b0382111761121057604052565b6001600160401b03811161121057601f01601f191660200190565b9291926132418261321a565b9161324f60405193846131f9565b829481845281830111610a71578281602093845f960137010152565b9080601f83011215610a715781602061328693359101613235565b90565b9181601f84011215610a71578235916001600160401b038311610a71576020808501948460051b010111610a7157565b6060906003190112610a71576001600160a01b03906004358281168103610a7157916024359081168103610a71579060443590565b6040906003190112610a71576004359060243590565b6001600160a01b03165f9081527f80bb2b638cc20bc4d0a60d66940f3ab4a00c1d7b313497ca82fb0b4ab00793036020526040902090565b6001600160a01b03165f9081527f80bb2b638cc20bc4d0a60d66940f3ab4a00c1d7b313497ca82fb0b4ab00793056020526040902090565b90600182811c921680156133a2575b602083101461338e57565b634e487b7160e01b5f52602260045260245ffd5b91607f1691613383565b9060405191825f82546133be81613374565b908184526020946001916001811690815f1461342c57506001146133ee575b5050506133ec925003836131f9565b565b5f90815285812095935091905b8183106134145750506133ec93508201015f80806133dd565b855488840185015294850194879450918301916133fb565b925050506133ec94925060ff191682840152151560051b8201015f80806133dd565b6060906003190112610a71576004356001600160a01b0381168103610a7157906024358015158103610a71579060443590565b81811061348c575050565b5f8155600101613481565b90601f82116134a4575050565b6133ec9160025f525f80516020613f6f833981519152906020601f840160051c830193106134da575b601f0160051c0190613481565b90915081906134cd565b9190601f81116134f357505050565b6133ec925f5260205f20906020601f840160051c830193106134da57601f0160051c0190613481565b1561352357565b60405162461bcd60e51b815260206004820152600e60248201526d139bdd08185d5d1a1bdc9a5e995960921b6044820152606490fd5b6001600160401b0381116112105760051b60200190565b91908110156135805760051b0190565b634e487b7160e01b5f52603260045260245ffd5b80518210156135805760209160051b010190565b156135af57565b60405162461bcd60e51b815260206004820152601060248201526f125b9d985b1a59081b585cdd195c925960821b6044820152606490fd5b5f19811461126e5760010190565b908082146136d4576136078154613374565b906001600160401b0382116112105761362a826136248554613374565b856134e4565b5f90601f83116001146136665761365792915f918361365b5750508160011b915f199060031b1c19161790565b9055565b015490505f8061071c565b90601f198316915f5260209160205f2090855f5260205f20935f905b8282106136bb5750509084600195949392106136a3575b505050811b019055565b01545f1960f88460031b161c191690555f8080613699565b8495819295850154815560018091019601940190613682565b5050565b156136df57565b60405162461bcd60e51b815260206004820152601c60248201527f5472616e73666572206c6f636b656420666f722074686973204e4654000000006044820152606490fd5b1561372b57565b60405162461bcd60e51b815260206004820152601960248201527f4e465420686173206e6f2072656d61696e696e672075736573000000000000006044820152606490fd5b91805f526020600e815260409361378d60ff865f205416156136d8565b825f52600882526137a2855f20541515613724565b6001600160a01b039184831690811561392457908491825f525f80516020613fef8339815191529081815285895f205416973315158061387f575b506137ec908961386157613304565b60018154019055835f5252865f20816001600160601b0360a01b825416179055857fddf252ad1be2c89b69c2b068fc378daa952ba7f163c4a11628f55a4df523b3ef5f80a416928383036138405750505050565b6064945051926364283d7b60e01b8452600484015260248301526044820152fd5b61386a86613f04565b6138738a613304565b80545f19019055613304565b80919293949550906138d8575b1561389c5790869392915f6137dd565b8887896138b9576024915190637e27328960e01b82526004820152fd5b905163177e802f60e01b81523360048201526024810191909152604490fd5b503388148015613909575b8061388c5750865f525f8051602061402f833981519152825233868a5f2054161461388c565b506139138861333c565b335f52825260ff895f2054166138e3565b8651633250574960e11b81525f6004820152602490fd5b9190915f52600d60205260405f209160405190613957826131c3565b613960846133ac565b825261396e600185016133ac565b602083015261397f600285016133ac565b604083015260038401549160a060046001600160601b0385169485606085015260601c968760808501520154910152831580156139dd575b6139d35781810291818304149015171561126e57612710900490565b505090505f905f90565b5081156139b7565b156139ec57565b60405162461bcd60e51b815260206004820152600f60248201526e139bdd081dda1a5d195b1a5cdd1959608a1b6044820152606490fd5b15613a2a57565b60405162461bcd60e51b815260206004820152601260248201527145786365656473206d617820737570706c7960701b6044820152606490fd5b9190820180921161126e57565b919091815f52602093600e8552604092613a9160ff855f205416156136d8565b805f5260088652613aa6845f20541515613724565b613ab1818685613770565b843b613ac0575b505050505050565b94809693949560018060a01b0380971696613b0987519485938493630a85bd0160e11b988986523360048701521660248501526044840152608060648401526084830190613159565b03815f895af15f9181613bad575b50613b75575050503d5f14613b6d573d92613b318461321a565b93613b3e835195866131f9565b84523d5f8286013e5b83519384613b67578251633250574960e11b815260048101859052602490fd5b84925001fd5b606092613b47565b9194506001600160e01b031990911603613b965750505f8080808080613ab8565b602492505190633250574960e11b82526004820152fd5b9091508681813d8311613be6575b613bc581836131f9565b81010312610a7157516001600160e01b031981168103610a7157905f613b17565b503d613bbb565b6001600160a01b03811615613c05576133ec90613c63565b604051631e4fbdf760e01b81525f6004820152602490fd5b5f8181525f80516020613fef83398151915260205260409020546001600160a01b0316908115613c4b575090565b60249060405190637e27328960e01b82526004820152fd5b5f80516020613f8f83398151915280546001600160a01b039283166001600160a01b0319821681179092559091167f8be0079c531659141344cd1fd0a4f28419497f9722a3daafe3b4186f6b6457e05f80a3565b6040805192613cc5846131de565b5f84526001600160a01b0393838516938415613e5c57825f525f80516020613fef8339815191528386602098838a52875f2054168015159384613e3e575b613d0c86613304565b60018154019055835f528a52875f20826001600160601b0360a01b8254161790557fddf252ad1be2c89b69c2b068fc378daa952ba7f163c4a11628f55a4df523b3ef5f80a4613e27573b613d62575b5050505050565b84613d9f9184959697945180938192630a85bd0160e11b968784523360048501525f60248501526044840152608060648401526084830190613159565b03815f895af15f9181613de7575b50613dc7575050503d5f14613b6d573d92613b318461321a565b9194506001600160e01b031990911603613b965750505f80808080613d5b565b9091508681813d8311613e20575b613dff81836131f9565b81010312610a7157516001600160e01b031981168103610a7157905f613dad565b503d613df5565b83516339e3563760e11b81525f6004820152602490fd5b613e4784613f04565b613e5082613304565b80545f19019055613d03565b8351633250574960e11b81525f6004820152602490fd5b60ff5f80516020613fcf8339815191525416613e8b57565b60405163d93c066560e01b8152600490fd5b5f8051602061400f8339815191526002815414613eba5760029055565b604051633ee5aeb560e01b8152600490fd5b5f80516020613f8f833981519152546001600160a01b03163303613eec57565b60405163118cdaa760e01b8152336004820152602490fd5b5f525f8051602061402f83398151915260205260405f206001600160601b0360a01b8154169055565b60ff7ff0c57e16840df040f15088dc2f81fe391c3923bec73e23a9662efc9c229c6a005460401c1615613f5c57565b604051631afcd79f60e31b8152600490fdfe405787fa12a823e0f2b7631cc41b3ba8828b3321ca811111fa75cd3aa3bb5ace9016d09d72d40fdae2fd8ceac6b6234c7706214fd39c1cd1e609a0528c199300060b3ebf0f3fed8201b43b0e7e834e2148fb17ec1489260bffb34e430cca9872cd5ed15c6e187e77e9aee88184c21f4f2182ab5827cb3b7e07fbedcd63f0330080bb2b638cc20bc4d0a60d66940f3ab4a00c1d7b313497ca82fb0b4ab00793029b779b17422d0df92223018b32b4d1fa46e071723d6817e2486d003becc55f0080bb2b638cc20bc4d0a60d66940f3ab4a00c1d7b313497ca82fb0b4ab0079304a2646970667358221220d9e6b5cb8de2c99b3f2378560fcc759cb718c71a4f28e8e870ef6f8e55499f1f64736f6c63430008170033","linkReferences":{}},"methodIdentifiers":{"approve(address,uint256)":"095ea7b3","balanceOf(address)":"70a08231","baseURI()":"6c0360eb","burn(uint256)":"42966c68","editer()":"fe8f09c0","fromMaster(uint256)":"8ad20e69","getApproved(uint256)":"081812fc","getMetadata(uint256)":"a574cea4","initialize(string,string,uint256,string,address,address)":"09a7ea7b","isApprovedForAll(address,address)":"e985e9c5","isEditer(address,uint256)":"da3f5f5b","isMaster(uint256)":"a3c6b127","isPrintExist(uint256,uint256)":"78ba76d5","isWhiteListed(address,uint256)":"6441f8f1","lockTransfer(uint256)":"d9852f8d","maxSupply()":"d5abeb01","metadata(uint256)":"e3684e39","mintBatchPrintEditionByOrder(address,uint256,uint256,uint256)":"604de268","mintBatchPrintEditionRandomMasters(address,uint256[],uint256)":"8dccfc69","mintMaster(address,(string,string,string,uint96,address,uint256))":"d1a45840","mintPrintEdition(address,uint256,uint256,string)":"2d872a48","name()":"06fdde03","nextRequestId()":"6a84a985","nextTokenId()":"75794a3c","owner()":"8da5cb5b","ownerOf(uint256)":"6352211e","pause()":"8456cb59","paused()":"5c975abb","printEditionNumber(uint256)":"103fb5d2","rawFulfillRandomWords(uint256,uint256[])":"1fe543e3","remainingUses(uint256)":"0c0b8633","renounceOwnership()":"715018a6","requests(uint256)":"81d12c58","reservedSupply()":"44d19d2b","royaltyInfo(uint256,uint256)":"2a55205a","safeTransferFrom(address,address,uint256)":"42842e0e","safeTransferFrom(address,address,uint256,bytes)":"b88d4fde","setApprovalForAll(address,bool)":"a22cb465","setBaseURI(string)":"55f804b3","setEditer(address,bool,uint256)":"f6485eea","setMaxSupply(uint256)":"6f8b44b0","setRoyaltyInfo(uint256,address,uint96)":"1495fa99","setWhiteList(address,bool,uint256)":"9b343a09","supportsInterface(bytes4)":"01ffc9a7","symbol()":"95d89b41","tokenURI(uint256)":"c87b56dd","totalMinted()":"a2309ff8","transferFrom(address,address,uint256)":"23b872dd","transferLocked(uint256)":"e00a4d22","transferOwnership(address)":"f2fde38b","unlockTransfer(uint256)":"bed62f35","unpause()":"3f4ba83a","useNFT(uint256)":"55b9d443","vrfPod()":"2d68b470"},"id":79}